{
  "_format": "hh-sol-artifact-1",
  "contractName": "CustomNFTMock",
  "sourceName": "contracts/test/CustomNFTMock.sol",
  "abi": [
    {
      "inputs": [
        {
          "internalType": "string",
          "name": "name_",
          "type": "string"
        },
        {
          "internalType": "string",
          "name": "symbol_",
          "type": "string"
        }
      ],
      "stateMutability": "nonpayable",
      "type": "constructor"
    },
    {
      "anonymous": false,
      "inputs": [
        {
          "indexed": true,
          "internalType": "address",
          "name": "owner",
          "type": "address"
        },
        {
          "indexed": true,
          "internalType": "address",
          "name": "approved",
          "type": "address"
        },
        {
          "indexed": true,
          "internalType": "uint256",
          "name": "tokenId",
          "type": "uint256"
        }
      ],
      "name": "Approval",
      "type": "event"
    },
    {
      "anonymous": false,
      "inputs": [
        {
          "indexed": true,
          "internalType": "address",
          "name": "owner",
          "type": "address"
        },
        {
          "indexed": true,
          "internalType": "address",
          "name": "operator",
          "type": "address"
        },
        {
          "indexed": false,
          "internalType": "bool",
          "name": "approved",
          "type": "bool"
        }
      ],
      "name": "ApprovalForAll",
      "type": "event"
    },
    {
      "anonymous": false,
      "inputs": [
        {
          "indexed": true,
          "internalType": "address",
          "name": "previousOwner",
          "type": "address"
        },
        {
          "indexed": true,
          "internalType": "address",
          "name": "newOwner",
          "type": "address"
        }
      ],
      "name": "OwnershipTransferred",
      "type": "event"
    },
    {
      "anonymous": false,
      "inputs": [
        {
          "indexed": true,
          "internalType": "address",
          "name": "from",
          "type": "address"
        },
        {
          "indexed": true,
          "internalType": "address",
          "name": "to",
          "type": "address"
        },
        {
          "indexed": true,
          "internalType": "uint256",
          "name": "tokenId",
          "type": "uint256"
        }
      ],
      "name": "Transfer",
      "type": "event"
    },
    {
      "inputs": [
        {
          "internalType": "address",
          "name": "to",
          "type": "address"
        },
        {
          "internalType": "uint256",
          "name": "tokenId",
          "type": "uint256"
        }
      ],
      "name": "approve",
      "outputs": [],
      "stateMutability": "nonpayable",
      "type": "function"
    },
    {
      "inputs": [
        {
          "internalType": "address",
          "name": "owner",
          "type": "address"
        }
      ],
      "name": "balanceOf",
      "outputs": [
        {
          "internalType": "uint256",
          "name": "",
          "type": "uint256"
        }
      ],
      "stateMutability": "view",
      "type": "function"
    },
    {
      "inputs": [
        {
          "internalType": "uint256",
          "name": "tokenId",
          "type": "uint256"
        }
      ],
      "name": "getApproved",
      "outputs": [
        {
          "internalType": "address",
          "name": "",
          "type": "address"
        }
      ],
      "stateMutability": "view",
      "type": "function"
    },
    {
      "inputs": [
        {
          "internalType": "address",
          "name": "owner",
          "type": "address"
        },
        {
          "internalType": "address",
          "name": "operator",
          "type": "address"
        }
      ],
      "name": "isApprovedForAll",
      "outputs": [
        {
          "internalType": "bool",
          "name": "",
          "type": "bool"
        }
      ],
      "stateMutability": "view",
      "type": "function"
    },
    {
      "inputs": [
        {
          "internalType": "address",
          "name": "to",
          "type": "address"
        },
        {
          "internalType": "uint256",
          "name": "count",
          "type": "uint256"
        }
      ],
      "name": "mint",
      "outputs": [],
      "stateMutability": "nonpayable",
      "type": "function"
    },
    {
      "inputs": [],
      "name": "name",
      "outputs": [
        {
          "internalType": "string",
          "name": "",
          "type": "string"
        }
      ],
      "stateMutability": "view",
      "type": "function"
    },
    {
      "inputs": [],
      "name": "owner",
      "outputs": [
        {
          "internalType": "address",
          "name": "",
          "type": "address"
        }
      ],
      "stateMutability": "view",
      "type": "function"
    },
    {
      "inputs": [
        {
          "internalType": "uint256",
          "name": "tokenId",
          "type": "uint256"
        }
      ],
      "name": "ownerOf",
      "outputs": [
        {
          "internalType": "address",
          "name": "",
          "type": "address"
        }
      ],
      "stateMutability": "view",
      "type": "function"
    },
    {
      "inputs": [],
      "name": "renounceOwnership",
      "outputs": [],
      "stateMutability": "nonpayable",
      "type": "function"
    },
    {
      "inputs": [
        {
          "internalType": "address",
          "name": "from",
          "type": "address"
        },
        {
          "internalType": "address",
          "name": "to",
          "type": "address"
        },
        {
          "internalType": "uint256",
          "name": "tokenId",
          "type": "uint256"
        }
      ],
      "name": "safeTransferFrom",
      "outputs": [],
      "stateMutability": "nonpayable",
      "type": "function"
    },
    {
      "inputs": [
        {
          "internalType": "address",
          "name": "from",
          "type": "address"
        },
        {
          "internalType": "address",
          "name": "to",
          "type": "address"
        },
        {
          "internalType": "uint256",
          "name": "tokenId",
          "type": "uint256"
        },
        {
          "internalType": "bytes",
          "name": "data",
          "type": "bytes"
        }
      ],
      "name": "safeTransferFrom",
      "outputs": [],
      "stateMutability": "nonpayable",
      "type": "function"
    },
    {
      "inputs": [
        {
          "internalType": "address",
          "name": "operator",
          "type": "address"
        },
        {
          "internalType": "bool",
          "name": "approved",
          "type": "bool"
        }
      ],
      "name": "setApprovalForAll",
      "outputs": [],
      "stateMutability": "nonpayable",
      "type": "function"
    },
    {
      "inputs": [
        {
          "internalType": "address",
          "name": "marketplace",
          "type": "address"
        }
      ],
      "name": "setMarketplace",
      "outputs": [],
      "stateMutability": "nonpayable",
      "type": "function"
    },
    {
      "inputs": [
        {
          "internalType": "uint256",
          "name": "tokenId",
          "type": "uint256"
        },
        {
          "internalType": "string",
          "name": "uri",
          "type": "string"
        }
      ],
      "name": "setTokenURI",
      "outputs": [],
      "stateMutability": "nonpayable",
      "type": "function"
    },
    {
      "inputs": [
        {
          "internalType": "bytes4",
          "name": "interfaceId",
          "type": "bytes4"
        }
      ],
      "name": "supportsInterface",
      "outputs": [
        {
          "internalType": "bool",
          "name": "",
          "type": "bool"
        }
      ],
      "stateMutability": "view",
      "type": "function"
    },
    {
      "inputs": [],
      "name": "symbol",
      "outputs": [
        {
          "internalType": "string",
          "name": "",
          "type": "string"
        }
      ],
      "stateMutability": "view",
      "type": "function"
    },
    {
      "inputs": [
        {
          "internalType": "uint256",
          "name": "tokenId",
          "type": "uint256"
        }
      ],
      "name": "tokenURI",
      "outputs": [
        {
          "internalType": "string",
          "name": "",
          "type": "string"
        }
      ],
      "stateMutability": "view",
      "type": "function"
    },
    {
      "inputs": [
        {
          "internalType": "address",
          "name": "from",
          "type": "address"
        },
        {
          "internalType": "address",
          "name": "to",
          "type": "address"
        },
        {
          "internalType": "uint256",
          "name": "tokenId",
          "type": "uint256"
        }
      ],
      "name": "transferFrom",
      "outputs": [],
      "stateMutability": "nonpayable",
      "type": "function"
    },
    {
      "inputs": [
        {
          "internalType": "address",
          "name": "newOwner",
          "type": "address"
        }
      ],
      "name": "transferOwnership",
      "outputs": [],
      "stateMutability": "nonpayable",
      "type": "function"
    }
  ],
  "bytecode": "0x60806040523480156200001157600080fd5b5060405162001c5b38038062001c5b833981016040819052620000349162000237565b8151829082906200004d906000906020850190620000de565b50805162000063906001906020840190620000de565b505050620000806200007a6200008860201b60201c565b6200008c565b5050620002f1565b3390565b600780546001600160a01b038381166001600160a01b0319831681179093556040519116919082907f8be0079c531659141344cd1fd0a4f28419497f9722a3daafe3b4186f6b6457e090600090a35050565b828054620000ec906200029e565b90600052602060002090601f0160209004810192826200011057600085556200015b565b82601f106200012b57805160ff19168380011785556200015b565b828001600101855582156200015b579182015b828111156200015b5782518255916020019190600101906200013e565b50620001699291506200016d565b5090565b5b808211156200016957600081556001016200016e565b600082601f83011262000195578081fd5b81516001600160401b0380821115620001b257620001b2620002db565b604051601f8301601f19908116603f01168101908282118183101715620001dd57620001dd620002db565b81604052838152602092508683858801011115620001f9578485fd5b8491505b838210156200021c5785820183015181830184015290820190620001fd565b838211156200022d57848385830101525b9695505050505050565b600080604083850312156200024a578182fd5b82516001600160401b038082111562000261578384fd5b6200026f8683870162000184565b9350602085015191508082111562000285578283fd5b50620002948582860162000184565b9150509250929050565b600181811c90821680620002b357607f821691505b60208210811415620002d557634e487b7160e01b600052602260045260246000fd5b50919050565b634e487b7160e01b600052604160045260246000fd5b61195a80620003016000396000f3fe608060405234801561001057600080fd5b50600436106101215760003560e01c806370a08231116100ad578063a22cb46511610071578063a22cb46514610257578063b88d4fde1461026a578063c87b56dd1461027d578063e985e9c514610290578063f2fde38b146102cc57600080fd5b806370a0823114610202578063715018a61461022357806373ad6c2d1461022b5780638da5cb5b1461023e57806395d89b411461024f57600080fd5b8063162094c4116100f4578063162094c4146101a357806323b872dd146101b657806340c10f19146101c957806342842e0e146101dc5780636352211e146101ef57600080fd5b806301ffc9a71461012657806306fdde031461014e578063081812fc14610163578063095ea7b31461018e575b600080fd5b610139610134366004611600565b6102df565b60405190151581526020015b60405180910390f35b610156610331565b6040516101459190611740565b610176610171366004611638565b6103c3565b6040516001600160a01b039091168152602001610145565b6101a161019c3660046115d7565b6103ea565b005b6101a16101b1366004611650565b610505565b6101a16101c43660046114e9565b610513565b6101a16101d73660046115d7565b610544565b6101a16101ea3660046114e9565b6106a4565b6101766101fd366004611638565b6106bf565b61021561021036600461149d565b61071f565b604051908152602001610145565b6101a16107a5565b6101a161023936600461149d565b6107b9565b6007546001600160a01b0316610176565b610156610839565b6101a161026536600461159d565b610848565b6101a1610278366004611524565b610853565b61015661028b366004611638565b61088b565b61013961029e3660046114b7565b6001600160a01b03918216600090815260056020908152604080832093909416825291909152205460ff1690565b6101a16102da36600461149d565b610896565b60006001600160e01b031982166380ac58cd60e01b148061031057506001600160e01b03198216635b5e139f60e01b145b8061032b57506301ffc9a760e01b6001600160e01b03198316145b92915050565b60606000805461034090611862565b80601f016020809104026020016040519081016040528092919081815260200182805461036c90611862565b80156103b95780601f1061038e576101008083540402835291602001916103b9565b820191906000526020600020905b81548152906001019060200180831161039c57829003601f168201915b5050505050905090565b60006103ce8261090f565b506000908152600460205260409020546001600160a01b031690565b60006103f5826106bf565b9050806001600160a01b0316836001600160a01b031614156104685760405162461bcd60e51b815260206004820152602160248201527f4552433732313a20617070726f76616c20746f2063757272656e74206f776e656044820152603960f91b60648201526084015b60405180910390fd5b336001600160a01b03821614806104845750610484813361029e565b6104f65760405162461bcd60e51b815260206004820152603e60248201527f4552433732313a20617070726f76652063616c6c6572206973206e6f7420746f60448201527f6b656e206f776e6572206e6f7220617070726f76656420666f7220616c6c0000606482015260840161045f565b610500838361096e565b505050565b61050f82826109dc565b5050565b61051d3382610a76565b6105395760405162461bcd60e51b815260040161045f906117a5565b610500838383610af5565b6009546001600160a01b031633148061056757506007546001600160a01b031633145b6105c25760405162461bcd60e51b815260206004820152602660248201527f4f6e6c7920616c6c6f7765642066726f6d204d61726b6574706c616365206f726044820152651037bbb732b960d11b606482015260840161045f565b6000811161060b5760405162461bcd60e51b8152602060048201526016602482015275125b9d985b1a590818dbdd5b9d08199bdc881b5a5b9d60521b604482015260640161045f565b6001600160a01b0382166106615760405162461bcd60e51b815260206004820152601a60248201527f496e76616c6964206164647265737320666f72206d696e746572000000000000604482015260640161045f565b60005b8181101561050057600061067760085490565b9050610687600880546001019055565b6106918482610c91565b508061069c8161189d565b915050610664565b61050083838360405180602001604052806000815250610853565b6000818152600260205260408120546001600160a01b03168061032b5760405162461bcd60e51b8152602060048201526018602482015277115490cdcc8c4e881a5b9d985b1a59081d1bdad95b88125160421b604482015260640161045f565b60006001600160a01b0382166107895760405162461bcd60e51b815260206004820152602960248201527f4552433732313a2061646472657373207a65726f206973206e6f7420612076616044820152683634b21037bbb732b960b91b606482015260840161045f565b506001600160a01b031660009081526003602052604090205490565b6107ad610cab565b6107b76000610d05565b565b6107c1610cab565b6001600160a01b0381166108175760405162461bcd60e51b815260206004820152601b60248201527f496e76616c6964206d61726b6574706c61636520616464726573730000000000604482015260640161045f565b600980546001600160a01b0319166001600160a01b0392909216919091179055565b60606001805461034090611862565b61050f338383610d57565b61085d3383610a76565b6108795760405162461bcd60e51b815260040161045f906117a5565b61088584848484610e26565b50505050565b606061032b82610e59565b61089e610cab565b6001600160a01b0381166109035760405162461bcd60e51b815260206004820152602660248201527f4f776e61626c653a206e6577206f776e657220697320746865207a65726f206160448201526564647265737360d01b606482015260840161045f565b61090c81610d05565b50565b6000818152600260205260409020546001600160a01b031661090c5760405162461bcd60e51b8152602060048201526018602482015277115490cdcc8c4e881a5b9d985b1a59081d1bdad95b88125160421b604482015260640161045f565b600081815260046020526040902080546001600160a01b0319166001600160a01b03841690811790915581906109a3826106bf565b6001600160a01b03167f8c5be1e5ebec7d5bd14f71427d1e84f3dd0314c0f7b2291e5b200ac8c7c3b92560405160405180910390a45050565b6000828152600260205260409020546001600160a01b0316610a575760405162461bcd60e51b815260206004820152602e60248201527f45524337323155524953746f726167653a2055524920736574206f66206e6f6e60448201526d32bc34b9ba32b73a103a37b5b2b760911b606482015260840161045f565b6000828152600660209081526040909120825161050092840190611372565b600080610a82836106bf565b9050806001600160a01b0316846001600160a01b03161480610ac957506001600160a01b0380821660009081526005602090815260408083209388168352929052205460ff165b80610aed5750836001600160a01b0316610ae2846103c3565b6001600160a01b0316145b949350505050565b826001600160a01b0316610b08826106bf565b6001600160a01b031614610b6c5760405162461bcd60e51b815260206004820152602560248201527f4552433732313a207472616e736665722066726f6d20696e636f72726563742060448201526437bbb732b960d91b606482015260840161045f565b6001600160a01b038216610bce5760405162461bcd60e51b8152602060048201526024808201527f4552433732313a207472616e7366657220746f20746865207a65726f206164646044820152637265737360e01b606482015260840161045f565b610bd960008261096e565b6001600160a01b0383166000908152600360205260408120805460019290610c0290849061181f565b90915550506001600160a01b0382166000908152600360205260408120805460019290610c309084906117f3565b909155505060008181526002602052604080822080546001600160a01b0319166001600160a01b0386811691821790925591518493918716917fddf252ad1be2c89b69c2b068fc378daa952ba7f163c4a11628f55a4df523b3ef91a4505050565b61050f828260405180602001604052806000815250610f62565b6007546001600160a01b031633146107b75760405162461bcd60e51b815260206004820181905260248201527f4f776e61626c653a2063616c6c6572206973206e6f7420746865206f776e6572604482015260640161045f565b600780546001600160a01b038381166001600160a01b0319831681179093556040519116919082907f8be0079c531659141344cd1fd0a4f28419497f9722a3daafe3b4186f6b6457e090600090a35050565b816001600160a01b0316836001600160a01b03161415610db95760405162461bcd60e51b815260206004820152601960248201527f4552433732313a20617070726f766520746f2063616c6c657200000000000000604482015260640161045f565b6001600160a01b03838116600081815260056020908152604080832094871680845294825291829020805460ff191686151590811790915591519182527f17307eab39ab6107e8899845ad3d59bd9653f200f220920489ca2b5937696c31910160405180910390a3505050565b610e31848484610af5565b610e3d84848484610f95565b6108855760405162461bcd60e51b815260040161045f90611753565b6060610e648261090f565b60008281526006602052604081208054610e7d90611862565b80601f0160208091040260200160405190810160405280929190818152602001828054610ea990611862565b8015610ef65780601f10610ecb57610100808354040283529160200191610ef6565b820191906000526020600020905b815481529060010190602001808311610ed957829003601f168201915b505050505090506000610f1460408051602081019091526000815290565b9050805160001415610f27575092915050565b815115610f59578082604051602001610f419291906116d4565b60405160208183030381529060405292505050919050565b610aed846110a2565b610f6c8383611116565b610f796000848484610f95565b6105005760405162461bcd60e51b815260040161045f90611753565b60006001600160a01b0384163b1561109757604051630a85bd0160e11b81526001600160a01b0385169063150b7a0290610fd9903390899088908890600401611703565b602060405180830381600087803b158015610ff357600080fd5b505af1925050508015611023575060408051601f3d908101601f191682019092526110209181019061161c565b60015b61107d573d808015611051576040519150601f19603f3d011682016040523d82523d6000602084013e611056565b606091505b5080516110755760405162461bcd60e51b815260040161045f90611753565b805181602001fd5b6001600160e01b031916630a85bd0160e11b149050610aed565b506001949350505050565b60606110ad8261090f565b60006110c460408051602081019091526000815290565b905060008151116110e4576040518060200160405280600081525061110f565b806110ee84611258565b6040516020016110ff9291906116d4565b6040516020818303038152906040525b9392505050565b6001600160a01b03821661116c5760405162461bcd60e51b815260206004820181905260248201527f4552433732313a206d696e7420746f20746865207a65726f2061646472657373604482015260640161045f565b6000818152600260205260409020546001600160a01b0316156111d15760405162461bcd60e51b815260206004820152601c60248201527f4552433732313a20746f6b656e20616c7265616479206d696e74656400000000604482015260640161045f565b6001600160a01b03821660009081526003602052604081208054600192906111fa9084906117f3565b909155505060008181526002602052604080822080546001600160a01b0319166001600160a01b03861690811790915590518392907fddf252ad1be2c89b69c2b068fc378daa952ba7f163c4a11628f55a4df523b3ef908290a45050565b60608161127c5750506040805180820190915260018152600360fc1b602082015290565b8160005b81156112a657806112908161189d565b915061129f9050600a8361180b565b9150611280565b60008167ffffffffffffffff8111156112cf57634e487b7160e01b600052604160045260246000fd5b6040519080825280601f01601f1916602001820160405280156112f9576020820181803683370190505b5090505b8415610aed5761130e60018361181f565b915061131b600a866118b8565b6113269060306117f3565b60f81b81838151811061134957634e487b7160e01b600052603260045260246000fd5b60200101906001600160f81b031916908160001a90535061136b600a8661180b565b94506112fd565b82805461137e90611862565b90600052602060002090601f0160209004810192826113a057600085556113e6565b82601f106113b957805160ff19168380011785556113e6565b828001600101855582156113e6579182015b828111156113e65782518255916020019190600101906113cb565b506113f29291506113f6565b5090565b5b808211156113f257600081556001016113f7565b600067ffffffffffffffff80841115611426576114266118f8565b604051601f8501601f19908116603f0116810190828211818310171561144e5761144e6118f8565b8160405280935085815286868601111561146757600080fd5b858560208301376000602087830101525050509392505050565b80356001600160a01b038116811461149857600080fd5b919050565b6000602082840312156114ae578081fd5b61110f82611481565b600080604083850312156114c9578081fd5b6114d283611481565b91506114e060208401611481565b90509250929050565b6000806000606084860312156114fd578081fd5b61150684611481565b925061151460208501611481565b9150604084013590509250925092565b60008060008060808587031215611539578081fd5b61154285611481565b935061155060208601611481565b925060408501359150606085013567ffffffffffffffff811115611572578182fd5b8501601f81018713611582578182fd5b6115918782356020840161140b565b91505092959194509250565b600080604083850312156115af578182fd5b6115b883611481565b9150602083013580151581146115cc578182fd5b809150509250929050565b600080604083850312156115e9578182fd5b6115f283611481565b946020939093013593505050565b600060208284031215611611578081fd5b813561110f8161190e565b60006020828403121561162d578081fd5b815161110f8161190e565b600060208284031215611649578081fd5b5035919050565b60008060408385031215611662578182fd5b82359150602083013567ffffffffffffffff81111561167f578182fd5b8301601f8101851361168f578182fd5b61169e8582356020840161140b565b9150509250929050565b600081518084526116c0816020860160208601611836565b601f01601f19169290920160200192915050565b600083516116e6818460208801611836565b8351908301906116fa818360208801611836565b01949350505050565b6001600160a01b0385811682528416602082015260408101839052608060608201819052600090611736908301846116a8565b9695505050505050565b60208152600061110f60208301846116a8565b60208082526032908201527f4552433732313a207472616e7366657220746f206e6f6e20455243373231526560408201527131b2b4bb32b91034b6b83632b6b2b73a32b960711b606082015260800190565b6020808252602e908201527f4552433732313a2063616c6c6572206973206e6f7420746f6b656e206f776e6560408201526d1c881b9bdc88185c1c1c9bdd995960921b606082015260800190565b60008219821115611806576118066118cc565b500190565b60008261181a5761181a6118e2565b500490565b600082821015611831576118316118cc565b500390565b60005b83811015611851578181015183820152602001611839565b838111156108855750506000910152565b600181811c9082168061187657607f821691505b6020821081141561189757634e487b7160e01b600052602260045260246000fd5b50919050565b60006000198214156118b1576118b16118cc565b5060010190565b6000826118c7576118c76118e2565b500690565b634e487b7160e01b600052601160045260246000fd5b634e487b7160e01b600052601260045260246000fd5b634e487b7160e01b600052604160045260246000fd5b6001600160e01b03198116811461090c57600080fdfea264697066735822122055c12ce0ab4cb7ea8419c2fb9b8980807f84ccd8e8ce26c177058ea105e049a464736f6c63430008040033",
  "linkReferences": {},
  "deployedLinkReferences": {}
}