{
  "_format": "hh-sol-artifact-1",
  "contractName": "CustomNFTMock",
  "sourceName": "contracts/test/CustomNFTMock.sol",
  "abi": [
    {
      "inputs": [
        {
          "internalType": "string",
          "name": "name_",
          "type": "string"
        },
        {
          "internalType": "string",
          "name": "symbol_",
          "type": "string"
        }
      ],
      "stateMutability": "nonpayable",
      "type": "constructor"
    },
    {
      "anonymous": false,
      "inputs": [
        {
          "indexed": true,
          "internalType": "address",
          "name": "owner",
          "type": "address"
        },
        {
          "indexed": true,
          "internalType": "address",
          "name": "approved",
          "type": "address"
        },
        {
          "indexed": true,
          "internalType": "uint256",
          "name": "tokenId",
          "type": "uint256"
        }
      ],
      "name": "Approval",
      "type": "event"
    },
    {
      "anonymous": false,
      "inputs": [
        {
          "indexed": true,
          "internalType": "address",
          "name": "owner",
          "type": "address"
        },
        {
          "indexed": true,
          "internalType": "address",
          "name": "operator",
          "type": "address"
        },
        {
          "indexed": false,
          "internalType": "bool",
          "name": "approved",
          "type": "bool"
        }
      ],
      "name": "ApprovalForAll",
      "type": "event"
    },
    {
      "anonymous": false,
      "inputs": [
        {
          "indexed": true,
          "internalType": "address",
          "name": "previousOwner",
          "type": "address"
        },
        {
          "indexed": true,
          "internalType": "address",
          "name": "newOwner",
          "type": "address"
        }
      ],
      "name": "OwnershipTransferred",
      "type": "event"
    },
    {
      "anonymous": false,
      "inputs": [
        {
          "indexed": true,
          "internalType": "address",
          "name": "from",
          "type": "address"
        },
        {
          "indexed": true,
          "internalType": "address",
          "name": "to",
          "type": "address"
        },
        {
          "indexed": true,
          "internalType": "uint256",
          "name": "tokenId",
          "type": "uint256"
        }
      ],
      "name": "Transfer",
      "type": "event"
    },
    {
      "inputs": [
        {
          "internalType": "address",
          "name": "to",
          "type": "address"
        },
        {
          "internalType": "uint256",
          "name": "tokenId",
          "type": "uint256"
        }
      ],
      "name": "approve",
      "outputs": [],
      "stateMutability": "nonpayable",
      "type": "function"
    },
    {
      "inputs": [
        {
          "internalType": "address",
          "name": "owner",
          "type": "address"
        }
      ],
      "name": "balanceOf",
      "outputs": [
        {
          "internalType": "uint256",
          "name": "",
          "type": "uint256"
        }
      ],
      "stateMutability": "view",
      "type": "function"
    },
    {
      "inputs": [
        {
          "internalType": "uint256",
          "name": "tokenId",
          "type": "uint256"
        }
      ],
      "name": "getApproved",
      "outputs": [
        {
          "internalType": "address",
          "name": "",
          "type": "address"
        }
      ],
      "stateMutability": "view",
      "type": "function"
    },
    {
      "inputs": [
        {
          "internalType": "address",
          "name": "owner",
          "type": "address"
        },
        {
          "internalType": "address",
          "name": "operator",
          "type": "address"
        }
      ],
      "name": "isApprovedForAll",
      "outputs": [
        {
          "internalType": "bool",
          "name": "",
          "type": "bool"
        }
      ],
      "stateMutability": "view",
      "type": "function"
    },
    {
      "inputs": [
        {
          "internalType": "address",
          "name": "to",
          "type": "address"
        },
        {
          "internalType": "uint256",
          "name": "tokenId",
          "type": "uint256"
        }
      ],
      "name": "mint",
      "outputs": [],
      "stateMutability": "nonpayable",
      "type": "function"
    },
    {
      "inputs": [],
      "name": "name",
      "outputs": [
        {
          "internalType": "string",
          "name": "",
          "type": "string"
        }
      ],
      "stateMutability": "view",
      "type": "function"
    },
    {
      "inputs": [],
      "name": "owner",
      "outputs": [
        {
          "internalType": "address",
          "name": "",
          "type": "address"
        }
      ],
      "stateMutability": "view",
      "type": "function"
    },
    {
      "inputs": [
        {
          "internalType": "uint256",
          "name": "tokenId",
          "type": "uint256"
        }
      ],
      "name": "ownerOf",
      "outputs": [
        {
          "internalType": "address",
          "name": "",
          "type": "address"
        }
      ],
      "stateMutability": "view",
      "type": "function"
    },
    {
      "inputs": [],
      "name": "renounceOwnership",
      "outputs": [],
      "stateMutability": "nonpayable",
      "type": "function"
    },
    {
      "inputs": [
        {
          "internalType": "address",
          "name": "from",
          "type": "address"
        },
        {
          "internalType": "address",
          "name": "to",
          "type": "address"
        },
        {
          "internalType": "uint256",
          "name": "tokenId",
          "type": "uint256"
        }
      ],
      "name": "safeTransferFrom",
      "outputs": [],
      "stateMutability": "nonpayable",
      "type": "function"
    },
    {
      "inputs": [
        {
          "internalType": "address",
          "name": "from",
          "type": "address"
        },
        {
          "internalType": "address",
          "name": "to",
          "type": "address"
        },
        {
          "internalType": "uint256",
          "name": "tokenId",
          "type": "uint256"
        },
        {
          "internalType": "bytes",
          "name": "data",
          "type": "bytes"
        }
      ],
      "name": "safeTransferFrom",
      "outputs": [],
      "stateMutability": "nonpayable",
      "type": "function"
    },
    {
      "inputs": [
        {
          "internalType": "address",
          "name": "operator",
          "type": "address"
        },
        {
          "internalType": "bool",
          "name": "approved",
          "type": "bool"
        }
      ],
      "name": "setApprovalForAll",
      "outputs": [],
      "stateMutability": "nonpayable",
      "type": "function"
    },
    {
      "inputs": [
        {
          "internalType": "bytes4",
          "name": "interfaceId",
          "type": "bytes4"
        }
      ],
      "name": "supportsInterface",
      "outputs": [
        {
          "internalType": "bool",
          "name": "",
          "type": "bool"
        }
      ],
      "stateMutability": "view",
      "type": "function"
    },
    {
      "inputs": [],
      "name": "symbol",
      "outputs": [
        {
          "internalType": "string",
          "name": "",
          "type": "string"
        }
      ],
      "stateMutability": "view",
      "type": "function"
    },
    {
      "inputs": [
        {
          "internalType": "uint256",
          "name": "tokenId",
          "type": "uint256"
        }
      ],
      "name": "tokenURI",
      "outputs": [
        {
          "internalType": "string",
          "name": "",
          "type": "string"
        }
      ],
      "stateMutability": "view",
      "type": "function"
    },
    {
      "inputs": [
        {
          "internalType": "address",
          "name": "from",
          "type": "address"
        },
        {
          "internalType": "address",
          "name": "to",
          "type": "address"
        },
        {
          "internalType": "uint256",
          "name": "tokenId",
          "type": "uint256"
        }
      ],
      "name": "transferFrom",
      "outputs": [],
      "stateMutability": "nonpayable",
      "type": "function"
    },
    {
      "inputs": [
        {
          "internalType": "address",
          "name": "newOwner",
          "type": "address"
        }
      ],
      "name": "transferOwnership",
      "outputs": [],
      "stateMutability": "nonpayable",
      "type": "function"
    }
  ],
  "bytecode": "0x60806040523480156200001157600080fd5b5060405162002d8638038062002d868339818101604052810190620000379190620002bc565b81818160009080519060200190620000519291906200019a565b5080600190805190602001906200006a9291906200019a565b5050506200008d62000081620000c960201b60201c565b620000d160201b60201c565b620000c17f373611e9e589273ba04df718ef2379840e557a7e3bb784a6ac9cc19dfec7e01260001b6200019760201b60201c565b50506200049f565b600033905090565b6000600660009054906101000a900473ffffffffffffffffffffffffffffffffffffffff16905081600660006101000a81548173ffffffffffffffffffffffffffffffffffffffff021916908373ffffffffffffffffffffffffffffffffffffffff1602179055508173ffffffffffffffffffffffffffffffffffffffff168173ffffffffffffffffffffffffffffffffffffffff167f8be0079c531659141344cd1fd0a4f28419497f9722a3daafe3b4186f6b6457e060405160405180910390a35050565b50565b828054620001a890620003c4565b90600052602060002090601f016020900481019282620001cc576000855562000218565b82601f10620001e757805160ff191683800117855562000218565b8280016001018555821562000218579182015b8281111562000217578251825591602001919060010190620001fa565b5b5090506200022791906200022b565b5090565b5b80821115620002465760008160009055506001016200022c565b5090565b6000620002616200025b8462000358565b6200032f565b9050828152602081018484840111156200027a57600080fd5b620002878482856200038e565b509392505050565b600082601f830112620002a157600080fd5b8151620002b38482602086016200024a565b91505092915050565b60008060408385031215620002d057600080fd5b600083015167ffffffffffffffff811115620002eb57600080fd5b620002f9858286016200028f565b925050602083015167ffffffffffffffff8111156200031757600080fd5b62000325858286016200028f565b9150509250929050565b60006200033b6200034e565b9050620003498282620003fa565b919050565b6000604051905090565b600067ffffffffffffffff8211156200037657620003756200045f565b5b62000381826200048e565b9050602081019050919050565b60005b83811015620003ae57808201518184015260208101905062000391565b83811115620003be576000848401525b50505050565b60006002820490506001821680620003dd57607f821691505b60208210811415620003f457620003f362000430565b5b50919050565b62000405826200048e565b810181811067ffffffffffffffff821117156200042757620004266200045f565b5b80604052505050565b7f4e487b7100000000000000000000000000000000000000000000000000000000600052602260045260246000fd5b7f4e487b7100000000000000000000000000000000000000000000000000000000600052604160045260246000fd5b6000601f19601f8301169050919050565b6128d780620004af6000396000f3fe608060405234801561001057600080fd5b506004361061010b5760003560e01c806370a08231116100a2578063a22cb46511610071578063a22cb465146102a4578063b88d4fde146102c0578063c87b56dd146102dc578063e985e9c51461030c578063f2fde38b1461033c5761010b565b806370a082311461022e578063715018a61461025e5780638da5cb5b1461026857806395d89b41146102865761010b565b806323b872dd116100de57806323b872dd146101aa57806340c10f19146101c657806342842e0e146101e25780636352211e146101fe5761010b565b806301ffc9a71461011057806306fdde0314610140578063081812fc1461015e578063095ea7b31461018e575b600080fd5b61012a60048036038101906101259190611bb7565b610358565b6040516101379190611f54565b60405180910390f35b61014861043a565b6040516101559190611f6f565b60405180910390f35b61017860048036038101906101739190611c09565b6104cc565b6040516101859190611eed565b60405180910390f35b6101a860048036038101906101a39190611b7b565b610512565b005b6101c460048036038101906101bf9190611a75565b61062a565b005b6101e060048036038101906101db9190611b7b565b61068a565b005b6101fc60048036038101906101f79190611a75565b610724565b005b61021860048036038101906102139190611c09565b610744565b6040516102259190611eed565b60405180910390f35b61024860048036038101906102439190611a10565b6107f6565b6040516102559190612131565b60405180910390f35b6102666108ae565b005b6102706108c2565b60405161027d9190611eed565b60405180910390f35b61028e6108ec565b60405161029b9190611f6f565b60405180910390f35b6102be60048036038101906102b99190611b3f565b61097e565b005b6102da60048036038101906102d59190611ac4565b610994565b005b6102f660048036038101906102f19190611c09565b6109f6565b6040516103039190611f6f565b60405180910390f35b61032660048036038101906103219190611a39565b610a5e565b6040516103339190611f54565b60405180910390f35b61035660048036038101906103519190611a10565b610af2565b005b60007f80ac58cd000000000000000000000000000000000000000000000000000000007bffffffffffffffffffffffffffffffffffffffffffffffffffffffff1916827bffffffffffffffffffffffffffffffffffffffffffffffffffffffff1916148061042357507f5b5e139f000000000000000000000000000000000000000000000000000000007bffffffffffffffffffffffffffffffffffffffffffffffffffffffff1916827bffffffffffffffffffffffffffffffffffffffffffffffffffffffff1916145b80610433575061043282610b76565b5b9050919050565b60606000805461044990612356565b80601f016020809104026020016040519081016040528092919081815260200182805461047590612356565b80156104c25780601f10610497576101008083540402835291602001916104c2565b820191906000526020600020905b8154815290600101906020018083116104a557829003601f168201915b5050505050905090565b60006104d782610be0565b6004600083815260200190815260200160002060009054906101000a900473ffffffffffffffffffffffffffffffffffffffff169050919050565b600061051d82610744565b90508073ffffffffffffffffffffffffffffffffffffffff168373ffffffffffffffffffffffffffffffffffffffff16141561058e576040517f08c379a0000000000000000000000000000000000000000000000000000000008152600401610585906120f1565b60405180910390fd5b8073ffffffffffffffffffffffffffffffffffffffff166105ad610c2b565b73ffffffffffffffffffffffffffffffffffffffff1614806105dc57506105db816105d6610c2b565b610a5e565b5b61061b576040517f08c379a000000000000000000000000000000000000000000000000000000000815260040161061290612071565b60405180910390fd5b6106258383610c33565b505050565b61063b610635610c2b565b82610cec565b61067a576040517f08c379a000000000000000000000000000000000000000000000000000000000815260040161067190612111565b60405180910390fd5b610685838383610d81565b505050565b610692610fe8565b6106be7f88cf94fedcb5f9c9300f7b63c68c78516e9c35c4c280b58721a5f3d87637af7b60001b611066565b6106ea7fe7d4a0cc035dba67e60c38dde7d2a803ab66613a843bd1c29a896bbc38131c9260001b611066565b6107167f41bcf54fa512f93a8d811b7a10231ce2ac6c6b8aa1dc122ad4a7e76e1f40100960001b611066565b6107208282611069565b5050565b61073f83838360405180602001604052806000815250610994565b505050565b6000806002600084815260200190815260200160002060009054906101000a900473ffffffffffffffffffffffffffffffffffffffff169050600073ffffffffffffffffffffffffffffffffffffffff168173ffffffffffffffffffffffffffffffffffffffff1614156107ed576040517f08c379a00000000000000000000000000000000000000000000000000000000081526004016107e4906120d1565b60405180910390fd5b80915050919050565b60008073ffffffffffffffffffffffffffffffffffffffff168273ffffffffffffffffffffffffffffffffffffffff161415610867576040517f08c379a000000000000000000000000000000000000000000000000000000000815260040161085e90612051565b60405180910390fd5b600360008373ffffffffffffffffffffffffffffffffffffffff1673ffffffffffffffffffffffffffffffffffffffff168152602001908152602001600020549050919050565b6108b6610fe8565b6108c06000611087565b565b6000600660009054906101000a900473ffffffffffffffffffffffffffffffffffffffff16905090565b6060600180546108fb90612356565b80601f016020809104026020016040519081016040528092919081815260200182805461092790612356565b80156109745780601f1061094957610100808354040283529160200191610974565b820191906000526020600020905b81548152906001019060200180831161095757829003601f168201915b5050505050905090565b610990610989610c2b565b838361114d565b5050565b6109a561099f610c2b565b83610cec565b6109e4576040517f08c379a00000000000000000000000000000000000000000000000000000000081526004016109db90612111565b60405180910390fd5b6109f0848484846112ba565b50505050565b6060610a0182610be0565b6000610a0b611316565b90506000815111610a2b5760405180602001604052806000815250610a56565b80610a358461132d565b604051602001610a46929190611ec9565b6040516020818303038152906040525b915050919050565b6000600560008473ffffffffffffffffffffffffffffffffffffffff1673ffffffffffffffffffffffffffffffffffffffff16815260200190815260200160002060008373ffffffffffffffffffffffffffffffffffffffff1673ffffffffffffffffffffffffffffffffffffffff16815260200190815260200160002060009054906101000a900460ff16905092915050565b610afa610fe8565b600073ffffffffffffffffffffffffffffffffffffffff168173ffffffffffffffffffffffffffffffffffffffff161415610b6a576040517f08c379a0000000000000000000000000000000000000000000000000000000008152600401610b6190611fb1565b60405180910390fd5b610b7381611087565b50565b60007f01ffc9a7000000000000000000000000000000000000000000000000000000007bffffffffffffffffffffffffffffffffffffffffffffffffffffffff1916827bffffffffffffffffffffffffffffffffffffffffffffffffffffffff1916149050919050565b610be9816114da565b610c28576040517f08c379a0000000000000000000000000000000000000000000000000000000008152600401610c1f906120d1565b60405180910390fd5b50565b600033905090565b816004600083815260200190815260200160002060006101000a81548173ffffffffffffffffffffffffffffffffffffffff021916908373ffffffffffffffffffffffffffffffffffffffff160217905550808273ffffffffffffffffffffffffffffffffffffffff16610ca683610744565b73ffffffffffffffffffffffffffffffffffffffff167f8c5be1e5ebec7d5bd14f71427d1e84f3dd0314c0f7b2291e5b200ac8c7c3b92560405160405180910390a45050565b600080610cf883610744565b90508073ffffffffffffffffffffffffffffffffffffffff168473ffffffffffffffffffffffffffffffffffffffff161480610d3a5750610d398185610a5e565b5b80610d7857508373ffffffffffffffffffffffffffffffffffffffff16610d60846104cc565b73ffffffffffffffffffffffffffffffffffffffff16145b91505092915050565b8273ffffffffffffffffffffffffffffffffffffffff16610da182610744565b73ffffffffffffffffffffffffffffffffffffffff1614610df7576040517f08c379a0000000000000000000000000000000000000000000000000000000008152600401610dee90611fd1565b60405180910390fd5b600073ffffffffffffffffffffffffffffffffffffffff168273ffffffffffffffffffffffffffffffffffffffff161415610e67576040517f08c379a0000000000000000000000000000000000000000000000000000000008152600401610e5e90612011565b60405180910390fd5b610e72838383611546565b610e7d600082610c33565b6001600360008573ffffffffffffffffffffffffffffffffffffffff1673ffffffffffffffffffffffffffffffffffffffff1681526020019081526020016000206000828254610ecd919061226c565b925050819055506001600360008473ffffffffffffffffffffffffffffffffffffffff1673ffffffffffffffffffffffffffffffffffffffff1681526020019081526020016000206000828254610f2491906121e5565b92505081905550816002600083815260200190815260200160002060006101000a81548173ffffffffffffffffffffffffffffffffffffffff021916908373ffffffffffffffffffffffffffffffffffffffff160217905550808273ffffffffffffffffffffffffffffffffffffffff168473ffffffffffffffffffffffffffffffffffffffff167fddf252ad1be2c89b69c2b068fc378daa952ba7f163c4a11628f55a4df523b3ef60405160405180910390a4610fe383838361154b565b505050565b610ff0610c2b565b73ffffffffffffffffffffffffffffffffffffffff1661100e6108c2565b73ffffffffffffffffffffffffffffffffffffffff1614611064576040517f08c379a000000000000000000000000000000000000000000000000000000000815260040161105b906120b1565b60405180910390fd5b565b50565b611083828260405180602001604052806000815250611550565b5050565b6000600660009054906101000a900473ffffffffffffffffffffffffffffffffffffffff16905081600660006101000a81548173ffffffffffffffffffffffffffffffffffffffff021916908373ffffffffffffffffffffffffffffffffffffffff1602179055508173ffffffffffffffffffffffffffffffffffffffff168173ffffffffffffffffffffffffffffffffffffffff167f8be0079c531659141344cd1fd0a4f28419497f9722a3daafe3b4186f6b6457e060405160405180910390a35050565b8173ffffffffffffffffffffffffffffffffffffffff168373ffffffffffffffffffffffffffffffffffffffff1614156111bc576040517f08c379a00000000000000000000000000000000000000000000000000000000081526004016111b390612031565b60405180910390fd5b80600560008573ffffffffffffffffffffffffffffffffffffffff1673ffffffffffffffffffffffffffffffffffffffff16815260200190815260200160002060008473ffffffffffffffffffffffffffffffffffffffff1673ffffffffffffffffffffffffffffffffffffffff16815260200190815260200160002060006101000a81548160ff0219169083151502179055508173ffffffffffffffffffffffffffffffffffffffff168373ffffffffffffffffffffffffffffffffffffffff167f17307eab39ab6107e8899845ad3d59bd9653f200f220920489ca2b5937696c31836040516112ad9190611f54565b60405180910390a3505050565b6112c5848484610d81565b6112d1848484846115ab565b611310576040517f08c379a000000000000000000000000000000000000000000000000000000000815260040161130790611f91565b60405180910390fd5b50505050565b606060405180602001604052806000815250905090565b60606000821415611375576040518060400160405280600181526020017f300000000000000000000000000000000000000000000000000000000000000081525090506114d5565b600082905060005b600082146113a7578080611390906123b9565b915050600a826113a0919061223b565b915061137d565b60008167ffffffffffffffff8111156113e9577f4e487b7100000000000000000000000000000000000000000000000000000000600052604160045260246000fd5b6040519080825280601f01601f19166020018201604052801561141b5781602001600182028036833780820191505090505b5090505b600085146114ce57600182611434919061226c565b9150600a856114439190612402565b603061144f91906121e5565b60f81b81838151811061148b577f4e487b7100000000000000000000000000000000000000000000000000000000600052603260045260246000fd5b60200101907effffffffffffffffffffffffffffffffffffffffffffffffffffffffffffff1916908160001a905350600a856114c7919061223b565b945061141f565b8093505050505b919050565b60008073ffffffffffffffffffffffffffffffffffffffff166002600084815260200190815260200160002060009054906101000a900473ffffffffffffffffffffffffffffffffffffffff1673ffffffffffffffffffffffffffffffffffffffff1614159050919050565b505050565b505050565b61155a8383611742565b61156760008484846115ab565b6115a6576040517f08c379a000000000000000000000000000000000000000000000000000000000815260040161159d90611f91565b60405180910390fd5b505050565b60006115cc8473ffffffffffffffffffffffffffffffffffffffff1661191c565b15611735578373ffffffffffffffffffffffffffffffffffffffff1663150b7a026115f5610c2b565b8786866040518563ffffffff1660e01b81526004016116179493929190611f08565b602060405180830381600087803b15801561163157600080fd5b505af192505050801561166257506040513d601f19601f8201168201806040525081019061165f9190611be0565b60015b6116e5573d8060008114611692576040519150601f19603f3d011682016040523d82523d6000602084013e611697565b606091505b506000815114156116dd576040517f08c379a00000000000000000000000000000000000000000000000000000000081526004016116d490611f91565b60405180910390fd5b805181602001fd5b63150b7a0260e01b7bffffffffffffffffffffffffffffffffffffffffffffffffffffffff1916817bffffffffffffffffffffffffffffffffffffffffffffffffffffffff19161491505061173a565b600190505b949350505050565b600073ffffffffffffffffffffffffffffffffffffffff168273ffffffffffffffffffffffffffffffffffffffff1614156117b2576040517f08c379a00000000000000000000000000000000000000000000000000000000081526004016117a990612091565b60405180910390fd5b6117bb816114da565b156117fb576040517f08c379a00000000000000000000000000000000000000000000000000000000081526004016117f290611ff1565b60405180910390fd5b61180760008383611546565b6001600360008473ffffffffffffffffffffffffffffffffffffffff1673ffffffffffffffffffffffffffffffffffffffff168152602001908152602001600020600082825461185791906121e5565b92505081905550816002600083815260200190815260200160002060006101000a81548173ffffffffffffffffffffffffffffffffffffffff021916908373ffffffffffffffffffffffffffffffffffffffff160217905550808273ffffffffffffffffffffffffffffffffffffffff16600073ffffffffffffffffffffffffffffffffffffffff167fddf252ad1be2c89b69c2b068fc378daa952ba7f163c4a11628f55a4df523b3ef60405160405180910390a46119186000838361154b565b5050565b6000808273ffffffffffffffffffffffffffffffffffffffff163b119050919050565b600061195261194d84612171565b61214c565b90508281526020810184848401111561196a57600080fd5b611975848285612314565b509392505050565b60008135905061198c81612845565b92915050565b6000813590506119a18161285c565b92915050565b6000813590506119b681612873565b92915050565b6000815190506119cb81612873565b92915050565b600082601f8301126119e257600080fd5b81356119f284826020860161193f565b91505092915050565b600081359050611a0a8161288a565b92915050565b600060208284031215611a2257600080fd5b6000611a308482850161197d565b91505092915050565b60008060408385031215611a4c57600080fd5b6000611a5a8582860161197d565b9250506020611a6b8582860161197d565b9150509250929050565b600080600060608486031215611a8a57600080fd5b6000611a988682870161197d565b9350506020611aa98682870161197d565b9250506040611aba868287016119fb565b9150509250925092565b60008060008060808587031215611ada57600080fd5b6000611ae88782880161197d565b9450506020611af98782880161197d565b9350506040611b0a878288016119fb565b925050606085013567ffffffffffffffff811115611b2757600080fd5b611b33878288016119d1565b91505092959194509250565b60008060408385031215611b5257600080fd5b6000611b608582860161197d565b9250506020611b7185828601611992565b9150509250929050565b60008060408385031215611b8e57600080fd5b6000611b9c8582860161197d565b9250506020611bad858286016119fb565b9150509250929050565b600060208284031215611bc957600080fd5b6000611bd7848285016119a7565b91505092915050565b600060208284031215611bf257600080fd5b6000611c00848285016119bc565b91505092915050565b600060208284031215611c1b57600080fd5b6000611c29848285016119fb565b91505092915050565b611c3b816122a0565b82525050565b611c4a816122b2565b82525050565b6000611c5b826121a2565b611c6581856121b8565b9350611c75818560208601612323565b611c7e816124ef565b840191505092915050565b6000611c94826121ad565b611c9e81856121c9565b9350611cae818560208601612323565b611cb7816124ef565b840191505092915050565b6000611ccd826121ad565b611cd781856121da565b9350611ce7818560208601612323565b80840191505092915050565b6000611d006032836121c9565b9150611d0b82612500565b604082019050919050565b6000611d236026836121c9565b9150611d2e8261254f565b604082019050919050565b6000611d466025836121c9565b9150611d518261259e565b604082019050919050565b6000611d69601c836121c9565b9150611d74826125ed565b602082019050919050565b6000611d8c6024836121c9565b9150611d9782612616565b604082019050919050565b6000611daf6019836121c9565b9150611dba82612665565b602082019050919050565b6000611dd26029836121c9565b9150611ddd8261268e565b604082019050919050565b6000611df5603e836121c9565b9150611e00826126dd565b604082019050919050565b6000611e186020836121c9565b9150611e238261272c565b602082019050919050565b6000611e3b6020836121c9565b9150611e4682612755565b602082019050919050565b6000611e5e6018836121c9565b9150611e698261277e565b602082019050919050565b6000611e816021836121c9565b9150611e8c826127a7565b604082019050919050565b6000611ea4602e836121c9565b9150611eaf826127f6565b604082019050919050565b611ec38161230a565b82525050565b6000611ed58285611cc2565b9150611ee18284611cc2565b91508190509392505050565b6000602082019050611f026000830184611c32565b92915050565b6000608082019050611f1d6000830187611c32565b611f2a6020830186611c32565b611f376040830185611eba565b8181036060830152611f498184611c50565b905095945050505050565b6000602082019050611f696000830184611c41565b92915050565b60006020820190508181036000830152611f898184611c89565b905092915050565b60006020820190508181036000830152611faa81611cf3565b9050919050565b60006020820190508181036000830152611fca81611d16565b9050919050565b60006020820190508181036000830152611fea81611d39565b9050919050565b6000602082019050818103600083015261200a81611d5c565b9050919050565b6000602082019050818103600083015261202a81611d7f565b9050919050565b6000602082019050818103600083015261204a81611da2565b9050919050565b6000602082019050818103600083015261206a81611dc5565b9050919050565b6000602082019050818103600083015261208a81611de8565b9050919050565b600060208201905081810360008301526120aa81611e0b565b9050919050565b600060208201905081810360008301526120ca81611e2e565b9050919050565b600060208201905081810360008301526120ea81611e51565b9050919050565b6000602082019050818103600083015261210a81611e74565b9050919050565b6000602082019050818103600083015261212a81611e97565b9050919050565b60006020820190506121466000830184611eba565b92915050565b6000612156612167565b90506121628282612388565b919050565b6000604051905090565b600067ffffffffffffffff82111561218c5761218b6124c0565b5b612195826124ef565b9050602081019050919050565b600081519050919050565b600081519050919050565b600082825260208201905092915050565b600082825260208201905092915050565b600081905092915050565b60006121f08261230a565b91506121fb8361230a565b9250827fffffffffffffffffffffffffffffffffffffffffffffffffffffffffffffffff038211156122305761222f612433565b5b828201905092915050565b60006122468261230a565b91506122518361230a565b92508261226157612260612462565b5b828204905092915050565b60006122778261230a565b91506122828361230a565b92508282101561229557612294612433565b5b828203905092915050565b60006122ab826122ea565b9050919050565b60008115159050919050565b60007fffffffff0000000000000000000000000000000000000000000000000000000082169050919050565b600073ffffffffffffffffffffffffffffffffffffffff82169050919050565b6000819050919050565b82818337600083830152505050565b60005b83811015612341578082015181840152602081019050612326565b83811115612350576000848401525b50505050565b6000600282049050600182168061236e57607f821691505b6020821081141561238257612381612491565b5b50919050565b612391826124ef565b810181811067ffffffffffffffff821117156123b0576123af6124c0565b5b80604052505050565b60006123c48261230a565b91507fffffffffffffffffffffffffffffffffffffffffffffffffffffffffffffffff8214156123f7576123f6612433565b5b600182019050919050565b600061240d8261230a565b91506124188361230a565b92508261242857612427612462565b5b828206905092915050565b7f4e487b7100000000000000000000000000000000000000000000000000000000600052601160045260246000fd5b7f4e487b7100000000000000000000000000000000000000000000000000000000600052601260045260246000fd5b7f4e487b7100000000000000000000000000000000000000000000000000000000600052602260045260246000fd5b7f4e487b7100000000000000000000000000000000000000000000000000000000600052604160045260246000fd5b6000601f19601f8301169050919050565b7f4552433732313a207472616e7366657220746f206e6f6e20455243373231526560008201527f63656976657220696d706c656d656e7465720000000000000000000000000000602082015250565b7f4f776e61626c653a206e6577206f776e657220697320746865207a65726f206160008201527f6464726573730000000000000000000000000000000000000000000000000000602082015250565b7f4552433732313a207472616e736665722066726f6d20696e636f72726563742060008201527f6f776e6572000000000000000000000000000000000000000000000000000000602082015250565b7f4552433732313a20746f6b656e20616c7265616479206d696e74656400000000600082015250565b7f4552433732313a207472616e7366657220746f20746865207a65726f2061646460008201527f7265737300000000000000000000000000000000000000000000000000000000602082015250565b7f4552433732313a20617070726f766520746f2063616c6c657200000000000000600082015250565b7f4552433732313a2061646472657373207a65726f206973206e6f74206120766160008201527f6c6964206f776e65720000000000000000000000000000000000000000000000602082015250565b7f4552433732313a20617070726f76652063616c6c6572206973206e6f7420746f60008201527f6b656e206f776e6572206e6f7220617070726f76656420666f7220616c6c0000602082015250565b7f4552433732313a206d696e7420746f20746865207a65726f2061646472657373600082015250565b7f4f776e61626c653a2063616c6c6572206973206e6f7420746865206f776e6572600082015250565b7f4552433732313a20696e76616c696420746f6b656e2049440000000000000000600082015250565b7f4552433732313a20617070726f76616c20746f2063757272656e74206f776e6560008201527f7200000000000000000000000000000000000000000000000000000000000000602082015250565b7f4552433732313a2063616c6c6572206973206e6f7420746f6b656e206f776e6560008201527f72206e6f7220617070726f766564000000000000000000000000000000000000602082015250565b61284e816122a0565b811461285957600080fd5b50565b612865816122b2565b811461287057600080fd5b50565b61287c816122be565b811461288757600080fd5b50565b6128938161230a565b811461289e57600080fd5b5056fea2646970667358221220a66f510ee652eac5a2710ac099d8ce160e370122ea261dade3ab2504961d63eb64736f6c63430008040033",
  "linkReferences": {},
  "deployedLinkReferences": {}
}