{
  "_format": "hh-sol-artifact-1",
  "contractName": "PeasNFT",
  "sourceName": "contracts/test/PeasNFT.sol",
  "abi": [
    {
      "inputs": [
        {
          "internalType": "string",
          "name": "name_",
          "type": "string"
        },
        {
          "internalType": "string",
          "name": "symbol_",
          "type": "string"
        }
      ],
      "stateMutability": "nonpayable",
      "type": "constructor"
    },
    {
      "inputs": [],
      "name": "ApprovalCallerNotOwnerNorApproved",
      "type": "error"
    },
    {
      "inputs": [],
      "name": "ApprovalQueryForNonexistentToken",
      "type": "error"
    },
    {
      "inputs": [],
      "name": "ApprovalToCurrentOwner",
      "type": "error"
    },
    {
      "inputs": [],
      "name": "ApproveToCaller",
      "type": "error"
    },
    {
      "inputs": [],
      "name": "BalanceQueryForZeroAddress",
      "type": "error"
    },
    {
      "inputs": [],
      "name": "MintToZeroAddress",
      "type": "error"
    },
    {
      "inputs": [],
      "name": "MintZeroQuantity",
      "type": "error"
    },
    {
      "inputs": [],
      "name": "OwnerQueryForNonexistentToken",
      "type": "error"
    },
    {
      "inputs": [],
      "name": "PeasNFT_CurrentLocked",
      "type": "error"
    },
    {
      "inputs": [],
      "name": "TransferCallerNotOwnerNorApproved",
      "type": "error"
    },
    {
      "inputs": [],
      "name": "TransferFromIncorrectOwner",
      "type": "error"
    },
    {
      "inputs": [],
      "name": "TransferToNonERC721ReceiverImplementer",
      "type": "error"
    },
    {
      "inputs": [],
      "name": "TransferToZeroAddress",
      "type": "error"
    },
    {
      "inputs": [],
      "name": "URIQueryForNonexistentToken",
      "type": "error"
    },
    {
      "anonymous": false,
      "inputs": [
        {
          "indexed": true,
          "internalType": "address",
          "name": "owner",
          "type": "address"
        },
        {
          "indexed": true,
          "internalType": "address",
          "name": "approved",
          "type": "address"
        },
        {
          "indexed": true,
          "internalType": "uint256",
          "name": "tokenId",
          "type": "uint256"
        }
      ],
      "name": "Approval",
      "type": "event"
    },
    {
      "anonymous": false,
      "inputs": [
        {
          "indexed": true,
          "internalType": "address",
          "name": "owner",
          "type": "address"
        },
        {
          "indexed": true,
          "internalType": "address",
          "name": "operator",
          "type": "address"
        },
        {
          "indexed": false,
          "internalType": "bool",
          "name": "approved",
          "type": "bool"
        }
      ],
      "name": "ApprovalForAll",
      "type": "event"
    },
    {
      "anonymous": false,
      "inputs": [
        {
          "indexed": true,
          "internalType": "address",
          "name": "operator",
          "type": "address"
        },
        {
          "indexed": false,
          "internalType": "uint256",
          "name": "tokenID",
          "type": "uint256"
        }
      ],
      "name": "Burn",
      "type": "event"
    },
    {
      "anonymous": false,
      "inputs": [
        {
          "indexed": true,
          "internalType": "address",
          "name": "operator",
          "type": "address"
        },
        {
          "indexed": false,
          "internalType": "bool",
          "name": "locked",
          "type": "bool"
        }
      ],
      "name": "Locked",
      "type": "event"
    },
    {
      "anonymous": false,
      "inputs": [
        {
          "indexed": true,
          "internalType": "address",
          "name": "operator",
          "type": "address"
        },
        {
          "indexed": true,
          "internalType": "address",
          "name": "to",
          "type": "address"
        },
        {
          "indexed": false,
          "internalType": "uint256",
          "name": "quantity",
          "type": "uint256"
        }
      ],
      "name": "Mint",
      "type": "event"
    },
    {
      "anonymous": false,
      "inputs": [
        {
          "indexed": true,
          "internalType": "address",
          "name": "operator",
          "type": "address"
        },
        {
          "indexed": false,
          "internalType": "uint256",
          "name": "quantity",
          "type": "uint256"
        }
      ],
      "name": "MintToPool",
      "type": "event"
    },
    {
      "anonymous": false,
      "inputs": [
        {
          "indexed": true,
          "internalType": "address",
          "name": "previousOwner",
          "type": "address"
        },
        {
          "indexed": true,
          "internalType": "address",
          "name": "newOwner",
          "type": "address"
        }
      ],
      "name": "OwnershipTransferred",
      "type": "event"
    },
    {
      "anonymous": false,
      "inputs": [
        {
          "indexed": true,
          "internalType": "address",
          "name": "operator",
          "type": "address"
        },
        {
          "indexed": false,
          "internalType": "address",
          "name": "pool",
          "type": "address"
        }
      ],
      "name": "SetupPool",
      "type": "event"
    },
    {
      "anonymous": false,
      "inputs": [
        {
          "indexed": true,
          "internalType": "address",
          "name": "operator",
          "type": "address"
        },
        {
          "indexed": false,
          "internalType": "bool",
          "name": "allowed",
          "type": "bool"
        }
      ],
      "name": "TradingAllowed",
      "type": "event"
    },
    {
      "anonymous": false,
      "inputs": [
        {
          "indexed": true,
          "internalType": "address",
          "name": "from",
          "type": "address"
        },
        {
          "indexed": true,
          "internalType": "address",
          "name": "to",
          "type": "address"
        },
        {
          "indexed": true,
          "internalType": "uint256",
          "name": "tokenId",
          "type": "uint256"
        }
      ],
      "name": "Transfer",
      "type": "event"
    },
    {
      "anonymous": false,
      "inputs": [
        {
          "indexed": false,
          "internalType": "string",
          "name": "",
          "type": "string"
        }
      ],
      "name": "UpdateMetadataAnimationUrl",
      "type": "event"
    },
    {
      "anonymous": false,
      "inputs": [
        {
          "indexed": false,
          "internalType": "string",
          "name": "",
          "type": "string"
        }
      ],
      "name": "UpdateMetadataExternalUrl",
      "type": "event"
    },
    {
      "anonymous": false,
      "inputs": [
        {
          "indexed": false,
          "internalType": "string",
          "name": "",
          "type": "string"
        }
      ],
      "name": "UpdateMetadataImage",
      "type": "event"
    },
    {
      "inputs": [
        {
          "internalType": "address",
          "name": "to",
          "type": "address"
        },
        {
          "internalType": "uint256",
          "name": "tokenId",
          "type": "uint256"
        }
      ],
      "name": "approve",
      "outputs": [],
      "stateMutability": "nonpayable",
      "type": "function"
    },
    {
      "inputs": [
        {
          "internalType": "address",
          "name": "owner",
          "type": "address"
        }
      ],
      "name": "balanceOf",
      "outputs": [
        {
          "internalType": "uint256",
          "name": "",
          "type": "uint256"
        }
      ],
      "stateMutability": "view",
      "type": "function"
    },
    {
      "inputs": [],
      "name": "baseURI",
      "outputs": [
        {
          "internalType": "string",
          "name": "",
          "type": "string"
        }
      ],
      "stateMutability": "view",
      "type": "function"
    },
    {
      "inputs": [
        {
          "internalType": "uint256",
          "name": "tokenId",
          "type": "uint256"
        }
      ],
      "name": "burn",
      "outputs": [],
      "stateMutability": "nonpayable",
      "type": "function"
    },
    {
      "inputs": [
        {
          "internalType": "uint256",
          "name": "tokenId",
          "type": "uint256"
        }
      ],
      "name": "getApproved",
      "outputs": [
        {
          "internalType": "address",
          "name": "",
          "type": "address"
        }
      ],
      "stateMutability": "view",
      "type": "function"
    },
    {
      "inputs": [
        {
          "internalType": "address",
          "name": "owner",
          "type": "address"
        },
        {
          "internalType": "address",
          "name": "operator",
          "type": "address"
        }
      ],
      "name": "isApprovedForAll",
      "outputs": [
        {
          "internalType": "bool",
          "name": "",
          "type": "bool"
        }
      ],
      "stateMutability": "view",
      "type": "function"
    },
    {
      "inputs": [],
      "name": "lock",
      "outputs": [],
      "stateMutability": "nonpayable",
      "type": "function"
    },
    {
      "inputs": [
        {
          "internalType": "address",
          "name": "to",
          "type": "address"
        },
        {
          "internalType": "uint256",
          "name": "quantity",
          "type": "uint256"
        }
      ],
      "name": "mint",
      "outputs": [],
      "stateMutability": "nonpayable",
      "type": "function"
    },
    {
      "inputs": [],
      "name": "name",
      "outputs": [
        {
          "internalType": "string",
          "name": "",
          "type": "string"
        }
      ],
      "stateMutability": "view",
      "type": "function"
    },
    {
      "inputs": [],
      "name": "owner",
      "outputs": [
        {
          "internalType": "address",
          "name": "",
          "type": "address"
        }
      ],
      "stateMutability": "view",
      "type": "function"
    },
    {
      "inputs": [
        {
          "internalType": "uint256",
          "name": "tokenId",
          "type": "uint256"
        }
      ],
      "name": "ownerOf",
      "outputs": [
        {
          "internalType": "address",
          "name": "",
          "type": "address"
        }
      ],
      "stateMutability": "view",
      "type": "function"
    },
    {
      "inputs": [],
      "name": "renounceOwnership",
      "outputs": [],
      "stateMutability": "nonpayable",
      "type": "function"
    },
    {
      "inputs": [
        {
          "internalType": "address",
          "name": "from",
          "type": "address"
        },
        {
          "internalType": "address",
          "name": "to",
          "type": "address"
        },
        {
          "internalType": "uint256",
          "name": "tokenId",
          "type": "uint256"
        }
      ],
      "name": "safeTransferFrom",
      "outputs": [],
      "stateMutability": "nonpayable",
      "type": "function"
    },
    {
      "inputs": [
        {
          "internalType": "address",
          "name": "from",
          "type": "address"
        },
        {
          "internalType": "address",
          "name": "to",
          "type": "address"
        },
        {
          "internalType": "uint256",
          "name": "tokenId",
          "type": "uint256"
        },
        {
          "internalType": "bytes",
          "name": "_data",
          "type": "bytes"
        }
      ],
      "name": "safeTransferFrom",
      "outputs": [],
      "stateMutability": "nonpayable",
      "type": "function"
    },
    {
      "inputs": [
        {
          "internalType": "address",
          "name": "operator",
          "type": "address"
        },
        {
          "internalType": "bool",
          "name": "approved",
          "type": "bool"
        }
      ],
      "name": "setApprovalForAll",
      "outputs": [],
      "stateMutability": "nonpayable",
      "type": "function"
    },
    {
      "inputs": [
        {
          "internalType": "string",
          "name": "_newBaseURI",
          "type": "string"
        }
      ],
      "name": "setBaseURI",
      "outputs": [],
      "stateMutability": "nonpayable",
      "type": "function"
    },
    {
      "inputs": [
        {
          "internalType": "address",
          "name": "treasury",
          "type": "address"
        }
      ],
      "name": "setTreasury",
      "outputs": [],
      "stateMutability": "nonpayable",
      "type": "function"
    },
    {
      "inputs": [
        {
          "internalType": "bytes4",
          "name": "interfaceId",
          "type": "bytes4"
        }
      ],
      "name": "supportsInterface",
      "outputs": [
        {
          "internalType": "bool",
          "name": "",
          "type": "bool"
        }
      ],
      "stateMutability": "view",
      "type": "function"
    },
    {
      "inputs": [],
      "name": "symbol",
      "outputs": [
        {
          "internalType": "string",
          "name": "",
          "type": "string"
        }
      ],
      "stateMutability": "view",
      "type": "function"
    },
    {
      "inputs": [
        {
          "internalType": "uint256",
          "name": "index",
          "type": "uint256"
        }
      ],
      "name": "tokenByIndex",
      "outputs": [
        {
          "internalType": "uint256",
          "name": "",
          "type": "uint256"
        }
      ],
      "stateMutability": "view",
      "type": "function"
    },
    {
      "inputs": [
        {
          "internalType": "address",
          "name": "owner",
          "type": "address"
        },
        {
          "internalType": "uint256",
          "name": "index",
          "type": "uint256"
        }
      ],
      "name": "tokenOfOwnerByIndex",
      "outputs": [
        {
          "internalType": "uint256",
          "name": "tokenId",
          "type": "uint256"
        }
      ],
      "stateMutability": "view",
      "type": "function"
    },
    {
      "inputs": [
        {
          "internalType": "uint256",
          "name": "tokenId",
          "type": "uint256"
        }
      ],
      "name": "tokenURI",
      "outputs": [
        {
          "internalType": "string",
          "name": "",
          "type": "string"
        }
      ],
      "stateMutability": "view",
      "type": "function"
    },
    {
      "inputs": [],
      "name": "totalSupply",
      "outputs": [
        {
          "internalType": "uint256",
          "name": "",
          "type": "uint256"
        }
      ],
      "stateMutability": "view",
      "type": "function"
    },
    {
      "inputs": [
        {
          "internalType": "address",
          "name": "from",
          "type": "address"
        },
        {
          "internalType": "address",
          "name": "to",
          "type": "address"
        },
        {
          "internalType": "uint256",
          "name": "tokenId",
          "type": "uint256"
        }
      ],
      "name": "transferFrom",
      "outputs": [],
      "stateMutability": "nonpayable",
      "type": "function"
    },
    {
      "inputs": [
        {
          "internalType": "address",
          "name": "newOwner",
          "type": "address"
        }
      ],
      "name": "transferOwnership",
      "outputs": [],
      "stateMutability": "nonpayable",
      "type": "function"
    },
    {
      "inputs": [],
      "name": "unlock",
      "outputs": [],
      "stateMutability": "nonpayable",
      "type": "function"
    }
  ],
  "bytecode": "0x60806040523480156200001157600080fd5b506040516200282f3803806200282f833981016040819052620000349162000274565b8151829082906200004d9060019060208501906200011b565b508051620000639060029060208401906200011b565b505050620000806200007a620000c560201b60201c565b620000c9565b600a805460ff1916600117905560408051608081019091526056808252620027d960208301398051620000bc916009916020909101906200011b565b5050506200032e565b3390565b600780546001600160a01b038381166001600160a01b0319831681179093556040519116919082907f8be0079c531659141344cd1fd0a4f28419497f9722a3daafe3b4186f6b6457e090600090a35050565b8280546200012990620002db565b90600052602060002090601f0160209004810192826200014d576000855562000198565b82601f106200016857805160ff191683800117855562000198565b8280016001018555821562000198579182015b82811115620001985782518255916020019190600101906200017b565b50620001a6929150620001aa565b5090565b5b80821115620001a65760008155600101620001ab565b600082601f830112620001d2578081fd5b81516001600160401b0380821115620001ef57620001ef62000318565b604051601f8301601f19908116603f011681019082821181831017156200021a576200021a62000318565b8160405283815260209250868385880101111562000236578485fd5b8491505b838210156200025957858201830151818301840152908201906200023a565b838211156200026a57848385830101525b9695505050505050565b6000806040838503121562000287578182fd5b82516001600160401b03808211156200029e578384fd5b620002ac86838701620001c1565b93506020850151915080821115620002c2578283fd5b50620002d185828601620001c1565b9150509250929050565b600181811c90821680620002f057607f821691505b602082108114156200031257634e487b7160e01b600052602260045260246000fd5b50919050565b634e487b7160e01b600052604160045260246000fd5b61249b806200033e6000396000f3fe608060405234801561001057600080fd5b506004361061018e5760003560e01c80636c0360eb116100de578063a69df4b511610097578063e985e9c511610071578063e985e9c51461033b578063f0f4426014610377578063f2fde38b1461038a578063f83d08ba1461039d57600080fd5b8063a69df4b51461030d578063b88d4fde14610315578063c87b56dd1461032857600080fd5b80636c0360eb146102be57806370a08231146102c6578063715018a6146102d95780638da5cb5b146102e157806395d89b41146102f2578063a22cb465146102fa57600080fd5b80632f745c591161014b57806342966c681161012557806342966c68146102725780634f6ccce71461028557806355f804b3146102985780636352211e146102ab57600080fd5b80632f745c591461023957806340c10f191461024c57806342842e0e1461025f57600080fd5b806301ffc9a71461019357806306fdde03146101bb578063081812fc146101d0578063095ea7b3146101fb57806318160ddd1461021057806323b872dd14610226575b600080fd5b6101a66101a1366004611e37565b6103a5565b60405190151581526020015b60405180910390f35b6101c3610412565b6040516101b29190612119565b6101e36101de366004611eb5565b6104a4565b6040516001600160a01b0390911681526020016101b2565b61020e610209366004611e0e565b610534565b005b61021861064c565b6040519081526020016101b2565b61020e610234366004611d20565b610668565b610218610247366004611e0e565b610699565b61020e61025a366004611e0e565b61076e565b61020e61026d366004611d20565b6107c5565b61020e610280366004611eb5565b6107e0565b610218610293366004611eb5565b61088a565b61020e6102a6366004611e6f565b610952565b6101e36102b9366004611eb5565b610971565b6101c3610985565b6102186102d4366004611ccd565b610a13565b61020e610aef565b6007546001600160a01b03166101e3565b6101c3610b03565b61020e610308366004611dd4565b610b12565b61020e610bd0565b61020e610323366004611d5b565b610be4565b6101c3610336366004611eb5565b610c1c565b6101a6610349366004611cee565b6001600160a01b03918216600090815260066020908152604080832093909416825291909152205460ff1690565b61020e610385366004611ccd565b610cdc565b61020e610398366004611ccd565b610d55565b61020e610dce565b60006001600160e01b031982166380ac58cd60e01b14806103d657506001600160e01b03198216635b5e139f60e01b145b806103f157506001600160e01b0319821663780e9d6360e01b145b8061040c57506301ffc9a760e01b6001600160e01b03198316145b92915050565b60606001805461042190612263565b80601f016020809104026020016040519081016040528092919081815260200182805461044d90612263565b801561049a5780601f1061046f5761010080835404028352916020019161049a565b820191906000526020600020905b81548152906001019060200180831161047d57829003601f168201915b5050505050905090565b60006104af82610de5565b6105185760405162461bcd60e51b815260206004820152602f60248201527f4552433732315073693a20617070726f76656420717565727920666f72206e6f60448201526e3732bc34b9ba32b73a103a37b5b2b760891b60648201526084015b60405180910390fd5b506000908152600560205260409020546001600160a01b031690565b600061053f82610971565b9050806001600160a01b0316836001600160a01b031614156105af5760405162461bcd60e51b8152602060048201526024808201527f4552433732315073693a20617070726f76616c20746f2063757272656e74206f6044820152633bb732b960e11b606482015260840161050f565b336001600160a01b03821614806105cb57506105cb8133610349565b61063d5760405162461bcd60e51b815260206004820152603b60248201527f4552433732315073693a20617070726f76652063616c6c6572206973206e6f7460448201527f206f776e6572206e6f7220617070726f76656420666f7220616c6c0000000000606482015260840161050f565b6106478383610e1b565b505050565b6000610656610e89565b6004546106639190612220565b905090565b6106723382610ee9565b61068e5760405162461bcd60e51b815260040161050f90612181565b610647838383610fd6565b60008060015b60016004546106ae91906121d5565b811015610719576106be81610de5565b80156106e357506106ce81610971565b6001600160a01b0316856001600160a01b0316145b1561070757838214156106f957915061040c9050565b816107038161229e565b9250505b806107118161229e565b91505061069f565b5060405162461bcd60e51b8152602060048201526024808201527f4552433732315073693a206f776e657220696e646578206f7574206f6620626f604482015263756e647360e01b606482015260840161050f565b6107766111db565b6107808282611235565b6040518181526001600160a01b0383169033907fab8530f87dc9b59234c4623bf917212bb2536d647574c8e7e5da92c2ede0c9f8906020015b60405180910390a35050565b61064783838360405180602001604052806000815250610be4565b6107e981610971565b6001600160a01b0316336001600160a01b0316146108495760405162461bcd60e51b815260206004820152601960248201527f4e6f7420616c6c6f7765642077697468206e6f206f776e657200000000000000604482015260640161050f565b6108528161124f565b60405181815233907fcc16f5dbb4873280815c1ee09dbd06736cffcc184412cf7a71a0fdb75d397ca59060200160405180910390a250565b600061089461064c565b82106108f05760405162461bcd60e51b815260206004820152602560248201527f4552433732315073693a20676c6f62616c20696e646578206f7574206f6620626044820152646f756e647360d81b606482015260840161050f565b600060015b600160045461090491906121d5565b8110156109485761091481610de5565b156109365783821415610928579392505050565b816109328161229e565b9250505b806109408161229e565b9150506108f5565b5060009392505050565b61095a6111db565b805161096d906009906020840190611ba7565b5050565b60008061097d836112b1565b509392505050565b6009805461099290612263565b80601f01602080910402602001604051908101604052809291908181526020018280546109be90612263565b8015610a0b5780601f106109e057610100808354040283529160200191610a0b565b820191906000526020600020905b8154815290600101906020018083116109ee57829003601f168201915b505050505081565b60006001600160a01b038216610a815760405162461bcd60e51b815260206004820152602d60248201527f4552433732315073693a2062616c616e636520717565727920666f722074686560448201526c207a65726f206164647265737360981b606482015260840161050f565b600060015b6001600454610a9591906121d5565b811015610ae857610aa581610de5565b15610ad857610ab381610971565b6001600160a01b0316846001600160a01b03161415610ad857610ad58261229e565b91505b610ae18161229e565b9050610a86565b5092915050565b610af76111db565b610b016000611348565b565b60606002805461042190612263565b6001600160a01b038216331415610b6b5760405162461bcd60e51b815260206004820152601c60248201527f4552433732315073693a20617070726f766520746f2063616c6c657200000000604482015260640161050f565b3360008181526006602090815260408083206001600160a01b03871680855290835292819020805460ff191686151590811790915590519081529192917f17307eab39ab6107e8899845ad3d59bd9653f200f220920489ca2b5937696c3191016107b9565b610bd86111db565b600a805460ff19169055565b610bee3383610ee9565b610c0a5760405162461bcd60e51b815260040161050f90612181565b610c168484848461139a565b50505050565b6060610c2782610de5565b610c4457604051630a14c4b560e41b815260040160405180910390fd5b6000610c4f836113cf565b9050600081610c5c610412565b836009604051602001610c729493929190611f9a565b60405160208183030381529060405290506000610cad82604051602001610c999190611ef9565b6040516020818303038152906040526114e9565b9050600081604051602001610cc29190611f55565b60408051601f198184030181529190529695505050505050565b610ce46111db565b6001600160a01b038116610d2d5760405162461bcd60e51b815260206004820152601060248201526f496e76616c696420747265617375727960801b604482015260640161050f565b600a80546001600160a01b0390921661010002610100600160a81b0319909216919091179055565b610d5d6111db565b6001600160a01b038116610dc25760405162461bcd60e51b815260206004820152602660248201527f4f776e61626c653a206e6577206f776e657220697320746865207a65726f206160448201526564647265737360d01b606482015260840161050f565b610dcb81611348565b50565b610dd66111db565b600a805460ff19166001179055565b600881811c60009081526020919091526040812054600160ff1b60ff84161c1615610e1257506000919050565b61040c82611642565b600081815260056020526040902080546001600160a01b0319166001600160a01b0384169081179091558190610e5082610971565b6001600160a01b03167f8c5be1e5ebec7d5bd14f71427d1e84f3dd0314c0f7b2291e5b200ac8c7c3b92560405160405180910390a45050565b6000806008600454901c6001610e9f91906121d5565b905060005b81811015610ee457600081815260086020526040902054610ec481611667565b610ece90856121d5565b9350508080610edc9061229e565b915050610ea4565b505090565b6000610ef482610de5565b610f585760405162461bcd60e51b815260206004820152602f60248201527f4552433732315073693a206f70657261746f7220717565727920666f72206e6f60448201526e3732bc34b9ba32b73a103a37b5b2b760891b606482015260840161050f565b6000610f6383610971565b9050806001600160a01b0316846001600160a01b03161480610f9e5750836001600160a01b0316610f93846104a4565b6001600160a01b0316145b80610fce57506001600160a01b0380821660009081526006602090815260408083209388168352929052205460ff165b949350505050565b600080610fe2836112b1565b91509150846001600160a01b0316826001600160a01b03161461105c5760405162461bcd60e51b815260206004820152602c60248201527f4552433732315073693a207472616e73666572206f6620746f6b656e2074686160448201526b3a1034b9903737ba1037bbb760a11b606482015260840161050f565b6001600160a01b0384166110c25760405162461bcd60e51b815260206004820152602760248201527f4552433732315073693a207472616e7366657220746f20746865207a65726f206044820152666164647265737360c81b606482015260840161050f565b6110cf8585856001611686565b6110da600084610e1b565b60006110e78460016121d5565b600881901c600090815260208190526040902054909150600160ff1b60ff83161c161580156111235750600160045461112091906121d5565b81105b1561115957600081815260036020526040812080546001600160a01b0319166001600160a01b03891617905561115990826116fe565b600084815260036020526040902080546001600160a01b0319166001600160a01b038716179055818414611192576111926000856116fe565b83856001600160a01b0316876001600160a01b03167fddf252ad1be2c89b69c2b068fc378daa952ba7f163c4a11628f55a4df523b3ef60405160405180910390a4505050505050565b6007546001600160a01b03163314610b015760405162461bcd60e51b815260206004820181905260248201527f4f776e61626c653a2063616c6c6572206973206e6f7420746865206f776e6572604482015260640161050f565b61096d82826040518060200160405280600081525061172a565b600061125a82610971565b905061126a816000846001611686565b6112756008836116fe565b60405182906000906001600160a01b038416907fddf252ad1be2c89b69c2b068fc378daa952ba7f163c4a11628f55a4df523b3ef908390a45050565b6000806112bd83610de5565b61131e5760405162461bcd60e51b815260206004820152602c60248201527f4552433732315073693a206f776e657220717565727920666f72206e6f6e657860448201526b34b9ba32b73a103a37b5b2b760a11b606482015260840161050f565b61132783611745565b6000818152600360205260409020546001600160a01b031694909350915050565b600780546001600160a01b038381166001600160a01b0319831681179093556040519116919082907f8be0079c531659141344cd1fd0a4f28419497f9722a3daafe3b4186f6b6457e090600090a35050565b6113a5848484610fd6565b6113b3848484600185611751565b610c165760405162461bcd60e51b815260040161050f9061212c565b6060816113f35750506040805180820190915260018152600360fc1b602082015290565b8160005b811561141d57806114078161229e565b91506114169050600a836121ed565b91506113f7565b60008167ffffffffffffffff81111561144657634e487b7160e01b600052604160045260246000fd5b6040519080825280601f01601f191660200182016040528015611470576020820181803683370190505b5090505b8415610fce57611485600183612220565b9150611492600a866122b9565b61149d9060306121d5565b60f81b8183815181106114c057634e487b7160e01b600052603260045260246000fd5b60200101906001600160f81b031916908160001a9053506114e2600a866121ed565b9450611474565b8051606090600060036114fd8360026121d5565b61150791906121ed565b611512906004612201565b905060006115218260206121d5565b67ffffffffffffffff81111561154757634e487b7160e01b600052604160045260246000fd5b6040519080825280601f01601f191660200182016040528015611571576020820181803683370190505b5090506000604051806060016040528060408152602001612326604091399050600181016020830160005b868110156115fd576003818a01810151603f601282901c8116860151600c83901c8216870151600684901c831688015192909316870151600891821b60ff94851601821b92841692909201901b91160160e01b83526004909201910161159c565b506003860660018114611617576002811461162857611634565b613d3d60f01b600119830152611634565b603d60f81b6000198301525b505050918152949350505050565b60008160011115801561040c5750600160045461165f91906121d5565b821092915050565b60005b81156116815760001982019091169060010161166a565b919050565b6001600160a01b038416158015906116b15750600a546001600160a01b038581166101009092041614155b15610c1657600a5460ff1615610c165760405162461bcd60e51b815260206004820152601260248201527114115054c81b999d081a5cc81b1bd8dad95960721b604482015260640161050f565b600881901c600090815260209290925260409091208054600160ff1b60ff9093169290921c9091179055565b6004546117378484611894565b6113b3600085838686611751565b600061040c8183611a1f565b60006001600160a01b0385163b1561188757506001835b61177284866121d5565b81101561188157604051630a85bd0160e11b81526001600160a01b0387169063150b7a02906117ab9033908b90869089906004016120dc565b602060405180830381600087803b1580156117c557600080fd5b505af19250505080156117f5575060408051601f3d908101601f191682019092526117f291810190611e53565b60015b61184f573d808015611823576040519150601f19603f3d011682016040523d82523d6000602084013e611828565b606091505b5080516118475760405162461bcd60e51b815260040161050f9061212c565b805181602001fd5b82801561186c57506001600160e01b03198116630a85bd0160e11b145b925050806118798161229e565b915050611768565b5061188b565b5060015b95945050505050565b60006004546118a1600190565b6118ab91906121d5565b90506000821161190b5760405162461bcd60e51b815260206004820152602560248201527f4552433732315073693a207175616e74697479206d7573742062652067726561604482015264074657220360dc1b606482015260840161050f565b6001600160a01b03831661196d5760405162461bcd60e51b815260206004820152602360248201527f4552433732315073693a206d696e7420746f20746865207a65726f206164647260448201526265737360e81b606482015260840161050f565b61197a6000848385611686565b816004600082825461198c91906121d5565b9091555050600081815260036020526040812080546001600160a01b0319166001600160a01b0386161790556119c290826116fe565b805b6119ce83836121d5565b811015610c165760405181906001600160a01b038616906000907fddf252ad1be2c89b69c2b068fc378daa952ba7f163c4a11628f55a4df523b3ef908290a480611a178161229e565b9150506119c4565b600881901c60008181526020849052604081205490919060ff808516919082181c8015611a6157611a4f81611b17565b60ff168203600884901b179350611b0e565b60008311611ace5760405162461bcd60e51b815260206004820152603460248201527f4269744d6170733a205468652073657420626974206265666f7265207468652060448201527334b73232bc103237b2b9b713ba1032bc34b9ba1760611b606482015260840161050f565b506000199091016000818152602086905260409020549091908015611b0957611af681611b17565b60ff0360ff16600884901b179350611b0e565b611a61565b50505092915050565b60006040518061012001604052806101008152602001612366610100913960f87e818283848586878898a8b8c8d8e8f929395969799a9b9d9e9faaeb6bedeeff611b6085611b8f565b02901c81518110611b8157634e487b7160e01b600052603260045260246000fd5b016020015160f81c92915050565b6000808211611b9d57600080fd5b5060008190031690565b828054611bb390612263565b90600052602060002090601f016020900481019282611bd55760008555611c1b565b82601f10611bee57805160ff1916838001178555611c1b565b82800160010185558215611c1b579182015b82811115611c1b578251825591602001919060010190611c00565b50611c27929150611c2b565b5090565b5b80821115611c275760008155600101611c2c565b600067ffffffffffffffff80841115611c5b57611c5b6122f9565b604051601f8501601f19908116603f01168101908282118183101715611c8357611c836122f9565b81604052809350858152868686011115611c9c57600080fd5b858560208301376000602087830101525050509392505050565b80356001600160a01b038116811461168157600080fd5b600060208284031215611cde578081fd5b611ce782611cb6565b9392505050565b60008060408385031215611d00578081fd5b611d0983611cb6565b9150611d1760208401611cb6565b90509250929050565b600080600060608486031215611d34578081fd5b611d3d84611cb6565b9250611d4b60208501611cb6565b9150604084013590509250925092565b60008060008060808587031215611d70578081fd5b611d7985611cb6565b9350611d8760208601611cb6565b925060408501359150606085013567ffffffffffffffff811115611da9578182fd5b8501601f81018713611db9578182fd5b611dc887823560208401611c40565b91505092959194509250565b60008060408385031215611de6578182fd5b611def83611cb6565b915060208301358015158114611e03578182fd5b809150509250929050565b60008060408385031215611e20578182fd5b611e2983611cb6565b946020939093013593505050565b600060208284031215611e48578081fd5b8135611ce78161230f565b600060208284031215611e64578081fd5b8151611ce78161230f565b600060208284031215611e80578081fd5b813567ffffffffffffffff811115611e96578182fd5b8201601f81018413611ea6578182fd5b610fce84823560208401611c40565b600060208284031215611ec6578081fd5b5035919050565b60008151808452611ee5816020860160208601612237565b601f01601f19169290920160200192915050565b60008251611f0b818460208701612237565b7f2c20226465736372697074696f6e223a2022506c61794573746174657320417292019182525071636164652053746174696f6e204e4654227d60701b6020820152603201919050565b7f646174613a6170706c69636174696f6e2f6a736f6e3b6261736536342c000000815260008251611f8d81601d850160208701612237565b91909101601d0192915050565b6603d9134b2111d160cd1b815284516000906020611fbe8260078601838b01612237565b6a1610113730b6b2911d101160a91b6007928501928301528651611fe88160128501848b01612237565b61202360f01b60129390910192830152855161200a8160148501848a01612237565b6c1116101134b6b0b3b2911d101160991b6014939091019283015284546021908490600181811c908083168061204157607f831692505b86831081141561205f57634e487b7160e01b89526022600452602489fd5b8080156120735760018114612088576120b8565b60ff19851689880152838901870195506120b8565b60008c8152602090208a5b858110156120ae5781548b82018a0152908401908901612093565b505086848a010195505b50505050506120ce81601160f91b815260010190565b9a9950505050505050505050565b6001600160a01b038581168252841660208201526040810183905260806060820181905260009061210f90830184611ecd565b9695505050505050565b602081526000611ce76020830184611ecd565b60208082526035908201527f4552433732315073693a207472616e7366657220746f206e6f6e20455243373260408201527418a932b1b2b4bb32b91034b6b83632b6b2b73a32b960591b606082015260800190565b60208082526034908201527f4552433732315073693a207472616e736665722063616c6c6572206973206e6f6040820152731d081bdddb995c881b9bdc88185c1c1c9bdd995960621b606082015260800190565b600082198211156121e8576121e86122cd565b500190565b6000826121fc576121fc6122e3565b500490565b600081600019048311821515161561221b5761221b6122cd565b500290565b600082821015612232576122326122cd565b500390565b60005b8381101561225257818101518382015260200161223a565b83811115610c165750506000910152565b600181811c9082168061227757607f821691505b6020821081141561229857634e487b7160e01b600052602260045260246000fd5b50919050565b60006000198214156122b2576122b26122cd565b5060010190565b6000826122c8576122c86122e3565b500690565b634e487b7160e01b600052601160045260246000fd5b634e487b7160e01b600052601260045260246000fd5b634e487b7160e01b600052604160045260246000fd5b6001600160e01b031981168114610dcb57600080fdfe4142434445464748494a4b4c4d4e4f505152535455565758595a6162636465666768696a6b6c6d6e6f707172737475767778797a303132333435363738392b2f0001020903110a19042112290b311a3905412245134d2a550c5d32651b6d3a7506264262237d468514804e8d2b95569d0d495ea533a966b11c886eb93bc176c9071727374353637324837e9b47af86c7155181ad4fd18ed32c9096db57d59ee30e2e4a6a5f92a6be3498aae067ddb2eb1d5989b56fd7baf33ca0c2ee77e5caf7ff0810182028303840444c545c646c7425617c847f8c949c48a4a8b087b8c0c816365272829aaec650acd0d28fdad4e22d6991bd97dfdcea58b4d6f29fede4f6fe0f1f2f3f4b5b6b607b8b93a3a7b7bf357199c5abcfd9e168bcdee9b3f1ecf5fd1e3e5a7a8aa2b670c4ced8bbe8f0f4fc3d79a1c3cde7effb78cce6facbf9f8a264697066735822122090710d27404c9cd869c347521940c976bcfa0fc86f6d922eda149e8eff69040564736f6c6343000804003368747470733a2f2f706c6179657374617465732e6d7970696e6174612e636c6f75642f697066732f516d537a6152534851367965595065376f5232756d7941434638346f7452324477436d545558344c727267763963",
  "linkReferences": {},
  "deployedLinkReferences": {}
}