{
  "_format": "hh-sol-artifact-1",
  "contractName": "PlayEstatesBrickToken",
  "sourceName": "contracts/token/PlayEstatesBrickToken.sol",
  "abi": [
    {
      "inputs": [
        {
          "internalType": "string",
          "name": "symbol",
          "type": "string"
        },
        {
          "internalType": "string",
          "name": "name",
          "type": "string"
        }
      ],
      "stateMutability": "nonpayable",
      "type": "constructor"
    },
    {
      "anonymous": false,
      "inputs": [
        {
          "indexed": true,
          "internalType": "address",
          "name": "owner",
          "type": "address"
        },
        {
          "indexed": true,
          "internalType": "address",
          "name": "spender",
          "type": "address"
        },
        {
          "indexed": false,
          "internalType": "uint256",
          "name": "value",
          "type": "uint256"
        }
      ],
      "name": "Approval",
      "type": "event"
    },
    {
      "anonymous": false,
      "inputs": [
        {
          "indexed": true,
          "internalType": "bytes32",
          "name": "role",
          "type": "bytes32"
        },
        {
          "indexed": true,
          "internalType": "bytes32",
          "name": "previousAdminRole",
          "type": "bytes32"
        },
        {
          "indexed": true,
          "internalType": "bytes32",
          "name": "newAdminRole",
          "type": "bytes32"
        }
      ],
      "name": "RoleAdminChanged",
      "type": "event"
    },
    {
      "anonymous": false,
      "inputs": [
        {
          "indexed": true,
          "internalType": "bytes32",
          "name": "role",
          "type": "bytes32"
        },
        {
          "indexed": true,
          "internalType": "address",
          "name": "account",
          "type": "address"
        },
        {
          "indexed": true,
          "internalType": "address",
          "name": "sender",
          "type": "address"
        }
      ],
      "name": "RoleGranted",
      "type": "event"
    },
    {
      "anonymous": false,
      "inputs": [
        {
          "indexed": true,
          "internalType": "bytes32",
          "name": "role",
          "type": "bytes32"
        },
        {
          "indexed": true,
          "internalType": "address",
          "name": "account",
          "type": "address"
        },
        {
          "indexed": true,
          "internalType": "address",
          "name": "sender",
          "type": "address"
        }
      ],
      "name": "RoleRevoked",
      "type": "event"
    },
    {
      "anonymous": false,
      "inputs": [
        {
          "indexed": true,
          "internalType": "address",
          "name": "from",
          "type": "address"
        },
        {
          "indexed": true,
          "internalType": "address",
          "name": "to",
          "type": "address"
        },
        {
          "indexed": false,
          "internalType": "uint256",
          "name": "value",
          "type": "uint256"
        }
      ],
      "name": "Transfer",
      "type": "event"
    },
    {
      "inputs": [],
      "name": "CONTRACT_ROLE",
      "outputs": [
        {
          "internalType": "bytes32",
          "name": "",
          "type": "bytes32"
        }
      ],
      "stateMutability": "view",
      "type": "function"
    },
    {
      "inputs": [],
      "name": "DEFAULT_ADMIN_ROLE",
      "outputs": [
        {
          "internalType": "bytes32",
          "name": "",
          "type": "bytes32"
        }
      ],
      "stateMutability": "view",
      "type": "function"
    },
    {
      "inputs": [],
      "name": "MINTER_ROLE",
      "outputs": [
        {
          "internalType": "bytes32",
          "name": "",
          "type": "bytes32"
        }
      ],
      "stateMutability": "view",
      "type": "function"
    },
    {
      "inputs": [
        {
          "internalType": "address",
          "name": "owner",
          "type": "address"
        },
        {
          "internalType": "address",
          "name": "spender",
          "type": "address"
        }
      ],
      "name": "allowance",
      "outputs": [
        {
          "internalType": "uint256",
          "name": "",
          "type": "uint256"
        }
      ],
      "stateMutability": "view",
      "type": "function"
    },
    {
      "inputs": [
        {
          "internalType": "address",
          "name": "spender",
          "type": "address"
        },
        {
          "internalType": "uint256",
          "name": "amount",
          "type": "uint256"
        }
      ],
      "name": "approve",
      "outputs": [
        {
          "internalType": "bool",
          "name": "",
          "type": "bool"
        }
      ],
      "stateMutability": "nonpayable",
      "type": "function"
    },
    {
      "inputs": [
        {
          "internalType": "address",
          "name": "account",
          "type": "address"
        }
      ],
      "name": "balanceOf",
      "outputs": [
        {
          "internalType": "uint256",
          "name": "",
          "type": "uint256"
        }
      ],
      "stateMutability": "view",
      "type": "function"
    },
    {
      "inputs": [
        {
          "internalType": "address",
          "name": "minter",
          "type": "address"
        }
      ],
      "name": "clearMintRole",
      "outputs": [],
      "stateMutability": "nonpayable",
      "type": "function"
    },
    {
      "inputs": [],
      "name": "decimals",
      "outputs": [
        {
          "internalType": "uint8",
          "name": "",
          "type": "uint8"
        }
      ],
      "stateMutability": "view",
      "type": "function"
    },
    {
      "inputs": [
        {
          "internalType": "address",
          "name": "spender",
          "type": "address"
        },
        {
          "internalType": "uint256",
          "name": "subtractedValue",
          "type": "uint256"
        }
      ],
      "name": "decreaseAllowance",
      "outputs": [
        {
          "internalType": "bool",
          "name": "",
          "type": "bool"
        }
      ],
      "stateMutability": "nonpayable",
      "type": "function"
    },
    {
      "inputs": [
        {
          "internalType": "bytes32",
          "name": "role",
          "type": "bytes32"
        }
      ],
      "name": "getRoleAdmin",
      "outputs": [
        {
          "internalType": "bytes32",
          "name": "",
          "type": "bytes32"
        }
      ],
      "stateMutability": "view",
      "type": "function"
    },
    {
      "inputs": [
        {
          "internalType": "bytes32",
          "name": "role",
          "type": "bytes32"
        },
        {
          "internalType": "address",
          "name": "account",
          "type": "address"
        }
      ],
      "name": "grantRole",
      "outputs": [],
      "stateMutability": "nonpayable",
      "type": "function"
    },
    {
      "inputs": [
        {
          "internalType": "bytes32",
          "name": "role",
          "type": "bytes32"
        },
        {
          "internalType": "address",
          "name": "account",
          "type": "address"
        }
      ],
      "name": "hasRole",
      "outputs": [
        {
          "internalType": "bool",
          "name": "",
          "type": "bool"
        }
      ],
      "stateMutability": "view",
      "type": "function"
    },
    {
      "inputs": [
        {
          "internalType": "address",
          "name": "spender",
          "type": "address"
        },
        {
          "internalType": "uint256",
          "name": "addedValue",
          "type": "uint256"
        }
      ],
      "name": "increaseAllowance",
      "outputs": [
        {
          "internalType": "bool",
          "name": "",
          "type": "bool"
        }
      ],
      "stateMutability": "nonpayable",
      "type": "function"
    },
    {
      "inputs": [],
      "name": "locked",
      "outputs": [
        {
          "internalType": "bool",
          "name": "",
          "type": "bool"
        }
      ],
      "stateMutability": "view",
      "type": "function"
    },
    {
      "inputs": [
        {
          "internalType": "address",
          "name": "to",
          "type": "address"
        },
        {
          "internalType": "uint256",
          "name": "amount",
          "type": "uint256"
        }
      ],
      "name": "mint",
      "outputs": [],
      "stateMutability": "nonpayable",
      "type": "function"
    },
    {
      "inputs": [],
      "name": "name",
      "outputs": [
        {
          "internalType": "string",
          "name": "",
          "type": "string"
        }
      ],
      "stateMutability": "view",
      "type": "function"
    },
    {
      "inputs": [
        {
          "internalType": "bytes32",
          "name": "role",
          "type": "bytes32"
        },
        {
          "internalType": "address",
          "name": "account",
          "type": "address"
        }
      ],
      "name": "renounceRole",
      "outputs": [],
      "stateMutability": "nonpayable",
      "type": "function"
    },
    {
      "inputs": [
        {
          "internalType": "bytes32",
          "name": "role",
          "type": "bytes32"
        },
        {
          "internalType": "address",
          "name": "account",
          "type": "address"
        }
      ],
      "name": "revokeRole",
      "outputs": [],
      "stateMutability": "nonpayable",
      "type": "function"
    },
    {
      "inputs": [
        {
          "internalType": "address",
          "name": "gameEngine",
          "type": "address"
        }
      ],
      "name": "setGameEngine",
      "outputs": [],
      "stateMutability": "nonpayable",
      "type": "function"
    },
    {
      "inputs": [
        {
          "internalType": "bool",
          "name": "flag",
          "type": "bool"
        }
      ],
      "name": "setLock",
      "outputs": [],
      "stateMutability": "nonpayable",
      "type": "function"
    },
    {
      "inputs": [
        {
          "internalType": "address",
          "name": "marketEngine",
          "type": "address"
        }
      ],
      "name": "setMarketplaceEngine",
      "outputs": [],
      "stateMutability": "nonpayable",
      "type": "function"
    },
    {
      "inputs": [
        {
          "internalType": "address",
          "name": "minter",
          "type": "address"
        }
      ],
      "name": "setMintRole",
      "outputs": [],
      "stateMutability": "nonpayable",
      "type": "function"
    },
    {
      "inputs": [
        {
          "internalType": "bytes4",
          "name": "interfaceId",
          "type": "bytes4"
        }
      ],
      "name": "supportsInterface",
      "outputs": [
        {
          "internalType": "bool",
          "name": "",
          "type": "bool"
        }
      ],
      "stateMutability": "view",
      "type": "function"
    },
    {
      "inputs": [],
      "name": "symbol",
      "outputs": [
        {
          "internalType": "string",
          "name": "",
          "type": "string"
        }
      ],
      "stateMutability": "view",
      "type": "function"
    },
    {
      "inputs": [],
      "name": "totalSupply",
      "outputs": [
        {
          "internalType": "uint256",
          "name": "",
          "type": "uint256"
        }
      ],
      "stateMutability": "view",
      "type": "function"
    },
    {
      "inputs": [
        {
          "internalType": "address",
          "name": "to",
          "type": "address"
        },
        {
          "internalType": "uint256",
          "name": "amount",
          "type": "uint256"
        }
      ],
      "name": "transfer",
      "outputs": [
        {
          "internalType": "bool",
          "name": "",
          "type": "bool"
        }
      ],
      "stateMutability": "nonpayable",
      "type": "function"
    },
    {
      "inputs": [
        {
          "internalType": "address",
          "name": "from",
          "type": "address"
        },
        {
          "internalType": "address",
          "name": "to",
          "type": "address"
        },
        {
          "internalType": "uint256",
          "name": "amount",
          "type": "uint256"
        }
      ],
      "name": "transferFrom",
      "outputs": [
        {
          "internalType": "bool",
          "name": "",
          "type": "bool"
        }
      ],
      "stateMutability": "nonpayable",
      "type": "function"
    }
  ],
  "bytecode": "0x60806040523480156200001157600080fd5b5060405162003794380380620037948339818101604052810190620000379190620004cd565b8181816003908051906020019062000051929190620003ab565b5080600490805190602001906200006a929190620003ab565b505050620000a17f077cd3469c8d88c7fbbdf5b970685a2fe48081ec94665b80049186b786421f8e60001b6200024360201b60201c565b620000d57f051502a5001d3a698e718e3e8ca8a26893dfbad61dc8dde7245ea70c2125397f60001b6200024360201b60201c565b620001097f1509cfa4922007c3664a3c7078d7922fe39bbf969d53fa5bbf0d674ac5aa5bcb60001b6200024360201b60201c565b6200011e6000801b336200024660201b60201c565b620001527f7d02233afeb069affc09ec9ee8c4490067d3e54cb2ea5bf8e4863a39c9924d7260001b6200024360201b60201c565b620001867f837b38296027c59a2071063127227771d274fe8cf1175e6a428585819768758760001b6200024360201b60201c565b620001b87f4d494e5445525f524f4c45000000000000000000000000000000000000000000336200024660201b60201c565b620001ec7f35948ee230d655f9970a3133c5cf1e93080e36f95c2c8dfe6b6e77e205cb7a1060001b6200024360201b60201c565b620002207f3ebfe4955b01509683bc07a47cc0161149fa90b07bb7776564ffa71eb0c8b25460001b6200024360201b60201c565b6001600660006101000a81548160ff0219169083151502179055505050620006b0565b50565b6200025882826200033860201b60201c565b620003345760016005600084815260200190815260200160002060000160008373ffffffffffffffffffffffffffffffffffffffff1673ffffffffffffffffffffffffffffffffffffffff16815260200190815260200160002060006101000a81548160ff021916908315150217905550620002d9620003a360201b60201c565b73ffffffffffffffffffffffffffffffffffffffff168173ffffffffffffffffffffffffffffffffffffffff16837f2f8788117e7eff1d82e926ec794901d17c78024a50270940304540a733656f0d60405160405180910390a45b5050565b60006005600084815260200190815260200160002060000160008373ffffffffffffffffffffffffffffffffffffffff1673ffffffffffffffffffffffffffffffffffffffff16815260200190815260200160002060009054906101000a900460ff16905092915050565b600033905090565b828054620003b990620005d5565b90600052602060002090601f016020900481019282620003dd576000855562000429565b82601f10620003f857805160ff191683800117855562000429565b8280016001018555821562000429579182015b82811115620004285782518255916020019190600101906200040b565b5b5090506200043891906200043c565b5090565b5b80821115620004575760008160009055506001016200043d565b5090565b6000620004726200046c8462000569565b62000540565b9050828152602081018484840111156200048b57600080fd5b620004988482856200059f565b509392505050565b600082601f830112620004b257600080fd5b8151620004c48482602086016200045b565b91505092915050565b60008060408385031215620004e157600080fd5b600083015167ffffffffffffffff811115620004fc57600080fd5b6200050a85828601620004a0565b925050602083015167ffffffffffffffff8111156200052857600080fd5b6200053685828601620004a0565b9150509250929050565b60006200054c6200055f565b90506200055a82826200060b565b919050565b6000604051905090565b600067ffffffffffffffff82111562000587576200058662000670565b5b62000592826200069f565b9050602081019050919050565b60005b83811015620005bf578082015181840152602081019050620005a2565b83811115620005cf576000848401525b50505050565b60006002820490506001821680620005ee57607f821691505b6020821081141562000605576200060462000641565b5b50919050565b62000616826200069f565b810181811067ffffffffffffffff8211171562000638576200063762000670565b5b80604052505050565b7f4e487b7100000000000000000000000000000000000000000000000000000000600052602260045260246000fd5b7f4e487b7100000000000000000000000000000000000000000000000000000000600052604160045260246000fd5b6000601f19601f8301169050919050565b6130d480620006c06000396000f3fe608060405234801561001057600080fd5b50600436106101a95760003560e01c806350371095116100f9578063a457c2d711610097578063d539139311610071578063d5391393146104f4578063d547741f14610512578063dd62ed3e1461052e578063e57c9c5e1461055e576101a9565b8063a457c2d714610476578063a9059cbb146104a6578063cf309012146104d6576101a9565b806370a08231116100d357806370a08231146103da57806391d148541461040a57806395d89b411461043a578063a217fddf14610458576101a9565b80635037109514610386578063530dd079146103a2578063619d5194146103be576101a9565b8063248a9ca311610166578063313ce56711610140578063313ce5671461030057806336568abe1461031e578063395093511461033a57806340c10f191461036a576101a9565b8063248a9ca3146102985780632bf18ae0146102c85780632f2ff15d146102e4576101a9565b806301ffc9a7146101ae57806303fe46ab146101de57806306fdde03146101fc578063095ea7b31461021a57806318160ddd1461024a57806323b872dd14610268575b600080fd5b6101c860048036038101906101c3919061244a565b61057a565b6040516101d5919061271a565b60405180910390f35b6101e66105f4565b6040516101f39190612735565b60405180910390f35b610204610618565b6040516102119190612750565b60405180910390f35b610234600480360381019061022f9190612380565b6106aa565b604051610241919061271a565b60405180910390f35b6102526106cd565b60405161025f91906128d2565b60405180910390f35b610282600480360381019061027d9190612331565b6106d7565b60405161028f919061271a565b60405180910390f35b6102b260048036038101906102ad91906123e5565b610706565b6040516102bf9190612735565b60405180910390f35b6102e260048036038101906102dd91906122cc565b610726565b005b6102fe60048036038101906102f9919061240e565b6107e5565b005b610308610806565b60405161031591906128ed565b60405180910390f35b6103386004803603810190610333919061240e565b610893565b005b610354600480360381019061034f9190612380565b610916565b604051610361919061271a565b60405180910390f35b610384600480360381019061037f9190612380565b61094d565b005b6103a0600480360381019061039b91906122cc565b610a28565b005b6103bc60048036038101906103b791906122cc565b610ae7565b005b6103d860048036038101906103d391906123bc565b610ba6565b005b6103f460048036038101906103ef91906122cc565b610c55565b60405161040191906128d2565b60405180910390f35b610424600480360381019061041f919061240e565b610c9d565b604051610431919061271a565b60405180910390f35b610442610d08565b60405161044f9190612750565b60405180910390f35b610460610d9a565b60405161046d9190612735565b60405180910390f35b610490600480360381019061048b9190612380565b610da1565b60405161049d919061271a565b60405180910390f35b6104c060048036038101906104bb9190612380565b610e18565b6040516104cd919061271a565b60405180910390f35b6104de610e3b565b6040516104eb919061271a565b60405180910390f35b6104fc610e4e565b6040516105099190612735565b60405180910390f35b61052c6004803603810190610527919061240e565b610e72565b005b610548600480360381019061054391906122f5565b610e93565b60405161055591906128d2565b60405180910390f35b610578600480360381019061057391906122cc565b610f1a565b005b60007f7965db0b000000000000000000000000000000000000000000000000000000007bffffffffffffffffffffffffffffffffffffffffffffffffffffffff1916827bffffffffffffffffffffffffffffffffffffffffffffffffffffffff191614806105ed57506105ec82610fd9565b5b9050919050565b7f434f4e54524143545f524f4c450000000000000000000000000000000000000081565b60606003805461062790612c38565b80601f016020809104026020016040519081016040528092919081815260200182805461065390612c38565b80156106a05780601f10610675576101008083540402835291602001916106a0565b820191906000526020600020905b81548152906001019060200180831161068357829003601f168201915b5050505050905090565b6000806106b5611043565b90506106c281858561104b565b600191505092915050565b6000600254905090565b6000806106e2611043565b90506106ef858285611216565b6106fa8585856112a2565b60019150509392505050565b600060056000838152602001908152602001600020600101549050919050565b6000801b61073381611523565b61075f7f93ed32096199c0af34574ad6607aad58d59da5094fa4019c56fdeca197575ae460001b611537565b61078b7fd7c9304a0d5419c4d8fef90cae56469312794a5d1df30be6b8213fb24035b9de60001b611537565b6107b77f27126f45ea2f91e8f6ab87d5f08c96ef5d5549d51e86c63abfef7d074964e60c60001b611537565b6107e17f434f4e54524143545f524f4c45000000000000000000000000000000000000008361153a565b5050565b6107ee82610706565b6107f781611523565b610801838361153a565b505050565b60006108347f3dcd41646f2cc54eee73875e1f192d78119e3a2c1b42c0ce8247d9bd70ddb15660001b611537565b6108607f26443338a11cf9ee4a935a6ac8fdc0a795b3a9f89b06115f27f2f319b478c66660001b611537565b61088c7fdd9975a8ab5ac1227752a897660f06e62caff9eff86f2e932960c6e7dd26c11460001b611537565b6000905090565b61089b611043565b73ffffffffffffffffffffffffffffffffffffffff168173ffffffffffffffffffffffffffffffffffffffff1614610908576040517f08c379a00000000000000000000000000000000000000000000000000000000081526004016108ff90612892565b60405180910390fd5b610912828261161b565b5050565b600080610921611043565b90506109428185856109338589610e93565b61093d919061292f565b61104b565b600191505092915050565b7f4d494e5445525f524f4c4500000000000000000000000000000000000000000061097781611523565b6109a37f3e75f439a8ab688a362e5048f5a38357d2bb557a42f5312d17c4e8c2b37accab60001b611537565b6109cf7f023df77a786023ce47165b8346d629c5a10a5829f4b1fbd00abe5a887e898e4060001b611537565b6109fb7f7961ff44f0d040dad0df8b997f9e43673e9e5d3b6c6a665d30dbc9d282d95f9360001b611537565b610a2383610a07610806565b600a610a1391906129d8565b84610a1e9190612af6565b6116fd565b505050565b6000801b610a3581611523565b610a617facf5fb159a770c196b1a78c26216b4fc018ead8905b506bc55a171c0c095203260001b611537565b610a8d7f5b7e644a4ddd336e219859b1d6f1fc8975e729849e74089878b0492f999034d960001b611537565b610ab97fea9509b26e3ca2666a40c8f56656d2789d4d960aa019c0c43e5d3fe2601c770a60001b611537565b610ae37f434f4e54524143545f524f4c45000000000000000000000000000000000000008361153a565b5050565b6000801b610af481611523565b610b207fd319224ee4569180abfdf212cd86d583a2fea8c5c54e26e390bf6f4d422347c460001b611537565b610b4c7f06546e23cf3bdae904981b876b9b14cf890c0b4a4c83508a992f960c1370b47060001b611537565b610b787fd919790863d6672887dc0f2d184ce580ab01a10c40931a8dec3bdfb53332170760001b611537565b610ba27f4d494e5445525f524f4c450000000000000000000000000000000000000000008361153a565b5050565b6000801b610bb381611523565b610bdf7ff11da4cfb2e1ea87aeb3802899a40109c284447c7455f863398ad27910a3eec060001b611537565b610c0b7f46d696f7d3c7eb743fb6cf3f8ca9192edfaefe245873a5fc74251ffe1b1f0e3e60001b611537565b610c377f40e26c1531f9bbd54e5db334939d0cd38bd7e7e90e1726b8abe8d54c1fa83adf60001b611537565b81600660006101000a81548160ff0219169083151502179055505050565b60008060008373ffffffffffffffffffffffffffffffffffffffff1673ffffffffffffffffffffffffffffffffffffffff168152602001908152602001600020549050919050565b60006005600084815260200190815260200160002060000160008373ffffffffffffffffffffffffffffffffffffffff1673ffffffffffffffffffffffffffffffffffffffff16815260200190815260200160002060009054906101000a900460ff16905092915050565b606060048054610d1790612c38565b80601f0160208091040260200160405190810160405280929190818152602001828054610d4390612c38565b8015610d905780601f10610d6557610100808354040283529160200191610d90565b820191906000526020600020905b815481529060010190602001808311610d7357829003601f168201915b5050505050905090565b6000801b81565b600080610dac611043565b90506000610dba8286610e93565b905083811015610dff576040517f08c379a0000000000000000000000000000000000000000000000000000000008152600401610df690612872565b60405180910390fd5b610e0c828686840361104b565b60019250505092915050565b600080610e23611043565b9050610e308185856112a2565b600191505092915050565b600660009054906101000a900460ff1681565b7f4d494e5445525f524f4c4500000000000000000000000000000000000000000081565b610e7b82610706565b610e8481611523565b610e8e838361161b565b505050565b6000600160008473ffffffffffffffffffffffffffffffffffffffff1673ffffffffffffffffffffffffffffffffffffffff16815260200190815260200160002060008373ffffffffffffffffffffffffffffffffffffffff1673ffffffffffffffffffffffffffffffffffffffff16815260200190815260200160002054905092915050565b6000801b610f2781611523565b610f537fee01d55fd648d0faf8d47d38442b868ac27b6bce19d6321e6d2ff34264222dae60001b611537565b610f7f7fea7e9e801a3c40db2edbfc12175df6c12d68ff792a1d4150998a37b72694ca7560001b611537565b610fab7fef69b7db41d04c8560412e1d843ab3fb51adcfd7c757371fc41d377504e3a24d60001b611537565b610fd57f4d494e5445525f524f4c450000000000000000000000000000000000000000008361161b565b5050565b60007f01ffc9a7000000000000000000000000000000000000000000000000000000007bffffffffffffffffffffffffffffffffffffffffffffffffffffffff1916827bffffffffffffffffffffffffffffffffffffffffffffffffffffffff1916149050919050565b600033905090565b600073ffffffffffffffffffffffffffffffffffffffff168373ffffffffffffffffffffffffffffffffffffffff1614156110bb576040517f08c379a00000000000000000000000000000000000000000000000000000000081526004016110b290612852565b60405180910390fd5b600073ffffffffffffffffffffffffffffffffffffffff168273ffffffffffffffffffffffffffffffffffffffff16141561112b576040517f08c379a0000000000000000000000000000000000000000000000000000000008152600401611122906127b2565b60405180910390fd5b80600160008573ffffffffffffffffffffffffffffffffffffffff1673ffffffffffffffffffffffffffffffffffffffff16815260200190815260200160002060008473ffffffffffffffffffffffffffffffffffffffff1673ffffffffffffffffffffffffffffffffffffffff168152602001908152602001600020819055508173ffffffffffffffffffffffffffffffffffffffff168373ffffffffffffffffffffffffffffffffffffffff167f8c5be1e5ebec7d5bd14f71427d1e84f3dd0314c0f7b2291e5b200ac8c7c3b9258360405161120991906128d2565b60405180910390a3505050565b60006112228484610e93565b90507fffffffffffffffffffffffffffffffffffffffffffffffffffffffffffffffff811461129c578181101561128e576040517f08c379a0000000000000000000000000000000000000000000000000000000008152600401611285906127d2565b60405180910390fd5b61129b848484840361104b565b5b50505050565b600073ffffffffffffffffffffffffffffffffffffffff168373ffffffffffffffffffffffffffffffffffffffff161415611312576040517f08c379a000000000000000000000000000000000000000000000000000000000815260040161130990612832565b60405180910390fd5b600073ffffffffffffffffffffffffffffffffffffffff168273ffffffffffffffffffffffffffffffffffffffff161415611382576040517f08c379a000000000000000000000000000000000000000000000000000000000815260040161137990612792565b60405180910390fd5b61138d83838361185d565b60008060008573ffffffffffffffffffffffffffffffffffffffff1673ffffffffffffffffffffffffffffffffffffffff16815260200190815260200160002054905081811015611413576040517f08c379a000000000000000000000000000000000000000000000000000000000815260040161140a906127f2565b60405180910390fd5b8181036000808673ffffffffffffffffffffffffffffffffffffffff1673ffffffffffffffffffffffffffffffffffffffff16815260200190815260200160002081905550816000808573ffffffffffffffffffffffffffffffffffffffff1673ffffffffffffffffffffffffffffffffffffffff16815260200190815260200160002060008282546114a6919061292f565b925050819055508273ffffffffffffffffffffffffffffffffffffffff168473ffffffffffffffffffffffffffffffffffffffff167fddf252ad1be2c89b69c2b068fc378daa952ba7f163c4a11628f55a4df523b3ef8460405161150a91906128d2565b60405180910390a361151d848484611ec7565b50505050565b6115348161152f611043565b611ecc565b50565b50565b6115448282610c9d565b6116175760016005600084815260200190815260200160002060000160008373ffffffffffffffffffffffffffffffffffffffff1673ffffffffffffffffffffffffffffffffffffffff16815260200190815260200160002060006101000a81548160ff0219169083151502179055506115bc611043565b73ffffffffffffffffffffffffffffffffffffffff168173ffffffffffffffffffffffffffffffffffffffff16837f2f8788117e7eff1d82e926ec794901d17c78024a50270940304540a733656f0d60405160405180910390a45b5050565b6116258282610c9d565b156116f95760006005600084815260200190815260200160002060000160008373ffffffffffffffffffffffffffffffffffffffff1673ffffffffffffffffffffffffffffffffffffffff16815260200190815260200160002060006101000a81548160ff02191690831515021790555061169e611043565b73ffffffffffffffffffffffffffffffffffffffff168173ffffffffffffffffffffffffffffffffffffffff16837ff6391f5c32d9c69d2a47ea670b442974b53935d1edc7fd64eb21e047a839171b60405160405180910390a45b5050565b600073ffffffffffffffffffffffffffffffffffffffff168273ffffffffffffffffffffffffffffffffffffffff16141561176d576040517f08c379a0000000000000000000000000000000000000000000000000000000008152600401611764906128b2565b60405180910390fd5b6117796000838361185d565b806002600082825461178b919061292f565b92505081905550806000808473ffffffffffffffffffffffffffffffffffffffff1673ffffffffffffffffffffffffffffffffffffffff16815260200190815260200160002060008282546117e0919061292f565b925050819055508173ffffffffffffffffffffffffffffffffffffffff16600073ffffffffffffffffffffffffffffffffffffffff167fddf252ad1be2c89b69c2b068fc378daa952ba7f163c4a11628f55a4df523b3ef8360405161184591906128d2565b60405180910390a361185960008383611ec7565b5050565b6118897f8056f9273dbf6d6b40a6d66aeda57a86bda1676b8b44073f85441aec94abf88860001b611537565b6118b57fa01a2f1473ce7c262dbc9fe2a9d30cde587db9503f0bf5b580741557feba434a60001b611537565b6118e17f96033eb5b52a182ea0288d92d617300e46e47e838e9493b6b97148ff7ace236560001b611537565b6000811415611973576119167f36d82f719f74062c382bb22f24c97905caa0962bd846bac88c1b881824955b5560001b611537565b6119427f2de30719d12dee31bab4493eb78f54dae55f953c151ec1d1cecc6031505c70cc60001b611537565b61196e7f72c88870b0f0d63073304f95d890e8324cd0d61c019447a70df8279e83ff839260001b611537565b611ec2565b61199f7f8f6679016ed9c6517950844e9232330e7e3915900fc94c86e2753acafa1d3d0b60001b611537565b6119cb7f2dbd8abe889abc545b922ecfc70575d4b566148ba531ee80e0ed2fcb7c5f73c760001b611537565b6119f77f79d9e51e83042164de0565c5aa0f2125ea6f8158842e6ea0434dc0d5d1c6348f60001b611537565b600073ffffffffffffffffffffffffffffffffffffffff168373ffffffffffffffffffffffffffffffffffffffff161480611a5e5750600073ffffffffffffffffffffffffffffffffffffffff168273ffffffffffffffffffffffffffffffffffffffff16145b15611aec57611a8f7fffd01866ddcade2904ce0f96fe6f69c8651481b0e1d4eadd0b736ea9bfe0c3dc60001b611537565b611abb7f0c780e703f00d3abe1cd038ed6320ab65dbd83fbd81fe33c874ee97f1d20649960001b611537565b611ae77f358a8c0b79d22bd7c3f77aa6cb140f70210a7c97a1c898505b97d6c878f3bdf860001b611537565b611ec2565b611b187fed4367f4f05872fb7182a822a117448e9f8375ef4258c58ce906bb3b439fcedc60001b611537565b611b447fd757d6797d55ea86a9246a8fad5cc5fec7a330b67bd1724e6f4a4b51d714270d60001b611537565b611b707f14f880d47b8e6537d0e3e131f1f2d5779ee4826dbd5cc9cdbfe317e98757145260001b611537565b611b9a7f434f4e54524143545f524f4c450000000000000000000000000000000000000084610c9d565b80611bcb5750611bca7f434f4e54524143545f524f4c450000000000000000000000000000000000000083610c9d565b5b15611c5957611bfc7fd0f6875218350dba8fcc1a846af98dff272660f14a7c0a68915de681b6f3e40b60001b611537565b611c287f82c6cd1dfcba36f5c3bf3517ca348ea899d516990fd7c584132dd2b1ceb7b2e460001b611537565b611c547f151b57764001261c6cf24776d2b286bc6df77d9e053e5c4224d4aa02fcc39f1160001b611537565b611ec2565b611c857f1d31f826021d3c27c59327ae21e30c7ba94201dfdcc1cc4f0811d88703424dad60001b611537565b611cb17f6781022e125e12e7cd3dc99499d3ad437f4a19728c3f9cfd58e39c7b36a0c33b60001b611537565b611cdd7fed66bc8d8e11802b740f77977e3177d73d1bf96769c0493c65fc28bcb285175f60001b611537565b611d077f434f4e54524143545f524f4c450000000000000000000000000000000000000033610c9d565b15611d9557611d387fb62eaf5f3fceaa2d0130acd51ae1113ba6c3a3b1f99e4ff697147240600b1fb560001b611537565b611d647f98bc9b505f8cc0a4e0f500cbf9c9bf271b524b7b1a9740dc1421b32f4885060660001b611537565b611d907fc1d897c3c274a084f39619ee95c55e289ac99884b27a1c752cffdcaa8c4f1a2f60001b611537565b611ec2565b611dc17f3438144d7c8439405e9ea9a8557bcd607b7c16c91bba193382f0255aec34c55c60001b611537565b611ded7ffb606096a765e89fe9f791e6e10d8964bb595ad40ae49676899265075136f26060001b611537565b611e197f89c9a2799f45f7aa6815ed3a093380c3372b19fe0842411bd103fd8f4edf852260001b611537565b611e457f4c29d4772e696af3cc9b56e28aa65a8fd7c4fc7c02c5ea548c3f7086c938c9e960001b611537565b600660009054906101000a900460ff1615611e95576040517f08c379a0000000000000000000000000000000000000000000000000000000008152600401611e8c90612812565b60405180910390fd5b611ec17f7374a97928196266e454fd686a240da4d96c83ebae0183c4095f876d5e91e01460001b611537565b5b505050565b505050565b611ed68282610c9d565b611f6557611efb8173ffffffffffffffffffffffffffffffffffffffff166014611f69565b611f098360001c6020611f69565b604051602001611f1a9291906126e0565b6040516020818303038152906040526040517f08c379a0000000000000000000000000000000000000000000000000000000008152600401611f5c9190612750565b60405180910390fd5b5050565b606060006002836002611f7c9190612af6565b611f86919061292f565b67ffffffffffffffff811115611fc5577f4e487b7100000000000000000000000000000000000000000000000000000000600052604160045260246000fd5b6040519080825280601f01601f191660200182016040528015611ff75781602001600182028036833780820191505090505b5090507f300000000000000000000000000000000000000000000000000000000000000081600081518110612055577f4e487b7100000000000000000000000000000000000000000000000000000000600052603260045260246000fd5b60200101907effffffffffffffffffffffffffffffffffffffffffffffffffffffffffffff1916908160001a9053507f7800000000000000000000000000000000000000000000000000000000000000816001815181106120df577f4e487b7100000000000000000000000000000000000000000000000000000000600052603260045260246000fd5b60200101907effffffffffffffffffffffffffffffffffffffffffffffffffffffffffffff1916908160001a9053506000600184600261211f9190612af6565b612129919061292f565b90505b6001811115612215577f3031323334353637383961626364656600000000000000000000000000000000600f861660108110612191577f4e487b7100000000000000000000000000000000000000000000000000000000600052603260045260246000fd5b1a60f81b8282815181106121ce577f4e487b7100000000000000000000000000000000000000000000000000000000600052603260045260246000fd5b60200101907effffffffffffffffffffffffffffffffffffffffffffffffffffffffffffff1916908160001a905350600485901c94508061220e90612c0e565b905061212c565b5060008414612259576040517f08c379a000000000000000000000000000000000000000000000000000000000815260040161225090612772565b60405180910390fd5b8091505092915050565b6000813590506122728161302b565b92915050565b60008135905061228781613042565b92915050565b60008135905061229c81613059565b92915050565b6000813590506122b181613070565b92915050565b6000813590506122c681613087565b92915050565b6000602082840312156122de57600080fd5b60006122ec84828501612263565b91505092915050565b6000806040838503121561230857600080fd5b600061231685828601612263565b925050602061232785828601612263565b9150509250929050565b60008060006060848603121561234657600080fd5b600061235486828701612263565b935050602061236586828701612263565b9250506040612376868287016122b7565b9150509250925092565b6000806040838503121561239357600080fd5b60006123a185828601612263565b92505060206123b2858286016122b7565b9150509250929050565b6000602082840312156123ce57600080fd5b60006123dc84828501612278565b91505092915050565b6000602082840312156123f757600080fd5b60006124058482850161228d565b91505092915050565b6000806040838503121561242157600080fd5b600061242f8582860161228d565b925050602061244085828601612263565b9150509250929050565b60006020828403121561245c57600080fd5b600061246a848285016122a2565b91505092915050565b61247c81612b62565b82525050565b61248b81612b6e565b82525050565b600061249c82612908565b6124a68185612913565b93506124b6818560208601612bdb565b6124bf81612cc8565b840191505092915050565b60006124d582612908565b6124df8185612924565b93506124ef818560208601612bdb565b80840191505092915050565b6000612508602083612913565b915061251382612ce6565b602082019050919050565b600061252b602383612913565b915061253682612d0f565b604082019050919050565b600061254e602283612913565b915061255982612d5e565b604082019050919050565b6000612571601d83612913565b915061257c82612dad565b602082019050919050565b6000612594602683612913565b915061259f82612dd6565b604082019050919050565b60006125b7602383612913565b91506125c282612e25565b604082019050919050565b60006125da602583612913565b91506125e582612e74565b604082019050919050565b60006125fd602483612913565b915061260882612ec3565b604082019050919050565b6000612620601783612924565b915061262b82612f12565b601782019050919050565b6000612643602583612913565b915061264e82612f3b565b604082019050919050565b6000612666601183612924565b915061267182612f8a565b601182019050919050565b6000612689602f83612913565b915061269482612fb3565b604082019050919050565b60006126ac601f83612913565b91506126b782613002565b602082019050919050565b6126cb81612bc4565b82525050565b6126da81612bce565b82525050565b60006126eb82612613565b91506126f782856124ca565b915061270282612659565b915061270e82846124ca565b91508190509392505050565b600060208201905061272f6000830184612473565b92915050565b600060208201905061274a6000830184612482565b92915050565b6000602082019050818103600083015261276a8184612491565b905092915050565b6000602082019050818103600083015261278b816124fb565b9050919050565b600060208201905081810360008301526127ab8161251e565b9050919050565b600060208201905081810360008301526127cb81612541565b9050919050565b600060208201905081810360008301526127eb81612564565b9050919050565b6000602082019050818103600083015261280b81612587565b9050919050565b6000602082019050818103600083015261282b816125aa565b9050919050565b6000602082019050818103600083015261284b816125cd565b9050919050565b6000602082019050818103600083015261286b816125f0565b9050919050565b6000602082019050818103600083015261288b81612636565b9050919050565b600060208201905081810360008301526128ab8161267c565b9050919050565b600060208201905081810360008301526128cb8161269f565b9050919050565b60006020820190506128e760008301846126c2565b92915050565b600060208201905061290260008301846126d1565b92915050565b600081519050919050565b600082825260208201905092915050565b600081905092915050565b600061293a82612bc4565b915061294583612bc4565b9250827fffffffffffffffffffffffffffffffffffffffffffffffffffffffffffffffff0382111561297a57612979612c6a565b5b828201905092915050565b6000808291508390505b60018511156129cf578086048111156129ab576129aa612c6a565b5b60018516156129ba5780820291505b80810290506129c885612cd9565b945061298f565b94509492505050565b60006129e382612bc4565b91506129ee83612bce565b9250612a1b7fffffffffffffffffffffffffffffffffffffffffffffffffffffffffffffffff8484612a23565b905092915050565b600082612a335760019050612aef565b81612a415760009050612aef565b8160018114612a575760028114612a6157612a90565b6001915050612aef565b60ff841115612a7357612a72612c6a565b5b8360020a915084821115612a8a57612a89612c6a565b5b50612aef565b5060208310610133831016604e8410600b8410161715612ac55782820a905083811115612ac057612abf612c6a565b5b612aef565b612ad28484846001612985565b92509050818404811115612ae957612ae8612c6a565b5b81810290505b9392505050565b6000612b0182612bc4565b9150612b0c83612bc4565b9250817fffffffffffffffffffffffffffffffffffffffffffffffffffffffffffffffff0483118215151615612b4557612b44612c6a565b5b828202905092915050565b6000612b5b82612ba4565b9050919050565b60008115159050919050565b6000819050919050565b60007fffffffff0000000000000000000000000000000000000000000000000000000082169050919050565b600073ffffffffffffffffffffffffffffffffffffffff82169050919050565b6000819050919050565b600060ff82169050919050565b60005b83811015612bf9578082015181840152602081019050612bde565b83811115612c08576000848401525b50505050565b6000612c1982612bc4565b91506000821415612c2d57612c2c612c6a565b5b600182039050919050565b60006002820490506001821680612c5057607f821691505b60208210811415612c6457612c63612c99565b5b50919050565b7f4e487b7100000000000000000000000000000000000000000000000000000000600052601160045260246000fd5b7f4e487b7100000000000000000000000000000000000000000000000000000000600052602260045260246000fd5b6000601f19601f8301169050919050565b60008160011c9050919050565b7f537472696e67733a20686578206c656e67746820696e73756666696369656e74600082015250565b7f45524332303a207472616e7366657220746f20746865207a65726f206164647260008201527f6573730000000000000000000000000000000000000000000000000000000000602082015250565b7f45524332303a20617070726f766520746f20746865207a65726f20616464726560008201527f7373000000000000000000000000000000000000000000000000000000000000602082015250565b7f45524332303a20696e73756666696369656e7420616c6c6f77616e6365000000600082015250565b7f45524332303a207472616e7366657220616d6f756e742065786365656473206260008201527f616c616e63650000000000000000000000000000000000000000000000000000602082015250565b7f50425254206973206c6f636b6564206265747765656e20757365722077616c6c60008201527f6574730000000000000000000000000000000000000000000000000000000000602082015250565b7f45524332303a207472616e736665722066726f6d20746865207a65726f20616460008201527f6472657373000000000000000000000000000000000000000000000000000000602082015250565b7f45524332303a20617070726f76652066726f6d20746865207a65726f2061646460008201527f7265737300000000000000000000000000000000000000000000000000000000602082015250565b7f416363657373436f6e74726f6c3a206163636f756e7420000000000000000000600082015250565b7f45524332303a2064656372656173656420616c6c6f77616e63652062656c6f7760008201527f207a65726f000000000000000000000000000000000000000000000000000000602082015250565b7f206973206d697373696e6720726f6c6520000000000000000000000000000000600082015250565b7f416363657373436f6e74726f6c3a2063616e206f6e6c792072656e6f756e636560008201527f20726f6c657320666f722073656c660000000000000000000000000000000000602082015250565b7f45524332303a206d696e7420746f20746865207a65726f206164647265737300600082015250565b61303481612b50565b811461303f57600080fd5b50565b61304b81612b62565b811461305657600080fd5b50565b61306281612b6e565b811461306d57600080fd5b50565b61307981612b78565b811461308457600080fd5b50565b61309081612bc4565b811461309b57600080fd5b5056fea2646970667358221220d9117ced67393741d2a457934cc7c73dd6e308d66707470eba2e66f85896a80c64736f6c63430008040033",
  "linkReferences": {},
  "deployedLinkReferences": {}
}