{
  "_format": "hh-sol-artifact-1",
  "contractName": "NFTEngineV1",
  "sourceName": "contracts/engine/NFTEngineV1.sol",
  "abi": [
    {
      "inputs": [
        {
          "internalType": "address",
          "name": "nftContract",
          "type": "address"
        },
        {
          "internalType": "uint256",
          "name": "tokenId",
          "type": "uint256"
        }
      ],
      "name": "NFTEngineAlreadySalingToken",
      "type": "error"
    },
    {
      "inputs": [
        {
          "internalType": "address",
          "name": "nftContract",
          "type": "address"
        },
        {
          "internalType": "uint256",
          "name": "tokenId",
          "type": "uint256"
        }
      ],
      "name": "NFTEngineAuctionFinished",
      "type": "error"
    },
    {
      "inputs": [
        {
          "internalType": "address",
          "name": "nftContract",
          "type": "address"
        },
        {
          "internalType": "uint256",
          "name": "tokenId",
          "type": "uint256"
        }
      ],
      "name": "NFTEngineAuctionSellerCant",
      "type": "error"
    },
    {
      "inputs": [
        {
          "internalType": "address",
          "name": "nftContract",
          "type": "address"
        },
        {
          "internalType": "uint256",
          "name": "tokenId",
          "type": "uint256"
        }
      ],
      "name": "NFTEngineDidNotBid",
      "type": "error"
    },
    {
      "inputs": [
        {
          "internalType": "address",
          "name": "erc20token",
          "type": "address"
        },
        {
          "internalType": "uint256",
          "name": "amount",
          "type": "uint256"
        }
      ],
      "name": "NFTEngineERC20TransferFailed",
      "type": "error"
    },
    {
      "inputs": [],
      "name": "NFTEngineFeeRatesExceed",
      "type": "error"
    },
    {
      "inputs": [
        {
          "internalType": "uint256",
          "name": "minPrice",
          "type": "uint256"
        },
        {
          "internalType": "uint256",
          "name": "buyNowPrice",
          "type": "uint256"
        }
      ],
      "name": "NFTEngineInvalidMinPrice",
      "type": "error"
    },
    {
      "inputs": [
        {
          "internalType": "uint256",
          "name": "price",
          "type": "uint256"
        }
      ],
      "name": "NFTEngineInvalidPrice",
      "type": "error"
    },
    {
      "inputs": [
        {
          "internalType": "address",
          "name": "nftContract",
          "type": "address"
        },
        {
          "internalType": "uint256",
          "name": "tokenId",
          "type": "uint256"
        }
      ],
      "name": "NFTEngineNotAcceptablePayment",
      "type": "error"
    },
    {
      "inputs": [
        {
          "internalType": "address",
          "name": "nftContract",
          "type": "address"
        },
        {
          "internalType": "uint256",
          "name": "tokenId",
          "type": "uint256"
        }
      ],
      "name": "NFTEngineNotApprovedToken",
      "type": "error"
    },
    {
      "inputs": [
        {
          "internalType": "address",
          "name": "seller",
          "type": "address"
        }
      ],
      "name": "NFTEngineNotAuctionSeller",
      "type": "error"
    },
    {
      "inputs": [
        {
          "internalType": "address",
          "name": "nftContract",
          "type": "address"
        },
        {
          "internalType": "uint256",
          "name": "tokenId",
          "type": "uint256"
        }
      ],
      "name": "NFTEngineNotHighestBidder",
      "type": "error"
    },
    {
      "inputs": [
        {
          "internalType": "uint256",
          "name": "recipients",
          "type": "uint256"
        },
        {
          "internalType": "uint256",
          "name": "rates",
          "type": "uint256"
        }
      ],
      "name": "NFTEngineNotMatchedLength",
      "type": "error"
    },
    {
      "inputs": [
        {
          "internalType": "address",
          "name": "nftContract",
          "type": "address"
        },
        {
          "internalType": "uint256",
          "name": "tokenId",
          "type": "uint256"
        }
      ],
      "name": "NFTEngineNotSalingToken",
      "type": "error"
    },
    {
      "inputs": [
        {
          "internalType": "address",
          "name": "nftContract",
          "type": "address"
        },
        {
          "internalType": "uint256",
          "name": "tokenId",
          "type": "uint256"
        }
      ],
      "name": "NFTEngineNotTokenOwner",
      "type": "error"
    },
    {
      "inputs": [
        {
          "internalType": "address",
          "name": "nftContract",
          "type": "address"
        },
        {
          "internalType": "uint256",
          "name": "tokenId",
          "type": "uint256"
        }
      ],
      "name": "NFTEngineNotWhitelistedBuyer",
      "type": "error"
    },
    {
      "inputs": [
        {
          "internalType": "address",
          "name": "nftContract",
          "type": "address"
        },
        {
          "internalType": "uint256",
          "name": "tokenId",
          "type": "uint256"
        }
      ],
      "name": "NFTEngineTokenOwner",
      "type": "error"
    },
    {
      "inputs": [
        {
          "internalType": "address",
          "name": "nftContract",
          "type": "address"
        },
        {
          "internalType": "uint256",
          "name": "tokenId",
          "type": "uint256"
        }
      ],
      "name": "NFTEngineTokenTransferFailed",
      "type": "error"
    },
    {
      "anonymous": false,
      "inputs": [
        {
          "indexed": false,
          "internalType": "uint8",
          "name": "version",
          "type": "uint8"
        }
      ],
      "name": "Initialized",
      "type": "event"
    },
    {
      "anonymous": false,
      "inputs": [
        {
          "indexed": true,
          "internalType": "address",
          "name": "nftContract",
          "type": "address"
        },
        {
          "indexed": false,
          "internalType": "uint256",
          "name": "tokenId",
          "type": "uint256"
        },
        {
          "indexed": true,
          "internalType": "address",
          "name": "bidder",
          "type": "address"
        },
        {
          "indexed": false,
          "internalType": "uint256",
          "name": "ethAmount",
          "type": "uint256"
        },
        {
          "indexed": true,
          "internalType": "address",
          "name": "erc20Token",
          "type": "address"
        },
        {
          "indexed": false,
          "internalType": "uint256",
          "name": "tokenAmount",
          "type": "uint256"
        }
      ],
      "name": "NFTAuctionBidMade",
      "type": "event"
    },
    {
      "anonymous": false,
      "inputs": [
        {
          "indexed": true,
          "internalType": "address",
          "name": "nftContract",
          "type": "address"
        },
        {
          "indexed": false,
          "internalType": "uint256",
          "name": "tokenId",
          "type": "uint256"
        },
        {
          "indexed": true,
          "internalType": "address",
          "name": "highestBidder",
          "type": "address"
        }
      ],
      "name": "NFTAuctionBidWithdrawn",
      "type": "event"
    },
    {
      "anonymous": false,
      "inputs": [
        {
          "indexed": true,
          "internalType": "address",
          "name": "nftContract",
          "type": "address"
        },
        {
          "indexed": false,
          "internalType": "uint256",
          "name": "tokenId",
          "type": "uint256"
        },
        {
          "indexed": false,
          "internalType": "uint128",
          "name": "newBuyNowPrice",
          "type": "uint128"
        }
      ],
      "name": "NFTAuctionBuyNowPriceUpdated",
      "type": "event"
    },
    {
      "anonymous": false,
      "inputs": [
        {
          "indexed": true,
          "internalType": "address",
          "name": "nftContract",
          "type": "address"
        },
        {
          "indexed": false,
          "internalType": "uint256",
          "name": "tokenId",
          "type": "uint256"
        },
        {
          "indexed": true,
          "internalType": "address",
          "name": "seller",
          "type": "address"
        },
        {
          "indexed": true,
          "internalType": "address",
          "name": "erc20Token",
          "type": "address"
        },
        {
          "indexed": false,
          "internalType": "uint128",
          "name": "minPrice",
          "type": "uint128"
        },
        {
          "indexed": false,
          "internalType": "uint128",
          "name": "buyNowPrice",
          "type": "uint128"
        },
        {
          "indexed": false,
          "internalType": "uint32",
          "name": "auctionBidPeriod",
          "type": "uint32"
        },
        {
          "indexed": false,
          "internalType": "uint32",
          "name": "bidIncRate",
          "type": "uint32"
        }
      ],
      "name": "NFTAuctionCreated",
      "type": "event"
    },
    {
      "anonymous": false,
      "inputs": [
        {
          "indexed": true,
          "internalType": "address",
          "name": "nftContract",
          "type": "address"
        },
        {
          "indexed": false,
          "internalType": "uint256",
          "name": "tokenId",
          "type": "uint256"
        }
      ],
      "name": "NFTAuctionHighestBidTaken",
      "type": "event"
    },
    {
      "anonymous": false,
      "inputs": [
        {
          "indexed": true,
          "internalType": "address",
          "name": "nftContract",
          "type": "address"
        },
        {
          "indexed": false,
          "internalType": "uint256",
          "name": "tokenId",
          "type": "uint256"
        },
        {
          "indexed": false,
          "internalType": "uint256",
          "name": "newMinPrice",
          "type": "uint256"
        }
      ],
      "name": "NFTAuctionMinPriceUpdated",
      "type": "event"
    },
    {
      "anonymous": false,
      "inputs": [
        {
          "indexed": true,
          "internalType": "address",
          "name": "nftContract",
          "type": "address"
        },
        {
          "indexed": false,
          "internalType": "uint256",
          "name": "tokenId",
          "type": "uint256"
        },
        {
          "indexed": true,
          "internalType": "address",
          "name": "seller",
          "type": "address"
        },
        {
          "indexed": false,
          "internalType": "uint128",
          "name": "highestBid",
          "type": "uint128"
        },
        {
          "indexed": true,
          "internalType": "address",
          "name": "highestBidder",
          "type": "address"
        },
        {
          "indexed": false,
          "internalType": "address",
          "name": "buyer",
          "type": "address"
        }
      ],
      "name": "NFTAuctionPaid",
      "type": "event"
    },
    {
      "anonymous": false,
      "inputs": [
        {
          "indexed": true,
          "internalType": "address",
          "name": "nftContract",
          "type": "address"
        },
        {
          "indexed": false,
          "internalType": "uint256",
          "name": "tokenId",
          "type": "uint256"
        },
        {
          "indexed": true,
          "internalType": "address",
          "name": "settler",
          "type": "address"
        }
      ],
      "name": "NFTAuctionSettled",
      "type": "event"
    },
    {
      "anonymous": false,
      "inputs": [
        {
          "indexed": true,
          "internalType": "address",
          "name": "nftContract",
          "type": "address"
        },
        {
          "indexed": false,
          "internalType": "uint256",
          "name": "tokenId",
          "type": "uint256"
        },
        {
          "indexed": false,
          "internalType": "uint64",
          "name": "auctionEndPeriod",
          "type": "uint64"
        }
      ],
      "name": "NFTAuctionUpdated",
      "type": "event"
    },
    {
      "anonymous": false,
      "inputs": [
        {
          "indexed": true,
          "internalType": "address",
          "name": "nftContract",
          "type": "address"
        },
        {
          "indexed": false,
          "internalType": "uint256",
          "name": "tokenId",
          "type": "uint256"
        }
      ],
      "name": "NFTAuctionWithdrawn",
      "type": "event"
    },
    {
      "anonymous": false,
      "inputs": [
        {
          "indexed": true,
          "internalType": "address",
          "name": "nftContract",
          "type": "address"
        },
        {
          "indexed": false,
          "internalType": "uint256",
          "name": "tokenId",
          "type": "uint256"
        },
        {
          "indexed": true,
          "internalType": "address",
          "name": "to",
          "type": "address"
        }
      ],
      "name": "NFTTokenSaleClosed",
      "type": "event"
    },
    {
      "anonymous": false,
      "inputs": [
        {
          "indexed": true,
          "internalType": "address",
          "name": "nftContract",
          "type": "address"
        },
        {
          "indexed": false,
          "internalType": "uint256",
          "name": "tokenId",
          "type": "uint256"
        },
        {
          "indexed": true,
          "internalType": "address",
          "name": "from",
          "type": "address"
        },
        {
          "indexed": true,
          "internalType": "address",
          "name": "erc20Token",
          "type": "address"
        },
        {
          "indexed": false,
          "internalType": "uint256",
          "name": "price",
          "type": "uint256"
        }
      ],
      "name": "NFTTokenSaleCreated",
      "type": "event"
    },
    {
      "anonymous": false,
      "inputs": [
        {
          "indexed": true,
          "internalType": "address",
          "name": "nftContract",
          "type": "address"
        },
        {
          "indexed": false,
          "internalType": "uint256",
          "name": "tokenId",
          "type": "uint256"
        }
      ],
      "name": "NFTTokenSaleWithdrawn",
      "type": "event"
    },
    {
      "anonymous": false,
      "inputs": [
        {
          "indexed": true,
          "internalType": "address",
          "name": "previousOwner",
          "type": "address"
        },
        {
          "indexed": true,
          "internalType": "address",
          "name": "newOwner",
          "type": "address"
        }
      ],
      "name": "OwnershipTransferred",
      "type": "event"
    },
    {
      "inputs": [
        {
          "internalType": "address",
          "name": "nftContract",
          "type": "address"
        },
        {
          "internalType": "uint256",
          "name": "tokenId",
          "type": "uint256"
        }
      ],
      "name": "buyNFT",
      "outputs": [],
      "stateMutability": "payable",
      "type": "function"
    },
    {
      "inputs": [
        {
          "internalType": "address",
          "name": "newTreasury",
          "type": "address"
        }
      ],
      "name": "changeTreasury",
      "outputs": [],
      "stateMutability": "nonpayable",
      "type": "function"
    },
    {
      "inputs": [
        {
          "internalType": "address",
          "name": "nftContract",
          "type": "address"
        },
        {
          "internalType": "uint256",
          "name": "tokenId",
          "type": "uint256"
        },
        {
          "internalType": "address",
          "name": "erc20Token",
          "type": "address"
        },
        {
          "internalType": "uint128",
          "name": "minPrice",
          "type": "uint128"
        },
        {
          "internalType": "uint128",
          "name": "buyNowPrice",
          "type": "uint128"
        },
        {
          "internalType": "address[]",
          "name": "feeRecipients",
          "type": "address[]"
        },
        {
          "internalType": "uint32[]",
          "name": "feeRates",
          "type": "uint32[]"
        }
      ],
      "name": "createAuction",
      "outputs": [],
      "stateMutability": "nonpayable",
      "type": "function"
    },
    {
      "inputs": [
        {
          "internalType": "address",
          "name": "nftContract",
          "type": "address"
        },
        {
          "internalType": "uint256[]",
          "name": "tokenIds",
          "type": "uint256[]"
        },
        {
          "internalType": "address",
          "name": "erc20Token",
          "type": "address"
        },
        {
          "internalType": "uint128",
          "name": "sellPrice",
          "type": "uint128"
        },
        {
          "internalType": "address[]",
          "name": "feeRecipients",
          "type": "address[]"
        },
        {
          "internalType": "uint32[]",
          "name": "feeRates",
          "type": "uint32[]"
        }
      ],
      "name": "createBatchSale",
      "outputs": [],
      "stateMutability": "nonpayable",
      "type": "function"
    },
    {
      "inputs": [
        {
          "internalType": "address",
          "name": "nftContract",
          "type": "address"
        },
        {
          "internalType": "uint256",
          "name": "tokenId",
          "type": "uint256"
        },
        {
          "internalType": "address",
          "name": "erc20Token",
          "type": "address"
        },
        {
          "internalType": "uint128",
          "name": "sellPrice",
          "type": "uint128"
        },
        {
          "internalType": "address[]",
          "name": "feeRecipients",
          "type": "address[]"
        },
        {
          "internalType": "uint32[]",
          "name": "feeRates",
          "type": "uint32[]"
        }
      ],
      "name": "createSale",
      "outputs": [],
      "stateMutability": "nonpayable",
      "type": "function"
    },
    {
      "inputs": [],
      "name": "defaultAuctionBidPeriod",
      "outputs": [
        {
          "internalType": "uint32",
          "name": "",
          "type": "uint32"
        }
      ],
      "stateMutability": "view",
      "type": "function"
    },
    {
      "inputs": [],
      "name": "defaultBidIncRate",
      "outputs": [
        {
          "internalType": "uint32",
          "name": "",
          "type": "uint32"
        }
      ],
      "stateMutability": "view",
      "type": "function"
    },
    {
      "inputs": [],
      "name": "feeToTreasury",
      "outputs": [
        {
          "internalType": "uint256",
          "name": "",
          "type": "uint256"
        }
      ],
      "stateMutability": "view",
      "type": "function"
    },
    {
      "inputs": [
        {
          "internalType": "uint256",
          "name": "nftType",
          "type": "uint256"
        }
      ],
      "name": "getNFTContract",
      "outputs": [
        {
          "internalType": "address",
          "name": "",
          "type": "address"
        }
      ],
      "stateMutability": "view",
      "type": "function"
    },
    {
      "inputs": [
        {
          "internalType": "address",
          "name": "nftContract",
          "type": "address"
        },
        {
          "internalType": "uint256",
          "name": "tokenId",
          "type": "uint256"
        }
      ],
      "name": "getTokenAuctionInfo",
      "outputs": [
        {
          "components": [
            {
              "internalType": "uint256",
              "name": "tokenId",
              "type": "uint256"
            },
            {
              "internalType": "uint32",
              "name": "bidIncRate",
              "type": "uint32"
            },
            {
              "internalType": "uint32",
              "name": "bidPeriod",
              "type": "uint32"
            },
            {
              "internalType": "uint64",
              "name": "endTime",
              "type": "uint64"
            },
            {
              "internalType": "uint128",
              "name": "minPrice",
              "type": "uint128"
            },
            {
              "internalType": "uint128",
              "name": "buyNowPrice",
              "type": "uint128"
            },
            {
              "internalType": "uint128",
              "name": "highestBid",
              "type": "uint128"
            },
            {
              "internalType": "address",
              "name": "highestBidder",
              "type": "address"
            },
            {
              "internalType": "address",
              "name": "seller",
              "type": "address"
            },
            {
              "internalType": "address",
              "name": "whitelistedBuyer",
              "type": "address"
            },
            {
              "internalType": "address",
              "name": "recipient",
              "type": "address"
            },
            {
              "internalType": "address",
              "name": "erc20Token",
              "type": "address"
            },
            {
              "internalType": "bool",
              "name": "isOnSale",
              "type": "bool"
            },
            {
              "internalType": "address[]",
              "name": "feeRecipients",
              "type": "address[]"
            },
            {
              "internalType": "uint32[]",
              "name": "feeRates",
              "type": "uint32[]"
            }
          ],
          "internalType": "struct LTypes.AuctionNFT",
          "name": "",
          "type": "tuple"
        }
      ],
      "stateMutability": "view",
      "type": "function"
    },
    {
      "inputs": [
        {
          "internalType": "address",
          "name": "nftContract",
          "type": "address"
        }
      ],
      "name": "getTokenIdsOnAuction",
      "outputs": [
        {
          "internalType": "uint256[]",
          "name": "",
          "type": "uint256[]"
        }
      ],
      "stateMutability": "view",
      "type": "function"
    },
    {
      "inputs": [
        {
          "internalType": "address",
          "name": "nftContract",
          "type": "address"
        },
        {
          "internalType": "uint256",
          "name": "pageBegin",
          "type": "uint256"
        },
        {
          "internalType": "uint256",
          "name": "pageSize",
          "type": "uint256"
        }
      ],
      "name": "getTokenInfosOnAuction",
      "outputs": [
        {
          "components": [
            {
              "internalType": "uint256",
              "name": "tokenId",
              "type": "uint256"
            },
            {
              "internalType": "uint32",
              "name": "bidIncRate",
              "type": "uint32"
            },
            {
              "internalType": "uint32",
              "name": "bidPeriod",
              "type": "uint32"
            },
            {
              "internalType": "uint64",
              "name": "endTime",
              "type": "uint64"
            },
            {
              "internalType": "uint128",
              "name": "minPrice",
              "type": "uint128"
            },
            {
              "internalType": "uint128",
              "name": "buyNowPrice",
              "type": "uint128"
            },
            {
              "internalType": "uint128",
              "name": "highestBid",
              "type": "uint128"
            },
            {
              "internalType": "address",
              "name": "highestBidder",
              "type": "address"
            },
            {
              "internalType": "address",
              "name": "seller",
              "type": "address"
            },
            {
              "internalType": "address",
              "name": "whitelistedBuyer",
              "type": "address"
            },
            {
              "internalType": "address",
              "name": "recipient",
              "type": "address"
            },
            {
              "internalType": "address",
              "name": "erc20Token",
              "type": "address"
            },
            {
              "internalType": "bool",
              "name": "isOnSale",
              "type": "bool"
            },
            {
              "internalType": "address[]",
              "name": "feeRecipients",
              "type": "address[]"
            },
            {
              "internalType": "uint32[]",
              "name": "feeRates",
              "type": "uint32[]"
            }
          ],
          "internalType": "struct LTypes.AuctionNFT[]",
          "name": "tokenInfos",
          "type": "tuple[]"
        }
      ],
      "stateMutability": "view",
      "type": "function"
    },
    {
      "inputs": [
        {
          "internalType": "address",
          "name": "nftContract",
          "type": "address"
        },
        {
          "internalType": "uint256",
          "name": "pageBegin",
          "type": "uint256"
        },
        {
          "internalType": "uint256",
          "name": "pageSize",
          "type": "uint256"
        }
      ],
      "name": "getTokenInfosOnSale",
      "outputs": [
        {
          "components": [
            {
              "internalType": "uint256",
              "name": "tokenId",
              "type": "uint256"
            },
            {
              "internalType": "address",
              "name": "erc20Token",
              "type": "address"
            },
            {
              "internalType": "address",
              "name": "seller",
              "type": "address"
            },
            {
              "internalType": "uint256",
              "name": "price",
              "type": "uint256"
            },
            {
              "internalType": "address[]",
              "name": "feeRecipients",
              "type": "address[]"
            },
            {
              "internalType": "uint32[]",
              "name": "feeRates",
              "type": "uint32[]"
            }
          ],
          "internalType": "struct LTypes.SellNFT[]",
          "name": "tokenInfos",
          "type": "tuple[]"
        }
      ],
      "stateMutability": "view",
      "type": "function"
    },
    {
      "inputs": [
        {
          "internalType": "address",
          "name": "nftContract",
          "type": "address"
        },
        {
          "internalType": "uint256",
          "name": "tokenId",
          "type": "uint256"
        }
      ],
      "name": "getTokenSaleInfo",
      "outputs": [
        {
          "components": [
            {
              "internalType": "uint256",
              "name": "tokenId",
              "type": "uint256"
            },
            {
              "internalType": "address",
              "name": "erc20Token",
              "type": "address"
            },
            {
              "internalType": "address",
              "name": "seller",
              "type": "address"
            },
            {
              "internalType": "uint256",
              "name": "price",
              "type": "uint256"
            },
            {
              "internalType": "address[]",
              "name": "feeRecipients",
              "type": "address[]"
            },
            {
              "internalType": "uint32[]",
              "name": "feeRates",
              "type": "uint32[]"
            }
          ],
          "internalType": "struct LTypes.SellNFT",
          "name": "",
          "type": "tuple"
        }
      ],
      "stateMutability": "view",
      "type": "function"
    },
    {
      "inputs": [
        {
          "internalType": "address",
          "name": "nftContract",
          "type": "address"
        }
      ],
      "name": "getTokensIdsOnSale",
      "outputs": [
        {
          "internalType": "uint256[]",
          "name": "",
          "type": "uint256[]"
        }
      ],
      "stateMutability": "view",
      "type": "function"
    },
    {
      "inputs": [
        {
          "internalType": "address",
          "name": "admin",
          "type": "address"
        },
        {
          "internalType": "address",
          "name": "treasury",
          "type": "address"
        }
      ],
      "name": "initialize",
      "outputs": [],
      "stateMutability": "nonpayable",
      "type": "function"
    },
    {
      "inputs": [
        {
          "internalType": "address",
          "name": "nftContract",
          "type": "address"
        },
        {
          "internalType": "uint256",
          "name": "tokenId",
          "type": "uint256"
        },
        {
          "internalType": "address",
          "name": "erc20Token",
          "type": "address"
        },
        {
          "internalType": "uint128",
          "name": "amount",
          "type": "uint128"
        }
      ],
      "name": "makeBid",
      "outputs": [],
      "stateMutability": "payable",
      "type": "function"
    },
    {
      "inputs": [],
      "name": "maxMinPriceRate",
      "outputs": [
        {
          "internalType": "uint32",
          "name": "",
          "type": "uint32"
        }
      ],
      "stateMutability": "view",
      "type": "function"
    },
    {
      "inputs": [],
      "name": "minSettableIncRate",
      "outputs": [
        {
          "internalType": "uint32",
          "name": "",
          "type": "uint32"
        }
      ],
      "stateMutability": "view",
      "type": "function"
    },
    {
      "inputs": [
        {
          "internalType": "address",
          "name": "erc20",
          "type": "address"
        },
        {
          "internalType": "uint256",
          "name": "price",
          "type": "uint256"
        },
        {
          "internalType": "uint256",
          "name": "royalty",
          "type": "uint256"
        },
        {
          "internalType": "string",
          "name": "uri",
          "type": "string"
        }
      ],
      "name": "mintNFT",
      "outputs": [],
      "stateMutability": "nonpayable",
      "type": "function"
    },
    {
      "inputs": [
        {
          "internalType": "address",
          "name": "nftContract",
          "type": "address"
        },
        {
          "internalType": "uint256",
          "name": "tokenId",
          "type": "uint256"
        }
      ],
      "name": "nftOwner",
      "outputs": [
        {
          "internalType": "address",
          "name": "",
          "type": "address"
        }
      ],
      "stateMutability": "view",
      "type": "function"
    },
    {
      "inputs": [
        {
          "internalType": "address",
          "name": "operator",
          "type": "address"
        },
        {
          "internalType": "address",
          "name": "from",
          "type": "address"
        },
        {
          "internalType": "uint256",
          "name": "tokenId",
          "type": "uint256"
        },
        {
          "internalType": "bytes",
          "name": "data",
          "type": "bytes"
        }
      ],
      "name": "onERC721Received",
      "outputs": [
        {
          "internalType": "bytes4",
          "name": "",
          "type": "bytes4"
        }
      ],
      "stateMutability": "pure",
      "type": "function"
    },
    {
      "inputs": [],
      "name": "owner",
      "outputs": [
        {
          "internalType": "address",
          "name": "",
          "type": "address"
        }
      ],
      "stateMutability": "view",
      "type": "function"
    },
    {
      "inputs": [],
      "name": "renounceOwnership",
      "outputs": [],
      "stateMutability": "nonpayable",
      "type": "function"
    },
    {
      "inputs": [
        {
          "internalType": "address",
          "name": "customNFT",
          "type": "address"
        },
        {
          "internalType": "address",
          "name": "fractionalNFT",
          "type": "address"
        },
        {
          "internalType": "address",
          "name": "membershipNFT",
          "type": "address"
        },
        {
          "internalType": "address",
          "name": "owndNFT",
          "type": "address"
        }
      ],
      "name": "setNFTContracts",
      "outputs": [],
      "stateMutability": "nonpayable",
      "type": "function"
    },
    {
      "inputs": [
        {
          "internalType": "address",
          "name": "nftContract",
          "type": "address"
        },
        {
          "internalType": "uint256",
          "name": "tokenId",
          "type": "uint256"
        }
      ],
      "name": "settleAuction",
      "outputs": [],
      "stateMutability": "nonpayable",
      "type": "function"
    },
    {
      "inputs": [
        {
          "internalType": "address",
          "name": "nftContract",
          "type": "address"
        },
        {
          "internalType": "uint256",
          "name": "tokenId",
          "type": "uint256"
        }
      ],
      "name": "takeHighestBid",
      "outputs": [],
      "stateMutability": "nonpayable",
      "type": "function"
    },
    {
      "inputs": [
        {
          "internalType": "address",
          "name": "newOwner",
          "type": "address"
        }
      ],
      "name": "transferOwnership",
      "outputs": [],
      "stateMutability": "nonpayable",
      "type": "function"
    },
    {
      "inputs": [
        {
          "internalType": "address",
          "name": "nftContract",
          "type": "address"
        },
        {
          "internalType": "uint256",
          "name": "tokenId",
          "type": "uint256"
        }
      ],
      "name": "withdrawAuction",
      "outputs": [],
      "stateMutability": "nonpayable",
      "type": "function"
    },
    {
      "inputs": [
        {
          "internalType": "address",
          "name": "nftContract",
          "type": "address"
        },
        {
          "internalType": "uint256",
          "name": "tokenId",
          "type": "uint256"
        }
      ],
      "name": "withdrawBid",
      "outputs": [],
      "stateMutability": "nonpayable",
      "type": "function"
    },
    {
      "inputs": [
        {
          "internalType": "address",
          "name": "nftContract",
          "type": "address"
        },
        {
          "internalType": "uint256",
          "name": "tokenId",
          "type": "uint256"
        }
      ],
      "name": "withdrawSale",
      "outputs": [],
      "stateMutability": "nonpayable",
      "type": "function"
    }
  ],
  "bytecode": "0x608060405234801561001057600080fd5b50614e7f806100206000396000f3fe6080604052600436106101d85760003560e01c8063880d5cc511610102578063c3f5053411610095578063ed570de511610064578063ed570de514610569578063eebe274e14610589578063f2fde38b146105b6578063f5743810146105d657600080fd5b8063c3f50534146104fc578063c697a82c1461051c578063ceb8982014610388578063ebea60251461054957600080fd5b8063b14f2a39116100d1578063b14f2a3914610486578063b603c7d0146104a6578063c24d5a5c146104c6578063c2ab8766146104d957600080fd5b8063880d5cc51461041f57806388b98b12146104355780638da5cb5b14610455578063a82ba76f1461047357600080fd5b80635138b08c1161017a578063715018a611610149578063715018a61461039d578063765d7b20146103b25780637af255ff146103df578063848e5c77146103ff57600080fd5b80635138b08c1461031a578063523dd5331461033a578063655a2b1a1461036757806369710d0b1461038857600080fd5b80633562f1cf116101b65780633562f1cf14610275578063398d8746146102ad578063485cc955146102da5780634cb8ef5b146102fa57600080fd5b806303382f22146101dd578063150b7a02146101ff578063186779d514610249575b600080fd5b3480156101e957600080fd5b506101fd6101f836600461461e565b6105f6565b005b34801561020b57600080fd5b5061022b61021a3660046143f8565b630a85bd0160e11b95945050505050565b6040516001600160e01b031990911681526020015b60405180910390f35b34801561025557600080fd5b506102606201518081565b60405163ffffffff9091168152602001610240565b34801561028157600080fd5b50610295610290366004614865565b610825565b6040516001600160a01b039091168152602001610240565b3480156102b957600080fd5b506102cd6102c83660046145a3565b6108a9565b6040516102409190614c5d565b3480156102e657600080fd5b506101fd6102f5366004614365565b610a89565b34801561030657600080fd5b506101fd6103153660046145a3565b610bee565b34801561032657600080fd5b506101fd6103353660046145a3565b610d04565b34801561034657600080fd5b5061035a61035536600461432d565b610e61565b6040516102409190614b97565b34801561037357600080fd5b506101fd610382366004614793565b50505050565b34801561039457600080fd5b50610260606481565b3480156103a957600080fd5b506101fd610ecd565b3480156103be57600080fd5b506103d26103cd36600461475f565b610ee1565b6040516102409190614ae2565b3480156103eb57600080fd5b506101fd6103fa36600461439d565b61123a565b34801561040b57600080fd5b506101fd61041a3660046145a3565b611360565b34801561042b57600080fd5b50610260611f4081565b34801561044157600080fd5b506101fd6104503660046145a3565b611493565b34801561046157600080fd5b506033546001600160a01b0316610295565b6101fd6104813660046145a3565b611676565b34801561049257600080fd5b506101fd6104a136600461432d565b611bad565b3480156104b257600080fd5b506102956104c13660046145a3565b611bea565b6101fd6104d43660046145ce565b611c65565b3480156104e557600080fd5b506104ee600581565b604051908152602001610240565b34801561050857600080fd5b506101fd6105173660046146af565b611d5f565b34801561052857600080fd5b5061053c6105373660046145a3565b611f3a565b6040516102409190614c70565b34801561055557600080fd5b506101fd6105643660046145a3565b61205a565b34801561057557600080fd5b506101fd610584366004614491565b612178565b34801561059557600080fd5b506105a96105a436600461475f565b6123cf565b6040516102409190614b43565b3480156105c257600080fd5b506101fd6105d136600461432d565b612686565b3480156105e257600080fd5b5061035a6105f136600461432d565b6126ff565b600260655414156106225760405162461bcd60e51b815260040161061990614c26565b60405180910390fd5b60026065556040516331a9108f60e11b815260048101869052869086906001600160a01b03831690636352211e9060240160206040518083038186803b15801561066b57600080fd5b505afa15801561067f573d6000803e3d6000fd5b505050506040513d601f19601f820116820180604052508101906106a39190614349565b6001600160a01b0316336001600160a01b0316146106d8578181604051631464bc1b60e11b8152600401610619929190614ac9565b60405163020604bf60e21b815260048101889052889088906001600160a01b0383169063081812fc9060240160206040518083038186803b15801561071c57600080fd5b505afa158015610730573d6000803e3d6000fd5b505050506040513d601f19601f820116820180604052508101906107549190614349565b6001600160a01b0316306001600160a01b031614610789578181604051631d6d11e160e31b8152600401610619929190614ac9565b6001600160801b038716806107b457604051630b707dc560e21b815260048101829052602401610619565b6001600160a01b03808c166000908152609a602090815260408083208e84529091529020600201548c918c9116156108035781816040516370b8c95f60e01b8152600401610619929190614ac9565b6108118d8d8d8d8d8d612769565b505060016065555050505050505050505050565b60006097600083600381111561084b57634e487b7160e01b600052602160045260246000fd5b600381111561086a57634e487b7160e01b600052602160045260246000fd5b600381111561088957634e487b7160e01b600052602160045260246000fd5b81526020810191909152604001600020546001600160a01b031692915050565b6108b1613ff7565b6001600160a01b03838116600090815260986020908152604080832086845282529182902082516101e08101845281548152600182015463ffffffff8082168386015264010000000082041682860152600160401b81046001600160401b03166060830152600160801b908190046001600160801b039081166080840152600284015480821660a0850152919091041660c08201526003820154851660e08201526004820154851661010082015260058201548516610120820152600682015485166101408201526007820154948516610160820152600160a01b90940460ff16151561018085015260088101805484518185028101850190955280855291936101a08601939092908301828280156109f357602002820191906000526020600020905b81546001600160a01b031681526001909101906020018083116109d5575b5050505050815260200160098201805480602002602001604051908101604052809291908181526020018280548015610a7757602002820191906000526020600020906000905b82829054906101000a900463ffffffff1663ffffffff1681526020019060040190602082600301049283019260010382029150808411610a3a5790505b50505050508152505090505b92915050565b600054610100900460ff1615808015610aa95750600054600160ff909116105b80610ac35750303b158015610ac3575060005460ff166001145b610b265760405162461bcd60e51b815260206004820152602e60248201527f496e697469616c697a61626c653a20636f6e747261637420697320616c72656160448201526d191e481a5b9a5d1a585b1a5e995960921b6064820152608401610619565b6000805460ff191660011790558015610b49576000805461ff0019166101001790555b6001600160a01b038316610b5c57600080fd5b6001600160a01b038216610b6f57600080fd5b610b77612895565b610b7f6128c4565b609d80546001600160a01b0319166001600160a01b038416179055610ba383612686565b8015610be9576000805461ff0019169055604051600181527f7f26b83ff96e1f2b6a682f133852f6798a09c465da95921460cefb38474024989060200160405180910390a15b505050565b60026065541415610c115760405162461bcd60e51b815260040161061990614c26565b60026065556001600160a01b03808316600090815260986020908152604080832085845290915290206003015416338114610c63578282604051638dcad11b60e01b8152600401610619929190614ac9565b6001600160a01b0383166000908152609860209081526040808320858452909152902060020154600160801b90046001600160801b0316610ca484846128f3565b610cb9848484846001600160801b031661294b565b60405183815233906001600160a01b038616907f1c67fba99d945a891489857a6f588badd10a0834d848de5574580cea4974ff5b9060200160405180910390a3505060016065555050565b60026065541415610d275760405162461bcd60e51b815260040161061990614c26565b60026065556040516331a9108f60e11b815260048101829052829082906001600160a01b03831690636352211e9060240160206040518083038186803b158015610d7057600080fd5b505afa158015610d84573d6000803e3d6000fd5b505050506040513d601f19601f82011682018060405250810190610da89190614349565b6001600160a01b0316336001600160a01b031614610ddd578181604051631464bc1b60e11b8152600401610619929190614ac9565b8383610de98282612a85565b610e0a578181604051631b09b27f60e01b8152600401610619929190614ac9565b610e148686612b01565b60405185815233906001600160a01b038816907f1b5a773e8fc5617b32cff68b696669f7e14d946e95ab5994e244a4e73a82e1ff9060200160405180910390a35050600160655550505050565b6001600160a01b0381166000908152609b6020908152604091829020805483518184028101840190945280845260609392830182828015610ec157602002820191906000526020600020905b815481526020019060010190808311610ead575b50505050509050919050565b610ed5612c79565b610edf6000612cd3565b565b6001600160a01b038316600090815260996020526040902054606090831015611233576001600160a01b038416600090815260996020526040902054610f28908490614dc0565b821115610f56576001600160a01b038416600090815260996020526040902054610f53908490614dc0565b91505b811561123357816001600160401b03811115610f8257634e487b7160e01b600052604160045260246000fd5b604051908082528060200260200182016040528015610fbb57816020015b610fa8613ff7565b815260200190600190039081610fa05790505b509050825b610fca8385614cd6565b811015611231576001600160a01b03851660009081526098602090815260408083206099909252822080549192918490811061101657634e487b7160e01b600052603260045260246000fd5b60009182526020808320909101548352828101939093526040918201902081516101e08101835281548152600182015463ffffffff80821683870152640100000000820416828501526001600160401b03600160401b82041660608301526001600160801b03600160801b9182900481166080840152600284015480821660a0850152919091041660c082015260038201546001600160a01b0390811660e0830152600483015481166101008301526005830154811661012083015260068301548116610140830152600783015490811661016083015260ff600160a01b909104161515610180820152600882018054845181870281018701909552808552919492936101a086019390929083018282801561115b57602002820191906000526020600020905b81546001600160a01b0316815260019091019060200180831161113d575b50505050508152602001600982018054806020026020016040519081016040528092919081815260200182805480156111df57602002820191906000526020600020906000905b82829054906101000a900463ffffffff1663ffffffff16815260200190600401906020826003010492830192600103820291508084116111a25790505b5050505050815250508285836111f59190614dc0565b8151811061121357634e487b7160e01b600052603260045260246000fd5b6020026020010181905250808061122990614dd7565b915050610fc0565b505b9392505050565b6001600160a01b0384161580159061125a57506001600160a01b03831615155b801561126e57506001600160a01b03821615155b801561128257506001600160a01b03811615155b61128b57600080fd5b60976020527f683723e34a772b6e4f2c919bba7fa32ed8ea11a8325f54da7db716e9d9dd98c780546001600160a01b03199081166001600160a01b03968716179091557f53bdca72fa8d2e145a1b3bd11cde5bd75428acd18eac3d6adf4e06e7e637706d80548216948616949094179093557fd6ca216b3b8b63bcc0099d5c8294d1780d598ac9b3a29b15c3c3e68c85f6e30c80549285169284169290921790915560036000527f017b8d24b2a0f404d68a0b2abb80fd2d4d2105d3355f1fc48a1949fe7fce12e58054919093169116179055565b600260655414156113835760405162461bcd60e51b815260040161061990614c26565b600260658190556001600160a01b038084166000908152609a60209081526040808320868452909152902090910154839183911633146113d857604051630c7441bb60e31b8152336004820152602401610619565b6001600160a01b0384166000908152609860209081526040808320868452909152902060020154600160801b90046001600160801b031661143057838360405163481e476160e11b8152600401610619929190614ac9565b61143b848433612d25565b6114458484612b01565b836001600160a01b03167fcc801e4a1662a9ed7f9dc813fce5781eeba9361ac5f2934d6d59594b40d62e858460405161148091815260200190565b60405180910390a2505060016065555050565b600260655414156114b65760405162461bcd60e51b815260040161061990614c26565b60026065556040516331a9108f60e11b815260048101829052829082906001600160a01b03831690636352211e9060240160206040518083038186803b1580156114ff57600080fd5b505afa158015611513573d6000803e3d6000fd5b505050506040513d601f19601f820116820180604052508101906115379190614349565b6001600160a01b0316336001600160a01b03161461156c578181604051631464bc1b60e11b8152600401610619929190614ac9565b6001600160a01b038085166000908152609a6020908152604080832087845290915290206002015485918591166115ba57818160405163718a8cb360e01b8152600401610619929190614ac9565b6115c48686612eb9565b604051632142170760e11b81526001600160a01b038716906342842e0e906115f490309033908a90600401614aa5565b600060405180830381600087803b15801561160e57600080fd5b505af1158015611622573d6000803e3d6000fd5b50505050856001600160a01b03167f5030805dc788ddab4854363945f64f79b4003801d92bfcd4de0cd64d8276fbd98660405161166191815260200190565b60405180910390a25050600160655550505050565b600260655414156116995760405162461bcd60e51b815260040161061990614c26565b600260658190556001600160a01b038084166000908152609a6020908152604080832086845290915290209091015483918391166116ee57818160405163718a8cb360e01b8152600401610619929190614ac9565b6040516331a9108f60e11b815260048101849052849084906001600160a01b03831690636352211e9060240160206040518083038186803b15801561173257600080fd5b505afa158015611746573d6000803e3d6000fd5b505050506040513d601f19601f8201168201806040525081019061176a9190614349565b6001600160a01b0316336001600160a01b031614156117a05781816040516364ae7b2560e11b8152600401610619929190614ac9565b6001600160a01b038681166000908152609a6020908152604080832089845290915281206003810154600282015460019092015490939182169291169060646117ea600586614da1565b6117f49190614d5e565b905060006118028286614dc0565b905061180e8b8b612eb9565b6001600160a01b0383166119af57843410156118615760405162461bcd60e51b815260206004820152601260248201527124b739bab33334b1b4b2b73a1022ba3432b960711b6044820152606401610619565b6000846001600160a01b03168260405160006040518083038185875af1925050503d80600081146118ae576040519150601f19603f3d011682016040523d82523d6000602084013e6118b3565b606091505b50509050806119045760405162461bcd60e51b815260206004820152601e60248201527f4661696c65642073656e64696e6720657468657220746f2073656c6c657200006044820152606401610619565b609d546040516001600160a01b03909116908490600081818185875af1925050503d8060008114611951576040519150601f19603f3d011682016040523d82523d6000602084013e611956565b606091505b505080915050806119a95760405162461bcd60e51b815260206004820181905260248201527f4661696c65642073656e64696e6720657468657220746f2074726561737572796044820152606401610619565b50611af9565b6040516323b872dd60e01b81526001600160a01b038416906323b872dd906119df90339088908690600401614aa5565b602060405180830381600087803b1580156119f957600080fd5b505af1158015611a0d573d6000803e3d6000fd5b505050506040513d601f19601f82011682018060405250810190611a319190614845565b611a5257828560405163fefc7c5560e01b8152600401610619929190614ac9565b609d546040516323b872dd60e01b81526001600160a01b03808616926323b872dd92611a8692339216908790600401614aa5565b602060405180830381600087803b158015611aa057600080fd5b505af1158015611ab4573d6000803e3d6000fd5b505050506040513d601f19601f82011682018060405250810190611ad89190614845565b611af957828560405163fefc7c5560e01b8152600401610619929190614ac9565b604051632142170760e11b81526001600160a01b038c16906342842e0e90611b2990309033908f90600401614aa5565b600060405180830381600087803b158015611b4357600080fd5b505af1158015611b57573d6000803e3d6000fd5b50506040518c81523392506001600160a01b038e1691507fb89e44430873468e658c1262715e5939bbb09dea086295c4f60da5256bd8f1239060200160405180910390a350506001606555505050505050505050565b611bb5612c79565b6001600160a01b038116611bc857600080fd5b609d80546001600160a01b0319166001600160a01b0392909216919091179055565b6040516331a9108f60e11b8152600481018290526000906001600160a01b03841690636352211e9060240160206040518083038186803b158015611c2d57600080fd5b505afa158015611c41573d6000803e3d6000fd5b505050506040513d601f19601f820116820180604052508101906112339190614349565b60026065541415611c885760405162461bcd60e51b815260040161061990614c26565b60026065558383611c998282612a85565b611cba578181604051631b09b27f60e01b8152600401610619929190614ac9565b8585611cee82826001600160a01b039182166000908152609860209081526040808320938352929052206005015416151590565b8015611d2257506001600160a01b038281166000908152609860209081526040808320858452909152902060050154163314155b15611d4457818160405163025dfde360e41b8152600401610619929190614ac9565b611d5088888888612ec7565b50506001606555505050505050565b60026065541415611d825760405162461bcd60e51b815260040161061990614c26565b60026065556040516331a9108f60e11b8152600481018790526001600160a01b03881690636352211e9060240160206040518083038186803b158015611dc757600080fd5b505afa158015611ddb573d6000803e3d6000fd5b505050506040513d601f19601f82011682018060405250810190611dff9190614349565b6001600160a01b0316336001600160a01b031614611e34578686604051631464bc1b60e11b8152600401610619929190614ac9565b6001600160a01b0387811660009081526098602090815260408083208a84529091529020600401541615611e7f57868660405163617db15960e01b8152600401610619929190614ac9565b611e8e8787878787878761301a565b846001600160a01b0316336001600160a01b0316886001600160a01b03167f417a3a06afeda17cea0e2ba5fb24f396f62f30bf5ce1099641d8e30117e4e029898888611eda8e8e6132f2565b611ee48f8f61333f565b604080519586526001600160801b039485166020870152929093168483015263ffffffff90811660608501529091166080830152519081900360a00190a4611f2c878761337b565b505060016065555050505050565b611f42614075565b6001600160a01b038084166000908152609a60209081526040808320868452825291829020825160c0810184528154815260018201548516818401526002820154909416848401526003810154606085015260048101805484518185028101850190955280855291936080860193909290830182828015611fec57602002820191906000526020600020905b81546001600160a01b03168152600190910190602001808311611fce575b5050505050815260200160058201805480602002602001604051908101604052809291908181526020018280548015610a77576000918252602091829020805463ffffffff168452908202830192909160049101808411610a3a579050505050505081525050905092915050565b6002606554141561207d5760405162461bcd60e51b815260040161061990614c26565b60026065556040516331a9108f60e11b815260048101829052829082906001600160a01b03831690636352211e9060240160206040518083038186803b1580156120c657600080fd5b505afa1580156120da573d6000803e3d6000fd5b505050506040513d601f19601f820116820180604052508101906120fe9190614349565b6001600160a01b0316336001600160a01b031614612133578181604051631464bc1b60e11b8152600401610619929190614ac9565b61213d84846133ec565b836001600160a01b03167ff75f3e198453c5e8c50f6cea2f01a714e952664e7bfd574e8ee4feb176a5d63d8460405161148091815260200190565b6002606554141561219b5760405162461bcd60e51b815260040161061990614c26565b60026065556001600160801b038316806121cb57604051630b707dc560e21b815260048101829052602401610619565b60005b8651811015611d505760008782815181106121f957634e487b7160e01b600052603260045260246000fd5b60200260200101519050886001600160a01b0316636352211e826040518263ffffffff1660e01b815260040161223191815260200190565b60206040518083038186803b15801561224957600080fd5b505afa15801561225d573d6000803e3d6000fd5b505050506040513d601f19601f820116820180604052508101906122819190614349565b6001600160a01b0316336001600160a01b0316146122b6578881604051631464bc1b60e11b8152600401610619929190614ac9565b60405163020604bf60e21b8152600481018290526001600160a01b038a169063081812fc9060240160206040518083038186803b1580156122f657600080fd5b505afa15801561230a573d6000803e3d6000fd5b505050506040513d601f19601f8201168201806040525081019061232e9190614349565b6001600160a01b0316306001600160a01b031614612363578881604051631d6d11e160e31b8152600401610619929190614ac9565b6001600160a01b03808a166000908152609a6020908152604080832085845290915290206002015416156123ae5788816040516370b8c95f60e01b8152600401610619929190614ac9565b6123bc898289898989612769565b50806123c781614dd7565b9150506121ce565b6001600160a01b0383166000908152609b6020526040902054606090831015611233576001600160a01b0384166000908152609b6020526040902054612416908490614dc0565b821115612444576001600160a01b0384166000908152609b6020526040902054612441908490614dc0565b91505b811561123357816001600160401b0381111561247057634e487b7160e01b600052604160045260246000fd5b6040519080825280602002602001820160405280156124a957816020015b612496614075565b81526020019060019003908161248e5790505b509050825b6124b88385614cd6565b811015611231576001600160a01b0385166000908152609a60209081526040808320609b909252822080549192918490811061250457634e487b7160e01b600052603260045260246000fd5b600091825260208083209091015483528281019390935260409182019020815160c0810183528154815260018201546001600160a01b039081168286015260028301541681840152600382015460608201526004820180548451818702810187019095528085529194929360808601939092908301828280156125b057602002820191906000526020600020905b81546001600160a01b03168152600190910190602001808311612592575b505050505081526020016005820180548060200260200160405190810160405280929190818152602001828054801561263457602002820191906000526020600020906000905b82829054906101000a900463ffffffff1663ffffffff16815260200190600401906020826003010492830192600103820291508084116125f75790505b50505050508152505082858361264a9190614dc0565b8151811061266857634e487b7160e01b600052603260045260246000fd5b6020026020010181905250808061267e90614dd7565b9150506124ae565b61268e612c79565b6001600160a01b0381166126f35760405162461bcd60e51b815260206004820152602660248201527f4f776e61626c653a206e6577206f776e657220697320746865207a65726f206160448201526564647265737360d01b6064820152608401610619565b6126fc81612cd3565b50565b6001600160a01b038116600090815260996020908152604091829020805483518184028101840190945280845260609392830182828015610ec15760200282019190600052602060002090815481526020019060010190808311610ead5750505050509050919050565b612774868633612d25565b6001600160a01b038681166000818152609b60209081526040808320805460018082018355918552838520018b9055938352609a82528083208a8452825290912088815591820180549388166001600160a01b031994851617905560028201805490931633179092556001600160801b03851660038201558351612800926004909201918501906140bd565b506001600160a01b0386166000908152609a602090815260408083208884528252909120825161283892600590920191840190614122565b50604080518681526001600160801b03851660208201526001600160a01b03808716923392918a16917fa07c96d3721fcbbef27183918f376a8391aaa9589eb11a14f0ef7271b1d8e96191015b60405180910390a4505050505050565b600054610100900460ff166128bc5760405162461bcd60e51b815260040161061990614bdb565b610edf61345e565b600054610100900460ff166128eb5760405162461bcd60e51b815260040161061990614bdb565b610edf61348e565b6001600160a01b03919091166000908152609860209081526040808320938352929052206003810180546001600160a01b03199081169091556002820180546001600160801b03169055600690910180549091169055565b6001600160a01b038481166000908152609860209081526040808320878452909152902060070154168015612a205760405163a9059cbb60e01b81526001600160a01b0382169063a9059cbb906129a89086908690600401614ac9565b602060405180830381600087803b1580156129c257600080fd5b505af11580156129d6573d6000803e3d6000fd5b505050506040513d601f19601f820116820180604052508101906129fa9190614845565b612a1b57808260405163fefc7c5560e01b8152600401610619929190614ac9565b612a7e565b6000836001600160a01b031683614e2090604051600060405180830381858888f193505050503d8060008114612a72576040519150601f19603f3d011682016040523d82523d6000602084013e612a77565b606091505b505090505b505b5050505050565b6001600160a01b0382166000908152609860209081526040808320848452909152812060010154600160401b90046001600160401b031615806112335750506001600160a01b039190911660009081526098602090815260408083209383529290522060010154600160401b90046001600160401b0316421090565b6001600160a01b03828116600090815260986020908152604080832085845290915281206004810154600390910154908316921690612b4085856134bc565b6001600160a01b0386166000908152609860209081526040808320888452909152902060020154909150600160801b90046001600160801b0316612b8486866128f3565b612b8e86866133ec565b612ba3868686846001600160801b031661351c565b604051632142170760e11b81526001600160a01b038716906342842e0e90612bd390309086908a90600401614aa5565b600060405180830381600087803b158015612bed57600080fd5b505af1158015612c01573d6000803e3d6000fd5b50505050826001600160a01b0316846001600160a01b0316876001600160a01b03167f08ff8776aa9dfead5713153ec011c6ce23d80a389215c384419cadc1acc4f7aa888587604051612885939291909283526001600160801b039190911660208301526001600160a01b0316604082015260600190565b6033546001600160a01b03163314610edf5760405162461bcd60e51b815260206004820181905260248201527f4f776e61626c653a2063616c6c6572206973206e6f7420746865206f776e65726044820152606401610619565b603380546001600160a01b038381166001600160a01b0319831681179093556040519116919082907f8be0079c531659141344cd1fd0a4f28419497f9722a3daafe3b4186f6b6457e090600090a35050565b6040516331a9108f60e11b8152600481018390526001600160a01b038083169190851690636352211e9060240160206040518083038186803b158015612d6a57600080fd5b505afa158015612d7e573d6000803e3d6000fd5b505050506040513d601f19601f82011682018060405250810190612da29190614349565b6001600160a01b03161415612e1457604051632142170760e11b81526001600160a01b038416906342842e0e90612de190849030908790600401614aa5565b600060405180830381600087803b158015612dfb57600080fd5b505af1158015612e0f573d6000803e3d6000fd5b505050505b6040516331a9108f60e11b81526004810183905230906001600160a01b03851690636352211e9060240160206040518083038186803b158015612e5657600080fd5b505afa158015612e6a573d6000803e3d6000fd5b505050506040513d601f19601f82011682018060405250810190612e8e9190614349565b6001600160a01b031614610be957828260405163d99c81e360e01b8152600401610619929190614ac9565b612ec382826136a6565b5050565b6001600160a01b038085166000908152609a602090815260408083208784529091529020600201548591859116331415612f1857818160405163617db15960e01b8152600401610619929190614ac9565b85858585612f28848484846138ba565b612f49578383604051637f487ddb60e11b8152600401610619929190614ac9565b612f548a8a8961395a565b612fa05760405162461bcd60e51b815260206004820152601960248201527f496e73756666696369656e742066756e647320746f20626964000000000000006044820152606401610619565b612fab8a8a89613a66565b612fb58a8a61337b565b604080518a81523460208201526001600160801b0389168183015290516001600160a01b038a8116923392918e16917f341120aa0dda9918f639de5b8ac08dd9a30cab1063e0cf0fc9abb8c6e8bffd369181900360600190a450505050505050505050565b82846001600160801b038216158015906130565750806001600160801b0316613054836001600160801b0316611f4063ffffffff16613ace565b105b156130875760405163529a16e560e01b81526001600160801b03808316600483015283166024820152604401610619565b835183518082146130b55760405163147d4b2360e11b81526004810183905260248101829052604401610619565b846000805b825181101561310a578281815181106130e357634e487b7160e01b600052603260045260246000fd5b6020026020010151826130f69190614cee565b91508061310281614dd7565b9150506130ba565b506127108163ffffffff161115613134576040516307c1726f60e51b815260040160405180910390fd5b8b609860008f6001600160a01b03166001600160a01b0316815260200190815260200160002060008e8152602001908152602001600020600001819055508a609860008f6001600160a01b03166001600160a01b0316815260200190815260200160002060008e815260200190815260200160002060070160006101000a8154816001600160a01b0302191690836001600160a01b0316021790555087609860008f6001600160a01b03166001600160a01b0316815260200190815260200160002060008e8152602001908152602001600020600801908051906020019061321d9291906140bd565b506001600160a01b038d1660009081526098602090815260408083208f845282529091208851613255926009909201918a0190614122565b5050506001600160a01b03909a1660008181526098602090815260408083208d845282528083206002810180546001600160801b039c8d166001600160801b0319909116179055600180820180549d8d16600160801b029d909c169c909c17909a55600490990180546001600160a01b03191633179055918152609982529687208054988901815587529095209095019690965550505050505050565b6001600160a01b0382166000908152609860209081526040808320848452909152812060010154640100000000900463ffffffff16806133385762015180915050610a83565b9050610a83565b6001600160a01b038216600090815260986020908152604080832084845290915281206001015463ffffffff1680613338576064915050610a83565b6001600160a01b038083166000908152609860209081526040808320858452909152902060040154166133ae8383613ae7565b156133c8576133be838383612d25565b610be98383612b01565b6133d28383613b66565b15610be9576133e18383613bed565b610be9838383612d25565b6001600160a01b038216600090815260986020908152604080832084845290915281206002810180546001600160801b031916905560018101919091556004810180546001600160a01b031990811690915560058201805482169055600790910180549091169055612ec38282613c9d565b600054610100900460ff166134855760405162461bcd60e51b815260040161061990614bdb565b610edf33612cd3565b600054610100900460ff166134b55760405162461bcd60e51b815260040161061990614bdb565b6001606555565b6001600160a01b038083166000908152609860209081526040808320858452909152812060060154909116806133385750506001600160a01b03808316600090815260986020908152604080832085845290915290206003015416610a83565b6000606461352b600584614da1565b6135359190614d5e565b90506135418183614dc0565b609d5490925061355e90869086906001600160a01b03168461294b565b6000805b6001600160a01b0387166000908152609860209081526040808320898452909152902060080154811015613690576001600160a01b038716600090815260986020908152604080832089845290915281206009018054613605918791859081106135dc57634e487b7160e01b600052603260045260246000fd5b6000918252602090912060088204015460079091166004026101000a900463ffffffff16613ace565b90506136118184614cd6565b6001600160a01b03891660009081526098602090815260408083208b84529091529020600801805491945061367d918a918a918690811061366257634e487b7160e01b600052603260045260246000fd5b6000918252602090912001546001600160a01b03168461294b565b508061368881614dd7565b915050613562565b50612a7c8686866136a18588614dc0565b61294b565b60005b6001600160a01b0383166000908152609b6020526040902054811015613850576001600160a01b0383166000908152609b6020526040902080548391908390811061370457634e487b7160e01b600052603260045260246000fd5b9060005260206000200154141561383e57805b6001600160a01b0384166000908152609b602052604090205461373c90600190614dc0565b8110156137f1576001600160a01b0384166000908152609b60205260409020613766826001614cd6565b8154811061378457634e487b7160e01b600052603260045260246000fd5b9060005260206000200154609b6000866001600160a01b03166001600160a01b0316815260200190815260200160002082815481106137d357634e487b7160e01b600052603260045260246000fd5b600091825260209091200155806137e981614dd7565b915050613717565b506001600160a01b0383166000908152609b6020526040902080548061382757634e487b7160e01b600052603160045260246000fd5b600190038181906000526020600020016000905590555b8061384881614dd7565b9150506136a9565b506001600160a01b0382166000908152609a6020908152604080832084845290915281208181556001810180546001600160a01b0319908116909155600282018054909116905560038101829055906138ac60048301826141cc565b6103826005830160006141ea565b6001600160a01b0384811660009081526098602090815260408083208784529091528120600701549091168015613927573415801561390a5750836001600160a01b0316816001600160a01b0316145b801561391f57506000836001600160801b0316115b915050613952565b341580159061393d57506001600160a01b038416155b801561391f575050506001600160801b038116155b949350505050565b6001600160a01b03831660009081526098602090815260408083208584529091528120600201546001600160801b031680158015906139be5750806001600160801b0316341015806139be5750806001600160801b0316836001600160801b031610155b156139cd576001915050611233565b60006127106139dc878761333f565b6139e890612710614cee565b6001600160a01b03881660009081526098602090815260408083208a8452909152902060020154613a2f9163ffffffff1690600160801b90046001600160801b0316614d72565b613a399190614d38565b6001600160801b031690508034101580613a5c575080846001600160801b031610155b9695505050505050565b6001600160a01b03838116600090815260986020908152604080832086845290915290206003810154600290910154911690600160801b90046001600160801b0316613ab3858585613e47565b6001600160a01b03821615612a7e57612a7e8585848461294b565b6000612710613add8385614da1565b6112339190614d5e565b6001600160a01b03821660009081526098602090815260408083208484529091528120600201546001600160801b0316801580159061395257506001600160a01b03841660009081526098602090815260408083208684529091529020600201546001600160801b03808316600160801b909204161015949350505050565b6001600160a01b0382166000908152609860209081526040808320848452909152812060010154600160801b90046001600160801b0316801580159061395257506001600160a01b03841660009081526098602090815260408083208684529091529020600201546001600160801b03808316600160801b90920416101591505092915050565b42613bf883836132f2565b63ffffffff16613c089190614d16565b6001600160a01b038316600081815260986020908152604080832086845282529182902060010180546fffffffffffffffff00000000000000001916600160401b6001600160401b0396871681029190911791829055835187815291049094169084015290917fa1e7b6c5b94ad1e2b5c13f1d1a517ae9584b9b96ed78750c76de93ae148ef231910160405180910390a25050565b60005b6001600160a01b038316600090815260996020526040902054811015610be9576001600160a01b0383166000908152609960205260409020805483919083908110613cfb57634e487b7160e01b600052603260045260246000fd5b90600052602060002001541415613e3557805b6001600160a01b038416600090815260996020526040902054613d3390600190614dc0565b811015613de8576001600160a01b0384166000908152609960205260409020613d5d826001614cd6565b81548110613d7b57634e487b7160e01b600052603260045260246000fd5b906000526020600020015460996000866001600160a01b03166001600160a01b031681526020019081526020016000208281548110613dca57634e487b7160e01b600052603260045260246000fd5b60009182526020909120015580613de081614dd7565b915050613d0e565b506001600160a01b0383166000908152609960205260409020805480613e1e57634e487b7160e01b600052603160045260246000fd5b600190038181906000526020600020016000905590555b80613e3f81614dd7565b915050613ca0565b6001600160a01b038381166000908152609860209081526040808320868452909152902060070154168015613f7e576040516323b872dd60e01b81523360048201523060248201526001600160801b03831660448201526001600160a01b038216906323b872dd90606401602060405180830381600087803b158015613ecc57600080fd5b505af1158015613ee0573d6000803e3d6000fd5b505050506040513d601f19601f82011682018060405250810190613f049190614845565b613f3b5760405163fefc7c5560e01b81526001600160a01b03821660048201526001600160801b0383166024820152604401610619565b6001600160a01b0384166000908152609860209081526040808320868452909152902060020180546001600160801b03808516600160801b029116179055613fbd565b6001600160a01b0384166000908152609860209081526040808320868452909152902060020180546001600160801b03348116600160801b0291161790555b50506001600160a01b0390911660009081526098602090815260408083209383529290522060030180546001600160a01b03191633179055565b604080516101e08101825260008082526020820181905291810182905260608082018390526080820183905260a0820183905260c0820183905260e0820183905261010082018390526101208201839052610140820183905261016082018390526101808201929092526101a081018290526101c081019190915290565b6040518060c001604052806000815260200160006001600160a01b0316815260200160006001600160a01b031681526020016000815260200160608152602001606081525090565b828054828255906000526020600020908101928215614112579160200282015b8281111561411257825182546001600160a01b0319166001600160a01b039091161782556020909201916001909101906140dd565b5061411e92915061420b565b5090565b828054828255906000526020600020906007016008900481019282156141125791602002820160005b8382111561418f57835183826101000a81548163ffffffff021916908363ffffffff160217905550926020019260040160208160030104928301926001030261414b565b80156141bf5782816101000a81549063ffffffff021916905560040160208160030104928301926001030261418f565b505061411e92915061420b565b50805460008255906000526020600020908101906126fc919061420b565b5080546000825560070160089004906000526020600020908101906126fc91905b5b8082111561411e576000815560010161420c565b803561422b81614e34565b919050565b600082601f830112614240578081fd5b8135602061425561425083614cb3565b614c83565b80838252828201915082860187848660051b8901011115614274578586fd5b855b8581101561429b57813561428981614e34565b84529284019290840190600101614276565b5090979650505050505050565b600082601f8301126142b8578081fd5b813560206142c861425083614cb3565b80838252828201915082860187848660051b89010111156142e7578586fd5b855b8581101561429b57813563ffffffff81168114614304578788fd5b845292840192908401906001016142e9565b80356001600160801b038116811461422b57600080fd5b60006020828403121561433e578081fd5b813561123381614e34565b60006020828403121561435a578081fd5b815161123381614e34565b60008060408385031215614377578081fd5b823561438281614e34565b9150602083013561439281614e34565b809150509250929050565b600080600080608085870312156143b2578182fd5b84356143bd81614e34565b935060208501356143cd81614e34565b925060408501356143dd81614e34565b915060608501356143ed81614e34565b939692955090935050565b60008060008060006080868803121561440f578081fd5b853561441a81614e34565b9450602086013561442a81614e34565b93506040860135925060608601356001600160401b038082111561444c578283fd5b818801915088601f83011261445f578283fd5b81358181111561446d578384fd5b89602082850101111561447e578384fd5b9699959850939650602001949392505050565b60008060008060008060c087890312156144a9578081fd5b86356144b481614e34565b95506020878101356001600160401b03808211156144d0578384fd5b818a0191508a601f8301126144e3578384fd5b81356144f161425082614cb3565b8082825285820191508585018e878560051b8801011115614510578788fd5b8795505b83861015614532578035835260019590950194918601918601614514565b50995061454491505060408b01614220565b965061455260608b01614316565b955060808a0135925080831115614567578384fd5b6145738b848c01614230565b945060a08a0135925080831115614588578384fd5b505061459689828a016142a8565b9150509295509295509295565b600080604083850312156145b5578182fd5b82356145c081614e34565b946020939093013593505050565b600080600080608085870312156145e3578182fd5b84356145ee81614e34565b935060208501359250604085013561460581614e34565b915061461360608601614316565b905092959194509250565b60008060008060008060c08789031215614636578384fd5b863561464181614e34565b955060208701359450604087013561465881614e34565b935061466660608801614316565b925060808701356001600160401b0380821115614681578384fd5b61468d8a838b01614230565b935060a08901359150808211156146a2578283fd5b5061459689828a016142a8565b600080600080600080600060e0888a0312156146c9578485fd5b87356146d481614e34565b96506020880135955060408801356146eb81614e34565b94506146f960608901614316565b935061470760808901614316565b925060a08801356001600160401b0380821115614722578283fd5b61472e8b838c01614230565b935060c08a0135915080821115614743578283fd5b506147508a828b016142a8565b91505092959891949750929550565b600080600060608486031215614773578081fd5b833561477e81614e34565b95602085013595506040909401359392505050565b600080600080608085870312156147a8578182fd5b84356147b381614e34565b935060208581013593506040860135925060608601356001600160401b03808211156147dd578384fd5b818801915088601f8301126147f0578384fd5b81358181111561480257614802614e1e565b614814601f8201601f19168501614c83565b91508082528984828501011115614829578485fd5b8084840185840137810190920192909252939692955090935050565b600060208284031215614856578081fd5b81518015158114611233578182fd5b600060208284031215614876578081fd5b5035919050565b6000815180845260208085019450808401835b838110156148b55781516001600160a01b031687529582019590820190600101614890565b509495945050505050565b6000815180845260208085019450808401835b838110156148b557815163ffffffff16875295820195908201906001016148d3565b60006101e0825184526020830151614915602086018263ffffffff169052565b50604083015161492d604086018263ffffffff169052565b50606083015161494860608601826001600160401b03169052565b50608083015161496360808601826001600160801b03169052565b5060a083015161497e60a08601826001600160801b03169052565b5060c083015161499960c08601826001600160801b03169052565b5060e08301516149b460e08601826001600160a01b03169052565b50610100838101516001600160a01b039081169186019190915261012080850151821690860152610140808501518216908601526101608085015190911690850152610180808401511515908501526101a080840151818601839052614a1c8387018261487d565b925050506101c08084015185830382870152613a5c83826148c0565b805182526000602082015160018060a01b038082166020860152806040850151166040860152505060608201516060840152608082015160c06080850152614a8360c085018261487d565b905060a083015184820360a0860152614a9c82826148c0565b95945050505050565b6001600160a01b039384168152919092166020820152604081019190915260600190565b6001600160a01b03929092168252602082015260400190565b6000602080830181845280855180835260408601915060408160051b8701019250838701855b82811015614b3657603f19888603018452614b248583516148f5565b94509285019290850190600101614b08565b5092979650505050505050565b6000602080830181845280855180835260408601915060408160051b8701019250838701855b82811015614b3657603f19888603018452614b85858351614a38565b94509285019290850190600101614b69565b6020808252825182820181905260009190848201906040850190845b81811015614bcf57835183529284019291840191600101614bb3565b50909695505050505050565b6020808252602b908201527f496e697469616c697a61626c653a20636f6e7472616374206973206e6f74206960408201526a6e697469616c697a696e6760a81b606082015260800190565b6020808252601f908201527f5265656e7472616e637947756172643a207265656e7472616e742063616c6c00604082015260600190565b60208152600061123360208301846148f5565b6020815260006112336020830184614a38565b604051601f8201601f191681016001600160401b0381118282101715614cab57614cab614e1e565b604052919050565b60006001600160401b03821115614ccc57614ccc614e1e565b5060051b60200190565b60008219821115614ce957614ce9614df2565b500190565b600063ffffffff808316818516808303821115614d0d57614d0d614df2565b01949350505050565b60006001600160401b03808316818516808303821115614d0d57614d0d614df2565b60006001600160801b0380841680614d5257614d52614e08565b92169190910492915050565b600082614d6d57614d6d614e08565b500490565b60006001600160801b0380831681851681830481118215151615614d9857614d98614df2565b02949350505050565b6000816000190483118215151615614dbb57614dbb614df2565b500290565b600082821015614dd257614dd2614df2565b500390565b6000600019821415614deb57614deb614df2565b5060010190565b634e487b7160e01b600052601160045260246000fd5b634e487b7160e01b600052601260045260246000fd5b634e487b7160e01b600052604160045260246000fd5b6001600160a01b03811681146126fc57600080fdfea264697066735822122013ba98ad924c78ec149ee499a701890f0a5cd6eb989e546762c72d2d8497072b64736f6c63430008040033",
  "linkReferences": {},
  "deployedLinkReferences": {}
}