{
  "_format": "hh-sol-artifact-1",
  "contractName": "NFTEngineV1",
  "sourceName": "contracts/engine/NFTEngineV1.sol",
  "abi": [
    {
      "inputs": [
        {
          "internalType": "address",
          "name": "nftContract",
          "type": "address"
        },
        {
          "internalType": "uint256",
          "name": "tokenId",
          "type": "uint256"
        }
      ],
      "name": "NFTEngineAlreadySalingToken",
      "type": "error"
    },
    {
      "inputs": [
        {
          "internalType": "address",
          "name": "nftContract",
          "type": "address"
        },
        {
          "internalType": "uint256",
          "name": "tokenId",
          "type": "uint256"
        }
      ],
      "name": "NFTEngineAuctionFinished",
      "type": "error"
    },
    {
      "inputs": [
        {
          "internalType": "address",
          "name": "nftContract",
          "type": "address"
        },
        {
          "internalType": "uint256",
          "name": "tokenId",
          "type": "uint256"
        }
      ],
      "name": "NFTEngineDidNotBid",
      "type": "error"
    },
    {
      "inputs": [
        {
          "internalType": "address",
          "name": "erc20token",
          "type": "address"
        },
        {
          "internalType": "uint256",
          "name": "amount",
          "type": "uint256"
        }
      ],
      "name": "NFTEngineERC20TransferFailed",
      "type": "error"
    },
    {
      "inputs": [],
      "name": "NFTEngineFeeRatesExceed",
      "type": "error"
    },
    {
      "inputs": [
        {
          "internalType": "uint256",
          "name": "recipients",
          "type": "uint256"
        },
        {
          "internalType": "uint256",
          "name": "rates",
          "type": "uint256"
        }
      ],
      "name": "NFTEngineIncorrentLength",
      "type": "error"
    },
    {
      "inputs": [
        {
          "internalType": "uint256",
          "name": "minPrice",
          "type": "uint256"
        },
        {
          "internalType": "uint256",
          "name": "buyNowPrice",
          "type": "uint256"
        }
      ],
      "name": "NFTEngineInvalidMinPrice",
      "type": "error"
    },
    {
      "inputs": [
        {
          "internalType": "uint256",
          "name": "price",
          "type": "uint256"
        }
      ],
      "name": "NFTEngineInvalidPrice",
      "type": "error"
    },
    {
      "inputs": [
        {
          "internalType": "address",
          "name": "nftContract",
          "type": "address"
        },
        {
          "internalType": "uint256",
          "name": "tokenId",
          "type": "uint256"
        }
      ],
      "name": "NFTEngineNotApprovedToken",
      "type": "error"
    },
    {
      "inputs": [
        {
          "internalType": "address",
          "name": "seller",
          "type": "address"
        }
      ],
      "name": "NFTEngineNotAuctionSeller",
      "type": "error"
    },
    {
      "inputs": [
        {
          "internalType": "address",
          "name": "nftContract",
          "type": "address"
        },
        {
          "internalType": "uint256",
          "name": "tokenId",
          "type": "uint256"
        }
      ],
      "name": "NFTEngineNotAuctionToken",
      "type": "error"
    },
    {
      "inputs": [
        {
          "internalType": "address",
          "name": "nftContract",
          "type": "address"
        },
        {
          "internalType": "uint256",
          "name": "tokenId",
          "type": "uint256"
        }
      ],
      "name": "NFTEngineNotHighestBidder",
      "type": "error"
    },
    {
      "inputs": [
        {
          "internalType": "address",
          "name": "seller",
          "type": "address"
        }
      ],
      "name": "NFTEngineNotSaleSeller",
      "type": "error"
    },
    {
      "inputs": [
        {
          "internalType": "address",
          "name": "nftContract",
          "type": "address"
        },
        {
          "internalType": "uint256",
          "name": "tokenId",
          "type": "uint256"
        }
      ],
      "name": "NFTEngineNotSalingToken",
      "type": "error"
    },
    {
      "inputs": [
        {
          "internalType": "address",
          "name": "nftContract",
          "type": "address"
        },
        {
          "internalType": "uint256",
          "name": "tokenId",
          "type": "uint256"
        }
      ],
      "name": "NFTEngineNotTokenOwner",
      "type": "error"
    },
    {
      "inputs": [
        {
          "internalType": "address",
          "name": "nftContract",
          "type": "address"
        },
        {
          "internalType": "uint256",
          "name": "tokenId",
          "type": "uint256"
        }
      ],
      "name": "NFTEngineSellerCant",
      "type": "error"
    },
    {
      "inputs": [
        {
          "internalType": "address",
          "name": "nftContract",
          "type": "address"
        },
        {
          "internalType": "uint256",
          "name": "tokenId",
          "type": "uint256"
        }
      ],
      "name": "NFTEngineTokenOwner",
      "type": "error"
    },
    {
      "anonymous": false,
      "inputs": [
        {
          "indexed": false,
          "internalType": "uint8",
          "name": "version",
          "type": "uint8"
        }
      ],
      "name": "Initialized",
      "type": "event"
    },
    {
      "anonymous": false,
      "inputs": [
        {
          "indexed": true,
          "internalType": "address",
          "name": "nftContract",
          "type": "address"
        },
        {
          "indexed": false,
          "internalType": "uint256",
          "name": "tokenId",
          "type": "uint256"
        },
        {
          "indexed": true,
          "internalType": "address",
          "name": "bidder",
          "type": "address"
        },
        {
          "indexed": false,
          "internalType": "uint256",
          "name": "payType",
          "type": "uint256"
        },
        {
          "indexed": false,
          "internalType": "uint256",
          "name": "tokenAmount",
          "type": "uint256"
        }
      ],
      "name": "NFTAuctionBidMade",
      "type": "event"
    },
    {
      "anonymous": false,
      "inputs": [
        {
          "indexed": true,
          "internalType": "address",
          "name": "nftContract",
          "type": "address"
        },
        {
          "indexed": false,
          "internalType": "uint256",
          "name": "tokenId",
          "type": "uint256"
        },
        {
          "indexed": true,
          "internalType": "address",
          "name": "highestBidder",
          "type": "address"
        }
      ],
      "name": "NFTAuctionBidWithdrawn",
      "type": "event"
    },
    {
      "anonymous": false,
      "inputs": [
        {
          "indexed": true,
          "internalType": "address",
          "name": "nftContract",
          "type": "address"
        },
        {
          "indexed": false,
          "internalType": "uint256",
          "name": "tokenId",
          "type": "uint256"
        },
        {
          "indexed": false,
          "internalType": "uint128",
          "name": "newBuyNowPrice",
          "type": "uint128"
        }
      ],
      "name": "NFTAuctionBuyNowPriceUpdated",
      "type": "event"
    },
    {
      "anonymous": false,
      "inputs": [
        {
          "indexed": true,
          "internalType": "address",
          "name": "nftContract",
          "type": "address"
        },
        {
          "indexed": false,
          "internalType": "uint256",
          "name": "tokenId",
          "type": "uint256"
        },
        {
          "indexed": true,
          "internalType": "address",
          "name": "seller",
          "type": "address"
        },
        {
          "indexed": false,
          "internalType": "uint256",
          "name": "payType",
          "type": "uint256"
        },
        {
          "indexed": false,
          "internalType": "uint256",
          "name": "minPrice",
          "type": "uint256"
        },
        {
          "indexed": false,
          "internalType": "uint256",
          "name": "buyNowPrice",
          "type": "uint256"
        },
        {
          "indexed": false,
          "internalType": "uint256",
          "name": "auctionBidPeriod",
          "type": "uint256"
        }
      ],
      "name": "NFTAuctionCreated",
      "type": "event"
    },
    {
      "anonymous": false,
      "inputs": [
        {
          "indexed": true,
          "internalType": "address",
          "name": "nftContract",
          "type": "address"
        },
        {
          "indexed": false,
          "internalType": "uint256",
          "name": "tokenId",
          "type": "uint256"
        }
      ],
      "name": "NFTAuctionHighestBidTaken",
      "type": "event"
    },
    {
      "anonymous": false,
      "inputs": [
        {
          "indexed": true,
          "internalType": "address",
          "name": "nftContract",
          "type": "address"
        },
        {
          "indexed": false,
          "internalType": "uint256",
          "name": "tokenId",
          "type": "uint256"
        },
        {
          "indexed": false,
          "internalType": "uint256",
          "name": "newMinPrice",
          "type": "uint256"
        }
      ],
      "name": "NFTAuctionMinPriceUpdated",
      "type": "event"
    },
    {
      "anonymous": false,
      "inputs": [
        {
          "indexed": true,
          "internalType": "address",
          "name": "nftContract",
          "type": "address"
        },
        {
          "indexed": false,
          "internalType": "uint256",
          "name": "tokenId",
          "type": "uint256"
        },
        {
          "indexed": true,
          "internalType": "address",
          "name": "seller",
          "type": "address"
        },
        {
          "indexed": false,
          "internalType": "uint256",
          "name": "highestBid",
          "type": "uint256"
        },
        {
          "indexed": true,
          "internalType": "address",
          "name": "highestBidder",
          "type": "address"
        },
        {
          "indexed": false,
          "internalType": "address",
          "name": "buyer",
          "type": "address"
        }
      ],
      "name": "NFTAuctionPaid",
      "type": "event"
    },
    {
      "anonymous": false,
      "inputs": [
        {
          "indexed": true,
          "internalType": "address",
          "name": "nftContract",
          "type": "address"
        },
        {
          "indexed": false,
          "internalType": "uint256",
          "name": "tokenId",
          "type": "uint256"
        },
        {
          "indexed": true,
          "internalType": "address",
          "name": "settler",
          "type": "address"
        }
      ],
      "name": "NFTAuctionSettled",
      "type": "event"
    },
    {
      "anonymous": false,
      "inputs": [
        {
          "indexed": true,
          "internalType": "address",
          "name": "nftContract",
          "type": "address"
        },
        {
          "indexed": false,
          "internalType": "uint256",
          "name": "tokenId",
          "type": "uint256"
        },
        {
          "indexed": false,
          "internalType": "uint256",
          "name": "auctionEndPeriod",
          "type": "uint256"
        }
      ],
      "name": "NFTAuctionUpdated",
      "type": "event"
    },
    {
      "anonymous": false,
      "inputs": [
        {
          "indexed": true,
          "internalType": "address",
          "name": "nftContract",
          "type": "address"
        },
        {
          "indexed": false,
          "internalType": "uint256",
          "name": "tokenId",
          "type": "uint256"
        }
      ],
      "name": "NFTAuctionWithdrawn",
      "type": "event"
    },
    {
      "anonymous": false,
      "inputs": [
        {
          "indexed": false,
          "internalType": "uint256",
          "name": "nftType",
          "type": "uint256"
        },
        {
          "indexed": true,
          "internalType": "address",
          "name": "nftContract",
          "type": "address"
        }
      ],
      "name": "NFTContractUpdated",
      "type": "event"
    },
    {
      "anonymous": false,
      "inputs": [
        {
          "indexed": true,
          "internalType": "address",
          "name": "nftSeller",
          "type": "address"
        },
        {
          "indexed": false,
          "internalType": "uint256",
          "name": "price",
          "type": "uint256"
        }
      ],
      "name": "NFTPayFiatToSeller",
      "type": "event"
    },
    {
      "anonymous": false,
      "inputs": [
        {
          "indexed": true,
          "internalType": "address",
          "name": "nftContract",
          "type": "address"
        },
        {
          "indexed": false,
          "internalType": "uint256",
          "name": "tokenId",
          "type": "uint256"
        },
        {
          "indexed": true,
          "internalType": "address",
          "name": "to",
          "type": "address"
        }
      ],
      "name": "NFTTokenSaleClosed",
      "type": "event"
    },
    {
      "anonymous": false,
      "inputs": [
        {
          "indexed": true,
          "internalType": "address",
          "name": "nftContract",
          "type": "address"
        },
        {
          "indexed": false,
          "internalType": "uint256",
          "name": "tokenId",
          "type": "uint256"
        },
        {
          "indexed": true,
          "internalType": "address",
          "name": "from",
          "type": "address"
        },
        {
          "indexed": false,
          "internalType": "uint256",
          "name": "payType",
          "type": "uint256"
        },
        {
          "indexed": false,
          "internalType": "uint256",
          "name": "price",
          "type": "uint256"
        }
      ],
      "name": "NFTTokenSaleCreated",
      "type": "event"
    },
    {
      "anonymous": false,
      "inputs": [
        {
          "indexed": true,
          "internalType": "address",
          "name": "nftContract",
          "type": "address"
        },
        {
          "indexed": false,
          "internalType": "uint256",
          "name": "tokenId",
          "type": "uint256"
        }
      ],
      "name": "NFTTokenSaleWithdrawn",
      "type": "event"
    },
    {
      "anonymous": false,
      "inputs": [
        {
          "indexed": true,
          "internalType": "address",
          "name": "previousOwner",
          "type": "address"
        },
        {
          "indexed": true,
          "internalType": "address",
          "name": "newOwner",
          "type": "address"
        }
      ],
      "name": "OwnershipTransferred",
      "type": "event"
    },
    {
      "anonymous": false,
      "inputs": [
        {
          "indexed": false,
          "internalType": "uint256",
          "name": "payType",
          "type": "uint256"
        },
        {
          "indexed": true,
          "internalType": "address",
          "name": "paymentContract",
          "type": "address"
        }
      ],
      "name": "PaymentContractUpdated",
      "type": "event"
    },
    {
      "inputs": [
        {
          "internalType": "address",
          "name": "nftContract",
          "type": "address"
        },
        {
          "internalType": "uint256",
          "name": "tokenId",
          "type": "uint256"
        },
        {
          "internalType": "uint256",
          "name": "payType",
          "type": "uint256"
        }
      ],
      "name": "buyNFT",
      "outputs": [],
      "stateMutability": "payable",
      "type": "function"
    },
    {
      "inputs": [
        {
          "internalType": "address",
          "name": "nftContract",
          "type": "address"
        },
        {
          "internalType": "uint256",
          "name": "tokenId",
          "type": "uint256"
        },
        {
          "internalType": "uint256",
          "name": "paidPrice",
          "type": "uint256"
        },
        {
          "internalType": "address",
          "name": "buyer",
          "type": "address"
        }
      ],
      "name": "buyNFTwithFiat",
      "outputs": [],
      "stateMutability": "nonpayable",
      "type": "function"
    },
    {
      "inputs": [
        {
          "internalType": "address",
          "name": "nftContract",
          "type": "address"
        },
        {
          "internalType": "uint256",
          "name": "tokenId",
          "type": "uint256"
        },
        {
          "internalType": "uint256",
          "name": "payType",
          "type": "uint256"
        },
        {
          "internalType": "uint256",
          "name": "minPrice",
          "type": "uint256"
        },
        {
          "internalType": "uint256",
          "name": "buyNowPrice",
          "type": "uint256"
        },
        {
          "internalType": "uint256",
          "name": "bidPeriod",
          "type": "uint256"
        }
      ],
      "name": "createAuction",
      "outputs": [],
      "stateMutability": "nonpayable",
      "type": "function"
    },
    {
      "inputs": [
        {
          "internalType": "address",
          "name": "nftContract",
          "type": "address"
        },
        {
          "internalType": "uint256",
          "name": "tokenId",
          "type": "uint256"
        },
        {
          "internalType": "uint256",
          "name": "payType",
          "type": "uint256"
        },
        {
          "internalType": "uint256",
          "name": "sellPrice",
          "type": "uint256"
        }
      ],
      "name": "createSale",
      "outputs": [],
      "stateMutability": "nonpayable",
      "type": "function"
    },
    {
      "inputs": [],
      "name": "defaultAuctionBidPeriod",
      "outputs": [
        {
          "internalType": "uint256",
          "name": "",
          "type": "uint256"
        }
      ],
      "stateMutability": "view",
      "type": "function"
    },
    {
      "inputs": [],
      "name": "defaultBidIncRate",
      "outputs": [
        {
          "internalType": "uint32",
          "name": "",
          "type": "uint32"
        }
      ],
      "stateMutability": "view",
      "type": "function"
    },
    {
      "inputs": [],
      "name": "feeToTreasury",
      "outputs": [
        {
          "internalType": "uint256",
          "name": "",
          "type": "uint256"
        }
      ],
      "stateMutability": "view",
      "type": "function"
    },
    {
      "inputs": [
        {
          "internalType": "address",
          "name": "nftContract",
          "type": "address"
        },
        {
          "internalType": "uint256",
          "name": "tokenId",
          "type": "uint256"
        }
      ],
      "name": "getAuctionNextBiddablePrice",
      "outputs": [
        {
          "internalType": "uint256",
          "name": "",
          "type": "uint256"
        }
      ],
      "stateMutability": "view",
      "type": "function"
    },
    {
      "inputs": [
        {
          "internalType": "uint256",
          "name": "tokenType",
          "type": "uint256"
        }
      ],
      "name": "getContractAddress",
      "outputs": [
        {
          "internalType": "address",
          "name": "",
          "type": "address"
        }
      ],
      "stateMutability": "view",
      "type": "function"
    },
    {
      "inputs": [
        {
          "internalType": "uint256",
          "name": "usdPrice",
          "type": "uint256"
        }
      ],
      "name": "getEthFromUsd",
      "outputs": [
        {
          "internalType": "uint256",
          "name": "",
          "type": "uint256"
        }
      ],
      "stateMutability": "view",
      "type": "function"
    },
    {
      "inputs": [
        {
          "internalType": "address",
          "name": "nftContract",
          "type": "address"
        },
        {
          "internalType": "uint256",
          "name": "tokenId",
          "type": "uint256"
        }
      ],
      "name": "getTokenAuctionInfo",
      "outputs": [
        {
          "components": [
            {
              "internalType": "uint256",
              "name": "tokenId",
              "type": "uint256"
            },
            {
              "internalType": "uint256",
              "name": "minPrice",
              "type": "uint256"
            },
            {
              "internalType": "uint256",
              "name": "buyNowPrice",
              "type": "uint256"
            },
            {
              "internalType": "uint256",
              "name": "bidPeriod",
              "type": "uint256"
            },
            {
              "internalType": "uint256",
              "name": "endTime",
              "type": "uint256"
            },
            {
              "internalType": "uint256",
              "name": "payType",
              "type": "uint256"
            },
            {
              "internalType": "uint256",
              "name": "highestBid",
              "type": "uint256"
            },
            {
              "internalType": "address",
              "name": "highestBidder",
              "type": "address"
            },
            {
              "internalType": "address",
              "name": "seller",
              "type": "address"
            }
          ],
          "internalType": "struct LTypes.AuctionNFT",
          "name": "",
          "type": "tuple"
        }
      ],
      "stateMutability": "view",
      "type": "function"
    },
    {
      "inputs": [
        {
          "internalType": "address",
          "name": "nftContract",
          "type": "address"
        }
      ],
      "name": "getTokenInfosOnAuction",
      "outputs": [
        {
          "components": [
            {
              "internalType": "uint256",
              "name": "tokenId",
              "type": "uint256"
            },
            {
              "internalType": "uint256",
              "name": "minPrice",
              "type": "uint256"
            },
            {
              "internalType": "uint256",
              "name": "buyNowPrice",
              "type": "uint256"
            },
            {
              "internalType": "uint256",
              "name": "bidPeriod",
              "type": "uint256"
            },
            {
              "internalType": "uint256",
              "name": "endTime",
              "type": "uint256"
            },
            {
              "internalType": "uint256",
              "name": "payType",
              "type": "uint256"
            },
            {
              "internalType": "uint256",
              "name": "highestBid",
              "type": "uint256"
            },
            {
              "internalType": "address",
              "name": "highestBidder",
              "type": "address"
            },
            {
              "internalType": "address",
              "name": "seller",
              "type": "address"
            }
          ],
          "internalType": "struct LTypes.AuctionNFT[]",
          "name": "tokenInfos",
          "type": "tuple[]"
        }
      ],
      "stateMutability": "view",
      "type": "function"
    },
    {
      "inputs": [
        {
          "internalType": "address",
          "name": "nftContract",
          "type": "address"
        }
      ],
      "name": "getTokenInfosOnSale",
      "outputs": [
        {
          "components": [
            {
              "internalType": "uint256",
              "name": "tokenId",
              "type": "uint256"
            },
            {
              "internalType": "address",
              "name": "seller",
              "type": "address"
            },
            {
              "internalType": "uint256",
              "name": "payType",
              "type": "uint256"
            },
            {
              "internalType": "uint256",
              "name": "price",
              "type": "uint256"
            }
          ],
          "internalType": "struct LTypes.SellNFT[]",
          "name": "tokenInfos",
          "type": "tuple[]"
        }
      ],
      "stateMutability": "view",
      "type": "function"
    },
    {
      "inputs": [
        {
          "internalType": "address",
          "name": "nftContract",
          "type": "address"
        },
        {
          "internalType": "uint256",
          "name": "tokenId",
          "type": "uint256"
        }
      ],
      "name": "getTokenSaleInfo",
      "outputs": [
        {
          "components": [
            {
              "internalType": "uint256",
              "name": "tokenId",
              "type": "uint256"
            },
            {
              "internalType": "address",
              "name": "seller",
              "type": "address"
            },
            {
              "internalType": "uint256",
              "name": "payType",
              "type": "uint256"
            },
            {
              "internalType": "uint256",
              "name": "price",
              "type": "uint256"
            }
          ],
          "internalType": "struct LTypes.SellNFT",
          "name": "",
          "type": "tuple"
        }
      ],
      "stateMutability": "view",
      "type": "function"
    },
    {
      "inputs": [
        {
          "internalType": "address",
          "name": "newOwner",
          "type": "address"
        },
        {
          "internalType": "address",
          "name": "treasury",
          "type": "address"
        }
      ],
      "name": "initialize",
      "outputs": [],
      "stateMutability": "nonpayable",
      "type": "function"
    },
    {
      "inputs": [
        {
          "internalType": "address",
          "name": "nftContract",
          "type": "address"
        },
        {
          "internalType": "uint256",
          "name": "tokenId",
          "type": "uint256"
        },
        {
          "internalType": "uint256",
          "name": "payType",
          "type": "uint256"
        },
        {
          "internalType": "uint256",
          "name": "payPrice",
          "type": "uint256"
        }
      ],
      "name": "makeBid",
      "outputs": [],
      "stateMutability": "payable",
      "type": "function"
    },
    {
      "inputs": [],
      "name": "maxFeeRecipients",
      "outputs": [
        {
          "internalType": "uint32",
          "name": "",
          "type": "uint32"
        }
      ],
      "stateMutability": "view",
      "type": "function"
    },
    {
      "inputs": [],
      "name": "maxMinPriceRate",
      "outputs": [
        {
          "internalType": "uint32",
          "name": "",
          "type": "uint32"
        }
      ],
      "stateMutability": "view",
      "type": "function"
    },
    {
      "inputs": [],
      "name": "minSettableIncRate",
      "outputs": [
        {
          "internalType": "uint32",
          "name": "",
          "type": "uint32"
        }
      ],
      "stateMutability": "view",
      "type": "function"
    },
    {
      "inputs": [
        {
          "internalType": "address",
          "name": "operator",
          "type": "address"
        },
        {
          "internalType": "address",
          "name": "from",
          "type": "address"
        },
        {
          "internalType": "uint256",
          "name": "tokenId",
          "type": "uint256"
        },
        {
          "internalType": "bytes",
          "name": "data",
          "type": "bytes"
        }
      ],
      "name": "onERC721Received",
      "outputs": [
        {
          "internalType": "bytes4",
          "name": "",
          "type": "bytes4"
        }
      ],
      "stateMutability": "pure",
      "type": "function"
    },
    {
      "inputs": [],
      "name": "owner",
      "outputs": [
        {
          "internalType": "address",
          "name": "",
          "type": "address"
        }
      ],
      "stateMutability": "view",
      "type": "function"
    },
    {
      "inputs": [],
      "name": "renounceOwnership",
      "outputs": [],
      "stateMutability": "nonpayable",
      "type": "function"
    },
    {
      "inputs": [
        {
          "internalType": "address",
          "name": "admin",
          "type": "address"
        }
      ],
      "name": "setAdmin",
      "outputs": [],
      "stateMutability": "nonpayable",
      "type": "function"
    },
    {
      "inputs": [
        {
          "internalType": "address",
          "name": "feed",
          "type": "address"
        }
      ],
      "name": "setAggregatorV3",
      "outputs": [],
      "stateMutability": "nonpayable",
      "type": "function"
    },
    {
      "inputs": [
        {
          "internalType": "uint256",
          "name": "nftType",
          "type": "uint256"
        },
        {
          "internalType": "address",
          "name": "nftContract",
          "type": "address"
        }
      ],
      "name": "setNFTContract",
      "outputs": [],
      "stateMutability": "nonpayable",
      "type": "function"
    },
    {
      "inputs": [
        {
          "internalType": "uint256",
          "name": "payType",
          "type": "uint256"
        },
        {
          "internalType": "address",
          "name": "paymentToken",
          "type": "address"
        }
      ],
      "name": "setPaymentContract",
      "outputs": [],
      "stateMutability": "nonpayable",
      "type": "function"
    },
    {
      "inputs": [
        {
          "internalType": "address",
          "name": "nftContract",
          "type": "address"
        },
        {
          "internalType": "uint256",
          "name": "tokenId",
          "type": "uint256"
        }
      ],
      "name": "settleAuction",
      "outputs": [],
      "stateMutability": "nonpayable",
      "type": "function"
    },
    {
      "inputs": [
        {
          "internalType": "address",
          "name": "nftContract",
          "type": "address"
        },
        {
          "internalType": "uint256",
          "name": "tokenId",
          "type": "uint256"
        }
      ],
      "name": "takeHighestBid",
      "outputs": [],
      "stateMutability": "nonpayable",
      "type": "function"
    },
    {
      "inputs": [
        {
          "internalType": "address",
          "name": "newOwner",
          "type": "address"
        }
      ],
      "name": "transferOwnership",
      "outputs": [],
      "stateMutability": "nonpayable",
      "type": "function"
    },
    {
      "inputs": [
        {
          "internalType": "address",
          "name": "nftContract",
          "type": "address"
        },
        {
          "internalType": "uint256",
          "name": "tokenId",
          "type": "uint256"
        }
      ],
      "name": "withdrawAuction",
      "outputs": [],
      "stateMutability": "nonpayable",
      "type": "function"
    },
    {
      "inputs": [
        {
          "internalType": "address",
          "name": "nftContract",
          "type": "address"
        },
        {
          "internalType": "uint256",
          "name": "tokenId",
          "type": "uint256"
        }
      ],
      "name": "withdrawBid",
      "outputs": [],
      "stateMutability": "nonpayable",
      "type": "function"
    },
    {
      "inputs": [
        {
          "internalType": "address",
          "name": "nftContract",
          "type": "address"
        },
        {
          "internalType": "uint256",
          "name": "tokenId",
          "type": "uint256"
        }
      ],
      "name": "withdrawSale",
      "outputs": [],
      "stateMutability": "nonpayable",
      "type": "function"
    }
  ],
  "bytecode": "0x608060405234801561001057600080fd5b50615030806100206000396000f3fe6080604052600436106101e35760003560e01c8063715018a611610102578063aefa7d9811610095578063c697a82c11610064578063c697a82c14610597578063ceb89820146103ac578063ebea6025146105c4578063f2fde38b146105e457600080fd5b8063aefa7d9814610520578063bc09b84c14610540578063c2ab87661461056d578063c31b72e11461058257600080fd5b8063880d5cc5116100d1578063880d5cc51461049857806388b98b12146104ae5780638da5cb5b146104ce57806393e861af1461050057600080fd5b8063715018a614610423578063791bb4ef146104385780637a4a981d14610458578063848e5c771461047857600080fd5b80634d86f8341161017a5780636848a7f0116101495780636848a7f01461038c57806369710d0b146103ac5780636f3c898d146103d6578063704b6c021461040357600080fd5b80634d86f834146103195780635138b08c1461033957806353da6f01146103595780635cc2f1171461036c57600080fd5b80633c263057116101b65780633c263057146102a657806347ad9135146102b9578063485cc955146102d95780634cb8ef5b146102f957600080fd5b80630f0d4f1e146101e8578063150b7a021461020a578063186779d514610254578063398d874614610279575b600080fd5b3480156101f457600080fd5b50610208610203366004614b77565b610604565b005b34801561021657600080fd5b50610236610225366004614a7e565b630a85bd0160e11b95945050505050565b6040516001600160e01b031990911681526020015b60405180910390f35b34801561026057600080fd5b5061026b62093a8081565b60405190815260200161024b565b34801561028557600080fd5b50610299610294366004614b18565b6108c7565b60405161024b9190614ef6565b6102086102b4366004614bc0565b610a54565b3480156102c557600080fd5b5061026b6102d4366004614b18565b610b8d565b3480156102e557600080fd5b506102086102f4366004614a46565b610c76565b34801561030557600080fd5b50610208610314366004614b18565b610db5565b34801561032557600080fd5b50610208610334366004614c7d565b610ff4565b34801561034557600080fd5b50610208610354366004614b18565b61115e565b610208610367366004614b43565b611253565b34801561037857600080fd5b50610208610387366004614bc0565b611b2a565b34801561039857600080fd5b506102086103a7366004614c7d565b611c52565b3480156103b857600080fd5b506103c1606481565b60405163ffffffff909116815260200161024b565b3480156103e257600080fd5b506103f66103f1366004614a0e565b611d9a565b60405161024b9190614d92565b34801561040f57600080fd5b5061020861041e366004614a0e565b611e73565b34801561042f57600080fd5b50610208611e9d565b34801561044457600080fd5b50610208610453366004614bfa565b611eb1565b34801561046457600080fd5b5061026b610473366004614c65565b61201e565b34801561048457600080fd5b50610208610493366004614b18565b6120e4565b3480156104a457600080fd5b506103c1611f4081565b3480156104ba57600080fd5b506102086104c9366004614b18565b612262565b3480156104da57600080fd5b506033546001600160a01b03165b6040516001600160a01b03909116815260200161024b565b34801561050c57600080fd5b5061020861051b366004614a0e565b6123f9565b34801561052c57600080fd5b506104e861053b366004614c65565b612423565b34801561054c57600080fd5b5061056061055b366004614a0e565b6124a7565b60405161024b9190614de1565b34801561057957600080fd5b5061026b600581565b34801561058e57600080fd5b506103c1600581565b3480156105a357600080fd5b506105b76105b2366004614b18565b61253c565b60405161024b9190614f05565b3480156105d057600080fd5b506102086105df366004614b18565b612663565b3480156105f057600080fd5b506102086105ff366004614a0e565b6126eb565b600260655414156106305760405162461bcd60e51b815260040161062790614ebf565b60405180910390fd5b60026065556001600160a01b0384166000908152609c602090815260408083208684529091529020548490849061067e57818160405163718a8cb360e01b8152600401610627929190614d79565b609f546001600160a01b031633146106d85760405162461bcd60e51b815260206004820152601a60248201527f416c6c6f776564206f6e6c79206261636b656e64206f776e65720000000000006044820152606401610627565b6001600160a01b0383166107265760405162461bcd60e51b8152602060048201526015602482015274496e76616c6964206275796572206164647265737360581b6044820152606401610627565b6001600160a01b0386166000908152609d60209081526040808320609c835281842089855290925282205461075d90600190614fb8565b8154811061077b57634e487b7160e01b600052603260045260246000fd5b600091825260208220600160049092020101546001600160a01b0316915060646107a6600588614f99565b6107b09190614f79565b6107ba9087614fb8565b90506107c68888612764565b604051632142170760e11b81526001600160a01b038916906342842e0e906107f690309089908c90600401614d55565b600060405180830381600087803b15801561081057600080fd5b505af1158015610824573d6000803e3d6000fd5b50505050846001600160a01b0316886001600160a01b03167fb89e44430873468e658c1262715e5939bbb09dea086295c4f60da5256bd8f1238960405161086d91815260200190565b60405180910390a3816001600160a01b03167f4e24e7a775770dc86e30adecc9d39c991f3270afb79329c29d7af0ea65ba3e21826040516108b091815260200190565b60405180910390a250506001606555505050505050565b6109286040518061012001604052806000815260200160008152602001600081526020016000815260200160008152602001600081526020016000815260200160006001600160a01b0316815260200160006001600160a01b031681525090565b6001600160a01b0383166000908152609a6020908152604080832085845290915290205483908390610971578181604051630cf7ca1d60e11b8152600401610627929190614d79565b6001600160a01b0385166000908152609b60209081526040808320609a8352818420888552909252909120546109a990600190614fb8565b815481106109c757634e487b7160e01b600052603260045260246000fd5b600091825260209182902060408051610120810182526009909302909101805483526001810154938301939093526002830154908201526003820154606082015260048201546080820152600582015460a0820152600682015460c082015260078201546001600160a01b0390811660e08301526008909201549091166101008201529250505092915050565b60026065541415610a775760405162461bcd60e51b815260040161062790614ebf565b60026065556001600160a01b0384166000908152609a60209081526040808320868452909152902054849084901580610b2357506001600160a01b0382166000908152609b60209081526040808320609a835281842085855290925290912054339190610ae690600190614fb8565b81548110610b0457634e487b7160e01b600052603260045260246000fd5b60009182526020909120600860099092020101546001600160a01b0316145b15610b4557818160405163367f3a2360e21b8152600401610627929190614d79565b8585610b518282612772565b610b72578181604051631b09b27f60e01b8152600401610627929190614d79565b610b7e88888888612856565b50506001606555505050505050565b6001600160a01b0382166000908152609a6020908152604080832084845290915281205483908390610bd6578181604051630cf7ca1d60e11b8152600401610627929190614d79565b6000612710610be6606482614f51565b6001600160a01b0388166000908152609b60209081526040808320609a83528184208b85529092529091205463ffffffff9290921691610c2890600190614fb8565b81548110610c4657634e487b7160e01b600052603260045260246000fd5b906000526020600020906009020160060154610c629190614f99565b610c6c9190614f79565b9695505050505050565b600054610100900460ff1615808015610c965750600054600160ff909116105b80610cb05750303b158015610cb0575060005460ff166001145b610d135760405162461bcd60e51b815260206004820152602e60248201527f496e697469616c697a61626c653a20636f6e747261637420697320616c72656160448201526d191e481a5b9a5d1a585b1a5e995960921b6064820152608401610627565b6000805460ff191660011790558015610d36576000805461ff0019166101001790555b610d3e6129d0565b610d466129ff565b609e80546001600160a01b0319166001600160a01b038416179055610d6a836126eb565b8015610db0576000805461ff0019169055604051600181527f7f26b83ff96e1f2b6a682f133852f6798a09c465da95921460cefb38474024989060200160405180910390a15b505050565b60026065541415610dd85760405162461bcd60e51b815260040161062790614ebf565b60026065556001600160a01b0382166000908152609a6020908152604080832084845290915290205482908290610e26578181604051630cf7ca1d60e11b8152600401610627929190614d79565b6001600160a01b0384166000908152609b60209081526040808320609a8352818420878552909252822054610e5d90600190614fb8565b81548110610e7b57634e487b7160e01b600052603260045260246000fd5b60009182526020909120600760099092020101546001600160a01b03169050338114610ebe578484604051638dcad11b60e01b8152600401610627929190614d79565b6001600160a01b0385166000908152609b60209081526040808320609a8352818420888552909252822054610ef590600190614fb8565b81548110610f1357634e487b7160e01b600052603260045260246000fd5b60009182526020808320600660099093020191909101546001600160a01b0389168352609b82526040808420609a84528185208a8652909352832054909350610f5e90600190614fb8565b81548110610f7c57634e487b7160e01b600052603260045260246000fd5b9060005260206000209060090201600501549050610f9a8787612a2e565b610fa5838383612b17565b60405186815233906001600160a01b038916907f1c67fba99d945a891489857a6f588badd10a0834d848de5574580cea4974ff5b906020015b60405180910390a3505060016065555050505050565b610ffc612ef4565b6001600160a01b0381166110525760405162461bcd60e51b815260206004820152601c60248201527f496e76616c6964206e667420636f6e74726163742061646472657373000000006044820152606401610627565b60078211156110965760405162461bcd60e51b815260206004820152601060248201526f496e76616c6964206e6674207479706560801b6044820152606401610627565b80609860008460078111156110bb57634e487b7160e01b600052602160045260246000fd5b60078111156110da57634e487b7160e01b600052602160045260246000fd5b60078111156110f957634e487b7160e01b600052602160045260246000fd5b8152602080820192909252604090810160002080546001600160a01b0319166001600160a01b0394851617905551848152918316917f441c264f6f587886bff15cb9afe61526df4a56c9b6bb8288b7af7d754b11366e91015b60405180910390a25050565b600260655414156111815760405162461bcd60e51b815260040161062790614ebf565b60026065556001600160a01b0382166000908152609a60209081526040808320848452909152902054829082906111cf578181604051630cf7ca1d60e11b8152600401610627929190614d79565b83836111db8282612772565b6111fc578181604051631b09b27f60e01b8152600401610627929190614d79565b6112068686612f4e565b60405185815233906001600160a01b038816907f1b5a773e8fc5617b32cff68b696669f7e14d946e95ab5994e244a4e73a82e1ff9060200160405180910390a35050600160655550505050565b600260655414156112765760405162461bcd60e51b815260040161062790614ebf565b60026065556001600160a01b0383166000908152609c60209081526040808320858452909152902054839083906112c457818160405163718a8cb360e01b8152600401610627929190614d79565b6001600160a01b0385166000908152609d60209081526040808320609c83528184208885529092528220546112fb90600190614fb8565b8154811061131957634e487b7160e01b600052603260045260246000fd5b60009182526020909120600160049092020101546001600160a01b031690503381141561135d57858560405163367f3a2360e21b8152600401610627929190614d79565b6001600160a01b0386166000908152609d60209081526040808320609c835281842089855290925282205461139490600190614fb8565b815481106113b257634e487b7160e01b600052603260045260246000fd5b60009182526020808320600260049093020191909101546001600160a01b038a168352609d82526040808420609c84528185208b86529093528320549093506113fd90600190614fb8565b8154811061141b57634e487b7160e01b600052603260045260246000fd5b600091825260208220600360049092020101549150606461143d600584614f99565b6114479190614f79565b905060006114558284614fb8565b90506114618a8a612764565b8388148061146d575083155b6114c45760405162461bcd60e51b815260206004820152602260248201527f4e6f7420616c6c6f776564207061796d656e7420747970652062792073656c6c60448201526132b960f11b6064820152608401610627565b600060048914156115175760405162461bcd60e51b815260206004820152601860248201527f416c6c6f776564206f6e6c7920666f72206261636b656e6400000000000000006044820152606401610627565b60018914156116bb57833410156115705760405162461bcd60e51b815260206004820152601960248201527f496e73756666696369656e7420657468657220746f20627579000000000000006044820152606401610627565b6040516001600160a01b038716908390600081818185875af1925050503d80600081146115b9576040519150601f19603f3d011682016040523d82523d6000602084013e6115be565b606091505b505080915050806116115760405162461bcd60e51b815260206004820152601c60248201527f6661696c656420746f2073656e642065746820746f2073656c6c6572000000006044820152606401610627565b609e546040516001600160a01b03909116908490600081818185875af1925050503d806000811461165e576040519150601f19603f3d011682016040523d82523d6000602084013e611663565b606091505b505080915050806116b65760405162461bcd60e51b815260206004820152601e60248201527f6661696c656420746f2073656e642065746820746f20747265617375727900006044820152606401610627565b611a76565b600289141561189f576000609960008b60048111156116ea57634e487b7160e01b600052602160045260246000fd5b600481111561170957634e487b7160e01b600052602160045260246000fd5b600481111561172857634e487b7160e01b600052602160045260246000fd5b8152602081019190915260409081016000205490516323b872dd60e01b81526001600160a01b03909116915081906323b872dd9061176e9033908b908890600401614d55565b602060405180830381600087803b15801561178857600080fd5b505af115801561179c573d6000803e3d6000fd5b505050506040513d601f19601f820116820180604052508101906117c09190614c45565b801561184d5750609e546040516323b872dd60e01b81526001600160a01b03808416926323b872dd926117fb92339216908990600401614d55565b602060405180830381600087803b15801561181557600080fd5b505af1158015611829573d6000803e3d6000fd5b505050506040513d601f19601f8201168201806040525081019061184d9190614c45565b6118995760405162461bcd60e51b815260206004820152601d60248201527f6661696c656420746f2073656e64205553444320746f2073656c6c65720000006044820152606401610627565b50611a76565b6000609960008b60048111156118c557634e487b7160e01b600052602160045260246000fd5b60048111156118e457634e487b7160e01b600052602160045260246000fd5b600481111561190357634e487b7160e01b600052602160045260246000fd5b8152602081019190915260409081016000205490516323b872dd60e01b81526001600160a01b03909116915081906323b872dd906119499033908b908890600401614d55565b602060405180830381600087803b15801561196357600080fd5b505af1158015611977573d6000803e3d6000fd5b505050506040513d601f19601f8201168201806040525081019061199b9190614c45565b8015611a285750609e546040516323b872dd60e01b81526001600160a01b03808416926323b872dd926119d692339216908990600401614d55565b602060405180830381600087803b1580156119f057600080fd5b505af1158015611a04573d6000803e3d6000fd5b505050506040513d601f19601f82011682018060405250810190611a289190614c45565b611a745760405162461bcd60e51b815260206004820152601d60248201527f6661696c656420746f2073656e64205042525420746f2073656c6c65720000006044820152606401610627565b505b604051632142170760e11b81526001600160a01b038c16906342842e0e90611aa690309033908f90600401614d55565b600060405180830381600087803b158015611ac057600080fd5b505af1158015611ad4573d6000803e3d6000fd5b50506040518c81523392506001600160a01b038e1691507fb89e44430873468e658c1262715e5939bbb09dea086295c4f60da5256bd8f1239060200160405180910390a350506001606555505050505050505050565b60026065541415611b4d5760405162461bcd60e51b815260040161062790614ebf565b600260655560405163020604bf60e21b815260048101849052849084906001600160a01b0383169063081812fc9060240160206040518083038186803b158015611b9657600080fd5b505afa158015611baa573d6000803e3d6000fd5b505050506040513d601f19601f82011682018060405250810190611bce9190614a2a565b6001600160a01b0316306001600160a01b031614611c03578181604051631d6d11e160e31b8152600401610627929190614d79565b836004811115611c255760405162461bcd60e51b815260040161062790614e4a565b611c2f87876131dd565b611c3884613523565b611c4487878787613544565b505060016065555050505050565b611c5a612ef4565b816004811115611c7c5760405162461bcd60e51b815260040161062790614e4a565b6001600160a01b038216611cd25760405162461bcd60e51b815260206004820152601960248201527f496e76616c69642070617920746f6b656e2061646472657373000000000000006044820152606401610627565b8160996000856004811115611cf757634e487b7160e01b600052602160045260246000fd5b6004811115611d1657634e487b7160e01b600052602160045260246000fd5b6004811115611d3557634e487b7160e01b600052602160045260246000fd5b8152602080820192909252604090810160002080546001600160a01b0319166001600160a01b0394851617905551858152918416917f9849782ce7ec046ccc9805e418a31b9fa1cfa3da5c22c22f4fbd1061800ed7e1910160405180910390a2505050565b6001600160a01b0381166000908152609b60209081526040808320805482518185028101850190935280835260609492939192909184015b82821015611e6857600084815260209081902060408051610120810182526009860290920180548352600180820154848601526002820154928401929092526003810154606084015260048101546080840152600581015460a0840152600681015460c084015260078101546001600160a01b0390811660e0850152600890910154166101008301529083529092019101611dd2565b505050509050919050565b611e7b612ef4565b609f80546001600160a01b0319166001600160a01b0392909216919091179055565b611ea5612ef4565b611eaf6000613622565b565b836004811115611ed35760405162461bcd60e51b815260040161062790614e4a565b60026065541415611ef65760405162461bcd60e51b815260040161062790614ebf565b60026065556004851415611f4c5760405162461bcd60e51b815260206004820152601a60248201527f4e6f7420737570706f72742055534420696e2061756374696f6e0000000000006044820152606401610627565b611f5687876131dd565b611f5f84613523565b611f6883613523565b6001600160a01b0387166000908152609a6020908152604080832089845290915290205415611fae57868660405163367f3a2360e21b8152600401610627929190614d79565b611fbc878787878787613674565b336001600160a01b0388167f170dbd3139274393a9b2d560e6937670d0f205baf92538a0ffb98320e572853188888888611ff68e85613748565b604080519586526020860194909452928401919091526060830152608082015260a001610fde565b600080600080600080609760009054906101000a90046001600160a01b03166001600160a01b031663feaf968c6040518163ffffffff1660e01b815260040160a06040518083038186803b15801561207557600080fd5b505afa158015612089573d6000803e3d6000fd5b505050506040513d601f19601f820116820180604052508101906120ad9190614ca1565b9450945094509450945083876a52b7d2dcc80cd2e40000006120cf9190614f99565b6120d99190614f79565b979650505050505050565b600260655414156121075760405162461bcd60e51b815260040161062790614ebf565b60026065556001600160a01b0382166000908152609a602090815260408083208484529091529020548290829015806121b457506001600160a01b0382166000908152609b60209081526040808320609a83528184208585529092529091205433919061217690600190614fb8565b8154811061219457634e487b7160e01b600052603260045260246000fd5b60009182526020909120600860099092020101546001600160a01b031614155b156121d457604051630c7441bb60e31b8152336004820152602401610627565b6121de84846137d0565b6121ff57838360405163481e476160e11b8152600401610627929190614d79565b61220a848433613843565b6122148484612f4e565b836001600160a01b03167fcc801e4a1662a9ed7f9dc813fce5781eeba9361ac5f2934d6d59594b40d62e858460405161224f91815260200190565b60405180910390a2505060016065555050565b600260655414156122855760405162461bcd60e51b815260040161062790614ebf565b60026065556001600160a01b0382166000908152609c6020908152604080832084845290915290205482908290158061233257506001600160a01b0382166000908152609d60209081526040808320609c8352818420858552909252909120543391906122f490600190614fb8565b8154811061231257634e487b7160e01b600052603260045260246000fd5b60009182526020909120600160049092020101546001600160a01b031614155b156123525760405163a0c1a67d60e01b8152336004820152602401610627565b61235c8484612764565b604051632142170760e11b81526001600160a01b038516906342842e0e9061238c90309033908890600401614d55565b600060405180830381600087803b1580156123a657600080fd5b505af11580156123ba573d6000803e3d6000fd5b50505050836001600160a01b03167f5030805dc788ddab4854363945f64f79b4003801d92bfcd4de0cd64d8276fbd98460405161224f91815260200190565b612401612ef4565b609780546001600160a01b0319166001600160a01b0392909216919091179055565b60006098600083600781111561244957634e487b7160e01b600052602160045260246000fd5b600781111561246857634e487b7160e01b600052602160045260246000fd5b600781111561248757634e487b7160e01b600052602160045260246000fd5b81526020810191909152604001600020546001600160a01b031692915050565b6001600160a01b0381166000908152609d60209081526040808320805482518185028101850190935280835260609492939192909184015b82821015611e685760008481526020908190206040805160808101825260048602909201805483526001808201546001600160a01b03168486015260028201549284019290925260030154606083015290835290920191016124df565b61257060405180608001604052806000815260200160006001600160a01b0316815260200160008152602001600081525090565b6001600160a01b0383166000908152609c60209081526040808320858452909152902054839083906125b957818160405163718a8cb360e01b8152600401610627929190614d79565b6001600160a01b0385166000908152609d60209081526040808320609c8352818420888552909252909120546125f190600190614fb8565b8154811061260f57634e487b7160e01b600052603260045260246000fd5b60009182526020918290206040805160808101825260049093029091018054835260018101546001600160a01b03169383019390935260028301549082015260039091015460608201529250505092915050565b600260655414156126865760405162461bcd60e51b815260040161062790614ebf565b600260655561269582826131dd565b61269f8282613936565b816001600160a01b03167ff75f3e198453c5e8c50f6cea2f01a714e952664e7bfd574e8ee4feb176a5d63d826040516126da91815260200190565b60405180910390a250506001606555565b6126f3612ef4565b6001600160a01b0381166127585760405162461bcd60e51b815260206004820152602660248201527f4f776e61626c653a206e6577206f776e657220697320746865207a65726f206160448201526564647265737360d01b6064820152608401610627565b61276181613622565b50565b61276e8282613940565b5050565b6001600160a01b0382166000908152609b60209081526040808320609a83528184208585529092528220546127a990600190614fb8565b815481106127c757634e487b7160e01b600052603260045260246000fd5b9060005260206000209060090201600401546000148061284d57506001600160a01b0383166000908152609b60209081526040808320609a83528184208685529092529091205461281a90600190614fb8565b8154811061283857634e487b7160e01b600052603260045260246000fd5b90600052602060002090600902016004015442105b90505b92915050565b6001600160a01b0384166000908152609b60209081526040808320609a835281842087855290925282205461288d90600190614fb8565b815481106128ab57634e487b7160e01b600052603260045260246000fd5b906000526020600020906009020160050154905080831461290e5760405162461bcd60e51b815260206004820152601d60248201527f4e6f7420616c6c6f77656420706179747970652062792073656c6c65720000006044820152606401610627565b612919858584613b41565b6129655760405162461bcd60e51b815260206004820152601960248201527f496e73756666696369656e742066756e647320746f20626964000000000000006044820152606401610627565b612970858584613db1565b61297a8585613f1b565b604080518581526020810185905290810183905233906001600160a01b038716907fc99c4d9004f7e22d412b09b3e5cd39840c2e6d5b16701a1698c93da1c05ebb98906060015b60405180910390a35050505050565b600054610100900460ff166129f75760405162461bcd60e51b815260040161062790614e74565b611eaf613fd7565b600054610100900460ff16612a265760405162461bcd60e51b815260040161062790614e74565b611eaf614007565b6001600160a01b0382166000908152609b60209081526040808320609a8352818420858552909252822054612a6590600190614fb8565b81548110612a8357634e487b7160e01b600052603260045260246000fd5b6000918252602080832060099290920290910160070180546001600160a01b0319166001600160a01b039485161790559184168152609b82526040808220609a8452818320858452909352812054909190612ae090600190614fb8565b81548110612afe57634e487b7160e01b600052603260045260246000fd5b9060005260206000209060090201600601819055505050565b6000816004811115612b3957634e487b7160e01b600052602160045260246000fd5b90506001816004811115612b5d57634e487b7160e01b600052602160045260246000fd5b1415612c11576000846001600160a01b031684614e2090604051600060405180830381858888f193505050503d8060008114612bb5576040519150601f19603f3d011682016040523d82523d6000602084013e612bba565b606091505b5050905080612c0b5760405162461bcd60e51b815260206004820152601f60248201527f4661696c656420746f2073656e642065746820746f20726563697069656e74006044820152606401610627565b50612eee565b6002816004811115612c3357634e487b7160e01b600052602160045260246000fd5b1415612d605760996000826004811115612c5d57634e487b7160e01b600052602160045260246000fd5b6004811115612c7c57634e487b7160e01b600052602160045260246000fd5b81526020810191909152604090810160002054905163a9059cbb60e01b81526001600160a01b039091169063a9059cbb90612cbd9087908790600401614d79565b602060405180830381600087803b158015612cd757600080fd5b505af1158015612ceb573d6000803e3d6000fd5b505050506040513d601f19601f82011682018060405250810190612d0f9190614c45565b612d5b5760405162461bcd60e51b815260206004820152601b60248201527f6661696c2073656e64205553444320746f20726563697069656e7400000000006044820152606401610627565b612eee565b6003816004811115612d8257634e487b7160e01b600052602160045260246000fd5b1415612eaa5760996000826004811115612dac57634e487b7160e01b600052602160045260246000fd5b6004811115612dcb57634e487b7160e01b600052602160045260246000fd5b81526020810191909152604090810160002054905163a9059cbb60e01b81526001600160a01b039091169063a9059cbb90612e0c9087908790600401614d79565b602060405180830381600087803b158015612e2657600080fd5b505af1158015612e3a573d6000803e3d6000fd5b505050506040513d601f19601f82011682018060405250810190612e5e9190614c45565b612d5b5760405162461bcd60e51b815260206004820152601b60248201527f6661696c2073656e64205042525420746f20726563697069656e7400000000006044820152606401610627565b836001600160a01b03167f4e24e7a775770dc86e30adecc9d39c991f3270afb79329c29d7af0ea65ba3e2184604051612ee591815260200190565b60405180910390a25b50505050565b6033546001600160a01b03163314611eaf5760405162461bcd60e51b815260206004820181905260248201527f4f776e61626c653a2063616c6c6572206973206e6f7420746865206f776e65726044820152606401610627565b6001600160a01b0382166000908152609a60209081526040808320848452909152812054612f7e90600190614fb8565b6001600160a01b0384166000908152609b602052604081208054929350909183908110612fbb57634e487b7160e01b600052603260045260246000fd5b60009182526020808320600860099093020191909101546001600160a01b038781168452609b909252604083208054929091169350908490811061300f57634e487b7160e01b600052603260045260246000fd5b60009182526020808320600760099093020191909101546001600160a01b038881168452609b909252604083208054929091169350908590811061306357634e487b7160e01b600052603260045260246000fd5b90600052602060002090600902016006015490506000609b6000886001600160a01b03166001600160a01b0316815260200190815260200160002085815481106130bd57634e487b7160e01b600052603260045260246000fd5b906000526020600020906009020160050154905060006130dd8888614035565b90506130e98888612a2e565b6130f38888613936565b6130fe8584846140ae565b604051632142170760e11b81526001600160a01b038916906342842e0e9061312e90309085908c90600401614d55565b600060405180830381600087803b15801561314857600080fd5b505af115801561315c573d6000803e3d6000fd5b50505050836001600160a01b0316856001600160a01b0316896001600160a01b03167f6928945c485c870e70189a32204fbb9e838d9a3c0773017bdcd9e211c2bd8d0a8a87866040516131cb9392919092835260208301919091526001600160a01b0316604082015260600190565b60405180910390a45050505050505050565b6001600160a01b03821661322a5760405162461bcd60e51b8152602060048201526014602482015273125b9d985b1a59081b999d0818dbdb9d1c9858dd60621b6044820152606401610627565b6000805260986020527fddaeee8e61001dbcfaf4f92c6943552c392a86665d734d3c1905d7b3c23b1b1e546001600160a01b03838116911614806132a45750600160005260986020527fe66b7f18a15fed257e722ee4e0b46d479842712099771fae6234a4975b3be6fa546001600160a01b038381169116145b806132e55750600260005260986020527ffd16fc8d5a980cfe9c4de8806ae90ed1cbb06071ef932dd581a595eff814ae38546001600160a01b038381169116145b806133265750600360005260986020527f3dea5c3de2cb770c94064530343ebbb341255e0fca2e186b4f29c9835e5a5fb8546001600160a01b038381169116145b806133675750600460005260986020527ff5f5ca8671558a53d397e88a32fe91e496a8234b8919a18e3ceda04de44785cb546001600160a01b038381169116145b806133a85750600560005260986020527f85017755aa0d2fdb0ecd274d5e6b7916be1ee69922ccbe7ebbd901739a821c36546001600160a01b038381169116145b806133e95750600660005260986020527fa9bf8261e8f815758aff1a4e04cf20c91d5d8adbef3b71a2dc65c31d74d65f66546001600160a01b038381169116145b8061342a5750600760005260986020527f524ab099ffd9603241295b45f09e5afbed6463edc78a188104f65ee2f3b40cd8546001600160a01b038381169116145b6134765760405162461bcd60e51b815260206004820152601960248201527f556e72656769737465726564206e667420636f6e7472616374000000000000006044820152606401610627565b6040516331a9108f60e11b8152600481018290526001600160a01b03831690636352211e9060240160206040518083038186803b1580156134b657600080fd5b505afa1580156134ca573d6000803e3d6000fd5b505050506040513d601f19601f820116820180604052508101906134ee9190614a2a565b6001600160a01b0316336001600160a01b03161461276e578181604051631464bc1b60e11b8152600401610627929190614d79565b8061276157604051630b707dc560e21b815260048101829052602401610627565b61354f848433613843565b6001600160a01b0384166000908152609d6020526040902054613573906001614f39565b6001600160a01b0385166000818152609c60209081526040808320888452825280832094909455828252609d815283822080546001808201835591845292829020600490930290920187815591820180546001600160a01b0319163390811790915560028301879055600383018690558451888152918201879052938101859052909291907f353af780487126d2efcb6c9fa6d6648e7c68cd36ef48eac93c5ca6833f1ccab0906060016129c1565b603380546001600160a01b038381166001600160a01b0319831681179093556040519116919082907f8be0079c531659141344cd1fd0a4f28419497f9722a3daafe3b4186f6b6457e090600090a35050565b8261368183611f406140f8565b10156136aa5760405163529a16e560e01b81526004810184905260248101839052604401610627565b6001600160a01b0386166000908152609b60205260409020546136ce906001614f39565b6001600160a01b039096166000818152609a60209081526040808320898452825280832099909955918152609b825296872080546001818101835591895291909720600860099092020190810180546001600160a01b03191633179055948555600585019390935593830155600282019290925560030155565b6001600160a01b0382166000908152609b60209081526040808320609a835281842085855290925282205482919061378290600190614fb8565b815481106137a057634e487b7160e01b600052603260045260246000fd5b906000526020600020906009020160030154905080600014156137c95762093a80915050612850565b9050612850565b6001600160a01b0382166000908152609b60209081526040808320609a835281842085855290925282205482919061380a90600190614fb8565b8154811061382857634e487b7160e01b600052603260045260246000fd5b90600052602060002090600902016006015411905092915050565b6040516331a9108f60e11b8152600481018390526001600160a01b038083169190851690636352211e9060240160206040518083038186803b15801561388857600080fd5b505afa15801561389c573d6000803e3d6000fd5b505050506040513d601f19601f820116820180604052508101906138c09190614a2a565b6001600160a01b03161415610db057604051632142170760e11b81526001600160a01b038416906342842e0e906138ff90849030908790600401614d55565b600060405180830381600087803b15801561391957600080fd5b505af115801561392d573d6000803e3d6000fd5b50505050505050565b61276e8282614111565b6001600160a01b0382166000818152609c602090815260408083208584528083528184208054958552609d84529184205486855292529190915580821015613acf576001600160a01b0384166000908152609d602052604081206139a5600184614fb8565b815481106139c357634e487b7160e01b600052603260045260246000fd5b600091825260208083206004909202909101546001600160a01b038816808452609c835260408085208386528452808520889055908452609d9092529120909150613a0f600184614fb8565b81548110613a2d57634e487b7160e01b600052603260045260246000fd5b600091825260208083206001600160a01b0389168452609d9091526040909220600490910290910190613a61600186614fb8565b81548110613a7f57634e487b7160e01b600052603260045260246000fd5b60009182526020909120825460049092020190815560018083015490820180546001600160a01b0319166001600160a01b0390921691909117905560028083015490820155600391820154910155505b6001600160a01b0384166000908152609d60205260409020805480613b0457634e487b7160e01b600052603160045260246000fd5b6000828152602081206004600019909301928302018181556001810180546001600160a01b03191690556002810182905560030155905550505050565b6001600160a01b0383166000908152609b60209081526040808320609a8352818420868552909252822054829190613b7b90600190614fb8565b81548110613b9957634e487b7160e01b600052603260045260246000fd5b6000918252602080832060016009909302018201546001600160a01b0389168452609b82526040808520609a84528186208a87529093528420549094509091613be191614fb8565b81548110613bff57634e487b7160e01b600052603260045260246000fd5b60009182526020808320600260099093020191909101546001600160a01b0389168352609b82526040808420609a84528185208a8652909352832054909350613c4a90600190614fb8565b81548110613c6857634e487b7160e01b600052603260045260246000fd5b600091825260208220600560099092020101549150612710613c8b606482614f51565b6001600160a01b038a166000908152609b60209081526040808320609a83528184208d85529092529091205463ffffffff9290921691613ccd90600190614fb8565b81548110613ceb57634e487b7160e01b600052603260045260246000fd5b906000526020600020906009020160060154613d079190614f99565b613d119190614f79565b90506001821415613d61578234101580613d345750833410158015613d34575080155b80613d4a5750803410158015613d4a5750600081115b15613d5c576001945050505050613daa565b613da1565b8286101580613d795750838610158015613d79575080155b80613d8f5750808610158015613d8f5750600081115b15613da1576001945050505050613daa565b60009450505050505b9392505050565b6001600160a01b0383166000908152609b60209081526040808320609a8352818420868552909252822054613de890600190614fb8565b81548110613e0657634e487b7160e01b600052603260045260246000fd5b60009182526020808320600760099093020191909101546001600160a01b038781168452609b83526040808520609a855281862089875290945284205491169350613e5390600190614fb8565b81548110613e7157634e487b7160e01b600052603260045260246000fd5b60009182526020808320600660099093020191909101546001600160a01b0388168352609b82526040808420609a8452818520898652909352832054909350613ebc90600190614fb8565b81548110613eda57634e487b7160e01b600052603260045260246000fd5b9060005260206000209060090201600501549050613ef9868686614381565b6001600160a01b03831615613f1357613f13838383612b17565b505050505050565b6001600160a01b0382166000908152609b60209081526040808320609a8352818420858552909252822054613f5290600190614fb8565b81548110613f7057634e487b7160e01b600052603260045260246000fd5b60009182526020909120600860099092020101546001600160a01b03169050613f998383614733565b15613fb357613fa9838383613843565b610db08383612f4e565b613fbd8383614814565b15610db057613fcc83836148b7565b610db0838383613843565b600054610100900460ff16613ffe5760405162461bcd60e51b815260040161062790614e74565b611eaf33613622565b600054610100900460ff1661402e5760405162461bcd60e51b815260040161062790614e74565b6001606555565b6001600160a01b0382166000908152609b60209081526040808320609a835281842085855290925282205461406c90600190614fb8565b8154811061408a57634e487b7160e01b600052603260045260246000fd5b60009182526020909120600990910201600701546001600160a01b03169392505050565b600060646140bd600585614f99565b6140c79190614f79565b90506140d38184614fb8565b609e549093506140ed906001600160a01b03168284612b17565b612eee848484612b17565b60006127106141078385614f99565b61284d9190614f79565b6001600160a01b0382166000818152609a602090815260408083208584528083528184208054958552609b845291842054868552925291909155808210156142e0576001600160a01b0384166000908152609b60205260408120614176600184614fb8565b8154811061419457634e487b7160e01b600052603260045260246000fd5b600091825260208083206009909202909101546001600160a01b038816808452609a835260408085208386528452808520889055908452609b90925291209091506141e0600184614fb8565b815481106141fe57634e487b7160e01b600052603260045260246000fd5b600091825260208083206001600160a01b0389168452609b9091526040909220600990910290910190614232600186614fb8565b8154811061425057634e487b7160e01b600052603260045260246000fd5b60009182526020909120825460099092020190815560018083015490820155600280830154908201556003808301549082015560048083015490820155600580830154908201556006808301549082015560078083015490820180546001600160a01b03199081166001600160a01b03938416179091556008938401549390920180549092169216919091179055505b6001600160a01b0384166000908152609b6020526040902080548061431557634e487b7160e01b600052603160045260246000fd5b600082815260208120600960001990930192830201818155600181018290556002810182905560038101829055600481018290556005810182905560068101919091556007810180546001600160a01b0319908116909155600890910180549091169055905550505050565b6001600160a01b0383166000908152609b60209081526040808320609a83528184208685529092528220546143b890600190614fb8565b815481106143d657634e487b7160e01b600052603260045260246000fd5b906000526020600020906009020160050154600481111561440757634e487b7160e01b600052602160045260246000fd5b9050600181600481111561442b57634e487b7160e01b600052602160045260246000fd5b14156144a4576001600160a01b0384166000908152609b60209081526040808320609a83528184208785529092529091205434919061446c90600190614fb8565b8154811061448a57634e487b7160e01b600052603260045260246000fd5b90600052602060002090600902016006018190555061469f565b60028160048111156144c657634e487b7160e01b600052602160045260246000fd5b14806144f1575060038160048111156144ef57634e487b7160e01b600052602160045260246000fd5b145b1561469f5760006099600083600481111561451c57634e487b7160e01b600052602160045260246000fd5b600481111561453b57634e487b7160e01b600052602160045260246000fd5b81526020810191909152604001600020546001600160a01b0316905080158015906145e357506040516323b872dd60e01b81526001600160a01b038216906323b872dd9061459190339030908890600401614d55565b602060405180830381600087803b1580156145ab57600080fd5b505af11580156145bf573d6000803e3d6000fd5b505050506040513d601f19601f820116820180604052508101906145e39190614c45565b61462f5760405162461bcd60e51b815260206004820152601e60248201527f6661696c20746f2072656365697665207061792066726f6d20627579657200006044820152606401610627565b6001600160a01b0385166000908152609b60209081526040808320609a83528184208885529092529091205484919061466a90600190614fb8565b8154811061468857634e487b7160e01b600052603260045260246000fd5b906000526020600020906009020160060181905550505b6001600160a01b0384166000908152609b60209081526040808320609a8352818420878552909252909120543391906146da90600190614fb8565b815481106146f857634e487b7160e01b600052603260045260246000fd5b906000526020600020906009020160070160006101000a8154816001600160a01b0302191690836001600160a01b0316021790555050505050565b6001600160a01b0382166000908152609b60209081526040808320609a835281842085855290925282205482919061476d90600190614fb8565b8154811061478b57634e487b7160e01b600052603260045260246000fd5b60009182526020808320600260099093020191909101546001600160a01b0387168352609b82526040808420609a84528185208886529093529092205491925082916147d990600190614fb8565b815481106147f757634e487b7160e01b600052603260045260246000fd5b906000526020600020906009020160060154101591505092915050565b6001600160a01b0382166000908152609b60209081526040808320609a835281842085855290925282205482919061484e90600190614fb8565b8154811061486c57634e487b7160e01b600052603260045260246000fd5b6000918252602080832060016009909302018201546001600160a01b0388168452609b82526040808520609a845281862089875290935290932054929350839290916147d991614fb8565b426fffffffffffffffffffffffffffffffff166148d48383613748565b6148de9190614f39565b6001600160a01b0383166000908152609b60209081526040808320609a83528184208685529092529091205461491690600190614fb8565b8154811061493457634e487b7160e01b600052603260045260246000fd5b60009182526020808320600460099093020191909101929092556001600160a01b038416808252609b83526040808320609a85528184208685529094529091205490917f057965df252895006f98df4d3412afb7bec8697b08ff6e1fac694b13bf616328918491906149a890600190614fb8565b815481106149c657634e487b7160e01b600052603260045260246000fd5b906000526020600020906009020160040154604051611152929190918252602082015260400190565b805169ffffffffffffffffffff81168114614a0957600080fd5b919050565b600060208284031215614a1f578081fd5b8135613daa81614fe5565b600060208284031215614a3b578081fd5b8151613daa81614fe5565b60008060408385031215614a58578081fd5b8235614a6381614fe5565b91506020830135614a7381614fe5565b809150509250929050565b600080600080600060808688031215614a95578081fd5b8535614aa081614fe5565b94506020860135614ab081614fe5565b935060408601359250606086013567ffffffffffffffff80821115614ad3578283fd5b818801915088601f830112614ae6578283fd5b813581811115614af4578384fd5b896020828501011115614b05578384fd5b9699959850939650602001949392505050565b60008060408385031215614b2a578182fd5b8235614b3581614fe5565b946020939093013593505050565b600080600060608486031215614b57578283fd5b8335614b6281614fe5565b95602085013595506040909401359392505050565b60008060008060808587031215614b8c578384fd5b8435614b9781614fe5565b935060208501359250604085013591506060850135614bb581614fe5565b939692955090935050565b60008060008060808587031215614bd5578384fd5b8435614be081614fe5565b966020860135965060408601359560600135945092505050565b60008060008060008060c08789031215614c12578081fd5b8635614c1d81614fe5565b9860208801359850604088013597606081013597506080810135965060a00135945092505050565b600060208284031215614c56578081fd5b81518015158114613daa578182fd5b600060208284031215614c76578081fd5b5035919050565b60008060408385031215614c8f578182fd5b823591506020830135614a7381614fe5565b600080600080600060a08688031215614cb8578283fd5b614cc1866149ef565b9450602086015193506040860151925060608601519150614ce4608087016149ef565b90509295509295909350565b805182526020808201519083015260408082015190830152606080820151908301526080808201519083015260a0808201519083015260c0808201519083015260e0808201516001600160a01b03908116918401919091526101009182015116910152565b6001600160a01b039384168152919092166020820152604081019190915260600190565b6001600160a01b03929092168252602082015260400190565b6020808252825182820181905260009190848201906040850190845b81811015614dd557614dc1838551614cf0565b928401926101209290920191600101614dae565b50909695505050505050565b6020808252825182820181905260009190848201906040850190845b81811015614dd557614e37838551805182526020808201516001600160a01b03169083015260408082015190830152606090810151910152565b9284019260809290920191600101614dfd565b60208082526010908201526f496e76616c696420706179207479706560801b604082015260600190565b6020808252602b908201527f496e697469616c697a61626c653a20636f6e7472616374206973206e6f74206960408201526a6e697469616c697a696e6760a81b606082015260800190565b6020808252601f908201527f5265656e7472616e637947756172643a207265656e7472616e742063616c6c00604082015260600190565b61012081016128508284614cf0565b815181526020808301516001600160a01b031690820152604080830151908201526060808301519082015260808101612850565b60008219821115614f4c57614f4c614fcf565b500190565b600063ffffffff808316818516808303821115614f7057614f70614fcf565b01949350505050565b600082614f9457634e487b7160e01b81526012600452602481fd5b500490565b6000816000190483118215151615614fb357614fb3614fcf565b500290565b600082821015614fca57614fca614fcf565b500390565b634e487b7160e01b600052601160045260246000fd5b6001600160a01b038116811461276157600080fdfea2646970667358221220f59f68253498c3e5379a0da7b2241040f451cb5b5a7686a5413c95e09fcc55a464736f6c63430008040033",
  "linkReferences": {},
  "deployedLinkReferences": {}
}