{
  "_format": "hh-sol-artifact-1",
  "contractName": "NFTEngineV1",
  "sourceName": "contracts/engine/NFTEngineV1.sol",
  "abi": [
    {
      "inputs": [
        {
          "internalType": "address",
          "name": "nftContract",
          "type": "address"
        },
        {
          "internalType": "uint256",
          "name": "tokenId",
          "type": "uint256"
        }
      ],
      "name": "NFTEngineAlreadySalingToken",
      "type": "error"
    },
    {
      "inputs": [
        {
          "internalType": "address",
          "name": "nftContract",
          "type": "address"
        },
        {
          "internalType": "uint256",
          "name": "tokenId",
          "type": "uint256"
        }
      ],
      "name": "NFTEngineAuctionFinished",
      "type": "error"
    },
    {
      "inputs": [
        {
          "internalType": "address",
          "name": "nftContract",
          "type": "address"
        },
        {
          "internalType": "uint256",
          "name": "tokenId",
          "type": "uint256"
        }
      ],
      "name": "NFTEngineDidNotBid",
      "type": "error"
    },
    {
      "inputs": [
        {
          "internalType": "address",
          "name": "erc20token",
          "type": "address"
        },
        {
          "internalType": "uint256",
          "name": "amount",
          "type": "uint256"
        }
      ],
      "name": "NFTEngineERC20TransferFailed",
      "type": "error"
    },
    {
      "inputs": [],
      "name": "NFTEngineFeeRatesExceed",
      "type": "error"
    },
    {
      "inputs": [
        {
          "internalType": "uint256",
          "name": "recipients",
          "type": "uint256"
        },
        {
          "internalType": "uint256",
          "name": "rates",
          "type": "uint256"
        }
      ],
      "name": "NFTEngineIncorrentLength",
      "type": "error"
    },
    {
      "inputs": [
        {
          "internalType": "uint256",
          "name": "minPrice",
          "type": "uint256"
        },
        {
          "internalType": "uint256",
          "name": "buyNowPrice",
          "type": "uint256"
        }
      ],
      "name": "NFTEngineInvalidMinPrice",
      "type": "error"
    },
    {
      "inputs": [
        {
          "internalType": "uint256",
          "name": "price",
          "type": "uint256"
        }
      ],
      "name": "NFTEngineInvalidPrice",
      "type": "error"
    },
    {
      "inputs": [
        {
          "internalType": "address",
          "name": "nftContract",
          "type": "address"
        },
        {
          "internalType": "uint256",
          "name": "tokenId",
          "type": "uint256"
        }
      ],
      "name": "NFTEngineNotAcceptablePayment",
      "type": "error"
    },
    {
      "inputs": [
        {
          "internalType": "address",
          "name": "nftContract",
          "type": "address"
        },
        {
          "internalType": "uint256",
          "name": "tokenId",
          "type": "uint256"
        }
      ],
      "name": "NFTEngineNotApprovedToken",
      "type": "error"
    },
    {
      "inputs": [
        {
          "internalType": "address",
          "name": "seller",
          "type": "address"
        }
      ],
      "name": "NFTEngineNotAuctionSeller",
      "type": "error"
    },
    {
      "inputs": [
        {
          "internalType": "address",
          "name": "nftContract",
          "type": "address"
        },
        {
          "internalType": "uint256",
          "name": "tokenId",
          "type": "uint256"
        }
      ],
      "name": "NFTEngineNotAuctionToken",
      "type": "error"
    },
    {
      "inputs": [
        {
          "internalType": "address",
          "name": "nftContract",
          "type": "address"
        },
        {
          "internalType": "uint256",
          "name": "tokenId",
          "type": "uint256"
        }
      ],
      "name": "NFTEngineNotHighestBidder",
      "type": "error"
    },
    {
      "inputs": [
        {
          "internalType": "address",
          "name": "seller",
          "type": "address"
        }
      ],
      "name": "NFTEngineNotSaleSeller",
      "type": "error"
    },
    {
      "inputs": [
        {
          "internalType": "address",
          "name": "nftContract",
          "type": "address"
        },
        {
          "internalType": "uint256",
          "name": "tokenId",
          "type": "uint256"
        }
      ],
      "name": "NFTEngineNotSalingToken",
      "type": "error"
    },
    {
      "inputs": [
        {
          "internalType": "address",
          "name": "nftContract",
          "type": "address"
        },
        {
          "internalType": "uint256",
          "name": "tokenId",
          "type": "uint256"
        }
      ],
      "name": "NFTEngineNotTokenOwner",
      "type": "error"
    },
    {
      "inputs": [
        {
          "internalType": "address",
          "name": "nftContract",
          "type": "address"
        },
        {
          "internalType": "uint256",
          "name": "tokenId",
          "type": "uint256"
        }
      ],
      "name": "NFTEngineSellerCant",
      "type": "error"
    },
    {
      "inputs": [
        {
          "internalType": "address",
          "name": "nftContract",
          "type": "address"
        },
        {
          "internalType": "uint256",
          "name": "tokenId",
          "type": "uint256"
        }
      ],
      "name": "NFTEngineTokenOwner",
      "type": "error"
    },
    {
      "anonymous": false,
      "inputs": [
        {
          "indexed": false,
          "internalType": "uint8",
          "name": "version",
          "type": "uint8"
        }
      ],
      "name": "Initialized",
      "type": "event"
    },
    {
      "anonymous": false,
      "inputs": [
        {
          "indexed": true,
          "internalType": "address",
          "name": "nftContract",
          "type": "address"
        },
        {
          "indexed": false,
          "internalType": "uint256",
          "name": "tokenId",
          "type": "uint256"
        },
        {
          "indexed": true,
          "internalType": "address",
          "name": "bidder",
          "type": "address"
        },
        {
          "indexed": false,
          "internalType": "uint256",
          "name": "ethAmount",
          "type": "uint256"
        },
        {
          "indexed": true,
          "internalType": "address",
          "name": "erc20Token",
          "type": "address"
        },
        {
          "indexed": false,
          "internalType": "uint256",
          "name": "tokenAmount",
          "type": "uint256"
        }
      ],
      "name": "NFTAuctionBidMade",
      "type": "event"
    },
    {
      "anonymous": false,
      "inputs": [
        {
          "indexed": true,
          "internalType": "address",
          "name": "nftContract",
          "type": "address"
        },
        {
          "indexed": false,
          "internalType": "uint256",
          "name": "tokenId",
          "type": "uint256"
        },
        {
          "indexed": true,
          "internalType": "address",
          "name": "highestBidder",
          "type": "address"
        }
      ],
      "name": "NFTAuctionBidWithdrawn",
      "type": "event"
    },
    {
      "anonymous": false,
      "inputs": [
        {
          "indexed": true,
          "internalType": "address",
          "name": "nftContract",
          "type": "address"
        },
        {
          "indexed": false,
          "internalType": "uint256",
          "name": "tokenId",
          "type": "uint256"
        },
        {
          "indexed": false,
          "internalType": "uint128",
          "name": "newBuyNowPrice",
          "type": "uint128"
        }
      ],
      "name": "NFTAuctionBuyNowPriceUpdated",
      "type": "event"
    },
    {
      "anonymous": false,
      "inputs": [
        {
          "indexed": true,
          "internalType": "address",
          "name": "nftContract",
          "type": "address"
        },
        {
          "indexed": false,
          "internalType": "uint256",
          "name": "tokenId",
          "type": "uint256"
        },
        {
          "indexed": true,
          "internalType": "address",
          "name": "seller",
          "type": "address"
        },
        {
          "indexed": true,
          "internalType": "address",
          "name": "erc20Token",
          "type": "address"
        },
        {
          "indexed": false,
          "internalType": "uint128",
          "name": "minPrice",
          "type": "uint128"
        },
        {
          "indexed": false,
          "internalType": "uint128",
          "name": "buyNowPrice",
          "type": "uint128"
        },
        {
          "indexed": false,
          "internalType": "uint32",
          "name": "auctionBidPeriod",
          "type": "uint32"
        }
      ],
      "name": "NFTAuctionCreated",
      "type": "event"
    },
    {
      "anonymous": false,
      "inputs": [
        {
          "indexed": true,
          "internalType": "address",
          "name": "nftContract",
          "type": "address"
        },
        {
          "indexed": false,
          "internalType": "uint256",
          "name": "tokenId",
          "type": "uint256"
        }
      ],
      "name": "NFTAuctionHighestBidTaken",
      "type": "event"
    },
    {
      "anonymous": false,
      "inputs": [
        {
          "indexed": true,
          "internalType": "address",
          "name": "nftContract",
          "type": "address"
        },
        {
          "indexed": false,
          "internalType": "uint256",
          "name": "tokenId",
          "type": "uint256"
        },
        {
          "indexed": false,
          "internalType": "uint256",
          "name": "newMinPrice",
          "type": "uint256"
        }
      ],
      "name": "NFTAuctionMinPriceUpdated",
      "type": "event"
    },
    {
      "anonymous": false,
      "inputs": [
        {
          "indexed": true,
          "internalType": "address",
          "name": "nftContract",
          "type": "address"
        },
        {
          "indexed": false,
          "internalType": "uint256",
          "name": "tokenId",
          "type": "uint256"
        },
        {
          "indexed": true,
          "internalType": "address",
          "name": "seller",
          "type": "address"
        },
        {
          "indexed": false,
          "internalType": "uint128",
          "name": "highestBid",
          "type": "uint128"
        },
        {
          "indexed": true,
          "internalType": "address",
          "name": "highestBidder",
          "type": "address"
        },
        {
          "indexed": false,
          "internalType": "address",
          "name": "buyer",
          "type": "address"
        }
      ],
      "name": "NFTAuctionPaid",
      "type": "event"
    },
    {
      "anonymous": false,
      "inputs": [
        {
          "indexed": true,
          "internalType": "address",
          "name": "nftContract",
          "type": "address"
        },
        {
          "indexed": false,
          "internalType": "uint256",
          "name": "tokenId",
          "type": "uint256"
        },
        {
          "indexed": true,
          "internalType": "address",
          "name": "settler",
          "type": "address"
        }
      ],
      "name": "NFTAuctionSettled",
      "type": "event"
    },
    {
      "anonymous": false,
      "inputs": [
        {
          "indexed": true,
          "internalType": "address",
          "name": "nftContract",
          "type": "address"
        },
        {
          "indexed": false,
          "internalType": "uint256",
          "name": "tokenId",
          "type": "uint256"
        },
        {
          "indexed": false,
          "internalType": "uint64",
          "name": "auctionEndPeriod",
          "type": "uint64"
        }
      ],
      "name": "NFTAuctionUpdated",
      "type": "event"
    },
    {
      "anonymous": false,
      "inputs": [
        {
          "indexed": true,
          "internalType": "address",
          "name": "nftContract",
          "type": "address"
        },
        {
          "indexed": false,
          "internalType": "uint256",
          "name": "tokenId",
          "type": "uint256"
        }
      ],
      "name": "NFTAuctionWithdrawn",
      "type": "event"
    },
    {
      "anonymous": false,
      "inputs": [
        {
          "indexed": false,
          "internalType": "uint256",
          "name": "nftType",
          "type": "uint256"
        },
        {
          "indexed": true,
          "internalType": "address",
          "name": "nftContract",
          "type": "address"
        }
      ],
      "name": "NFTContractUpdated",
      "type": "event"
    },
    {
      "anonymous": false,
      "inputs": [
        {
          "indexed": true,
          "internalType": "address",
          "name": "nftContract",
          "type": "address"
        },
        {
          "indexed": false,
          "internalType": "uint256",
          "name": "tokenId",
          "type": "uint256"
        },
        {
          "indexed": true,
          "internalType": "address",
          "name": "to",
          "type": "address"
        }
      ],
      "name": "NFTTokenSaleClosed",
      "type": "event"
    },
    {
      "anonymous": false,
      "inputs": [
        {
          "indexed": true,
          "internalType": "address",
          "name": "nftContract",
          "type": "address"
        },
        {
          "indexed": false,
          "internalType": "uint256",
          "name": "tokenId",
          "type": "uint256"
        },
        {
          "indexed": true,
          "internalType": "address",
          "name": "from",
          "type": "address"
        },
        {
          "indexed": true,
          "internalType": "address",
          "name": "erc20Token",
          "type": "address"
        },
        {
          "indexed": false,
          "internalType": "uint256",
          "name": "price",
          "type": "uint256"
        }
      ],
      "name": "NFTTokenSaleCreated",
      "type": "event"
    },
    {
      "anonymous": false,
      "inputs": [
        {
          "indexed": true,
          "internalType": "address",
          "name": "nftContract",
          "type": "address"
        },
        {
          "indexed": false,
          "internalType": "uint256",
          "name": "tokenId",
          "type": "uint256"
        }
      ],
      "name": "NFTTokenSaleWithdrawn",
      "type": "event"
    },
    {
      "anonymous": false,
      "inputs": [
        {
          "indexed": true,
          "internalType": "address",
          "name": "previousOwner",
          "type": "address"
        },
        {
          "indexed": true,
          "internalType": "address",
          "name": "newOwner",
          "type": "address"
        }
      ],
      "name": "OwnershipTransferred",
      "type": "event"
    },
    {
      "inputs": [
        {
          "internalType": "address",
          "name": "nftContract",
          "type": "address"
        },
        {
          "internalType": "uint256",
          "name": "tokenId",
          "type": "uint256"
        }
      ],
      "name": "buyNFT",
      "outputs": [],
      "stateMutability": "payable",
      "type": "function"
    },
    {
      "inputs": [
        {
          "internalType": "address",
          "name": "nftContract",
          "type": "address"
        },
        {
          "internalType": "uint256",
          "name": "tokenId",
          "type": "uint256"
        },
        {
          "internalType": "address",
          "name": "erc20Token",
          "type": "address"
        },
        {
          "internalType": "uint128",
          "name": "minPrice",
          "type": "uint128"
        },
        {
          "internalType": "uint128",
          "name": "buyNowPrice",
          "type": "uint128"
        },
        {
          "internalType": "uint256",
          "name": "bidPeriod",
          "type": "uint256"
        },
        {
          "internalType": "address[]",
          "name": "feeRecipients",
          "type": "address[]"
        },
        {
          "internalType": "uint32[]",
          "name": "feeRates",
          "type": "uint32[]"
        }
      ],
      "name": "createAuction",
      "outputs": [],
      "stateMutability": "nonpayable",
      "type": "function"
    },
    {
      "inputs": [
        {
          "internalType": "address",
          "name": "nftContract",
          "type": "address"
        },
        {
          "internalType": "uint256",
          "name": "tokenId",
          "type": "uint256"
        },
        {
          "internalType": "address",
          "name": "erc20Token",
          "type": "address"
        },
        {
          "internalType": "uint128",
          "name": "sellPrice",
          "type": "uint128"
        },
        {
          "internalType": "address[]",
          "name": "feeRecipients",
          "type": "address[]"
        },
        {
          "internalType": "uint32[]",
          "name": "feeRates",
          "type": "uint32[]"
        }
      ],
      "name": "createSale",
      "outputs": [],
      "stateMutability": "nonpayable",
      "type": "function"
    },
    {
      "inputs": [],
      "name": "defaultAuctionBidPeriod",
      "outputs": [
        {
          "internalType": "uint32",
          "name": "",
          "type": "uint32"
        }
      ],
      "stateMutability": "view",
      "type": "function"
    },
    {
      "inputs": [],
      "name": "defaultBidIncRate",
      "outputs": [
        {
          "internalType": "uint32",
          "name": "",
          "type": "uint32"
        }
      ],
      "stateMutability": "view",
      "type": "function"
    },
    {
      "inputs": [],
      "name": "feeToTreasury",
      "outputs": [
        {
          "internalType": "uint256",
          "name": "",
          "type": "uint256"
        }
      ],
      "stateMutability": "view",
      "type": "function"
    },
    {
      "inputs": [
        {
          "internalType": "uint256",
          "name": "tokenType",
          "type": "uint256"
        }
      ],
      "name": "getContractAddress",
      "outputs": [
        {
          "internalType": "address",
          "name": "",
          "type": "address"
        }
      ],
      "stateMutability": "view",
      "type": "function"
    },
    {
      "inputs": [
        {
          "internalType": "address",
          "name": "nftContract",
          "type": "address"
        },
        {
          "internalType": "uint256",
          "name": "tokenId",
          "type": "uint256"
        }
      ],
      "name": "getTokenAuctionInfo",
      "outputs": [
        {
          "components": [
            {
              "internalType": "uint256",
              "name": "tokenId",
              "type": "uint256"
            },
            {
              "internalType": "uint32",
              "name": "bidPeriod",
              "type": "uint32"
            },
            {
              "internalType": "uint64",
              "name": "endTime",
              "type": "uint64"
            },
            {
              "internalType": "uint128",
              "name": "minPrice",
              "type": "uint128"
            },
            {
              "internalType": "uint128",
              "name": "buyNowPrice",
              "type": "uint128"
            },
            {
              "internalType": "uint128",
              "name": "highestBid",
              "type": "uint128"
            },
            {
              "internalType": "address",
              "name": "highestBidder",
              "type": "address"
            },
            {
              "internalType": "address",
              "name": "seller",
              "type": "address"
            },
            {
              "internalType": "address",
              "name": "whitelistedBuyer",
              "type": "address"
            },
            {
              "internalType": "address",
              "name": "erc20Token",
              "type": "address"
            },
            {
              "internalType": "bool",
              "name": "isOnSale",
              "type": "bool"
            },
            {
              "internalType": "address[]",
              "name": "feeRecipients",
              "type": "address[]"
            },
            {
              "internalType": "uint32[]",
              "name": "feeRates",
              "type": "uint32[]"
            }
          ],
          "internalType": "struct LTypes.AuctionNFT",
          "name": "",
          "type": "tuple"
        }
      ],
      "stateMutability": "view",
      "type": "function"
    },
    {
      "inputs": [
        {
          "internalType": "address",
          "name": "nftContract",
          "type": "address"
        }
      ],
      "name": "getTokenInfosOnAuction",
      "outputs": [
        {
          "components": [
            {
              "internalType": "uint256",
              "name": "tokenId",
              "type": "uint256"
            },
            {
              "internalType": "uint32",
              "name": "bidPeriod",
              "type": "uint32"
            },
            {
              "internalType": "uint64",
              "name": "endTime",
              "type": "uint64"
            },
            {
              "internalType": "uint128",
              "name": "minPrice",
              "type": "uint128"
            },
            {
              "internalType": "uint128",
              "name": "buyNowPrice",
              "type": "uint128"
            },
            {
              "internalType": "uint128",
              "name": "highestBid",
              "type": "uint128"
            },
            {
              "internalType": "address",
              "name": "highestBidder",
              "type": "address"
            },
            {
              "internalType": "address",
              "name": "seller",
              "type": "address"
            },
            {
              "internalType": "address",
              "name": "whitelistedBuyer",
              "type": "address"
            },
            {
              "internalType": "address",
              "name": "erc20Token",
              "type": "address"
            },
            {
              "internalType": "bool",
              "name": "isOnSale",
              "type": "bool"
            },
            {
              "internalType": "address[]",
              "name": "feeRecipients",
              "type": "address[]"
            },
            {
              "internalType": "uint32[]",
              "name": "feeRates",
              "type": "uint32[]"
            }
          ],
          "internalType": "struct LTypes.AuctionNFT[]",
          "name": "tokenInfos",
          "type": "tuple[]"
        }
      ],
      "stateMutability": "view",
      "type": "function"
    },
    {
      "inputs": [
        {
          "internalType": "address",
          "name": "nftContract",
          "type": "address"
        }
      ],
      "name": "getTokenInfosOnSale",
      "outputs": [
        {
          "components": [
            {
              "internalType": "uint256",
              "name": "tokenId",
              "type": "uint256"
            },
            {
              "internalType": "address",
              "name": "erc20Token",
              "type": "address"
            },
            {
              "internalType": "address",
              "name": "seller",
              "type": "address"
            },
            {
              "internalType": "uint256",
              "name": "price",
              "type": "uint256"
            },
            {
              "internalType": "address[]",
              "name": "feeRecipients",
              "type": "address[]"
            },
            {
              "internalType": "uint32[]",
              "name": "feeRates",
              "type": "uint32[]"
            }
          ],
          "internalType": "struct LTypes.SellNFT[]",
          "name": "tokenInfos",
          "type": "tuple[]"
        }
      ],
      "stateMutability": "view",
      "type": "function"
    },
    {
      "inputs": [
        {
          "internalType": "address",
          "name": "nftContract",
          "type": "address"
        },
        {
          "internalType": "uint256",
          "name": "tokenId",
          "type": "uint256"
        }
      ],
      "name": "getTokenSaleInfo",
      "outputs": [
        {
          "components": [
            {
              "internalType": "uint256",
              "name": "tokenId",
              "type": "uint256"
            },
            {
              "internalType": "address",
              "name": "erc20Token",
              "type": "address"
            },
            {
              "internalType": "address",
              "name": "seller",
              "type": "address"
            },
            {
              "internalType": "uint256",
              "name": "price",
              "type": "uint256"
            },
            {
              "internalType": "address[]",
              "name": "feeRecipients",
              "type": "address[]"
            },
            {
              "internalType": "uint32[]",
              "name": "feeRates",
              "type": "uint32[]"
            }
          ],
          "internalType": "struct LTypes.SellNFT",
          "name": "",
          "type": "tuple"
        }
      ],
      "stateMutability": "view",
      "type": "function"
    },
    {
      "inputs": [
        {
          "internalType": "address",
          "name": "admin",
          "type": "address"
        },
        {
          "internalType": "address",
          "name": "treasury",
          "type": "address"
        }
      ],
      "name": "initialize",
      "outputs": [],
      "stateMutability": "nonpayable",
      "type": "function"
    },
    {
      "inputs": [
        {
          "internalType": "address",
          "name": "nftContract",
          "type": "address"
        },
        {
          "internalType": "uint256",
          "name": "tokenId",
          "type": "uint256"
        },
        {
          "internalType": "address",
          "name": "erc20Token",
          "type": "address"
        },
        {
          "internalType": "uint128",
          "name": "amount",
          "type": "uint128"
        }
      ],
      "name": "makeBid",
      "outputs": [],
      "stateMutability": "payable",
      "type": "function"
    },
    {
      "inputs": [],
      "name": "maxFeeRecipients",
      "outputs": [
        {
          "internalType": "uint32",
          "name": "",
          "type": "uint32"
        }
      ],
      "stateMutability": "view",
      "type": "function"
    },
    {
      "inputs": [],
      "name": "maxMinPriceRate",
      "outputs": [
        {
          "internalType": "uint32",
          "name": "",
          "type": "uint32"
        }
      ],
      "stateMutability": "view",
      "type": "function"
    },
    {
      "inputs": [],
      "name": "minSettableIncRate",
      "outputs": [
        {
          "internalType": "uint32",
          "name": "",
          "type": "uint32"
        }
      ],
      "stateMutability": "view",
      "type": "function"
    },
    {
      "inputs": [
        {
          "internalType": "address",
          "name": "operator",
          "type": "address"
        },
        {
          "internalType": "address",
          "name": "from",
          "type": "address"
        },
        {
          "internalType": "uint256",
          "name": "tokenId",
          "type": "uint256"
        },
        {
          "internalType": "bytes",
          "name": "data",
          "type": "bytes"
        }
      ],
      "name": "onERC721Received",
      "outputs": [
        {
          "internalType": "bytes4",
          "name": "",
          "type": "bytes4"
        }
      ],
      "stateMutability": "pure",
      "type": "function"
    },
    {
      "inputs": [],
      "name": "owner",
      "outputs": [
        {
          "internalType": "address",
          "name": "",
          "type": "address"
        }
      ],
      "stateMutability": "view",
      "type": "function"
    },
    {
      "inputs": [],
      "name": "renounceOwnership",
      "outputs": [],
      "stateMutability": "nonpayable",
      "type": "function"
    },
    {
      "inputs": [
        {
          "internalType": "uint256",
          "name": "nftType",
          "type": "uint256"
        },
        {
          "internalType": "address",
          "name": "nftContract",
          "type": "address"
        }
      ],
      "name": "setNFTContract",
      "outputs": [],
      "stateMutability": "nonpayable",
      "type": "function"
    },
    {
      "inputs": [
        {
          "internalType": "address",
          "name": "paymentToken",
          "type": "address"
        }
      ],
      "name": "setPaymentContract",
      "outputs": [],
      "stateMutability": "nonpayable",
      "type": "function"
    },
    {
      "inputs": [
        {
          "internalType": "address",
          "name": "nftContract",
          "type": "address"
        },
        {
          "internalType": "uint256",
          "name": "tokenId",
          "type": "uint256"
        }
      ],
      "name": "settleAuction",
      "outputs": [],
      "stateMutability": "nonpayable",
      "type": "function"
    },
    {
      "inputs": [
        {
          "internalType": "address",
          "name": "nftContract",
          "type": "address"
        },
        {
          "internalType": "uint256",
          "name": "tokenId",
          "type": "uint256"
        }
      ],
      "name": "takeHighestBid",
      "outputs": [],
      "stateMutability": "nonpayable",
      "type": "function"
    },
    {
      "inputs": [
        {
          "internalType": "address",
          "name": "newOwner",
          "type": "address"
        }
      ],
      "name": "transferOwnership",
      "outputs": [],
      "stateMutability": "nonpayable",
      "type": "function"
    },
    {
      "inputs": [
        {
          "internalType": "address",
          "name": "nftContract",
          "type": "address"
        },
        {
          "internalType": "uint256",
          "name": "tokenId",
          "type": "uint256"
        }
      ],
      "name": "withdrawAuction",
      "outputs": [],
      "stateMutability": "nonpayable",
      "type": "function"
    },
    {
      "inputs": [
        {
          "internalType": "address",
          "name": "nftContract",
          "type": "address"
        },
        {
          "internalType": "uint256",
          "name": "tokenId",
          "type": "uint256"
        }
      ],
      "name": "withdrawBid",
      "outputs": [],
      "stateMutability": "nonpayable",
      "type": "function"
    },
    {
      "inputs": [
        {
          "internalType": "address",
          "name": "nftContract",
          "type": "address"
        },
        {
          "internalType": "uint256",
          "name": "tokenId",
          "type": "uint256"
        }
      ],
      "name": "withdrawSale",
      "outputs": [],
      "stateMutability": "nonpayable",
      "type": "function"
    }
  ],
  "bytecode": "0x608060405234801561001057600080fd5b506155f280620000216000396000f3fe60806040526004361061019c5760003560e01c8063880d5cc5116100ec578063c24d5a5c1161008a578063c697a82c11610064578063c697a82c146104b0578063ceb89820146102e6578063ebea6025146104dd578063f2fde38b146104fd57600080fd5b8063c24d5a5c14610465578063c2ab876614610478578063c31b72e11461049b57600080fd5b80638da5cb5b116100c65780638da5cb5b146103d3578063a82ba76f14610405578063aefa7d9814610418578063bc09b84c1461043857600080fd5b8063880d5cc51461037d57806388b98b12146103935780638abb20cc146103b357600080fd5b80634d86f834116101595780636f3c898d116101335780636f3c898d146102fb578063715018a6146103285780637b088e8e1461033d578063848e5c771461035d57600080fd5b80634d86f834146102a65780635138b08c146102c657806369710d0b146102e657600080fd5b806303382f22146101a1578063150b7a02146101c3578063186779d51461020d578063398d874614610239578063485cc955146102665780634cb8ef5b14610286575b600080fd5b3480156101ad57600080fd5b506101c16101bc366004614e40565b61051d565b005b3480156101cf57600080fd5b506101ef6101de366004614d2c565b630a85bd0160e11b95945050505050565b6040516001600160e01b031990911681526020015b60405180910390f35b34801561021957600080fd5b506102246201518081565b60405163ffffffff9091168152602001610204565b34801561024557600080fd5b50610259610254366004614dc5565b610817565b60405161020491906153b0565b34801561027257600080fd5b506101c1610281366004614cf4565b610ac9565b34801561029257600080fd5b506101c16102a1366004614dc5565b610c08565b3480156102b257600080fd5b506101c16102c1366004614fd0565b610e1f565b3480156102d257600080fd5b506101c16102e1366004614dc5565b610f89565b3480156102f257600080fd5b50610224606481565b34801561030757600080fd5b5061031b610316366004614cbc565b611033565b6040516102049190615242565b34801561033457600080fd5b506101c1611238565b34801561034957600080fd5b506101c1610358366004614ede565b61124c565b34801561036957600080fd5b506101c1610378366004614dc5565b611536565b34801561038957600080fd5b50610224611f4081565b34801561039f57600080fd5b506101c16103ae366004614dc5565b6116b4565b3480156103bf57600080fd5b506101c16103ce366004614cbc565b61184b565b3480156103df57600080fd5b506033546001600160a01b03165b6040516001600160a01b039091168152602001610204565b6101c1610413366004614dc5565b61192a565b34801561042457600080fd5b506103ed610433366004614fb8565b611f47565b34801561044457600080fd5b50610458610453366004614cbc565b611fcb565b60405161020491906152a3565b6101c1610473366004614df0565b612147565b34801561048457600080fd5b5061048d600581565b604051908152602001610204565b3480156104a757600080fd5b50610224600581565b3480156104bc57600080fd5b506104d06104cb366004614dc5565b612271565b60405161020491906153c3565b3480156104e957600080fd5b506101c16104f8366004614dc5565b612493565b34801561050957600080fd5b506101c1610518366004614cbc565b612647565b600260655414156105495760405162461bcd60e51b815260040161054090615379565b60405180910390fd5b60026065556000805260976020527f683723e34a772b6e4f2c919bba7fa32ed8ea11a8325f54da7db716e9d9dd98c754869086906001600160a01b03808416911614806105cc5750600160005260976020527f53bdca72fa8d2e145a1b3bd11cde5bd75428acd18eac3d6adf4e06e7e637706d546001600160a01b038381169116145b6105e85760405162461bcd60e51b8152600401610540906152f7565b6040516331a9108f60e11b8152600481018290526001600160a01b03831690636352211e9060240160206040518083038186803b15801561062857600080fd5b505afa15801561063c573d6000803e3d6000fd5b505050506040513d601f19601f820116820180604052508101906106609190614cd8565b6001600160a01b0316336001600160a01b031614610695578181604051631464bc1b60e11b8152600401610540929190615229565b60405163020604bf60e21b815260048101889052889088906001600160a01b0383169063081812fc9060240160206040518083038186803b1580156106d957600080fd5b505afa1580156106ed573d6000803e3d6000fd5b505050506040513d601f19601f820116820180604052508101906107119190614cd8565b6001600160a01b0316306001600160a01b031614610746578181604051631d6d11e160e31b8152600401610540929190615229565b6001600160801b0387168061077157604051630b707dc560e21b815260048101829052602401610540565b600260005260976020527fd6ca216b3b8b63bcc0099d5c8294d1780d598ac9b3a29b15c3c3e68c85f6e30c546001600160a01b038a81169116146107f75760405162461bcd60e51b815260206004820152601d60248201527f556e72656769737465726564207061796d656e7420636f6e74726163740000006044820152606401610540565b6108058b8b8b8b8b8b6126c0565b50506001606555505050505050505050565b604080516101a0810182526000808252602080830182905282840182905260608084018390526080840183905260a0840183905260c0840183905260e0840183905261010084018390526101208401839052610140840183905261016084018190526101808401526001600160a01b038616825260988152838220858352905291909120546108bd578282604051630cf7ca1d60e11b8152600401610540929190615229565b6001600160a01b038316600090815260996020908152604080832060988352818420868552909252909120546108f590600190615513565b8154811061091357634e487b7160e01b600052603260045260246000fd5b6000918252602091829020604080516101a081018252600990930290910180548352600181015463ffffffff8116848601526001600160401b03640100000000820416848401526001600160801b03600160601b9091048116606085015260028201548082166080860152600160801b90041660a084015260038101546001600160a01b0390811660c08501526004820154811660e085015260058201548116610100850152600682015490811661012085015260ff600160a01b9091041615156101408401526007810180548351818702810187019094528084529394919361016086019392830182828015610a3357602002820191906000526020600020905b81546001600160a01b03168152600190910190602001808311610a15575b5050505050815260200160088201805480602002602001604051908101604052809291908181526020018280548015610ab757602002820191906000526020600020906000905b82829054906101000a900463ffffffff1663ffffffff1681526020019060040190602082600301049283019260010382029150808411610a7a5790505b50505050508152505090505b92915050565b600054610100900460ff1615808015610ae95750600054600160ff909116105b80610b035750303b158015610b03575060005460ff166001145b610b665760405162461bcd60e51b815260206004820152602e60248201527f496e697469616c697a61626c653a20636f6e747261637420697320616c72656160448201526d191e481a5b9a5d1a585b1a5e995960921b6064820152608401610540565b6000805460ff191660011790558015610b89576000805461ff0019166101001790555b610b916128bb565b610b996128ea565b609c80546001600160a01b0319166001600160a01b038416179055610bbd83612647565b8015610c03576000805461ff0019169055604051600181527f7f26b83ff96e1f2b6a682f133852f6798a09c465da95921460cefb38474024989060200160405180910390a15b505050565b60026065541415610c2b5760405162461bcd60e51b815260040161054090615379565b60026065556001600160a01b038216600090815260996020908152604080832060988352818420858552909252822054610c6790600190615513565b81548110610c8557634e487b7160e01b600052603260045260246000fd5b60009182526020909120600360099092020101546001600160a01b03169050338114610cc8578282604051638dcad11b60e01b8152600401610540929190615229565b6001600160a01b038316600090815260996020908152604080832060988352818420868552909252822054610cff90600190615513565b81548110610d1d57634e487b7160e01b600052603260045260246000fd5b60009182526020808320600992909202909101600201546001600160a01b038716835260998252604080842060988452818520888652909352832054600160801b9091046001600160801b03169350610d7890600190615513565b81548110610d9657634e487b7160e01b600052603260045260246000fd5b60009182526020909120600660099092020101546001600160a01b03169050610dbf8585612919565b610dd383836001600160801b031683612a22565b60405184815233906001600160a01b038716907f1c67fba99d945a891489857a6f588badd10a0834d848de5574580cea4974ff5b9060200160405180910390a350506001606555505050565b610e27612b5f565b6001600160a01b038116610e7d5760405162461bcd60e51b815260206004820152601c60248201527f496e76616c6964206e667420636f6e74726163742061646472657373000000006044820152606401610540565b6001821115610ec15760405162461bcd60e51b815260206004820152601060248201526f496e76616c6964206e6674207479706560801b6044820152606401610540565b8060976000846002811115610ee657634e487b7160e01b600052602160045260246000fd5b6002811115610f0557634e487b7160e01b600052602160045260246000fd5b6002811115610f2457634e487b7160e01b600052602160045260246000fd5b8152602080820192909252604090810160002080546001600160a01b0319166001600160a01b0394851617905551848152918316917f441c264f6f587886bff15cb9afe61526df4a56c9b6bb8288b7af7d754b11366e91015b60405180910390a25050565b60026065541415610fac5760405162461bcd60e51b815260040161054090615379565b60026065558181610fbd8282612bb9565b610fde578181604051631b09b27f60e01b8152600401610540929190615229565b610fe88484612cbf565b60405183815233906001600160a01b038616907f1b5a773e8fc5617b32cff68b696669f7e14d946e95ab5994e244a4e73a82e1ff9060200160405180910390a3505060016065555050565b6001600160a01b0381166000908152609960209081526040808320805482518185028101850190935280835260609492939192909184015b8282101561122d576000848152602090819020604080516101a0810182526009860290920180548352600181015463ffffffff81168486015264010000000081046001600160401b031684840152600160601b90046001600160801b03908116606085015260028201548082166080860152600160801b90041660a084015260038101546001600160a01b0390811660c08501526004820154811660e0850152600582015481166101008501526006820154908116610120850152600160a01b900460ff161515610140840152600781018054835181870281018701909452808452939491936101608601939283018282801561119157602002820191906000526020600020905b81546001600160a01b03168152600190910190602001808311611173575b505050505081526020016008820180548060200260200160405190810160405280929190818152602001828054801561121557602002820191906000526020600020906000905b82829054906101000a900463ffffffff1663ffffffff16815260200190600401906020826003010492830192600103820291508084116111d85790505b5050505050815250508152602001906001019061106b565b505050509050919050565b611240612b5f565b61124a60006130e9565b565b6002606554141561126f5760405162461bcd60e51b815260040161054090615379565b60026065556000805260976020527f683723e34a772b6e4f2c919bba7fa32ed8ea11a8325f54da7db716e9d9dd98c7546001600160a01b03898116911614806112ee5750600160005260976020527f53bdca72fa8d2e145a1b3bd11cde5bd75428acd18eac3d6adf4e06e7e637706d546001600160a01b038981169116145b61130a5760405162461bcd60e51b8152600401610540906152f7565b600260005260976020527fd6ca216b3b8b63bcc0099d5c8294d1780d598ac9b3a29b15c3c3e68c85f6e30c546001600160a01b038781169116146113905760405162461bcd60e51b815260206004820152601d60248201527f556e72656769737465726564207061796d656e7420636f6e74726163740000006044820152606401610540565b6040516331a9108f60e11b8152600481018890526001600160a01b03891690636352211e9060240160206040518083038186803b1580156113d057600080fd5b505afa1580156113e4573d6000803e3d6000fd5b505050506040513d601f19601f820116820180604052508101906114089190614cd8565b6001600160a01b0316336001600160a01b03161461143d578787604051631464bc1b60e11b8152600401610540929190615229565b6001600160a01b03881660009081526098602090815260408083208a84529091529020541561148357878760405163367f3a2360e21b8152600401610540929190615229565b611493888888888888888861313b565b856001600160a01b0316336001600160a01b0316896001600160a01b03167ffa5304341d2518d90d489cd208dc6f099818aeb722684536370b93871d2e94a48a89896114df8f8f6133fd565b60405161151594939291909384526001600160801b0392831660208501529116604083015263ffffffff16606082015260800190565b60405180910390a46115278888613489565b50506001606555505050505050565b600260655414156115595760405162461bcd60e51b815260040161054090615379565b60026065556001600160a01b038216600090815260986020908152604080832084845290915290205482908290158061160657506001600160a01b038216600090815260996020908152604080832060988352818420858552909252909120543391906115c890600190615513565b815481106115e657634e487b7160e01b600052603260045260246000fd5b60009182526020909120600460099092020101546001600160a01b031614155b1561162657604051630c7441bb60e31b8152336004820152602401610540565b6116308484613545565b61165157838360405163481e476160e11b8152600401610540929190615229565b61165c8484336135c9565b6116668484612cbf565b836001600160a01b03167fcc801e4a1662a9ed7f9dc813fce5781eeba9361ac5f2934d6d59594b40d62e85846040516116a191815260200190565b60405180910390a2505060016065555050565b600260655414156116d75760405162461bcd60e51b815260040161054090615379565b60026065556001600160a01b0382166000908152609a6020908152604080832084845290915290205482908290158061178457506001600160a01b0382166000908152609b60209081526040808320609a83528184208585529092529091205433919061174690600190615513565b8154811061176457634e487b7160e01b600052603260045260246000fd5b60009182526020909120600260069092020101546001600160a01b031614155b156117a45760405163a0c1a67d60e01b8152336004820152602401610540565b6117ae84846136bc565b604051632142170760e11b81526001600160a01b038516906342842e0e906117de90309033908890600401615205565b600060405180830381600087803b1580156117f857600080fd5b505af115801561180c573d6000803e3d6000fd5b50505050836001600160a01b03167f5030805dc788ddab4854363945f64f79b4003801d92bfcd4de0cd64d8276fbd9846040516116a191815260200190565b611853612b5f565b6001600160a01b0381166118a95760405162461bcd60e51b815260206004820152601d60248201527f496e76616c6964207061796d656e7420746f6b656e20616464726573730000006044820152606401610540565b60026000819052609760209081527fd6ca216b3b8b63bcc0099d5c8294d1780d598ac9b3a29b15c3c3e68c85f6e30c80546001600160a01b0319166001600160a01b038516908117909155604080519384525190927f441c264f6f587886bff15cb9afe61526df4a56c9b6bb8288b7af7d754b11366e92908290030190a250565b6002606554141561194d5760405162461bcd60e51b815260040161054090615379565b60026065556001600160a01b0382166000908152609a602090815260408083208484529091529020548290829061199b57818160405163718a8cb360e01b8152600401610540929190615229565b6001600160a01b0384166000908152609a60209081526040808320868452909152902054849084901580611a4257506001600160a01b0382166000908152609b60209081526040808320609a835281842085855290925290912054339190611a0590600190615513565b81548110611a2357634e487b7160e01b600052603260045260246000fd5b60009182526020909120600260069092020101546001600160a01b0316145b15611a6457818160405163367f3a2360e21b8152600401610540929190615229565b6001600160a01b0386166000908152609b60209081526040808320609a8352818420898552909252822054611a9b90600190615513565b81548110611ab957634e487b7160e01b600052603260045260246000fd5b60009182526020808320600360069093020191909101546001600160a01b038a168352609b82526040808420609a84528185208b8652909352832054909350611b0490600190615513565b81548110611b2257634e487b7160e01b600052603260045260246000fd5b60009182526020808320600260069093020191909101546001600160a01b038b81168452609b83526040808520609a85528186208d875290945284205491169350611b6f90600190615513565b81548110611b8d57634e487b7160e01b600052603260045260246000fd5b600091825260208220600160069092020101546001600160a01b031691506064611bb86005866154f4565b611bc291906154b1565b90506000611bd08286615513565b9050611bdc8b8b6136bc565b60006001600160a01b038416611d375785341015611c3c5760405162461bcd60e51b815260206004820152601960248201527f496e73756666696369656e7420657468657220746f20627579000000000000006044820152606401610540565b6040516001600160a01b038616908390600081818185875af1925050503d8060008114611c85576040519150601f19603f3d011682016040523d82523d6000602084013e611c8a565b606091505b50508091505080611cdd5760405162461bcd60e51b815260206004820152601c60248201527f6661696c656420746f2073656e642065746820746f2073656c6c6572000000006044820152606401610540565b609c546040516001600160a01b03909116908490600081818185875af1925050503d8060008114611d2a576040519150601f19603f3d011682016040523d82523d6000602084013e611d2f565b606091505b505050611e92565b6040516323b872dd60e01b81526001600160a01b038516906323b872dd90611d6790339089908790600401615205565b602060405180830381600087803b158015611d8157600080fd5b505af1158015611d95573d6000803e3d6000fd5b505050506040513d601f19601f82011682018060405250810190611db99190614f98565b8015611e465750609c546040516323b872dd60e01b81526001600160a01b03808716926323b872dd92611df492339216908890600401615205565b602060405180830381600087803b158015611e0e57600080fd5b505af1158015611e22573d6000803e3d6000fd5b505050506040513d601f19601f82011682018060405250810190611e469190614f98565b611e925760405162461bcd60e51b815260206004820152601d60248201527f6661696c656420746f2073656e64207062727420746f2073656c6c65720000006044820152606401610540565b8b6001600160a01b03166342842e0e30338e6040518463ffffffff1660e01b8152600401611ec293929190615205565b600060405180830381600087803b158015611edc57600080fd5b505af1158015611ef0573d6000803e3d6000fd5b50506040518d81523392506001600160a01b038f1691507fb89e44430873468e658c1262715e5939bbb09dea086295c4f60da5256bd8f1239060200160405180910390a35050600160655550505050505050505050565b600060976000836002811115611f6d57634e487b7160e01b600052602160045260246000fd5b6002811115611f8c57634e487b7160e01b600052602160045260246000fd5b6002811115611fab57634e487b7160e01b600052602160045260246000fd5b81526020810191909152604001600020546001600160a01b031692915050565b6001600160a01b0381166000908152609b60209081526040808320805482518185028101850190935280835260609492939192909184015b8282101561122d5760008481526020908190206040805160c081018252600686029092018054835260018101546001600160a01b03908116848601526002820154168383015260038101546060840152600481018054835181870281018701909452808452939491936080860193928301828280156120ab57602002820191906000526020600020905b81546001600160a01b0316815260019091019060200180831161208d575b505050505081526020016005820180548060200260200160405190810160405280929190818152602001828054801561212f57602002820191906000526020600020906000905b82829054906101000a900463ffffffff1663ffffffff16815260200190600401906020826003010492830192600103820291508084116120f25790505b50505050508152505081526020019060010190612003565b6002606554141561216a5760405162461bcd60e51b815260040161054090615379565b60026065556001600160a01b038416600090815260986020908152604080832086845290915290205484908490158061221657506001600160a01b038216600090815260996020908152604080832060988352818420858552909252909120543391906121d990600190615513565b815481106121f757634e487b7160e01b600052603260045260246000fd5b60009182526020909120600460099092020101546001600160a01b0316145b1561223857818160405163367f3a2360e21b8152600401610540929190615229565b85856122448282612bb9565b612265578181604051631b09b27f60e01b8152600401610540929190615229565b611527888888886136ca565b6122bc6040518060c001604052806000815260200160006001600160a01b0316815260200160006001600160a01b031681526020016000815260200160608152602001606081525090565b6001600160a01b0383166000908152609a602090815260408083208584529091529020548390839061230557818160405163718a8cb360e01b8152600401610540929190615229565b6001600160a01b0385166000908152609b60209081526040808320609a83528184208885529092529091205461233d90600190615513565b8154811061235b57634e487b7160e01b600052603260045260246000fd5b60009182526020918290206040805160c08101825260069093029091018054835260018101546001600160a01b03908116848601526002820154168383015260038101546060840152600481018054835181870281018701909452808452939491936080860193928301828280156123fc57602002820191906000526020600020905b81546001600160a01b031681526001909101906020018083116123de575b505050505081526020016005820180548060200260200160405190810160405280929190818152602001828054801561248057602002820191906000526020600020906000905b82829054906101000a900463ffffffff1663ffffffff16815260200190600401906020826003010492830192600103820291508084116124435790505b5050505050815250509250505092915050565b600260655414156124b65760405162461bcd60e51b815260040161054090615379565b60026065556000805260976020527f683723e34a772b6e4f2c919bba7fa32ed8ea11a8325f54da7db716e9d9dd98c754829082906001600160a01b03808416911614806125395750600160005260976020527f53bdca72fa8d2e145a1b3bd11cde5bd75428acd18eac3d6adf4e06e7e637706d546001600160a01b038381169116145b6125555760405162461bcd60e51b8152600401610540906152f7565b6040516331a9108f60e11b8152600481018290526001600160a01b03831690636352211e9060240160206040518083038186803b15801561259557600080fd5b505afa1580156125a9573d6000803e3d6000fd5b505050506040513d601f19601f820116820180604052508101906125cd9190614cd8565b6001600160a01b0316336001600160a01b031614612602578181604051631464bc1b60e11b8152600401610540929190615229565b61260c84846137c2565b836001600160a01b03167ff75f3e198453c5e8c50f6cea2f01a714e952664e7bfd574e8ee4feb176a5d63d846040516116a191815260200190565b61264f612b5f565b6001600160a01b0381166126b45760405162461bcd60e51b815260206004820152602660248201527f4f776e61626c653a206e6577206f776e657220697320746865207a65726f206160448201526564647265737360d01b6064820152608401610540565b6126bd816130e9565b50565b8151815180821415806126d35750600582115b156126fb57604051631ffbfc4b60e01b81526004810183905260248101829052604401610540565b826000805b82518160ff16101561277f57828160ff168151811061272f57634e487b7160e01b600052603260045260246000fd5b6020026020010151826127429190615441565b91506127108263ffffffff16111561276d576040516307c1726f60e51b815260040160405180910390fd5b8061277781615545565b915050612700565b5061278b8a8a336135c9565b6001600160a01b038a166000908152609b60205260409020546127af906001615429565b6001600160a01b03808c166000818152609a602090815260408083208f8452825280832095909555918152609b82529283208054600181810183559185529382902060069094029093018c81559283018054928c166001600160a01b031993841617905560028301805490921633179091556001600160801b03891660038301558751612844916004840191908a01906149ca565b50855161285a9060058301906020890190614a2f565b50604080518b81526001600160801b038a1660208201526001600160a01b03808c16923392918f16917fa07c96d3721fcbbef27183918f376a8391aaa9589eb11a14f0ef7271b1d8e961910160405180910390a45050505050505050505050565b600054610100900460ff166128e25760405162461bcd60e51b81526004016105409061532e565b61124a6137cc565b600054610100900460ff166129115760405162461bcd60e51b81526004016105409061532e565b61124a6137fc565b6001600160a01b03821660009081526099602090815260408083206098835281842085855290925282205461295090600190615513565b8154811061296e57634e487b7160e01b600052603260045260246000fd5b6000918252602080832060099290920290910160030180546001600160a01b0319166001600160a01b039485161790559184168152609982526040808220609884528183208584529093528120549091906129cb90600190615513565b815481106129e957634e487b7160e01b600052603260045260246000fd5b906000526020600020906009020160020160106101000a8154816001600160801b0302191690836001600160801b031602179055505050565b6001600160a01b03811615612ab75760405163a9059cbb60e01b81526001600160a01b0382169063a9059cbb90612a5f9086908690600401615229565b602060405180830381600087803b158015612a7957600080fd5b505af1158015612a8d573d6000803e3d6000fd5b505050506040513d601f19601f82011682018060405250810190612ab19190614f98565b50505050565b6000836001600160a01b031683614e2090604051600060405180830381858888f193505050503d8060008114612b09576040519150601f19603f3d011682016040523d82523d6000602084013e612b0e565b606091505b5050905080612ab15760405162461bcd60e51b815260206004820152601f60248201527f4661696c656420746f2073656e642065746820746f20726563697069656e74006044820152606401610540565b6033546001600160a01b0316331461124a5760405162461bcd60e51b815260206004820181905260248201527f4f776e61626c653a2063616c6c6572206973206e6f7420746865206f776e65726044820152606401610540565b6001600160a01b038216600090815260996020908152604080832060988352818420858552909252822054612bf090600190615513565b81548110612c0e57634e487b7160e01b600052603260045260246000fd5b600091825260209091206009909102016001015464010000000090046001600160401b03161580612cb857506001600160a01b03831660009081526099602090815260408083206098835281842086855290925290912054612c7290600190615513565b81548110612c9057634e487b7160e01b600052603260045260246000fd5b600091825260209091206009909102016001015464010000000090046001600160401b031642105b9392505050565b6001600160a01b0382166000908152609860209081526040808320848452909152812054612cef90600190615513565b6001600160a01b03841660009081526099602052604081208054929350909183908110612d2c57634e487b7160e01b600052603260045260246000fd5b60009182526020808320600460099093020191909101546001600160a01b03878116845260999092526040832080549290911693509084908110612d8057634e487b7160e01b600052603260045260246000fd5b60009182526020808320600360099093020191909101546001600160a01b03888116845260999092526040832080549290911693509085908110612dd457634e487b7160e01b600052603260045260246000fd5b600091825260208220600260099092020101546001600160801b03600160801b909104169150612e04878761382a565b6001600160a01b03881660009081526099602052604081208054929350909187908110612e4157634e487b7160e01b600052603260045260246000fd5b60009182526020808320600660099093020191909101546001600160a01b038b8116845260999092526040832080549290911693509088908110612e9557634e487b7160e01b600052603260045260246000fd5b9060005260206000209060090201600701805480602002602001604051908101604052809291908181526020018280548015612efa57602002820191906000526020600020905b81546001600160a01b03168152600190910190602001808311612edc575b505050505090506000609960008b6001600160a01b03166001600160a01b031681526020019081526020016000208881548110612f4757634e487b7160e01b600052603260045260246000fd5b9060005260206000209060090201600801805480602002602001604051908101604052809291908181526020018280548015612fce57602002820191906000526020600020906000905b82829054906101000a900463ffffffff1663ffffffff1681526020019060040190602082600301049283019260010382029150808411612f915790505b50505050509050612fdf8a8a612919565b612fe98a8a6137c2565b612fff87866001600160801b03168585856138a3565b604051632142170760e11b81526001600160a01b038b16906342842e0e9061302f90309088908e90600401615205565b600060405180830381600087803b15801561304957600080fd5b505af115801561305d573d6000803e3d6000fd5b50505050856001600160a01b0316876001600160a01b03168b6001600160a01b03167f08ff8776aa9dfead5713153ec011c6ce23d80a389215c384419cadc1acc4f7aa8c89896040516130d5939291909283526001600160801b039190911660208301526001600160a01b0316604082015260600190565b60405180910390a450505050505050505050565b603380546001600160a01b038381166001600160a01b0319831681179093556040519116919082907f8be0079c531659141344cd1fd0a4f28419497f9722a3daafe3b4186f6b6457e090600090a35050565b81518151808214158061314e5750600582115b1561317657604051631ffbfc4b60e01b81526004810183905260248101829052604401610540565b826000805b82518160ff1610156131fa57828160ff16815181106131aa57634e487b7160e01b600052603260045260246000fd5b6020026020010151826131bd9190615441565b91506127108263ffffffff1611156131e8576040516307c1726f60e51b815260040160405180910390fd5b806131f281615545565b91505061317b565b506001600160801b038816158015906132355750886001600160801b0316613233896001600160801b0316611f4063ffffffff16613990565b105b156132665760405163529a16e560e01b81526001600160801b03808b16600483015289166024820152604401610540565b6001600160a01b038c1660009081526099602052604090205461328a906001615429565b609860008e6001600160a01b03166001600160a01b0316815260200190815260200160002060008d8152602001908152602001600020819055506000609960008e6001600160a01b03166001600160a01b0316815260200190815260200160002060018160018154018082558091505003906000526020600020906009020190508b81600001819055508a8160060160006101000a8154816001600160a01b0302191690836001600160a01b03160217905550868160070190805190602001906133559291906149ca565b50855161336b9060088301906020890190614a2f565b506002810180546001600160801b039a8b166001600160801b0319909116179055600181018054600490920180546001600160a01b0319163317905563ffffffff90981663ffffffff199a909916600160601b02999099167fffffffff00000000000000000000000000000000ffffffffffffffff000000009099169890981796909617909455505050505050505050565b6001600160a01b03821660009081526099602090815260408083206098835281842085855290925282205482919061343790600190615513565b8154811061345557634e487b7160e01b600052603260045260246000fd5b600091825260209091206001600990920201015463ffffffff169050806134825762015180915050610ac3565b9050610ac3565b6001600160a01b0382166000908152609960209081526040808320609883528184208585529092528220546134c090600190615513565b815481106134de57634e487b7160e01b600052603260045260246000fd5b60009182526020909120600460099092020101546001600160a01b0316905061350783836139a9565b15613521576135178383836135c9565b610c038383612cbf565b61352b8383613abb565b15610c035761353a8383613b87565b610c038383836135c9565b6001600160a01b03821660009081526099602090815260408083206098835281842085855290925282205482919061357f90600190615513565b8154811061359d57634e487b7160e01b600052603260045260246000fd5b6000918252602090912060099091020160020154600160801b90046001600160801b0316119392505050565b6040516331a9108f60e11b8152600481018390526001600160a01b038083169190851690636352211e9060240160206040518083038186803b15801561360e57600080fd5b505afa158015613622573d6000803e3d6000fd5b505050506040513d601f19601f820116820180604052508101906136469190614cd8565b6001600160a01b03161415610c0357604051632142170760e11b81526001600160a01b038416906342842e0e9061368590849030908790600401615205565b600060405180830381600087803b15801561369f57600080fd5b505af11580156136b3573d6000803e3d6000fd5b50505050505050565b6136c68282613cf2565b5050565b6136d684848484613f52565b6136f7578383604051637f487ddb60e11b8152600401610540929190615229565b61370284848361403b565b61374e5760405162461bcd60e51b815260206004820152601960248201527f496e73756666696369656e742066756e647320746f20626964000000000000006044820152606401610540565b6137598484836141cb565b6137638484613489565b604080518481523460208201526001600160801b0383168183015290516001600160a01b03848116923392918816917f341120aa0dda9918f639de5b8ac08dd9a30cab1063e0cf0fc9abb8c6e8bffd369181900360600190a450505050565b6136c68282614350565b600054610100900460ff166137f35760405162461bcd60e51b81526004016105409061532e565b61124a336130e9565b600054610100900460ff166138235760405162461bcd60e51b81526004016105409061532e565b6001606555565b6001600160a01b03821660009081526099602090815260408083206098835281842085855290925282205461386190600190615513565b8154811061387f57634e487b7160e01b600052603260045260246000fd5b60009182526020909120600990910201600301546001600160a01b03169392505050565b600060646138b26005876154f4565b6138bc91906154b1565b90506138c88186615513565b609c549095506138e2906001600160a01b03168286612a22565b6000805b845181101561397b5760006139288886848151811061391557634e487b7160e01b600052603260045260246000fd5b602002602001015163ffffffff16613990565b90506139348184615429565b925061396886838151811061395957634e487b7160e01b600052603260045260246000fd5b60200260200101518289612a22565b50806139738161552a565b9150506138e6565b506136b38761398a8389615513565b87612a22565b600061271061399f83856154f4565b612cb891906154b1565b6001600160a01b0382166000908152609960209081526040808320609883528184208585529092528220548291906139e390600190615513565b81548110613a0157634e487b7160e01b600052603260045260246000fd5b60009182526020909120600260099092020101546001600160801b031690508015801590613ab357506001600160a01b038416600090815260996020908152604080832060988352818420878552909252909120546001600160801b0383169190613a6e90600190615513565b81548110613a8c57634e487b7160e01b600052603260045260246000fd5b6000918252602090912060099091020160020154600160801b90046001600160801b031610155b949350505050565b6001600160a01b038216600090815260996020908152604080832060988352818420858552909252822054829190613af590600190615513565b81548110613b1357634e487b7160e01b600052603260045260246000fd5b6000918252602090912060099091020160010154600160601b90046001600160801b031690508015801590613ab357506001600160a01b038416600090815260996020908152604080832060988352818420878552909252909120546001600160801b0383169190613a6e90600190615513565b42613b9283836133fd565b63ffffffff16613ba29190615469565b6001600160a01b03831660009081526099602090815260408083206098835281842086855290925290912054613bda90600190615513565b81548110613bf857634e487b7160e01b600052603260045260246000fd5b600091825260208083206001600990930201820180546001600160401b0395909516640100000000026bffffffffffffffff0000000019909516949094179093556001600160a01b038516808352609984526040808420609886528185208786529095529092205491927fa1e7b6c5b94ad1e2b5c13f1d1a517ae9584b9b96ed78750c76de93ae148ef231928592613c8f91615513565b81548110613cad57634e487b7160e01b600052603260045260246000fd5b906000526020600020906009020160010160049054906101000a90046001600160401b0316604051610f7d9291909182526001600160401b0316602082015260400190565b6001600160a01b0382166000818152609a602090815260408083208584528083528184208054958552609b84529184205486855292529190915580821015613eb8576001600160a01b0384166000908152609b60205260408120613d57600184615513565b81548110613d7557634e487b7160e01b600052603260045260246000fd5b600091825260208083206006909202909101546001600160a01b038816808452609a835260408085208386528452808520889055908452609b9092529120909150613dc1600184615513565b81548110613ddf57634e487b7160e01b600052603260045260246000fd5b600091825260208083206001600160a01b0389168452609b9091526040909220600690910290910190613e13600186615513565b81548110613e3157634e487b7160e01b600052603260045260246000fd5b60009182526020909120825460069092020190815560018083015490820180546001600160a01b039283166001600160a01b03199182161790915560028085015490840180549190931691161790556003808301549082015560048083018054613e9e9284019190614ad9565b5060058281018054613eb39284019190614b19565b505050505b6001600160a01b0384166000908152609b60205260409020805480613eed57634e487b7160e01b600052603160045260246000fd5b6000828152602081206006600019909301928302018181556001810180546001600160a01b031990811690915560028201805490911690556003810182905590613f3a6004830182614b66565b613f48600583016000614b84565b5050905550505050565b6001600160a01b038416600090815260996020908152604080832060988352818420878552909252822054829190613f8c90600190615513565b81548110613faa57634e487b7160e01b600052603260045260246000fd5b60009182526020909120600990910201600601546001600160a01b03169050801561400b5734158015613fee5750836001600160a01b0316816001600160a01b0316145b801561400357506000836001600160801b0316115b915050613ab3565b341580159061402157506001600160a01b038416155b8015614003575050506001600160801b0316159392505050565b6001600160a01b03831660009081526099602090815260408083206098835281842086855290925282205482919061407590600190615513565b8154811061409357634e487b7160e01b600052603260045260246000fd5b60009182526020909120600260099092020101546001600160801b0316905080158015906140e65750806001600160801b0316341015806140e65750806001600160801b0316836001600160801b031610155b156140f5576001915050612cb8565b6000612710614105606482615441565b6001600160a01b0388166000908152609960209081526040808320609883528184208b85529092529091205463ffffffff929092169161414790600190615513565b8154811061416557634e487b7160e01b600052603260045260246000fd5b906000526020600020906009020160020160109054906101000a90046001600160801b031661419491906154c5565b61419e919061548b565b6001600160801b0316905080341015806141c1575080846001600160801b031610155b9695505050505050565b6001600160a01b03831660009081526099602090815260408083206098835281842086855290925282205461420290600190615513565b8154811061422057634e487b7160e01b600052603260045260246000fd5b60009182526020808320600360099093020191909101546001600160a01b038781168452609983526040808520609885528186208987529094528420549116935061426d90600190615513565b8154811061428b57634e487b7160e01b600052603260045260246000fd5b60009182526020808320600992909202909101600201546001600160a01b038816835260998252604080842060988452818520898652909352832054600160801b9091046001600160801b031693506142e690600190615513565b8154811061430457634e487b7160e01b600052603260045260246000fd5b60009182526020909120600660099092020101546001600160a01b0316905061432e8686866146d5565b6001600160a01b0383161561434857614348838383612a22565b505050505050565b6001600160a01b03821660008181526098602090815260408083208584528083528184208054958552609984529184205486855292529190915580821015614617576001600160a01b03841660009081526099602052604081206143b5600184615513565b815481106143d357634e487b7160e01b600052603260045260246000fd5b600091825260208083206009909202909101546001600160a01b03881680845260988352604080852083865284528085208890559084526099909252912090915061441f600184615513565b8154811061443d57634e487b7160e01b600052603260045260246000fd5b600091825260208083206001600160a01b038916845260999091526040909220600990910290910190614471600186615513565b8154811061448f57634e487b7160e01b600052603260045260246000fd5b60009182526020909120825460099092020190815560018083018054918301805463ffffffff19811663ffffffff909416938417825582546001600160401b036401000000009182900416026bffffffffffffffffffffffff199091169093179290921780835590546001600160801b03600160601b9182900481169091026fffffffffffffffffffffffffffffffff60601b19909216919091179091556002808401805491840180546001600160801b03191692841692831781559054600160801b9081900490931690920217905560038083015490820180546001600160a01b03199081166001600160a01b039384161790915560048085015490840180548316918416919091179055600580850154908401805483169184169190911790556006808501805491850180549384169290941691821784555460ff600160a01b91829004161515026001600160a81b031990921617179055600780830180546145fd9284019190614ad9565b50600882810180546146129284019190614b19565b505050505b6001600160a01b038416600090815260996020526040902080548061464c57634e487b7160e01b600052603160045260246000fd5b6000828152602081206009600019909301928302018181556001810180546001600160e01b0319169055600281018290556003810180546001600160a01b03199081169091556004820180548216905560058201805490911690556006810180546001600160a81b0319169055906146c76007830182614b66565b613f48600883016000614b84565b6001600160a01b03831660009081526099602090815260408083206098835281842086855290925282205461470c90600190615513565b8154811061472a57634e487b7160e01b600052603260045260246000fd5b60009182526020909120600990910201600601546001600160a01b0316905080156148a7576040516323b872dd60e01b81523360048201523060248201526001600160801b03831660448201526001600160a01b038216906323b872dd90606401602060405180830381600087803b1580156147a557600080fd5b505af11580156147b9573d6000803e3d6000fd5b505050506040513d601f19601f820116820180604052508101906147dd9190614f98565b6148145760405163fefc7c5560e01b81526001600160a01b03821660048201526001600160801b0383166024820152604401610540565b6001600160a01b0384166000908152609960209081526040808320609883528184208785529092529091205483919061484f90600190615513565b8154811061486d57634e487b7160e01b600052603260045260246000fd5b906000526020600020906009020160020160106101000a8154816001600160801b0302191690836001600160801b03160217905550614936565b6001600160a01b038416600090815260996020908152604080832060988352818420878552909252909120543491906148e290600190615513565b8154811061490057634e487b7160e01b600052603260045260246000fd5b906000526020600020906009020160020160106101000a8154816001600160801b0302191690836001600160801b031602179055505b6001600160a01b0384166000908152609960209081526040808320609883528184208785529092529091205433919061497190600190615513565b8154811061498f57634e487b7160e01b600052603260045260246000fd5b906000526020600020906009020160030160006101000a8154816001600160a01b0302191690836001600160a01b0316021790555050505050565b828054828255906000526020600020908101928215614a1f579160200282015b82811115614a1f57825182546001600160a01b0319166001600160a01b039091161782556020909201916001909101906149ea565b50614a2b929150614ba5565b5090565b82805482825590600052602060002090600701600890048101928215614a1f5791602002820160005b83821115614a9c57835183826101000a81548163ffffffff021916908363ffffffff1602179055509260200192600401602081600301049283019260010302614a58565b8015614acc5782816101000a81549063ffffffff0219169055600401602081600301049283019260010302614a9c565b5050614a2b929150614ba5565b828054828255906000526020600020908101928215614a1f5760005260206000209182015b82811115614a1f578254825591600101919060010190614afe565b82805482825590600052602060002090600701600890048101928215614a1f5760005260206000209160070160089004820182811115614a1f578254825591600101919060010190614afe565b50805460008255906000526020600020908101906126bd9190614ba5565b5080546000825560070160089004906000526020600020908101906126bd91905b5b80821115614a2b5760008155600101614ba6565b600082601f830112614bca578081fd5b81356020614bdf614bda83615406565b6153d6565b80838252828201915082860187848660051b8901011115614bfe578586fd5b855b85811015614c25578135614c13816155a7565b84529284019290840190600101614c00565b5090979650505050505050565b600082601f830112614c42578081fd5b81356020614c52614bda83615406565b80838252828201915082860187848660051b8901011115614c71578586fd5b855b85811015614c2557813563ffffffff81168114614c8e578788fd5b84529284019290840190600101614c73565b80356001600160801b0381168114614cb757600080fd5b919050565b600060208284031215614ccd578081fd5b8135612cb8816155a7565b600060208284031215614ce9578081fd5b8151612cb8816155a7565b60008060408385031215614d06578081fd5b8235614d11816155a7565b91506020830135614d21816155a7565b809150509250929050565b600080600080600060808688031215614d43578081fd5b8535614d4e816155a7565b94506020860135614d5e816155a7565b93506040860135925060608601356001600160401b0380821115614d80578283fd5b818801915088601f830112614d93578283fd5b813581811115614da1578384fd5b896020828501011115614db2578384fd5b9699959850939650602001949392505050565b60008060408385031215614dd7578182fd5b8235614de2816155a7565b946020939093013593505050565b60008060008060808587031215614e05578384fd5b8435614e10816155a7565b9350602085013592506040850135614e27816155a7565b9150614e3560608601614ca0565b905092959194509250565b60008060008060008060c08789031215614e58578081fd5b8635614e63816155a7565b9550602087013594506040870135614e7a816155a7565b9350614e8860608801614ca0565b925060808701356001600160401b0380821115614ea3578283fd5b614eaf8a838b01614bba565b935060a0890135915080821115614ec4578283fd5b50614ed189828a01614c32565b9150509295509295509295565b600080600080600080600080610100898b031215614efa578182fd5b8835614f05816155a7565b9750602089013596506040890135614f1c816155a7565b9550614f2a60608a01614ca0565b9450614f3860808a01614ca0565b935060a0890135925060c08901356001600160401b0380821115614f5a578384fd5b614f668c838d01614bba565b935060e08b0135915080821115614f7b578283fd5b50614f888b828c01614c32565b9150509295985092959890939650565b600060208284031215614fa9578081fd5b81518015158114612cb8578182fd5b600060208284031215614fc9578081fd5b5035919050565b60008060408385031215614fe2578182fd5b823591506020830135614d21816155a7565b6000815180845260208085019450808401835b8381101561502c5781516001600160a01b031687529582019590820190600101615007565b509495945050505050565b6000815180845260208085019450808401835b8381101561502c57815163ffffffff168752958201959082019060010161504a565b60006101a082518452602083015161508c602086018263ffffffff169052565b5060408301516150a760408601826001600160401b03169052565b5060608301516150c260608601826001600160801b03169052565b5060808301516150dd60808601826001600160801b03169052565b5060a08301516150f860a08601826001600160801b03169052565b5060c083015161511360c08601826001600160a01b03169052565b5060e083015161512e60e08601826001600160a01b03169052565b50610100838101516001600160a01b03908116918601919091526101208085015190911690850152610140808401511515908501526101608084015181860183905261517c83870182614ff4565b9250505061018080840151858303828701526141c18382615037565b805182526000602082015160018060a01b038082166020860152806040850151166040860152505060608201516060840152608082015160c060808501526151e360c0850182614ff4565b905060a083015184820360a08601526151fc8282615037565b95945050505050565b6001600160a01b039384168152919092166020820152604081019190915260600190565b6001600160a01b03929092168252602082015260400190565b6000602080830181845280855180835260408601915060408160051b8701019250838701855b8281101561529657603f1988860301845261528485835161506c565b94509285019290850190600101615268565b5092979650505050505050565b6000602080830181845280855180835260408601915060408160051b8701019250838701855b8281101561529657603f198886030184526152e5858351615198565b945092850192908501906001016152c9565b60208082526019908201527f556e72656769737465726564206e667420636f6e747261637400000000000000604082015260600190565b6020808252602b908201527f496e697469616c697a61626c653a20636f6e7472616374206973206e6f74206960408201526a6e697469616c697a696e6760a81b606082015260800190565b6020808252601f908201527f5265656e7472616e637947756172643a207265656e7472616e742063616c6c00604082015260600190565b602081526000612cb8602083018461506c565b602081526000612cb86020830184615198565b604051601f8201601f191681016001600160401b03811182821017156153fe576153fe615591565b604052919050565b60006001600160401b0382111561541f5761541f615591565b5060051b60200190565b6000821982111561543c5761543c615565565b500190565b600063ffffffff80831681851680830382111561546057615460615565565b01949350505050565b60006001600160401b0380831681851680830382111561546057615460615565565b60006001600160801b03808416806154a5576154a561557b565b92169190910492915050565b6000826154c0576154c061557b565b500490565b60006001600160801b03808316818516818304811182151516156154eb576154eb615565565b02949350505050565b600081600019048311821515161561550e5761550e615565565b500290565b60008282101561552557615525615565565b500390565b600060001982141561553e5761553e615565565b5060010190565b600060ff821660ff81141561555c5761555c615565565b60010192915050565b634e487b7160e01b600052601160045260246000fd5b634e487b7160e01b600052601260045260246000fd5b634e487b7160e01b600052604160045260246000fd5b6001600160a01b03811681146126bd57600080fdfea2646970667358221220bc0bd511da2285aba7775ce38e62eab477cb77bebdc1ec4e695463df667d825164736f6c63430008040033",
  "linkReferences": {},
  "deployedLinkReferences": {}
}