{
  "_format": "hh-sol-artifact-1",
  "contractName": "NFTEngineV1",
  "sourceName": "contracts/engine/NFTEngineV1.sol",
  "abi": [
    {
      "inputs": [
        {
          "internalType": "address",
          "name": "nftContract",
          "type": "address"
        },
        {
          "internalType": "uint256",
          "name": "tokenId",
          "type": "uint256"
        }
      ],
      "name": "NFTEngineAlreadySalingToken",
      "type": "error"
    },
    {
      "inputs": [
        {
          "internalType": "address",
          "name": "nftContract",
          "type": "address"
        },
        {
          "internalType": "uint256",
          "name": "tokenId",
          "type": "uint256"
        }
      ],
      "name": "NFTEngineAuctionFinished",
      "type": "error"
    },
    {
      "inputs": [
        {
          "internalType": "address",
          "name": "nftContract",
          "type": "address"
        },
        {
          "internalType": "uint256",
          "name": "tokenId",
          "type": "uint256"
        }
      ],
      "name": "NFTEngineAuctionSellerCant",
      "type": "error"
    },
    {
      "inputs": [
        {
          "internalType": "address",
          "name": "nftContract",
          "type": "address"
        },
        {
          "internalType": "uint256",
          "name": "tokenId",
          "type": "uint256"
        }
      ],
      "name": "NFTEngineDidNotBid",
      "type": "error"
    },
    {
      "inputs": [
        {
          "internalType": "address",
          "name": "erc20token",
          "type": "address"
        },
        {
          "internalType": "uint256",
          "name": "amount",
          "type": "uint256"
        }
      ],
      "name": "NFTEngineERC20TransferFailed",
      "type": "error"
    },
    {
      "inputs": [],
      "name": "NFTEngineFeeRatesExceed",
      "type": "error"
    },
    {
      "inputs": [
        {
          "internalType": "uint256",
          "name": "minPrice",
          "type": "uint256"
        },
        {
          "internalType": "uint256",
          "name": "buyNowPrice",
          "type": "uint256"
        }
      ],
      "name": "NFTEngineInvalidMinPrice",
      "type": "error"
    },
    {
      "inputs": [
        {
          "internalType": "uint256",
          "name": "price",
          "type": "uint256"
        }
      ],
      "name": "NFTEngineInvalidPrice",
      "type": "error"
    },
    {
      "inputs": [
        {
          "internalType": "address",
          "name": "nftContract",
          "type": "address"
        },
        {
          "internalType": "uint256",
          "name": "tokenId",
          "type": "uint256"
        }
      ],
      "name": "NFTEngineNotAcceptablePayment",
      "type": "error"
    },
    {
      "inputs": [
        {
          "internalType": "address",
          "name": "nftContract",
          "type": "address"
        },
        {
          "internalType": "uint256",
          "name": "tokenId",
          "type": "uint256"
        }
      ],
      "name": "NFTEngineNotApprovedToken",
      "type": "error"
    },
    {
      "inputs": [
        {
          "internalType": "address",
          "name": "seller",
          "type": "address"
        }
      ],
      "name": "NFTEngineNotAuctionSeller",
      "type": "error"
    },
    {
      "inputs": [
        {
          "internalType": "address",
          "name": "nftContract",
          "type": "address"
        },
        {
          "internalType": "uint256",
          "name": "tokenId",
          "type": "uint256"
        }
      ],
      "name": "NFTEngineNotHighestBidder",
      "type": "error"
    },
    {
      "inputs": [
        {
          "internalType": "uint256",
          "name": "recipients",
          "type": "uint256"
        },
        {
          "internalType": "uint256",
          "name": "rates",
          "type": "uint256"
        }
      ],
      "name": "NFTEngineNotMatchedLength",
      "type": "error"
    },
    {
      "inputs": [
        {
          "internalType": "address",
          "name": "nftContract",
          "type": "address"
        },
        {
          "internalType": "uint256",
          "name": "tokenId",
          "type": "uint256"
        }
      ],
      "name": "NFTEngineNotSalingToken",
      "type": "error"
    },
    {
      "inputs": [
        {
          "internalType": "address",
          "name": "nftContract",
          "type": "address"
        },
        {
          "internalType": "uint256",
          "name": "tokenId",
          "type": "uint256"
        }
      ],
      "name": "NFTEngineNotTokenOwner",
      "type": "error"
    },
    {
      "inputs": [
        {
          "internalType": "address",
          "name": "nftContract",
          "type": "address"
        },
        {
          "internalType": "uint256",
          "name": "tokenId",
          "type": "uint256"
        }
      ],
      "name": "NFTEngineNotWhitelistedBuyer",
      "type": "error"
    },
    {
      "inputs": [
        {
          "internalType": "address",
          "name": "nftContract",
          "type": "address"
        },
        {
          "internalType": "uint256",
          "name": "tokenId",
          "type": "uint256"
        }
      ],
      "name": "NFTEngineTokenOwner",
      "type": "error"
    },
    {
      "inputs": [
        {
          "internalType": "address",
          "name": "nftContract",
          "type": "address"
        },
        {
          "internalType": "uint256",
          "name": "tokenId",
          "type": "uint256"
        }
      ],
      "name": "NFTEngineTokenTransferFailed",
      "type": "error"
    },
    {
      "anonymous": false,
      "inputs": [
        {
          "indexed": false,
          "internalType": "uint8",
          "name": "version",
          "type": "uint8"
        }
      ],
      "name": "Initialized",
      "type": "event"
    },
    {
      "anonymous": false,
      "inputs": [
        {
          "indexed": true,
          "internalType": "address",
          "name": "nftContract",
          "type": "address"
        },
        {
          "indexed": false,
          "internalType": "uint256",
          "name": "tokenId",
          "type": "uint256"
        },
        {
          "indexed": true,
          "internalType": "address",
          "name": "bidder",
          "type": "address"
        },
        {
          "indexed": false,
          "internalType": "uint256",
          "name": "ethAmount",
          "type": "uint256"
        },
        {
          "indexed": true,
          "internalType": "address",
          "name": "erc20Token",
          "type": "address"
        },
        {
          "indexed": false,
          "internalType": "uint256",
          "name": "tokenAmount",
          "type": "uint256"
        }
      ],
      "name": "NFTAuctionBidMade",
      "type": "event"
    },
    {
      "anonymous": false,
      "inputs": [
        {
          "indexed": true,
          "internalType": "address",
          "name": "nftContract",
          "type": "address"
        },
        {
          "indexed": false,
          "internalType": "uint256",
          "name": "tokenId",
          "type": "uint256"
        },
        {
          "indexed": true,
          "internalType": "address",
          "name": "highestBidder",
          "type": "address"
        }
      ],
      "name": "NFTAuctionBidWithdrawn",
      "type": "event"
    },
    {
      "anonymous": false,
      "inputs": [
        {
          "indexed": true,
          "internalType": "address",
          "name": "nftContract",
          "type": "address"
        },
        {
          "indexed": false,
          "internalType": "uint256",
          "name": "tokenId",
          "type": "uint256"
        },
        {
          "indexed": false,
          "internalType": "uint128",
          "name": "newBuyNowPrice",
          "type": "uint128"
        }
      ],
      "name": "NFTAuctionBuyNowPriceUpdated",
      "type": "event"
    },
    {
      "anonymous": false,
      "inputs": [
        {
          "indexed": true,
          "internalType": "address",
          "name": "nftContract",
          "type": "address"
        },
        {
          "indexed": false,
          "internalType": "uint256",
          "name": "tokenId",
          "type": "uint256"
        },
        {
          "indexed": true,
          "internalType": "address",
          "name": "seller",
          "type": "address"
        },
        {
          "indexed": true,
          "internalType": "address",
          "name": "erc20Token",
          "type": "address"
        },
        {
          "indexed": false,
          "internalType": "uint128",
          "name": "minPrice",
          "type": "uint128"
        },
        {
          "indexed": false,
          "internalType": "uint128",
          "name": "buyNowPrice",
          "type": "uint128"
        },
        {
          "indexed": false,
          "internalType": "uint32",
          "name": "auctionBidPeriod",
          "type": "uint32"
        },
        {
          "indexed": false,
          "internalType": "uint32",
          "name": "bidIncRate",
          "type": "uint32"
        }
      ],
      "name": "NFTAuctionCreated",
      "type": "event"
    },
    {
      "anonymous": false,
      "inputs": [
        {
          "indexed": true,
          "internalType": "address",
          "name": "nftContract",
          "type": "address"
        },
        {
          "indexed": false,
          "internalType": "uint256",
          "name": "tokenId",
          "type": "uint256"
        }
      ],
      "name": "NFTAuctionHighestBidTaken",
      "type": "event"
    },
    {
      "anonymous": false,
      "inputs": [
        {
          "indexed": true,
          "internalType": "address",
          "name": "nftContract",
          "type": "address"
        },
        {
          "indexed": false,
          "internalType": "uint256",
          "name": "tokenId",
          "type": "uint256"
        },
        {
          "indexed": false,
          "internalType": "uint256",
          "name": "newMinPrice",
          "type": "uint256"
        }
      ],
      "name": "NFTAuctionMinPriceUpdated",
      "type": "event"
    },
    {
      "anonymous": false,
      "inputs": [
        {
          "indexed": true,
          "internalType": "address",
          "name": "nftContract",
          "type": "address"
        },
        {
          "indexed": false,
          "internalType": "uint256",
          "name": "tokenId",
          "type": "uint256"
        },
        {
          "indexed": true,
          "internalType": "address",
          "name": "seller",
          "type": "address"
        },
        {
          "indexed": false,
          "internalType": "uint128",
          "name": "highestBid",
          "type": "uint128"
        },
        {
          "indexed": true,
          "internalType": "address",
          "name": "highestBidder",
          "type": "address"
        },
        {
          "indexed": false,
          "internalType": "address",
          "name": "buyer",
          "type": "address"
        }
      ],
      "name": "NFTAuctionPaid",
      "type": "event"
    },
    {
      "anonymous": false,
      "inputs": [
        {
          "indexed": true,
          "internalType": "address",
          "name": "nftContract",
          "type": "address"
        },
        {
          "indexed": false,
          "internalType": "uint256",
          "name": "tokenId",
          "type": "uint256"
        },
        {
          "indexed": true,
          "internalType": "address",
          "name": "settler",
          "type": "address"
        }
      ],
      "name": "NFTAuctionSettled",
      "type": "event"
    },
    {
      "anonymous": false,
      "inputs": [
        {
          "indexed": true,
          "internalType": "address",
          "name": "nftContract",
          "type": "address"
        },
        {
          "indexed": false,
          "internalType": "uint256",
          "name": "tokenId",
          "type": "uint256"
        },
        {
          "indexed": false,
          "internalType": "uint64",
          "name": "auctionEndPeriod",
          "type": "uint64"
        }
      ],
      "name": "NFTAuctionUpdated",
      "type": "event"
    },
    {
      "anonymous": false,
      "inputs": [
        {
          "indexed": true,
          "internalType": "address",
          "name": "nftContract",
          "type": "address"
        },
        {
          "indexed": false,
          "internalType": "uint256",
          "name": "tokenId",
          "type": "uint256"
        }
      ],
      "name": "NFTAuctionWithdrawn",
      "type": "event"
    },
    {
      "anonymous": false,
      "inputs": [
        {
          "indexed": true,
          "internalType": "address",
          "name": "nftContract",
          "type": "address"
        },
        {
          "indexed": false,
          "internalType": "uint256",
          "name": "tokenId",
          "type": "uint256"
        },
        {
          "indexed": true,
          "internalType": "address",
          "name": "to",
          "type": "address"
        }
      ],
      "name": "NFTTokenSaleClosed",
      "type": "event"
    },
    {
      "anonymous": false,
      "inputs": [
        {
          "indexed": true,
          "internalType": "address",
          "name": "nftContract",
          "type": "address"
        },
        {
          "indexed": false,
          "internalType": "uint256",
          "name": "tokenId",
          "type": "uint256"
        },
        {
          "indexed": true,
          "internalType": "address",
          "name": "from",
          "type": "address"
        },
        {
          "indexed": true,
          "internalType": "address",
          "name": "erc20Token",
          "type": "address"
        },
        {
          "indexed": false,
          "internalType": "uint256",
          "name": "price",
          "type": "uint256"
        }
      ],
      "name": "NFTTokenSaleCreated",
      "type": "event"
    },
    {
      "anonymous": false,
      "inputs": [
        {
          "indexed": true,
          "internalType": "address",
          "name": "nftContract",
          "type": "address"
        },
        {
          "indexed": false,
          "internalType": "uint256",
          "name": "tokenId",
          "type": "uint256"
        }
      ],
      "name": "NFTTokenSaleWithdrawn",
      "type": "event"
    },
    {
      "anonymous": false,
      "inputs": [
        {
          "indexed": true,
          "internalType": "address",
          "name": "previousOwner",
          "type": "address"
        },
        {
          "indexed": true,
          "internalType": "address",
          "name": "newOwner",
          "type": "address"
        }
      ],
      "name": "OwnershipTransferred",
      "type": "event"
    },
    {
      "inputs": [
        {
          "internalType": "address",
          "name": "nftContract",
          "type": "address"
        },
        {
          "internalType": "uint256",
          "name": "tokenId",
          "type": "uint256"
        }
      ],
      "name": "buyNFT",
      "outputs": [],
      "stateMutability": "payable",
      "type": "function"
    },
    {
      "inputs": [
        {
          "internalType": "address",
          "name": "newTreasury",
          "type": "address"
        }
      ],
      "name": "changeTreasury",
      "outputs": [],
      "stateMutability": "nonpayable",
      "type": "function"
    },
    {
      "inputs": [
        {
          "internalType": "address",
          "name": "nftContract",
          "type": "address"
        },
        {
          "internalType": "uint256",
          "name": "tokenId",
          "type": "uint256"
        },
        {
          "internalType": "address",
          "name": "erc20Token",
          "type": "address"
        },
        {
          "internalType": "uint128",
          "name": "minPrice",
          "type": "uint128"
        },
        {
          "internalType": "uint128",
          "name": "buyNowPrice",
          "type": "uint128"
        },
        {
          "internalType": "address[]",
          "name": "feeRecipients",
          "type": "address[]"
        },
        {
          "internalType": "uint32[]",
          "name": "feeRates",
          "type": "uint32[]"
        }
      ],
      "name": "createAuction",
      "outputs": [],
      "stateMutability": "nonpayable",
      "type": "function"
    },
    {
      "inputs": [
        {
          "internalType": "address",
          "name": "nftContract",
          "type": "address"
        },
        {
          "internalType": "uint256[]",
          "name": "tokenIds",
          "type": "uint256[]"
        },
        {
          "internalType": "address",
          "name": "erc20Token",
          "type": "address"
        },
        {
          "internalType": "uint128",
          "name": "sellPrice",
          "type": "uint128"
        },
        {
          "internalType": "address[]",
          "name": "feeRecipients",
          "type": "address[]"
        },
        {
          "internalType": "uint32[]",
          "name": "feeRates",
          "type": "uint32[]"
        }
      ],
      "name": "createBatchSale",
      "outputs": [],
      "stateMutability": "nonpayable",
      "type": "function"
    },
    {
      "inputs": [
        {
          "internalType": "address",
          "name": "nftContract",
          "type": "address"
        },
        {
          "internalType": "uint256",
          "name": "tokenId",
          "type": "uint256"
        },
        {
          "internalType": "address",
          "name": "erc20Token",
          "type": "address"
        },
        {
          "internalType": "uint128",
          "name": "sellPrice",
          "type": "uint128"
        },
        {
          "internalType": "address[]",
          "name": "feeRecipients",
          "type": "address[]"
        },
        {
          "internalType": "uint32[]",
          "name": "feeRates",
          "type": "uint32[]"
        }
      ],
      "name": "createSale",
      "outputs": [],
      "stateMutability": "nonpayable",
      "type": "function"
    },
    {
      "inputs": [],
      "name": "defaultAuctionBidPeriod",
      "outputs": [
        {
          "internalType": "uint32",
          "name": "",
          "type": "uint32"
        }
      ],
      "stateMutability": "view",
      "type": "function"
    },
    {
      "inputs": [],
      "name": "defaultBidIncRate",
      "outputs": [
        {
          "internalType": "uint32",
          "name": "",
          "type": "uint32"
        }
      ],
      "stateMutability": "view",
      "type": "function"
    },
    {
      "inputs": [],
      "name": "feeToTreasury",
      "outputs": [
        {
          "internalType": "uint256",
          "name": "",
          "type": "uint256"
        }
      ],
      "stateMutability": "view",
      "type": "function"
    },
    {
      "inputs": [
        {
          "internalType": "uint256",
          "name": "nftType",
          "type": "uint256"
        }
      ],
      "name": "getNFTContract",
      "outputs": [
        {
          "internalType": "address",
          "name": "",
          "type": "address"
        }
      ],
      "stateMutability": "view",
      "type": "function"
    },
    {
      "inputs": [
        {
          "internalType": "address",
          "name": "nftContract",
          "type": "address"
        },
        {
          "internalType": "uint256",
          "name": "tokenId",
          "type": "uint256"
        }
      ],
      "name": "getTokenAuctionInfo",
      "outputs": [
        {
          "components": [
            {
              "internalType": "uint32",
              "name": "bidIncRate",
              "type": "uint32"
            },
            {
              "internalType": "uint32",
              "name": "bidPeriod",
              "type": "uint32"
            },
            {
              "internalType": "uint64",
              "name": "endTime",
              "type": "uint64"
            },
            {
              "internalType": "uint128",
              "name": "minPrice",
              "type": "uint128"
            },
            {
              "internalType": "uint128",
              "name": "buyNowPrice",
              "type": "uint128"
            },
            {
              "internalType": "uint128",
              "name": "highestBid",
              "type": "uint128"
            },
            {
              "internalType": "address",
              "name": "highestBidder",
              "type": "address"
            },
            {
              "internalType": "address",
              "name": "seller",
              "type": "address"
            },
            {
              "internalType": "address",
              "name": "whitelistedBuyer",
              "type": "address"
            },
            {
              "internalType": "address",
              "name": "recipient",
              "type": "address"
            },
            {
              "internalType": "address",
              "name": "erc20Token",
              "type": "address"
            },
            {
              "internalType": "bool",
              "name": "isOnSale",
              "type": "bool"
            },
            {
              "internalType": "address[]",
              "name": "feeRecipients",
              "type": "address[]"
            },
            {
              "internalType": "uint32[]",
              "name": "feeRates",
              "type": "uint32[]"
            }
          ],
          "internalType": "struct LTypes.AuctionNFT",
          "name": "",
          "type": "tuple"
        }
      ],
      "stateMutability": "view",
      "type": "function"
    },
    {
      "inputs": [
        {
          "internalType": "address",
          "name": "nftContract",
          "type": "address"
        }
      ],
      "name": "getTokenIdsOnAuction",
      "outputs": [
        {
          "internalType": "uint256[]",
          "name": "",
          "type": "uint256[]"
        }
      ],
      "stateMutability": "view",
      "type": "function"
    },
    {
      "inputs": [
        {
          "internalType": "address",
          "name": "nftContract",
          "type": "address"
        },
        {
          "internalType": "uint256",
          "name": "pageBegin",
          "type": "uint256"
        },
        {
          "internalType": "uint256",
          "name": "pageSize",
          "type": "uint256"
        }
      ],
      "name": "getTokenInfosOnAuction",
      "outputs": [
        {
          "components": [
            {
              "internalType": "uint32",
              "name": "bidIncRate",
              "type": "uint32"
            },
            {
              "internalType": "uint32",
              "name": "bidPeriod",
              "type": "uint32"
            },
            {
              "internalType": "uint64",
              "name": "endTime",
              "type": "uint64"
            },
            {
              "internalType": "uint128",
              "name": "minPrice",
              "type": "uint128"
            },
            {
              "internalType": "uint128",
              "name": "buyNowPrice",
              "type": "uint128"
            },
            {
              "internalType": "uint128",
              "name": "highestBid",
              "type": "uint128"
            },
            {
              "internalType": "address",
              "name": "highestBidder",
              "type": "address"
            },
            {
              "internalType": "address",
              "name": "seller",
              "type": "address"
            },
            {
              "internalType": "address",
              "name": "whitelistedBuyer",
              "type": "address"
            },
            {
              "internalType": "address",
              "name": "recipient",
              "type": "address"
            },
            {
              "internalType": "address",
              "name": "erc20Token",
              "type": "address"
            },
            {
              "internalType": "bool",
              "name": "isOnSale",
              "type": "bool"
            },
            {
              "internalType": "address[]",
              "name": "feeRecipients",
              "type": "address[]"
            },
            {
              "internalType": "uint32[]",
              "name": "feeRates",
              "type": "uint32[]"
            }
          ],
          "internalType": "struct LTypes.AuctionNFT[]",
          "name": "tokenInfos",
          "type": "tuple[]"
        }
      ],
      "stateMutability": "view",
      "type": "function"
    },
    {
      "inputs": [
        {
          "internalType": "address",
          "name": "nftContract",
          "type": "address"
        },
        {
          "internalType": "uint256",
          "name": "pageBegin",
          "type": "uint256"
        },
        {
          "internalType": "uint256",
          "name": "pageSize",
          "type": "uint256"
        }
      ],
      "name": "getTokenInfosOnSale",
      "outputs": [
        {
          "components": [
            {
              "internalType": "address",
              "name": "erc20Token",
              "type": "address"
            },
            {
              "internalType": "address",
              "name": "seller",
              "type": "address"
            },
            {
              "internalType": "uint256",
              "name": "price",
              "type": "uint256"
            },
            {
              "internalType": "address[]",
              "name": "feeRecipients",
              "type": "address[]"
            },
            {
              "internalType": "uint32[]",
              "name": "feeRates",
              "type": "uint32[]"
            }
          ],
          "internalType": "struct LTypes.SellNFT[]",
          "name": "tokenInfos",
          "type": "tuple[]"
        }
      ],
      "stateMutability": "view",
      "type": "function"
    },
    {
      "inputs": [
        {
          "internalType": "address",
          "name": "nftContract",
          "type": "address"
        },
        {
          "internalType": "uint256",
          "name": "tokenId",
          "type": "uint256"
        }
      ],
      "name": "getTokenSaleInfo",
      "outputs": [
        {
          "components": [
            {
              "internalType": "address",
              "name": "erc20Token",
              "type": "address"
            },
            {
              "internalType": "address",
              "name": "seller",
              "type": "address"
            },
            {
              "internalType": "uint256",
              "name": "price",
              "type": "uint256"
            },
            {
              "internalType": "address[]",
              "name": "feeRecipients",
              "type": "address[]"
            },
            {
              "internalType": "uint32[]",
              "name": "feeRates",
              "type": "uint32[]"
            }
          ],
          "internalType": "struct LTypes.SellNFT",
          "name": "",
          "type": "tuple"
        }
      ],
      "stateMutability": "view",
      "type": "function"
    },
    {
      "inputs": [
        {
          "internalType": "address",
          "name": "nftContract",
          "type": "address"
        }
      ],
      "name": "getTokensIdsOnSale",
      "outputs": [
        {
          "internalType": "uint256[]",
          "name": "",
          "type": "uint256[]"
        }
      ],
      "stateMutability": "view",
      "type": "function"
    },
    {
      "inputs": [
        {
          "internalType": "address",
          "name": "admin",
          "type": "address"
        },
        {
          "internalType": "address",
          "name": "treasury",
          "type": "address"
        }
      ],
      "name": "initialize",
      "outputs": [],
      "stateMutability": "nonpayable",
      "type": "function"
    },
    {
      "inputs": [
        {
          "internalType": "address",
          "name": "nftContract",
          "type": "address"
        },
        {
          "internalType": "uint256",
          "name": "tokenId",
          "type": "uint256"
        },
        {
          "internalType": "address",
          "name": "erc20Token",
          "type": "address"
        },
        {
          "internalType": "uint128",
          "name": "amount",
          "type": "uint128"
        }
      ],
      "name": "makeBid",
      "outputs": [],
      "stateMutability": "payable",
      "type": "function"
    },
    {
      "inputs": [],
      "name": "maxMinPriceRate",
      "outputs": [
        {
          "internalType": "uint32",
          "name": "",
          "type": "uint32"
        }
      ],
      "stateMutability": "view",
      "type": "function"
    },
    {
      "inputs": [],
      "name": "minSettableIncRate",
      "outputs": [
        {
          "internalType": "uint32",
          "name": "",
          "type": "uint32"
        }
      ],
      "stateMutability": "view",
      "type": "function"
    },
    {
      "inputs": [
        {
          "internalType": "address",
          "name": "erc20",
          "type": "address"
        },
        {
          "internalType": "uint256",
          "name": "price",
          "type": "uint256"
        },
        {
          "internalType": "uint256",
          "name": "royalty",
          "type": "uint256"
        },
        {
          "internalType": "string",
          "name": "uri",
          "type": "string"
        }
      ],
      "name": "mintNFT",
      "outputs": [],
      "stateMutability": "nonpayable",
      "type": "function"
    },
    {
      "inputs": [
        {
          "internalType": "address",
          "name": "nftContract",
          "type": "address"
        },
        {
          "internalType": "uint256",
          "name": "tokenId",
          "type": "uint256"
        }
      ],
      "name": "nftOwner",
      "outputs": [
        {
          "internalType": "address",
          "name": "",
          "type": "address"
        }
      ],
      "stateMutability": "view",
      "type": "function"
    },
    {
      "inputs": [
        {
          "internalType": "address",
          "name": "operator",
          "type": "address"
        },
        {
          "internalType": "address",
          "name": "from",
          "type": "address"
        },
        {
          "internalType": "uint256",
          "name": "tokenId",
          "type": "uint256"
        },
        {
          "internalType": "bytes",
          "name": "data",
          "type": "bytes"
        }
      ],
      "name": "onERC721Received",
      "outputs": [
        {
          "internalType": "bytes4",
          "name": "",
          "type": "bytes4"
        }
      ],
      "stateMutability": "pure",
      "type": "function"
    },
    {
      "inputs": [],
      "name": "owner",
      "outputs": [
        {
          "internalType": "address",
          "name": "",
          "type": "address"
        }
      ],
      "stateMutability": "view",
      "type": "function"
    },
    {
      "inputs": [],
      "name": "renounceOwnership",
      "outputs": [],
      "stateMutability": "nonpayable",
      "type": "function"
    },
    {
      "inputs": [
        {
          "internalType": "address",
          "name": "customNFT",
          "type": "address"
        },
        {
          "internalType": "address",
          "name": "fractionalNFT",
          "type": "address"
        },
        {
          "internalType": "address",
          "name": "membershipNFT",
          "type": "address"
        },
        {
          "internalType": "address",
          "name": "owndNFT",
          "type": "address"
        }
      ],
      "name": "setNFTContracts",
      "outputs": [],
      "stateMutability": "nonpayable",
      "type": "function"
    },
    {
      "inputs": [
        {
          "internalType": "address",
          "name": "nftContract",
          "type": "address"
        },
        {
          "internalType": "uint256",
          "name": "tokenId",
          "type": "uint256"
        }
      ],
      "name": "settleAuction",
      "outputs": [],
      "stateMutability": "nonpayable",
      "type": "function"
    },
    {
      "inputs": [
        {
          "internalType": "address",
          "name": "nftContract",
          "type": "address"
        },
        {
          "internalType": "uint256",
          "name": "tokenId",
          "type": "uint256"
        }
      ],
      "name": "takeHighestBid",
      "outputs": [],
      "stateMutability": "nonpayable",
      "type": "function"
    },
    {
      "inputs": [
        {
          "internalType": "address",
          "name": "newOwner",
          "type": "address"
        }
      ],
      "name": "transferOwnership",
      "outputs": [],
      "stateMutability": "nonpayable",
      "type": "function"
    },
    {
      "inputs": [
        {
          "internalType": "address",
          "name": "nftContract",
          "type": "address"
        },
        {
          "internalType": "uint256",
          "name": "tokenId",
          "type": "uint256"
        }
      ],
      "name": "withdrawAuction",
      "outputs": [],
      "stateMutability": "nonpayable",
      "type": "function"
    },
    {
      "inputs": [
        {
          "internalType": "address",
          "name": "nftContract",
          "type": "address"
        },
        {
          "internalType": "uint256",
          "name": "tokenId",
          "type": "uint256"
        }
      ],
      "name": "withdrawBid",
      "outputs": [],
      "stateMutability": "nonpayable",
      "type": "function"
    },
    {
      "inputs": [
        {
          "internalType": "address",
          "name": "nftContract",
          "type": "address"
        },
        {
          "internalType": "uint256",
          "name": "tokenId",
          "type": "uint256"
        }
      ],
      "name": "withdrawSale",
      "outputs": [],
      "stateMutability": "nonpayable",
      "type": "function"
    }
  ],
  "bytecode": "0x608060405234801561001057600080fd5b50614dc7806100206000396000f3fe6080604052600436106101d85760003560e01c8063880d5cc511610102578063c3f5053411610095578063ed570de511610064578063ed570de514610569578063eebe274e14610589578063f2fde38b146105b6578063f5743810146105d657600080fd5b8063c3f50534146104fc578063c697a82c1461051c578063ceb8982014610388578063ebea60251461054957600080fd5b8063b14f2a39116100d1578063b14f2a3914610486578063b603c7d0146104a6578063c24d5a5c146104c6578063c2ab8766146104d957600080fd5b8063880d5cc51461041f57806388b98b12146104355780638da5cb5b14610455578063a82ba76f1461047357600080fd5b80635138b08c1161017a578063715018a611610149578063715018a61461039d578063765d7b20146103b25780637af255ff146103df578063848e5c77146103ff57600080fd5b80635138b08c1461031a578063523dd5331461033a578063655a2b1a1461036757806369710d0b1461038857600080fd5b80633562f1cf116101b65780633562f1cf14610275578063398d8746146102ad578063485cc955146102da5780634cb8ef5b146102fa57600080fd5b806303382f22146101dd578063150b7a02146101ff578063186779d514610249575b600080fd5b3480156101e957600080fd5b506101fd6101f8366004614576565b6105f6565b005b34801561020b57600080fd5b5061022b61021a366004614350565b630a85bd0160e11b95945050505050565b6040516001600160e01b031990911681526020015b60405180910390f35b34801561025557600080fd5b506102606201518081565b60405163ffffffff9091168152602001610240565b34801561028157600080fd5b506102956102903660046147bd565b610825565b6040516001600160a01b039091168152602001610240565b3480156102b957600080fd5b506102cd6102c83660046144fb565b6108a9565b6040516102409190614ba5565b3480156102e657600080fd5b506101fd6102f53660046142bd565b610a7e565b34801561030657600080fd5b506101fd6103153660046144fb565b610be3565b34801561032657600080fd5b506101fd6103353660046144fb565b610cfb565b34801561034657600080fd5b5061035a610355366004614285565b610e58565b6040516102409190614adf565b34801561037357600080fd5b506101fd6103823660046146eb565b50505050565b34801561039457600080fd5b50610260606481565b3480156103a957600080fd5b506101fd610ec4565b3480156103be57600080fd5b506103d26103cd3660046146b7565b610ed8565b6040516102409190614a2a565b3480156103eb57600080fd5b506101fd6103fa3660046142f5565b611226565b34801561040b57600080fd5b506101fd61041a3660046144fb565b61134c565b34801561042b57600080fd5b50610260611f4081565b34801561044157600080fd5b506101fd6104503660046144fb565b61147d565b34801561046157600080fd5b506033546001600160a01b0316610295565b6101fd6104813660046144fb565b611660565b34801561049257600080fd5b506101fd6104a1366004614285565b611b91565b3480156104b257600080fd5b506102956104c13660046144fb565b611bce565b6101fd6104d4366004614526565b611c49565b3480156104e557600080fd5b506104ee600581565b604051908152602001610240565b34801561050857600080fd5b506101fd610517366004614607565b611d43565b34801561052857600080fd5b5061053c6105373660046144fb565b611f1e565b6040516102409190614bb8565b34801561055557600080fd5b506101fd6105643660046144fb565b612034565b34801561057557600080fd5b506101fd6105843660046143e9565b612152565b34801561059557600080fd5b506105a96105a43660046146b7565b6123a9565b6040516102409190614a8b565b3480156105c257600080fd5b506101fd6105d1366004614285565b612656565b3480156105e257600080fd5b5061035a6105f1366004614285565b6126cf565b600260655414156106225760405162461bcd60e51b815260040161061990614b6e565b60405180910390fd5b60026065556040516331a9108f60e11b815260048101869052869086906001600160a01b03831690636352211e9060240160206040518083038186803b15801561066b57600080fd5b505afa15801561067f573d6000803e3d6000fd5b505050506040513d601f19601f820116820180604052508101906106a391906142a1565b6001600160a01b0316336001600160a01b0316146106d8578181604051631464bc1b60e11b8152600401610619929190614a11565b60405163020604bf60e21b815260048101889052889088906001600160a01b0383169063081812fc9060240160206040518083038186803b15801561071c57600080fd5b505afa158015610730573d6000803e3d6000fd5b505050506040513d601f19601f8201168201806040525081019061075491906142a1565b6001600160a01b0316306001600160a01b031614610789578181604051631d6d11e160e31b8152600401610619929190614a11565b6001600160801b038716806107b457604051630b707dc560e21b815260048101829052602401610619565b6001600160a01b03808c166000908152609a602090815260408083208e84529091529020600101548c918c9116156108035781816040516370b8c95f60e01b8152600401610619929190614a11565b6108118d8d8d8d8d8d612739565b505060016065555050505050505050505050565b60006097600083600381111561084b57634e487b7160e01b600052602160045260246000fd5b600381111561086a57634e487b7160e01b600052602160045260246000fd5b600381111561088957634e487b7160e01b600052602160045260246000fd5b81526020810191909152604001600020546001600160a01b031692915050565b6108b1613f5e565b6001600160a01b03838116600090815260986020908152604080832086845282529182902082516101c081018452815463ffffffff808216835264010000000082041682850152600160401b81046001600160401b031682860152600160801b908190046001600160801b03908116606084015260018401548082166080850152919091041660a08201526002820154851660c08201526003820154851660e082015260048201548516610100820152600582015485166101208201526006820154948516610140820152600160a01b90940460ff16151561016085015260078101805484518185028101850190955280855291936101808601939092908301828280156109e857602002820191906000526020600020905b81546001600160a01b031681526001909101906020018083116109ca575b5050505050815260200160088201805480602002602001604051908101604052809291908181526020018280548015610a6c57602002820191906000526020600020906000905b82829054906101000a900463ffffffff1663ffffffff1681526020019060040190602082600301049283019260010382029150808411610a2f5790505b50505050508152505090505b92915050565b600054610100900460ff1615808015610a9e5750600054600160ff909116105b80610ab85750303b158015610ab8575060005460ff166001145b610b1b5760405162461bcd60e51b815260206004820152602e60248201527f496e697469616c697a61626c653a20636f6e747261637420697320616c72656160448201526d191e481a5b9a5d1a585b1a5e995960921b6064820152608401610619565b6000805460ff191660011790558015610b3e576000805461ff0019166101001790555b6001600160a01b038316610b5157600080fd5b6001600160a01b038216610b6457600080fd5b610b6c61285e565b610b7461288d565b609d80546001600160a01b0319166001600160a01b038416179055610b9883612656565b8015610bde576000805461ff0019169055604051600181527f7f26b83ff96e1f2b6a682f133852f6798a09c465da95921460cefb38474024989060200160405180910390a15b505050565b60026065541415610c065760405162461bcd60e51b815260040161061990614b6e565b600260658190556001600160a01b03808416600090815260986020908152604080832086845290915290209091015416338114610c5a578282604051638dcad11b60e01b8152600401610619929190614a11565b6001600160a01b0383166000908152609860209081526040808320858452909152902060010154600160801b90046001600160801b0316610c9b84846128bc565b610cb0848484846001600160801b0316612914565b60405183815233906001600160a01b038616907f1c67fba99d945a891489857a6f588badd10a0834d848de5574580cea4974ff5b9060200160405180910390a3505060016065555050565b60026065541415610d1e5760405162461bcd60e51b815260040161061990614b6e565b60026065556040516331a9108f60e11b815260048101829052829082906001600160a01b03831690636352211e9060240160206040518083038186803b158015610d6757600080fd5b505afa158015610d7b573d6000803e3d6000fd5b505050506040513d601f19601f82011682018060405250810190610d9f91906142a1565b6001600160a01b0316336001600160a01b031614610dd4578181604051631464bc1b60e11b8152600401610619929190614a11565b8383610de08282612a4e565b610e01578181604051631b09b27f60e01b8152600401610619929190614a11565b610e0b8686612ac4565b60405185815233906001600160a01b038816907f1b5a773e8fc5617b32cff68b696669f7e14d946e95ab5994e244a4e73a82e1ff9060200160405180910390a35050600160655550505050565b6001600160a01b0381166000908152609b6020908152604091829020805483518184028101840190945280845260609392830182828015610eb857602002820191906000526020600020905b815481526020019060010190808311610ea4575b50505050509050919050565b610ecc612c3c565b610ed66000612c96565b565b6001600160a01b03831660009081526099602052604090205460609083101561121f576001600160a01b038416600090815260996020526040902054610f1f908490614d08565b821115610f4d576001600160a01b038416600090815260996020526040902054610f4a908490614d08565b91505b811561121f57816001600160401b03811115610f7957634e487b7160e01b600052604160045260246000fd5b604051908082528060200260200182016040528015610fb257816020015b610f9f613f5e565b815260200190600190039081610f975790505b509050825b610fc18385614c1e565b81101561121d576001600160a01b03851660009081526098602090815260408083206099909252822080549192918490811061100d57634e487b7160e01b600052603260045260246000fd5b60009182526020808320909101548352828101939093526040918201902081516101c081018352815463ffffffff8082168352640100000000820416828601526001600160401b03600160401b820416828501526001600160801b03600160801b918290048116606084015260018401548082166080850152919091041660a082015260028201546001600160a01b0390811660c08301526003830154811660e08301526004830154811661010083015260058301548116610120830152600683015490811661014083015260ff600160a01b9091041615156101608201526007820180548451818702810187019095528085529194929361018086019390929083018282801561114757602002820191906000526020600020905b81546001600160a01b03168152600190910190602001808311611129575b50505050508152602001600882018054806020026020016040519081016040528092919081815260200182805480156111cb57602002820191906000526020600020906000905b82829054906101000a900463ffffffff1663ffffffff168152602001906004019060208260030104928301926001038202915080841161118e5790505b5050505050815250508285836111e19190614d08565b815181106111ff57634e487b7160e01b600052603260045260246000fd5b6020026020010181905250808061121590614d1f565b915050610fb7565b505b9392505050565b6001600160a01b0384161580159061124657506001600160a01b03831615155b801561125a57506001600160a01b03821615155b801561126e57506001600160a01b03811615155b61127757600080fd5b60976020527f683723e34a772b6e4f2c919bba7fa32ed8ea11a8325f54da7db716e9d9dd98c780546001600160a01b03199081166001600160a01b03968716179091557f53bdca72fa8d2e145a1b3bd11cde5bd75428acd18eac3d6adf4e06e7e637706d80548216948616949094179093557fd6ca216b3b8b63bcc0099d5c8294d1780d598ac9b3a29b15c3c3e68c85f6e30c80549285169284169290921790915560036000527f017b8d24b2a0f404d68a0b2abb80fd2d4d2105d3355f1fc48a1949fe7fce12e58054919093169116179055565b6002606554141561136f5760405162461bcd60e51b815260040161061990614b6e565b60026065556001600160a01b038083166000908152609a60209081526040808320858452909152902060010154839183911633146113c257604051630c7441bb60e31b8152336004820152602401610619565b6001600160a01b0384166000908152609860209081526040808320868452909152902060010154600160801b90046001600160801b031661141a57838360405163481e476160e11b8152600401610619929190614a11565b611425848433612ce8565b61142f8484612ac4565b836001600160a01b03167fcc801e4a1662a9ed7f9dc813fce5781eeba9361ac5f2934d6d59594b40d62e858460405161146a91815260200190565b60405180910390a2505060016065555050565b600260655414156114a05760405162461bcd60e51b815260040161061990614b6e565b60026065556040516331a9108f60e11b815260048101829052829082906001600160a01b03831690636352211e9060240160206040518083038186803b1580156114e957600080fd5b505afa1580156114fd573d6000803e3d6000fd5b505050506040513d601f19601f8201168201806040525081019061152191906142a1565b6001600160a01b0316336001600160a01b031614611556578181604051631464bc1b60e11b8152600401610619929190614a11565b6001600160a01b038085166000908152609a6020908152604080832087845290915290206001015485918591166115a457818160405163718a8cb360e01b8152600401610619929190614a11565b6115ae8686612e7c565b604051632142170760e11b81526001600160a01b038716906342842e0e906115de90309033908a906004016149ed565b600060405180830381600087803b1580156115f857600080fd5b505af115801561160c573d6000803e3d6000fd5b50505050856001600160a01b03167f5030805dc788ddab4854363945f64f79b4003801d92bfcd4de0cd64d8276fbd98660405161164b91815260200190565b60405180910390a25050600160655550505050565b600260655414156116835760405162461bcd60e51b815260040161061990614b6e565b60026065556001600160a01b038083166000908152609a6020908152604080832085845290915290206001015483918391166116d657818160405163718a8cb360e01b8152600401610619929190614a11565b6040516331a9108f60e11b815260048101849052849084906001600160a01b03831690636352211e9060240160206040518083038186803b15801561171a57600080fd5b505afa15801561172e573d6000803e3d6000fd5b505050506040513d601f19601f8201168201806040525081019061175291906142a1565b6001600160a01b0316336001600160a01b031614156117885781816040516364ae7b2560e11b8152600401610619929190614a11565b6001600160a01b038681166000908152609a60209081526040808320898452909152812060028101546001820154915490939182169291169060646117ce600586614ce9565b6117d89190614ca6565b905060006117e68286614d08565b90506117f28b8b612e7c565b6001600160a01b03831661199357843410156118455760405162461bcd60e51b815260206004820152601260248201527124b739bab33334b1b4b2b73a1022ba3432b960711b6044820152606401610619565b6000846001600160a01b03168260405160006040518083038185875af1925050503d8060008114611892576040519150601f19603f3d011682016040523d82523d6000602084013e611897565b606091505b50509050806118e85760405162461bcd60e51b815260206004820152601e60248201527f4661696c65642073656e64696e6720657468657220746f2073656c6c657200006044820152606401610619565b609d546040516001600160a01b03909116908490600081818185875af1925050503d8060008114611935576040519150601f19603f3d011682016040523d82523d6000602084013e61193a565b606091505b5050809150508061198d5760405162461bcd60e51b815260206004820181905260248201527f4661696c65642073656e64696e6720657468657220746f2074726561737572796044820152606401610619565b50611add565b6040516323b872dd60e01b81526001600160a01b038416906323b872dd906119c3903390889086906004016149ed565b602060405180830381600087803b1580156119dd57600080fd5b505af11580156119f1573d6000803e3d6000fd5b505050506040513d601f19601f82011682018060405250810190611a15919061479d565b611a3657828560405163fefc7c5560e01b8152600401610619929190614a11565b609d546040516323b872dd60e01b81526001600160a01b03808616926323b872dd92611a6a923392169087906004016149ed565b602060405180830381600087803b158015611a8457600080fd5b505af1158015611a98573d6000803e3d6000fd5b505050506040513d601f19601f82011682018060405250810190611abc919061479d565b611add57828560405163fefc7c5560e01b8152600401610619929190614a11565b604051632142170760e11b81526001600160a01b038c16906342842e0e90611b0d90309033908f906004016149ed565b600060405180830381600087803b158015611b2757600080fd5b505af1158015611b3b573d6000803e3d6000fd5b50506040518c81523392506001600160a01b038e1691507fb89e44430873468e658c1262715e5939bbb09dea086295c4f60da5256bd8f1239060200160405180910390a350506001606555505050505050505050565b611b99612c3c565b6001600160a01b038116611bac57600080fd5b609d80546001600160a01b0319166001600160a01b0392909216919091179055565b6040516331a9108f60e11b8152600481018290526000906001600160a01b03841690636352211e9060240160206040518083038186803b158015611c1157600080fd5b505afa158015611c25573d6000803e3d6000fd5b505050506040513d601f19601f8201168201806040525081019061121f91906142a1565b60026065541415611c6c5760405162461bcd60e51b815260040161061990614b6e565b60026065558383611c7d8282612a4e565b611c9e578181604051631b09b27f60e01b8152600401610619929190614a11565b8585611cd282826001600160a01b039182166000908152609860209081526040808320938352929052206004015416151590565b8015611d0657506001600160a01b038281166000908152609860209081526040808320858452909152902060040154163314155b15611d2857818160405163025dfde360e41b8152600401610619929190614a11565b611d3488888888612e8a565b50506001606555505050505050565b60026065541415611d665760405162461bcd60e51b815260040161061990614b6e565b60026065556040516331a9108f60e11b8152600481018790526001600160a01b03881690636352211e9060240160206040518083038186803b158015611dab57600080fd5b505afa158015611dbf573d6000803e3d6000fd5b505050506040513d601f19601f82011682018060405250810190611de391906142a1565b6001600160a01b0316336001600160a01b031614611e18578686604051631464bc1b60e11b8152600401610619929190614a11565b6001600160a01b0387811660009081526098602090815260408083208a84529091529020600301541615611e6357868660405163617db15960e01b8152600401610619929190614a11565b611e7287878787878787612fdd565b846001600160a01b0316336001600160a01b0316886001600160a01b03167f417a3a06afeda17cea0e2ba5fb24f396f62f30bf5ce1099641d8e30117e4e029898888611ebe8e8e613272565b611ec88f8f6132bc565b604080519586526001600160801b039485166020870152929093168483015263ffffffff90811660608501529091166080830152519081900360a00190a4611f1087876132f5565b505060016065555050505050565b611f26613fd4565b6001600160a01b038084166000908152609a60209081526040808320868452825291829020825160a08101845281548516815260018201549094168483015260028101548484015260038101805484518185028101850190955280855291936060860193909290830182828015611fc657602002820191906000526020600020905b81546001600160a01b03168152600190910190602001808311611fa8575b5050505050815260200160048201805480602002602001604051908101604052809291908181526020018280548015610a6c576000918252602091829020805463ffffffff168452908202830192909160049101808411610a2f579050505050505081525050905092915050565b600260655414156120575760405162461bcd60e51b815260040161061990614b6e565b60026065556040516331a9108f60e11b815260048101829052829082906001600160a01b03831690636352211e9060240160206040518083038186803b1580156120a057600080fd5b505afa1580156120b4573d6000803e3d6000fd5b505050506040513d601f19601f820116820180604052508101906120d891906142a1565b6001600160a01b0316336001600160a01b03161461210d578181604051631464bc1b60e11b8152600401610619929190614a11565b6121178484613366565b836001600160a01b03167ff75f3e198453c5e8c50f6cea2f01a714e952664e7bfd574e8ee4feb176a5d63d8460405161146a91815260200190565b600260655414156121755760405162461bcd60e51b815260040161061990614b6e565b60026065556001600160801b038316806121a557604051630b707dc560e21b815260048101829052602401610619565b60005b8651811015611d345760008782815181106121d357634e487b7160e01b600052603260045260246000fd5b60200260200101519050886001600160a01b0316636352211e826040518263ffffffff1660e01b815260040161220b91815260200190565b60206040518083038186803b15801561222357600080fd5b505afa158015612237573d6000803e3d6000fd5b505050506040513d601f19601f8201168201806040525081019061225b91906142a1565b6001600160a01b0316336001600160a01b031614612290578881604051631464bc1b60e11b8152600401610619929190614a11565b60405163020604bf60e21b8152600481018290526001600160a01b038a169063081812fc9060240160206040518083038186803b1580156122d057600080fd5b505afa1580156122e4573d6000803e3d6000fd5b505050506040513d601f19601f8201168201806040525081019061230891906142a1565b6001600160a01b0316306001600160a01b03161461233d578881604051631d6d11e160e31b8152600401610619929190614a11565b6001600160a01b03808a166000908152609a6020908152604080832085845290915290206001015416156123885788816040516370b8c95f60e01b8152600401610619929190614a11565b612396898289898989612739565b50806123a181614d1f565b9150506121a8565b6001600160a01b0383166000908152609b602052604090205460609083101561121f576001600160a01b0384166000908152609b60205260409020546123f0908490614d08565b82111561241e576001600160a01b0384166000908152609b602052604090205461241b908490614d08565b91505b811561121f57816001600160401b0381111561244a57634e487b7160e01b600052604160045260246000fd5b60405190808252806020026020018201604052801561248357816020015b612470613fd4565b8152602001906001900390816124685790505b509050825b6124928385614c1e565b81101561121d576001600160a01b0385166000908152609a60209081526040808320609b90925282208054919291849081106124de57634e487b7160e01b600052603260045260246000fd5b600091825260208083209091015483528281019390935260409182019020815160a08101835281546001600160a01b0390811682526001830154168185015260028201548184015260038201805484518187028101870190955280855291949293606086019390929083018282801561258057602002820191906000526020600020905b81546001600160a01b03168152600190910190602001808311612562575b505050505081526020016004820180548060200260200160405190810160405280929190818152602001828054801561260457602002820191906000526020600020906000905b82829054906101000a900463ffffffff1663ffffffff16815260200190600401906020826003010492830192600103820291508084116125c75790505b50505050508152505082858361261a9190614d08565b8151811061263857634e487b7160e01b600052603260045260246000fd5b6020026020010181905250808061264e90614d1f565b915050612488565b61265e612c3c565b6001600160a01b0381166126c35760405162461bcd60e51b815260206004820152602660248201527f4f776e61626c653a206e6577206f776e657220697320746865207a65726f206160448201526564647265737360d01b6064820152608401610619565b6126cc81612c96565b50565b6001600160a01b038116600090815260996020908152604091829020805483518184028101840190945280845260609392830182828015610eb85760200282019190600052602060002090815481526020019060010190808311610ea45750505050509050919050565b612744868633612ce8565b6001600160a01b038681166000818152609b60209081526040808320805460018082018355918552838520018b9055938352609a82528083208a8452825290912080549388166001600160a01b0319948516178155918201805490931633179092556001600160801b038516600282015583516127c992600390920191850190614015565b506001600160a01b0386166000908152609a60209081526040808320888452825290912082516128019260049092019184019061407a565b50604080518681526001600160801b03851660208201526001600160a01b03808716923392918a16917fa07c96d3721fcbbef27183918f376a8391aaa9589eb11a14f0ef7271b1d8e96191015b60405180910390a4505050505050565b600054610100900460ff166128855760405162461bcd60e51b815260040161061990614b23565b610ed66133d3565b600054610100900460ff166128b45760405162461bcd60e51b815260040161061990614b23565b610ed6613403565b6001600160a01b03919091166000908152609860209081526040808320938352929052206002810180546001600160a01b03199081169091556001820180546001600160801b03169055600590910180549091169055565b6001600160a01b0384811660009081526098602090815260408083208784529091529020600601541680156129e95760405163a9059cbb60e01b81526001600160a01b0382169063a9059cbb906129719086908690600401614a11565b602060405180830381600087803b15801561298b57600080fd5b505af115801561299f573d6000803e3d6000fd5b505050506040513d601f19601f820116820180604052508101906129c3919061479d565b6129e457808260405163fefc7c5560e01b8152600401610619929190614a11565b612a47565b6000836001600160a01b031683614e2090604051600060405180830381858888f193505050503d8060008114612a3b576040519150601f19603f3d011682016040523d82523d6000602084013e612a40565b606091505b505090505b505b5050505050565b6001600160a01b0382166000908152609860209081526040808320848452909152812054600160401b90046001600160401b0316158061121f5750506001600160a01b039190911660009081526098602090815260408083209383529290522054600160401b90046001600160401b0316421090565b6001600160a01b03828116600090815260986020908152604080832085845290915281206003810154600290910154908316921690612b038585613431565b6001600160a01b0386166000908152609860209081526040808320888452909152902060010154909150600160801b90046001600160801b0316612b4786866128bc565b612b518686613366565b612b66868686846001600160801b0316613491565b604051632142170760e11b81526001600160a01b038716906342842e0e90612b9690309086908a906004016149ed565b600060405180830381600087803b158015612bb057600080fd5b505af1158015612bc4573d6000803e3d6000fd5b50505050826001600160a01b0316846001600160a01b0316876001600160a01b03167f08ff8776aa9dfead5713153ec011c6ce23d80a389215c384419cadc1acc4f7aa88858760405161284e939291909283526001600160801b039190911660208301526001600160a01b0316604082015260600190565b6033546001600160a01b03163314610ed65760405162461bcd60e51b815260206004820181905260248201527f4f776e61626c653a2063616c6c6572206973206e6f7420746865206f776e65726044820152606401610619565b603380546001600160a01b038381166001600160a01b0319831681179093556040519116919082907f8be0079c531659141344cd1fd0a4f28419497f9722a3daafe3b4186f6b6457e090600090a35050565b6040516331a9108f60e11b8152600481018390526001600160a01b038083169190851690636352211e9060240160206040518083038186803b158015612d2d57600080fd5b505afa158015612d41573d6000803e3d6000fd5b505050506040513d601f19601f82011682018060405250810190612d6591906142a1565b6001600160a01b03161415612dd757604051632142170760e11b81526001600160a01b038416906342842e0e90612da4908490309087906004016149ed565b600060405180830381600087803b158015612dbe57600080fd5b505af1158015612dd2573d6000803e3d6000fd5b505050505b6040516331a9108f60e11b81526004810183905230906001600160a01b03851690636352211e9060240160206040518083038186803b158015612e1957600080fd5b505afa158015612e2d573d6000803e3d6000fd5b505050506040513d601f19601f82011682018060405250810190612e5191906142a1565b6001600160a01b031614610bde57828260405163d99c81e360e01b8152600401610619929190614a11565b612e86828261361b565b5050565b6001600160a01b038085166000908152609a602090815260408083208784529091529020600101548591859116331415612edb57818160405163617db15960e01b8152600401610619929190614a11565b85858585612eeb84848484613827565b612f0c578383604051637f487ddb60e11b8152600401610619929190614a11565b612f178a8a896138c7565b612f635760405162461bcd60e51b815260206004820152601e60248201527f4e6f7420656e6f7567682066756e647320746f20626964206f6e204e465400006044820152606401610619565b612f6e8a8a896139d3565b612f788a8a6132f5565b604080518a81523460208201526001600160801b0389168183015290516001600160a01b038a8116923392918e16917f341120aa0dda9918f639de5b8ac08dd9a30cab1063e0cf0fc9abb8c6e8bffd369181900360600190a450505050505050505050565b82846001600160801b038216158015906130195750806001600160801b0316613017836001600160801b0316611f4063ffffffff16613a3b565b105b1561304a5760405163529a16e560e01b81526001600160801b03808316600483015283166024820152604401610619565b835183518082146130785760405163147d4b2360e11b81526004810183905260248101829052604401610619565b846000805b82518110156130cd578281815181106130a657634e487b7160e01b600052603260045260246000fd5b6020026020010151826130b99190614c36565b9150806130c581614d1f565b91505061307d565b506127108163ffffffff1611156130f7576040516307c1726f60e51b815260040160405180910390fd5b8a609860008f6001600160a01b03166001600160a01b0316815260200190815260200160002060008e815260200190815260200160002060060160006101000a8154816001600160a01b0302191690836001600160a01b0316021790555087609860008f6001600160a01b03166001600160a01b0316815260200190815260200160002060008e815260200190815260200160002060070190805190602001906131a2929190614015565b506001600160a01b038d1660009081526098602090815260408083208f8452825290912088516131da926008909201918a019061407a565b5050506001600160a01b03909a1660008181526098602090815260408083208d84528252808320600180820180546001600160801b039d8e166001600160801b031990911617905581549c8c16600160801b029c909b169b909b178b556003909a0180546001600160a01b03191633179055918152609982529788208054978801815588529096209094019690965550505050505050565b6001600160a01b0382166000908152609860209081526040808320848452909152812054640100000000900463ffffffff16806132b55762015180915050610a78565b9050610a78565b6001600160a01b038216600090815260986020908152604080832084845290915281205463ffffffff16806132b5576064915050610a78565b6001600160a01b038083166000908152609860209081526040808320858452909152902060030154166133288383613a54565b1561334257613338838383612ce8565b610bde8383612ac4565b61334c8383613ad3565b15610bde5761335b8383613b57565b610bde838383612ce8565b6001600160a01b038216600090815260986020908152604080832084845290915281206001810180546001600160801b03191690559081556003810180546001600160a01b031990811690915560048201805482169055600690910180549091169055612e868282613c04565b600054610100900460ff166133fa5760405162461bcd60e51b815260040161061990614b23565b610ed633612c96565b600054610100900460ff1661342a5760405162461bcd60e51b815260040161061990614b23565b6001606555565b6001600160a01b038083166000908152609860209081526040808320858452909152812060050154909116806132b55750506001600160a01b03808316600090815260986020908152604080832085845290915290206002015416610a78565b600060646134a0600584614ce9565b6134aa9190614ca6565b90506134b68183614d08565b609d549092506134d390869086906001600160a01b031684612914565b6000805b6001600160a01b0387166000908152609860209081526040808320898452909152902060070154811015613605576001600160a01b03871660009081526098602090815260408083208984529091528120600801805461357a9187918590811061355157634e487b7160e01b600052603260045260246000fd5b6000918252602090912060088204015460079091166004026101000a900463ffffffff16613a3b565b90506135868184614c1e565b6001600160a01b03891660009081526098602090815260408083208b8452909152902060070180549194506135f2918a918a91869081106135d757634e487b7160e01b600052603260045260246000fd5b6000918252602090912001546001600160a01b031684612914565b50806135fd81614d1f565b9150506134d7565b50612a458686866136168588614d08565b612914565b60005b6001600160a01b0383166000908152609b60205260409020548110156137c5576001600160a01b0383166000908152609b6020526040902080548391908390811061367957634e487b7160e01b600052603260045260246000fd5b906000526020600020015414156137b357805b6001600160a01b0384166000908152609b60205260409020546136b190600190614d08565b811015613766576001600160a01b0384166000908152609b602052604090206136db826001614c1e565b815481106136f957634e487b7160e01b600052603260045260246000fd5b9060005260206000200154609b6000866001600160a01b03166001600160a01b03168152602001908152602001600020828154811061374857634e487b7160e01b600052603260045260246000fd5b6000918252602090912001558061375e81614d1f565b91505061368c565b506001600160a01b0383166000908152609b6020526040902080548061379c57634e487b7160e01b600052603160045260246000fd5b600190038181906000526020600020016000905590555b806137bd81614d1f565b91505061361e565b506001600160a01b0382166000908152609a60209081526040808320848452909152812080546001600160a01b03199081168255600182018054909116905560028101829055906138196003830182614124565b610382600483016000614142565b6001600160a01b038481166000908152609860209081526040808320878452909152812060060154909116801561389457341580156138775750836001600160a01b0316816001600160a01b0316145b801561388c57506000836001600160801b0316115b9150506138bf565b34158015906138aa57506001600160a01b038416155b801561388c575050506001600160801b038116155b949350505050565b6001600160a01b03831660009081526098602090815260408083208584529091528120600101546001600160801b0316801580159061392b5750806001600160801b03163410158061392b5750806001600160801b0316836001600160801b031610155b1561393a57600191505061121f565b600061271061394987876132bc565b61395590612710614c36565b6001600160a01b03881660009081526098602090815260408083208a845290915290206001015461399c9163ffffffff1690600160801b90046001600160801b0316614cba565b6139a69190614c80565b6001600160801b0316905080341015806139c9575080846001600160801b031610155b9695505050505050565b6001600160a01b03838116600090815260986020908152604080832086845290915290206002810154600190910154911690600160801b90046001600160801b0316613a20858585613dae565b6001600160a01b03821615612a4757612a4785858484612914565b6000612710613a4a8385614ce9565b61121f9190614ca6565b6001600160a01b03821660009081526098602090815260408083208484529091528120600101546001600160801b031680158015906138bf57506001600160a01b03841660009081526098602090815260408083208684529091529020600101546001600160801b03808316600160801b909204161015949350505050565b6001600160a01b0382166000908152609860209081526040808320848452909152812054600160801b90046001600160801b031680158015906138bf57506001600160a01b03841660009081526098602090815260408083208684529091529020600101546001600160801b03808316600160801b90920416101591505092915050565b42613b628383613272565b63ffffffff16613b729190614c5e565b6001600160a01b038316600081815260986020908152604080832086845282529182902080546fffffffffffffffff00000000000000001916600160401b6001600160401b0396871681029190911791829055835187815291049094169084015290917fa1e7b6c5b94ad1e2b5c13f1d1a517ae9584b9b96ed78750c76de93ae148ef231910160405180910390a25050565b60005b6001600160a01b038316600090815260996020526040902054811015610bde576001600160a01b0383166000908152609960205260409020805483919083908110613c6257634e487b7160e01b600052603260045260246000fd5b90600052602060002001541415613d9c57805b6001600160a01b038416600090815260996020526040902054613c9a90600190614d08565b811015613d4f576001600160a01b0384166000908152609960205260409020613cc4826001614c1e565b81548110613ce257634e487b7160e01b600052603260045260246000fd5b906000526020600020015460996000866001600160a01b03166001600160a01b031681526020019081526020016000208281548110613d3157634e487b7160e01b600052603260045260246000fd5b60009182526020909120015580613d4781614d1f565b915050613c75565b506001600160a01b0383166000908152609960205260409020805480613d8557634e487b7160e01b600052603160045260246000fd5b600190038181906000526020600020016000905590555b80613da681614d1f565b915050613c07565b6001600160a01b038381166000908152609860209081526040808320868452909152902060060154168015613ee5576040516323b872dd60e01b81523360048201523060248201526001600160801b03831660448201526001600160a01b038216906323b872dd90606401602060405180830381600087803b158015613e3357600080fd5b505af1158015613e47573d6000803e3d6000fd5b505050506040513d601f19601f82011682018060405250810190613e6b919061479d565b613ea25760405163fefc7c5560e01b81526001600160a01b03821660048201526001600160801b0383166024820152604401610619565b6001600160a01b0384166000908152609860209081526040808320868452909152902060010180546001600160801b03808516600160801b029116179055613f24565b6001600160a01b0384166000908152609860209081526040808320868452909152902060010180546001600160801b03348116600160801b0291161790555b50506001600160a01b0390911660009081526098602090815260408083209383529290522060020180546001600160a01b03191633179055565b604080516101c08101825260008082526020820181905291810182905260608082018390526080820183905260a0820183905260c0820183905260e0820183905261010082018390526101208201839052610140820183905261016082019290925261018081018290526101a081019190915290565b6040518060a0016040528060006001600160a01b0316815260200160006001600160a01b031681526020016000815260200160608152602001606081525090565b82805482825590600052602060002090810192821561406a579160200282015b8281111561406a57825182546001600160a01b0319166001600160a01b03909116178255602090920191600190910190614035565b50614076929150614163565b5090565b8280548282559060005260206000209060070160089004810192821561406a5791602002820160005b838211156140e757835183826101000a81548163ffffffff021916908363ffffffff16021790555092602001926004016020816003010492830192600103026140a3565b80156141175782816101000a81549063ffffffff02191690556004016020816003010492830192600103026140e7565b5050614076929150614163565b50805460008255906000526020600020908101906126cc9190614163565b5080546000825560070160089004906000526020600020908101906126cc91905b5b808211156140765760008155600101614164565b803561418381614d7c565b919050565b600082601f830112614198578081fd5b813560206141ad6141a883614bfb565b614bcb565b80838252828201915082860187848660051b89010111156141cc578586fd5b855b858110156141f35781356141e181614d7c565b845292840192908401906001016141ce565b5090979650505050505050565b600082601f830112614210578081fd5b813560206142206141a883614bfb565b80838252828201915082860187848660051b890101111561423f578586fd5b855b858110156141f357813563ffffffff8116811461425c578788fd5b84529284019290840190600101614241565b80356001600160801b038116811461418357600080fd5b600060208284031215614296578081fd5b813561121f81614d7c565b6000602082840312156142b2578081fd5b815161121f81614d7c565b600080604083850312156142cf578081fd5b82356142da81614d7c565b915060208301356142ea81614d7c565b809150509250929050565b6000806000806080858703121561430a578182fd5b843561431581614d7c565b9350602085013561432581614d7c565b9250604085013561433581614d7c565b9150606085013561434581614d7c565b939692955090935050565b600080600080600060808688031215614367578081fd5b853561437281614d7c565b9450602086013561438281614d7c565b93506040860135925060608601356001600160401b03808211156143a4578283fd5b818801915088601f8301126143b7578283fd5b8135818111156143c5578384fd5b8960208285010111156143d6578384fd5b9699959850939650602001949392505050565b60008060008060008060c08789031215614401578081fd5b863561440c81614d7c565b95506020878101356001600160401b0380821115614428578384fd5b818a0191508a601f83011261443b578384fd5b81356144496141a882614bfb565b8082825285820191508585018e878560051b8801011115614468578788fd5b8795505b8386101561448a57803583526001959095019491860191860161446c565b50995061449c91505060408b01614178565b96506144aa60608b0161426e565b955060808a01359250808311156144bf578384fd5b6144cb8b848c01614188565b945060a08a01359250808311156144e0578384fd5b50506144ee89828a01614200565b9150509295509295509295565b6000806040838503121561450d578182fd5b823561451881614d7c565b946020939093013593505050565b6000806000806080858703121561453b578182fd5b843561454681614d7c565b935060208501359250604085013561455d81614d7c565b915061456b6060860161426e565b905092959194509250565b60008060008060008060c0878903121561458e578384fd5b863561459981614d7c565b95506020870135945060408701356145b081614d7c565b93506145be6060880161426e565b925060808701356001600160401b03808211156145d9578384fd5b6145e58a838b01614188565b935060a08901359150808211156145fa578283fd5b506144ee89828a01614200565b600080600080600080600060e0888a031215614621578485fd5b873561462c81614d7c565b965060208801359550604088013561464381614d7c565b94506146516060890161426e565b935061465f6080890161426e565b925060a08801356001600160401b038082111561467a578283fd5b6146868b838c01614188565b935060c08a013591508082111561469b578283fd5b506146a88a828b01614200565b91505092959891949750929550565b6000806000606084860312156146cb578081fd5b83356146d681614d7c565b95602085013595506040909401359392505050565b60008060008060808587031215614700578182fd5b843561470b81614d7c565b935060208581013593506040860135925060608601356001600160401b0380821115614735578384fd5b818801915088601f830112614748578384fd5b81358181111561475a5761475a614d66565b61476c601f8201601f19168501614bcb565b91508082528984828501011115614781578485fd5b8084840185840137810190920192909252939692955090935050565b6000602082840312156147ae578081fd5b8151801515811461121f578182fd5b6000602082840312156147ce578081fd5b5035919050565b6000815180845260208085019450808401835b8381101561480d5781516001600160a01b0316875295820195908201906001016147e8565b509495945050505050565b6000815180845260208085019450808401835b8381101561480d57815163ffffffff168752958201959082019060010161482b565b805163ffffffff16825260006101c06020830151614873602086018263ffffffff169052565b50604083015161488e60408601826001600160401b03169052565b5060608301516148a960608601826001600160801b03169052565b5060808301516148c460808601826001600160801b03169052565b5060a08301516148df60a08601826001600160801b03169052565b5060c08301516148fa60c08601826001600160a01b03169052565b5060e083015161491560e08601826001600160a01b03169052565b50610100838101516001600160a01b03908116918601919091526101208085015182169086015261014080850151909116908501526101608084015115159085015261018080840151818601839052614970838701826147d5565b925050506101a080840151858303828701526139c98382614818565b600060018060a01b038083511684528060208401511660208501525060408201516040840152606082015160a060608501526149cb60a08501826147d5565b9050608083015184820360808601526149e48282614818565b95945050505050565b6001600160a01b039384168152919092166020820152604081019190915260600190565b6001600160a01b03929092168252602082015260400190565b6000602080830181845280855180835260408601915060408160051b8701019250838701855b82811015614a7e57603f19888603018452614a6c85835161484d565b94509285019290850190600101614a50565b5092979650505050505050565b6000602080830181845280855180835260408601915060408160051b8701019250838701855b82811015614a7e57603f19888603018452614acd85835161498c565b94509285019290850190600101614ab1565b6020808252825182820181905260009190848201906040850190845b81811015614b1757835183529284019291840191600101614afb565b50909695505050505050565b6020808252602b908201527f496e697469616c697a61626c653a20636f6e7472616374206973206e6f74206960408201526a6e697469616c697a696e6760a81b606082015260800190565b6020808252601f908201527f5265656e7472616e637947756172643a207265656e7472616e742063616c6c00604082015260600190565b60208152600061121f602083018461484d565b60208152600061121f602083018461498c565b604051601f8201601f191681016001600160401b0381118282101715614bf357614bf3614d66565b604052919050565b60006001600160401b03821115614c1457614c14614d66565b5060051b60200190565b60008219821115614c3157614c31614d3a565b500190565b600063ffffffff808316818516808303821115614c5557614c55614d3a565b01949350505050565b60006001600160401b03808316818516808303821115614c5557614c55614d3a565b60006001600160801b0380841680614c9a57614c9a614d50565b92169190910492915050565b600082614cb557614cb5614d50565b500490565b60006001600160801b0380831681851681830481118215151615614ce057614ce0614d3a565b02949350505050565b6000816000190483118215151615614d0357614d03614d3a565b500290565b600082821015614d1a57614d1a614d3a565b500390565b6000600019821415614d3357614d33614d3a565b5060010190565b634e487b7160e01b600052601160045260246000fd5b634e487b7160e01b600052601260045260246000fd5b634e487b7160e01b600052604160045260246000fd5b6001600160a01b03811681146126cc57600080fdfea26469706673582212205a9e87fc62dfac4cc5ab7da6faf3f1fd00dd1f4d6d6e37d8cae861d1655dd5b764736f6c63430008040033",
  "linkReferences": {},
  "deployedLinkReferences": {}
}