{
  "_format": "hh-sol-artifact-1",
  "contractName": "NFTEngineV1",
  "sourceName": "contracts/engine/NFTEngineV1.sol",
  "abi": [
    {
      "inputs": [
        {
          "internalType": "address",
          "name": "nftContract",
          "type": "address"
        },
        {
          "internalType": "uint256",
          "name": "tokenId",
          "type": "uint256"
        }
      ],
      "name": "NFTEngineAlreadySalingToken",
      "type": "error"
    },
    {
      "inputs": [
        {
          "internalType": "address",
          "name": "nftContract",
          "type": "address"
        },
        {
          "internalType": "uint256",
          "name": "tokenId",
          "type": "uint256"
        }
      ],
      "name": "NFTEngineAuctionFinished",
      "type": "error"
    },
    {
      "inputs": [
        {
          "internalType": "address",
          "name": "nftContract",
          "type": "address"
        },
        {
          "internalType": "uint256",
          "name": "tokenId",
          "type": "uint256"
        }
      ],
      "name": "NFTEngineDidNotBid",
      "type": "error"
    },
    {
      "inputs": [
        {
          "internalType": "address",
          "name": "erc20token",
          "type": "address"
        },
        {
          "internalType": "uint256",
          "name": "amount",
          "type": "uint256"
        }
      ],
      "name": "NFTEngineERC20TransferFailed",
      "type": "error"
    },
    {
      "inputs": [],
      "name": "NFTEngineFeeRatesExceed",
      "type": "error"
    },
    {
      "inputs": [
        {
          "internalType": "uint256",
          "name": "recipients",
          "type": "uint256"
        },
        {
          "internalType": "uint256",
          "name": "rates",
          "type": "uint256"
        }
      ],
      "name": "NFTEngineIncorrentLength",
      "type": "error"
    },
    {
      "inputs": [
        {
          "internalType": "uint256",
          "name": "minPrice",
          "type": "uint256"
        },
        {
          "internalType": "uint256",
          "name": "buyNowPrice",
          "type": "uint256"
        }
      ],
      "name": "NFTEngineInvalidMinPrice",
      "type": "error"
    },
    {
      "inputs": [
        {
          "internalType": "uint256",
          "name": "price",
          "type": "uint256"
        }
      ],
      "name": "NFTEngineInvalidPrice",
      "type": "error"
    },
    {
      "inputs": [
        {
          "internalType": "address",
          "name": "nftContract",
          "type": "address"
        },
        {
          "internalType": "uint256",
          "name": "tokenId",
          "type": "uint256"
        }
      ],
      "name": "NFTEngineNotAcceptablePayment",
      "type": "error"
    },
    {
      "inputs": [
        {
          "internalType": "address",
          "name": "nftContract",
          "type": "address"
        },
        {
          "internalType": "uint256",
          "name": "tokenId",
          "type": "uint256"
        }
      ],
      "name": "NFTEngineNotApprovedToken",
      "type": "error"
    },
    {
      "inputs": [
        {
          "internalType": "address",
          "name": "seller",
          "type": "address"
        }
      ],
      "name": "NFTEngineNotAuctionSeller",
      "type": "error"
    },
    {
      "inputs": [
        {
          "internalType": "address",
          "name": "nftContract",
          "type": "address"
        },
        {
          "internalType": "uint256",
          "name": "tokenId",
          "type": "uint256"
        }
      ],
      "name": "NFTEngineNotAuctionToken",
      "type": "error"
    },
    {
      "inputs": [
        {
          "internalType": "address",
          "name": "nftContract",
          "type": "address"
        },
        {
          "internalType": "uint256",
          "name": "tokenId",
          "type": "uint256"
        }
      ],
      "name": "NFTEngineNotHighestBidder",
      "type": "error"
    },
    {
      "inputs": [
        {
          "internalType": "address",
          "name": "seller",
          "type": "address"
        }
      ],
      "name": "NFTEngineNotSaleSeller",
      "type": "error"
    },
    {
      "inputs": [
        {
          "internalType": "address",
          "name": "nftContract",
          "type": "address"
        },
        {
          "internalType": "uint256",
          "name": "tokenId",
          "type": "uint256"
        }
      ],
      "name": "NFTEngineNotSalingToken",
      "type": "error"
    },
    {
      "inputs": [
        {
          "internalType": "address",
          "name": "nftContract",
          "type": "address"
        },
        {
          "internalType": "uint256",
          "name": "tokenId",
          "type": "uint256"
        }
      ],
      "name": "NFTEngineNotTokenOwner",
      "type": "error"
    },
    {
      "inputs": [
        {
          "internalType": "address",
          "name": "nftContract",
          "type": "address"
        },
        {
          "internalType": "uint256",
          "name": "tokenId",
          "type": "uint256"
        }
      ],
      "name": "NFTEngineSellerCant",
      "type": "error"
    },
    {
      "inputs": [
        {
          "internalType": "address",
          "name": "nftContract",
          "type": "address"
        },
        {
          "internalType": "uint256",
          "name": "tokenId",
          "type": "uint256"
        }
      ],
      "name": "NFTEngineTokenOwner",
      "type": "error"
    },
    {
      "anonymous": false,
      "inputs": [
        {
          "indexed": false,
          "internalType": "uint8",
          "name": "version",
          "type": "uint8"
        }
      ],
      "name": "Initialized",
      "type": "event"
    },
    {
      "anonymous": false,
      "inputs": [
        {
          "indexed": true,
          "internalType": "address",
          "name": "nftContract",
          "type": "address"
        },
        {
          "indexed": false,
          "internalType": "uint256",
          "name": "tokenId",
          "type": "uint256"
        },
        {
          "indexed": true,
          "internalType": "address",
          "name": "bidder",
          "type": "address"
        },
        {
          "indexed": false,
          "internalType": "uint256",
          "name": "ethAmount",
          "type": "uint256"
        },
        {
          "indexed": true,
          "internalType": "address",
          "name": "erc20Token",
          "type": "address"
        },
        {
          "indexed": false,
          "internalType": "uint256",
          "name": "tokenAmount",
          "type": "uint256"
        }
      ],
      "name": "NFTAuctionBidMade",
      "type": "event"
    },
    {
      "anonymous": false,
      "inputs": [
        {
          "indexed": true,
          "internalType": "address",
          "name": "nftContract",
          "type": "address"
        },
        {
          "indexed": false,
          "internalType": "uint256",
          "name": "tokenId",
          "type": "uint256"
        },
        {
          "indexed": true,
          "internalType": "address",
          "name": "highestBidder",
          "type": "address"
        }
      ],
      "name": "NFTAuctionBidWithdrawn",
      "type": "event"
    },
    {
      "anonymous": false,
      "inputs": [
        {
          "indexed": true,
          "internalType": "address",
          "name": "nftContract",
          "type": "address"
        },
        {
          "indexed": false,
          "internalType": "uint256",
          "name": "tokenId",
          "type": "uint256"
        },
        {
          "indexed": false,
          "internalType": "uint128",
          "name": "newBuyNowPrice",
          "type": "uint128"
        }
      ],
      "name": "NFTAuctionBuyNowPriceUpdated",
      "type": "event"
    },
    {
      "anonymous": false,
      "inputs": [
        {
          "indexed": true,
          "internalType": "address",
          "name": "nftContract",
          "type": "address"
        },
        {
          "indexed": false,
          "internalType": "uint256",
          "name": "tokenId",
          "type": "uint256"
        },
        {
          "indexed": true,
          "internalType": "address",
          "name": "seller",
          "type": "address"
        },
        {
          "indexed": true,
          "internalType": "address",
          "name": "erc20Token",
          "type": "address"
        },
        {
          "indexed": false,
          "internalType": "uint128",
          "name": "minPrice",
          "type": "uint128"
        },
        {
          "indexed": false,
          "internalType": "uint128",
          "name": "buyNowPrice",
          "type": "uint128"
        },
        {
          "indexed": false,
          "internalType": "uint32",
          "name": "auctionBidPeriod",
          "type": "uint32"
        }
      ],
      "name": "NFTAuctionCreated",
      "type": "event"
    },
    {
      "anonymous": false,
      "inputs": [
        {
          "indexed": true,
          "internalType": "address",
          "name": "nftContract",
          "type": "address"
        },
        {
          "indexed": false,
          "internalType": "uint256",
          "name": "tokenId",
          "type": "uint256"
        }
      ],
      "name": "NFTAuctionHighestBidTaken",
      "type": "event"
    },
    {
      "anonymous": false,
      "inputs": [
        {
          "indexed": true,
          "internalType": "address",
          "name": "nftContract",
          "type": "address"
        },
        {
          "indexed": false,
          "internalType": "uint256",
          "name": "tokenId",
          "type": "uint256"
        },
        {
          "indexed": false,
          "internalType": "uint256",
          "name": "newMinPrice",
          "type": "uint256"
        }
      ],
      "name": "NFTAuctionMinPriceUpdated",
      "type": "event"
    },
    {
      "anonymous": false,
      "inputs": [
        {
          "indexed": true,
          "internalType": "address",
          "name": "nftContract",
          "type": "address"
        },
        {
          "indexed": false,
          "internalType": "uint256",
          "name": "tokenId",
          "type": "uint256"
        },
        {
          "indexed": true,
          "internalType": "address",
          "name": "seller",
          "type": "address"
        },
        {
          "indexed": false,
          "internalType": "uint128",
          "name": "highestBid",
          "type": "uint128"
        },
        {
          "indexed": true,
          "internalType": "address",
          "name": "highestBidder",
          "type": "address"
        },
        {
          "indexed": false,
          "internalType": "address",
          "name": "buyer",
          "type": "address"
        }
      ],
      "name": "NFTAuctionPaid",
      "type": "event"
    },
    {
      "anonymous": false,
      "inputs": [
        {
          "indexed": true,
          "internalType": "address",
          "name": "nftContract",
          "type": "address"
        },
        {
          "indexed": false,
          "internalType": "uint256",
          "name": "tokenId",
          "type": "uint256"
        },
        {
          "indexed": true,
          "internalType": "address",
          "name": "settler",
          "type": "address"
        }
      ],
      "name": "NFTAuctionSettled",
      "type": "event"
    },
    {
      "anonymous": false,
      "inputs": [
        {
          "indexed": true,
          "internalType": "address",
          "name": "nftContract",
          "type": "address"
        },
        {
          "indexed": false,
          "internalType": "uint256",
          "name": "tokenId",
          "type": "uint256"
        },
        {
          "indexed": false,
          "internalType": "uint64",
          "name": "auctionEndPeriod",
          "type": "uint64"
        }
      ],
      "name": "NFTAuctionUpdated",
      "type": "event"
    },
    {
      "anonymous": false,
      "inputs": [
        {
          "indexed": true,
          "internalType": "address",
          "name": "nftContract",
          "type": "address"
        },
        {
          "indexed": false,
          "internalType": "uint256",
          "name": "tokenId",
          "type": "uint256"
        }
      ],
      "name": "NFTAuctionWithdrawn",
      "type": "event"
    },
    {
      "anonymous": false,
      "inputs": [
        {
          "indexed": false,
          "internalType": "uint256",
          "name": "nftType",
          "type": "uint256"
        },
        {
          "indexed": true,
          "internalType": "address",
          "name": "nftContract",
          "type": "address"
        }
      ],
      "name": "NFTContractUpdated",
      "type": "event"
    },
    {
      "anonymous": false,
      "inputs": [
        {
          "indexed": true,
          "internalType": "address",
          "name": "nftContract",
          "type": "address"
        },
        {
          "indexed": false,
          "internalType": "uint256",
          "name": "tokenId",
          "type": "uint256"
        },
        {
          "indexed": true,
          "internalType": "address",
          "name": "to",
          "type": "address"
        }
      ],
      "name": "NFTTokenSaleClosed",
      "type": "event"
    },
    {
      "anonymous": false,
      "inputs": [
        {
          "indexed": true,
          "internalType": "address",
          "name": "nftContract",
          "type": "address"
        },
        {
          "indexed": false,
          "internalType": "uint256",
          "name": "tokenId",
          "type": "uint256"
        },
        {
          "indexed": true,
          "internalType": "address",
          "name": "from",
          "type": "address"
        },
        {
          "indexed": true,
          "internalType": "address",
          "name": "erc20Token",
          "type": "address"
        },
        {
          "indexed": false,
          "internalType": "uint256",
          "name": "price",
          "type": "uint256"
        }
      ],
      "name": "NFTTokenSaleCreated",
      "type": "event"
    },
    {
      "anonymous": false,
      "inputs": [
        {
          "indexed": true,
          "internalType": "address",
          "name": "nftContract",
          "type": "address"
        },
        {
          "indexed": false,
          "internalType": "uint256",
          "name": "tokenId",
          "type": "uint256"
        }
      ],
      "name": "NFTTokenSaleWithdrawn",
      "type": "event"
    },
    {
      "anonymous": false,
      "inputs": [
        {
          "indexed": true,
          "internalType": "address",
          "name": "previousOwner",
          "type": "address"
        },
        {
          "indexed": true,
          "internalType": "address",
          "name": "newOwner",
          "type": "address"
        }
      ],
      "name": "OwnershipTransferred",
      "type": "event"
    },
    {
      "anonymous": false,
      "inputs": [
        {
          "indexed": true,
          "internalType": "address",
          "name": "paymentContract",
          "type": "address"
        },
        {
          "indexed": false,
          "internalType": "bool",
          "name": "enable",
          "type": "bool"
        }
      ],
      "name": "PaymentContractUpdated",
      "type": "event"
    },
    {
      "inputs": [
        {
          "internalType": "address",
          "name": "paymentToken",
          "type": "address"
        }
      ],
      "name": "IsPayableToken",
      "outputs": [
        {
          "internalType": "bool",
          "name": "",
          "type": "bool"
        }
      ],
      "stateMutability": "view",
      "type": "function"
    },
    {
      "inputs": [
        {
          "internalType": "address",
          "name": "nftContract",
          "type": "address"
        },
        {
          "internalType": "uint256",
          "name": "tokenId",
          "type": "uint256"
        }
      ],
      "name": "buyNFT",
      "outputs": [],
      "stateMutability": "payable",
      "type": "function"
    },
    {
      "inputs": [
        {
          "internalType": "address",
          "name": "nftContract",
          "type": "address"
        },
        {
          "internalType": "uint256",
          "name": "tokenId",
          "type": "uint256"
        },
        {
          "internalType": "address",
          "name": "erc20Token",
          "type": "address"
        },
        {
          "internalType": "uint128",
          "name": "minPrice",
          "type": "uint128"
        },
        {
          "internalType": "uint128",
          "name": "buyNowPrice",
          "type": "uint128"
        },
        {
          "internalType": "uint256",
          "name": "bidPeriod",
          "type": "uint256"
        },
        {
          "internalType": "address[]",
          "name": "feeRecipients",
          "type": "address[]"
        },
        {
          "internalType": "uint32[]",
          "name": "feeRates",
          "type": "uint32[]"
        }
      ],
      "name": "createAuction",
      "outputs": [],
      "stateMutability": "nonpayable",
      "type": "function"
    },
    {
      "inputs": [
        {
          "internalType": "address",
          "name": "nftContract",
          "type": "address"
        },
        {
          "internalType": "uint256",
          "name": "tokenId",
          "type": "uint256"
        },
        {
          "internalType": "address",
          "name": "erc20Token",
          "type": "address"
        },
        {
          "internalType": "uint128",
          "name": "sellPrice",
          "type": "uint128"
        },
        {
          "internalType": "address[]",
          "name": "feeRecipients",
          "type": "address[]"
        },
        {
          "internalType": "uint32[]",
          "name": "feeRates",
          "type": "uint32[]"
        }
      ],
      "name": "createSale",
      "outputs": [],
      "stateMutability": "nonpayable",
      "type": "function"
    },
    {
      "inputs": [],
      "name": "defaultAuctionBidPeriod",
      "outputs": [
        {
          "internalType": "uint32",
          "name": "",
          "type": "uint32"
        }
      ],
      "stateMutability": "view",
      "type": "function"
    },
    {
      "inputs": [],
      "name": "defaultBidIncRate",
      "outputs": [
        {
          "internalType": "uint32",
          "name": "",
          "type": "uint32"
        }
      ],
      "stateMutability": "view",
      "type": "function"
    },
    {
      "inputs": [],
      "name": "feeToTreasury",
      "outputs": [
        {
          "internalType": "uint256",
          "name": "",
          "type": "uint256"
        }
      ],
      "stateMutability": "view",
      "type": "function"
    },
    {
      "inputs": [
        {
          "internalType": "uint256",
          "name": "tokenType",
          "type": "uint256"
        }
      ],
      "name": "getContractAddress",
      "outputs": [
        {
          "internalType": "address",
          "name": "",
          "type": "address"
        }
      ],
      "stateMutability": "view",
      "type": "function"
    },
    {
      "inputs": [
        {
          "internalType": "address",
          "name": "nftContract",
          "type": "address"
        },
        {
          "internalType": "uint256",
          "name": "tokenId",
          "type": "uint256"
        }
      ],
      "name": "getTokenAuctionInfo",
      "outputs": [
        {
          "components": [
            {
              "internalType": "uint256",
              "name": "tokenId",
              "type": "uint256"
            },
            {
              "internalType": "uint32",
              "name": "bidPeriod",
              "type": "uint32"
            },
            {
              "internalType": "uint64",
              "name": "endTime",
              "type": "uint64"
            },
            {
              "internalType": "uint128",
              "name": "minPrice",
              "type": "uint128"
            },
            {
              "internalType": "uint128",
              "name": "buyNowPrice",
              "type": "uint128"
            },
            {
              "internalType": "uint128",
              "name": "highestBid",
              "type": "uint128"
            },
            {
              "internalType": "address",
              "name": "highestBidder",
              "type": "address"
            },
            {
              "internalType": "address",
              "name": "seller",
              "type": "address"
            },
            {
              "internalType": "address",
              "name": "whitelistedBuyer",
              "type": "address"
            },
            {
              "internalType": "address",
              "name": "erc20Token",
              "type": "address"
            },
            {
              "internalType": "bool",
              "name": "isOnSale",
              "type": "bool"
            },
            {
              "internalType": "address[]",
              "name": "feeRecipients",
              "type": "address[]"
            },
            {
              "internalType": "uint32[]",
              "name": "feeRates",
              "type": "uint32[]"
            }
          ],
          "internalType": "struct LTypes.AuctionNFT",
          "name": "",
          "type": "tuple"
        }
      ],
      "stateMutability": "view",
      "type": "function"
    },
    {
      "inputs": [
        {
          "internalType": "address",
          "name": "nftContract",
          "type": "address"
        }
      ],
      "name": "getTokenInfosOnAuction",
      "outputs": [
        {
          "components": [
            {
              "internalType": "uint256",
              "name": "tokenId",
              "type": "uint256"
            },
            {
              "internalType": "uint32",
              "name": "bidPeriod",
              "type": "uint32"
            },
            {
              "internalType": "uint64",
              "name": "endTime",
              "type": "uint64"
            },
            {
              "internalType": "uint128",
              "name": "minPrice",
              "type": "uint128"
            },
            {
              "internalType": "uint128",
              "name": "buyNowPrice",
              "type": "uint128"
            },
            {
              "internalType": "uint128",
              "name": "highestBid",
              "type": "uint128"
            },
            {
              "internalType": "address",
              "name": "highestBidder",
              "type": "address"
            },
            {
              "internalType": "address",
              "name": "seller",
              "type": "address"
            },
            {
              "internalType": "address",
              "name": "whitelistedBuyer",
              "type": "address"
            },
            {
              "internalType": "address",
              "name": "erc20Token",
              "type": "address"
            },
            {
              "internalType": "bool",
              "name": "isOnSale",
              "type": "bool"
            },
            {
              "internalType": "address[]",
              "name": "feeRecipients",
              "type": "address[]"
            },
            {
              "internalType": "uint32[]",
              "name": "feeRates",
              "type": "uint32[]"
            }
          ],
          "internalType": "struct LTypes.AuctionNFT[]",
          "name": "tokenInfos",
          "type": "tuple[]"
        }
      ],
      "stateMutability": "view",
      "type": "function"
    },
    {
      "inputs": [
        {
          "internalType": "address",
          "name": "nftContract",
          "type": "address"
        }
      ],
      "name": "getTokenInfosOnSale",
      "outputs": [
        {
          "components": [
            {
              "internalType": "uint256",
              "name": "tokenId",
              "type": "uint256"
            },
            {
              "internalType": "address",
              "name": "erc20Token",
              "type": "address"
            },
            {
              "internalType": "address",
              "name": "seller",
              "type": "address"
            },
            {
              "internalType": "uint256",
              "name": "price",
              "type": "uint256"
            },
            {
              "internalType": "address[]",
              "name": "feeRecipients",
              "type": "address[]"
            },
            {
              "internalType": "uint32[]",
              "name": "feeRates",
              "type": "uint32[]"
            }
          ],
          "internalType": "struct LTypes.SellNFT[]",
          "name": "tokenInfos",
          "type": "tuple[]"
        }
      ],
      "stateMutability": "view",
      "type": "function"
    },
    {
      "inputs": [
        {
          "internalType": "address",
          "name": "nftContract",
          "type": "address"
        },
        {
          "internalType": "uint256",
          "name": "tokenId",
          "type": "uint256"
        }
      ],
      "name": "getTokenSaleInfo",
      "outputs": [
        {
          "components": [
            {
              "internalType": "uint256",
              "name": "tokenId",
              "type": "uint256"
            },
            {
              "internalType": "address",
              "name": "erc20Token",
              "type": "address"
            },
            {
              "internalType": "address",
              "name": "seller",
              "type": "address"
            },
            {
              "internalType": "uint256",
              "name": "price",
              "type": "uint256"
            },
            {
              "internalType": "address[]",
              "name": "feeRecipients",
              "type": "address[]"
            },
            {
              "internalType": "uint32[]",
              "name": "feeRates",
              "type": "uint32[]"
            }
          ],
          "internalType": "struct LTypes.SellNFT",
          "name": "",
          "type": "tuple"
        }
      ],
      "stateMutability": "view",
      "type": "function"
    },
    {
      "inputs": [
        {
          "internalType": "address",
          "name": "admin",
          "type": "address"
        },
        {
          "internalType": "address",
          "name": "treasury",
          "type": "address"
        }
      ],
      "name": "initialize",
      "outputs": [],
      "stateMutability": "nonpayable",
      "type": "function"
    },
    {
      "inputs": [
        {
          "internalType": "address",
          "name": "nftContract",
          "type": "address"
        },
        {
          "internalType": "uint256",
          "name": "tokenId",
          "type": "uint256"
        },
        {
          "internalType": "address",
          "name": "erc20Token",
          "type": "address"
        },
        {
          "internalType": "uint128",
          "name": "amount",
          "type": "uint128"
        }
      ],
      "name": "makeBid",
      "outputs": [],
      "stateMutability": "payable",
      "type": "function"
    },
    {
      "inputs": [],
      "name": "maxFeeRecipients",
      "outputs": [
        {
          "internalType": "uint32",
          "name": "",
          "type": "uint32"
        }
      ],
      "stateMutability": "view",
      "type": "function"
    },
    {
      "inputs": [],
      "name": "maxMinPriceRate",
      "outputs": [
        {
          "internalType": "uint32",
          "name": "",
          "type": "uint32"
        }
      ],
      "stateMutability": "view",
      "type": "function"
    },
    {
      "inputs": [],
      "name": "minSettableIncRate",
      "outputs": [
        {
          "internalType": "uint32",
          "name": "",
          "type": "uint32"
        }
      ],
      "stateMutability": "view",
      "type": "function"
    },
    {
      "inputs": [
        {
          "internalType": "address",
          "name": "operator",
          "type": "address"
        },
        {
          "internalType": "address",
          "name": "from",
          "type": "address"
        },
        {
          "internalType": "uint256",
          "name": "tokenId",
          "type": "uint256"
        },
        {
          "internalType": "bytes",
          "name": "data",
          "type": "bytes"
        }
      ],
      "name": "onERC721Received",
      "outputs": [
        {
          "internalType": "bytes4",
          "name": "",
          "type": "bytes4"
        }
      ],
      "stateMutability": "pure",
      "type": "function"
    },
    {
      "inputs": [],
      "name": "owner",
      "outputs": [
        {
          "internalType": "address",
          "name": "",
          "type": "address"
        }
      ],
      "stateMutability": "view",
      "type": "function"
    },
    {
      "inputs": [],
      "name": "renounceOwnership",
      "outputs": [],
      "stateMutability": "nonpayable",
      "type": "function"
    },
    {
      "inputs": [
        {
          "internalType": "uint256",
          "name": "nftType",
          "type": "uint256"
        },
        {
          "internalType": "address",
          "name": "nftContract",
          "type": "address"
        }
      ],
      "name": "setNFTContract",
      "outputs": [],
      "stateMutability": "nonpayable",
      "type": "function"
    },
    {
      "inputs": [
        {
          "internalType": "address",
          "name": "paymentToken",
          "type": "address"
        },
        {
          "internalType": "bool",
          "name": "enable",
          "type": "bool"
        }
      ],
      "name": "setPaymentContract",
      "outputs": [],
      "stateMutability": "nonpayable",
      "type": "function"
    },
    {
      "inputs": [
        {
          "internalType": "address",
          "name": "nftContract",
          "type": "address"
        },
        {
          "internalType": "uint256",
          "name": "tokenId",
          "type": "uint256"
        }
      ],
      "name": "settleAuction",
      "outputs": [],
      "stateMutability": "nonpayable",
      "type": "function"
    },
    {
      "inputs": [
        {
          "internalType": "address",
          "name": "nftContract",
          "type": "address"
        },
        {
          "internalType": "uint256",
          "name": "tokenId",
          "type": "uint256"
        }
      ],
      "name": "takeHighestBid",
      "outputs": [],
      "stateMutability": "nonpayable",
      "type": "function"
    },
    {
      "inputs": [
        {
          "internalType": "address",
          "name": "newOwner",
          "type": "address"
        }
      ],
      "name": "transferOwnership",
      "outputs": [],
      "stateMutability": "nonpayable",
      "type": "function"
    },
    {
      "inputs": [
        {
          "internalType": "address",
          "name": "nftContract",
          "type": "address"
        },
        {
          "internalType": "uint256",
          "name": "tokenId",
          "type": "uint256"
        }
      ],
      "name": "withdrawAuction",
      "outputs": [],
      "stateMutability": "nonpayable",
      "type": "function"
    },
    {
      "inputs": [
        {
          "internalType": "address",
          "name": "nftContract",
          "type": "address"
        },
        {
          "internalType": "uint256",
          "name": "tokenId",
          "type": "uint256"
        }
      ],
      "name": "withdrawBid",
      "outputs": [],
      "stateMutability": "nonpayable",
      "type": "function"
    },
    {
      "inputs": [
        {
          "internalType": "address",
          "name": "nftContract",
          "type": "address"
        },
        {
          "internalType": "uint256",
          "name": "tokenId",
          "type": "uint256"
        }
      ],
      "name": "withdrawSale",
      "outputs": [],
      "stateMutability": "nonpayable",
      "type": "function"
    }
  ],
  "bytecode": "0x608060405234801561001057600080fd5b506155f780620000216000396000f3fe6080604052600436106101b75760003560e01c8063880d5cc5116100ec578063c2ab87661161008a578063ceb8982011610064578063ceb898201461034a578063d7a3709614610521578063ebea602514610541578063f2fde38b1461056157600080fd5b8063c2ab8766146104bc578063c31b72e1146104df578063c697a82c146104f457600080fd5b8063a82ba76f116100c6578063a82ba76f14610449578063aefa7d981461045c578063bc09b84c1461047c578063c24d5a5c146104a957600080fd5b8063880d5cc5146103e157806388b98b12146103f75780638da5cb5b1461041757600080fd5b80634d86f834116101595780636f3c898d116101335780636f3c898d1461035f578063715018a61461038c5780637b088e8e146103a1578063848e5c77146103c157600080fd5b80634d86f8341461030a5780635138b08c1461032a57806369710d0b1461034a57600080fd5b80633004f7d8116101955780633004f7d814610254578063398d87461461029d578063485cc955146102ca5780634cb8ef5b146102ea57600080fd5b806303382f22146101bc578063150b7a02146101de578063186779d514610228575b600080fd5b3480156101c857600080fd5b506101dc6101d7366004614e5b565b610581565b005b3480156101ea57600080fd5b5061020a6101f9366004614d1a565b630a85bd0160e11b95945050505050565b6040516001600160e01b031990911681526020015b60405180910390f35b34801561023457600080fd5b5061023f6201518081565b60405163ffffffff909116815260200161021f565b34801561026057600080fd5b5061028d61026f366004614caa565b6001600160a01b031660009081526098602052604090205460ff1690565b604051901515815260200161021f565b3480156102a957600080fd5b506102bd6102b8366004614de0565b61086f565b60405161021f91906153c7565b3480156102d657600080fd5b506101dc6102e5366004614ce2565b610b21565b3480156102f657600080fd5b506101dc610305366004614de0565b610c60565b34801561031657600080fd5b506101dc610325366004614fe7565b610e77565b34801561033657600080fd5b506101dc610345366004614de0565b610fe1565b34801561035657600080fd5b5061023f606481565b34801561036b57600080fd5b5061037f61037a366004614caa565b61108b565b60405161021f9190615259565b34801561039857600080fd5b506101dc611290565b3480156103ad57600080fd5b506101dc6103bc366004614ef9565b6112a4565b3480156103cd57600080fd5b506101dc6103dc366004614de0565b611582565b3480156103ed57600080fd5b5061023f611f4081565b34801561040357600080fd5b506101dc610412366004614de0565b611700565b34801561042357600080fd5b506033546001600160a01b03165b6040516001600160a01b03909116815260200161021f565b6101dc610457366004614de0565b611897565b34801561046857600080fd5b50610431610477366004614fcf565b611f04565b34801561048857600080fd5b5061049c610497366004614caa565b611f88565b60405161021f91906152ba565b6101dc6104b7366004614e0b565b612104565b3480156104c857600080fd5b506104d1600581565b60405190815260200161021f565b3480156104eb57600080fd5b5061023f600581565b34801561050057600080fd5b5061051461050f366004614de0565b61222e565b60405161021f91906153da565b34801561052d57600080fd5b506101dc61053c366004614db3565b612450565b34801561054d57600080fd5b506101dc61055c366004614de0565b612506565b34801561056d57600080fd5b506101dc61057c366004614caa565b6126ba565b600260655414156105ad5760405162461bcd60e51b81526004016105a490615390565b60405180910390fd5b60026065556000805260976020527f683723e34a772b6e4f2c919bba7fa32ed8ea11a8325f54da7db716e9d9dd98c754869086906001600160a01b03808416911614806106305750600160005260976020527f53bdca72fa8d2e145a1b3bd11cde5bd75428acd18eac3d6adf4e06e7e637706d546001600160a01b038381169116145b61064c5760405162461bcd60e51b81526004016105a49061530e565b6040516331a9108f60e11b8152600481018290526001600160a01b03831690636352211e9060240160206040518083038186803b15801561068c57600080fd5b505afa1580156106a0573d6000803e3d6000fd5b505050506040513d601f19601f820116820180604052508101906106c49190614cc6565b6001600160a01b0316336001600160a01b0316146106f9578181604051631464bc1b60e11b81526004016105a4929190615240565b60405163020604bf60e21b815260048101889052889088906001600160a01b0383169063081812fc9060240160206040518083038186803b15801561073d57600080fd5b505afa158015610751573d6000803e3d6000fd5b505050506040513d601f19601f820116820180604052508101906107759190614cc6565b6001600160a01b0316306001600160a01b0316146107aa578181604051631d6d11e160e31b81526004016105a4929190615240565b6001600160801b038716806107d557604051630b707dc560e21b8152600481018290526024016105a4565b6001600160a01b03891660009081526098602052604090205460ff168061080357506001600160a01b038916155b61084f5760405162461bcd60e51b815260206004820152601d60248201527f556e72656769737465726564207061796d656e7420636f6e747261637400000060448201526064016105a4565b61085d8b8b8b8b8b8b612733565b50506001606555505050505050505050565b604080516101a0810182526000808252602080830182905282840182905260608084018390526080840183905260a0840183905260c0840183905260e0840183905261010084018390526101208401839052610140840183905261016084018190526101808401526001600160a01b03861682526099815283822085835290529190912054610915578282604051630cf7ca1d60e11b81526004016105a4929190615240565b6001600160a01b0383166000908152609a60209081526040808320609983528184208685529092529091205461094d9060019061552a565b8154811061096b57634e487b7160e01b600052603260045260246000fd5b6000918252602091829020604080516101a081018252600990930290910180548352600181015463ffffffff8116848601526001600160401b03640100000000820416848401526001600160801b03600160601b9091048116606085015260028201548082166080860152600160801b90041660a084015260038101546001600160a01b0390811660c08501526004820154811660e085015260058201548116610100850152600682015490811661012085015260ff600160a01b9091041615156101408401526007810180548351818702810187019094528084529394919361016086019392830182828015610a8b57602002820191906000526020600020905b81546001600160a01b03168152600190910190602001808311610a6d575b5050505050815260200160088201805480602002602001604051908101604052809291908181526020018280548015610b0f57602002820191906000526020600020906000905b82829054906101000a900463ffffffff1663ffffffff1681526020019060040190602082600301049283019260010382029150808411610ad25790505b50505050508152505090505b92915050565b600054610100900460ff1615808015610b415750600054600160ff909116105b80610b5b5750303b158015610b5b575060005460ff166001145b610bbe5760405162461bcd60e51b815260206004820152602e60248201527f496e697469616c697a61626c653a20636f6e747261637420697320616c72656160448201526d191e481a5b9a5d1a585b1a5e995960921b60648201526084016105a4565b6000805460ff191660011790558015610be1576000805461ff0019166101001790555b610be96128a7565b610bf16128d6565b609d80546001600160a01b0319166001600160a01b038416179055610c15836126ba565b8015610c5b576000805461ff0019169055604051600181527f7f26b83ff96e1f2b6a682f133852f6798a09c465da95921460cefb38474024989060200160405180910390a15b505050565b60026065541415610c835760405162461bcd60e51b81526004016105a490615390565b60026065556001600160a01b0382166000908152609a6020908152604080832060998352818420858552909252822054610cbf9060019061552a565b81548110610cdd57634e487b7160e01b600052603260045260246000fd5b60009182526020909120600360099092020101546001600160a01b03169050338114610d20578282604051638dcad11b60e01b81526004016105a4929190615240565b6001600160a01b0383166000908152609a6020908152604080832060998352818420868552909252822054610d579060019061552a565b81548110610d7557634e487b7160e01b600052603260045260246000fd5b60009182526020808320600992909202909101600201546001600160a01b0387168352609a8252604080842060998452818520888652909352832054600160801b9091046001600160801b03169350610dd09060019061552a565b81548110610dee57634e487b7160e01b600052603260045260246000fd5b60009182526020909120600660099092020101546001600160a01b03169050610e178585612905565b610e2b83836001600160801b031683612a0e565b60405184815233906001600160a01b038716907f1c67fba99d945a891489857a6f588badd10a0834d848de5574580cea4974ff5b9060200160405180910390a350506001606555505050565b610e7f612ba1565b6001600160a01b038116610ed55760405162461bcd60e51b815260206004820152601c60248201527f496e76616c6964206e667420636f6e747261637420616464726573730000000060448201526064016105a4565b6001821115610f195760405162461bcd60e51b815260206004820152601060248201526f496e76616c6964206e6674207479706560801b60448201526064016105a4565b8060976000846001811115610f3e57634e487b7160e01b600052602160045260246000fd5b6001811115610f5d57634e487b7160e01b600052602160045260246000fd5b6001811115610f7c57634e487b7160e01b600052602160045260246000fd5b8152602080820192909252604090810160002080546001600160a01b0319166001600160a01b0394851617905551848152918316917f441c264f6f587886bff15cb9afe61526df4a56c9b6bb8288b7af7d754b11366e91015b60405180910390a25050565b600260655414156110045760405162461bcd60e51b81526004016105a490615390565b600260655581816110158282612bfb565b611036578181604051631b09b27f60e01b81526004016105a4929190615240565b6110408484612d01565b60405183815233906001600160a01b038616907f1b5a773e8fc5617b32cff68b696669f7e14d946e95ab5994e244a4e73a82e1ff9060200160405180910390a3505060016065555050565b6001600160a01b0381166000908152609a60209081526040808320805482518185028101850190935280835260609492939192909184015b82821015611285576000848152602090819020604080516101a0810182526009860290920180548352600181015463ffffffff81168486015264010000000081046001600160401b031684840152600160601b90046001600160801b03908116606085015260028201548082166080860152600160801b90041660a084015260038101546001600160a01b0390811660c08501526004820154811660e0850152600582015481166101008501526006820154908116610120850152600160a01b900460ff16151561014084015260078101805483518187028101870190945280845293949193610160860193928301828280156111e957602002820191906000526020600020905b81546001600160a01b031681526001909101906020018083116111cb575b505050505081526020016008820180548060200260200160405190810160405280929190818152602001828054801561126d57602002820191906000526020600020906000905b82829054906101000a900463ffffffff1663ffffffff16815260200190600401906020826003010492830192600103820291508084116112305790505b505050505081525050815260200190600101906110c3565b505050509050919050565b611298612ba1565b6112a2600061312b565b565b600260655414156112c75760405162461bcd60e51b81526004016105a490615390565b60026065556000805260976020527f683723e34a772b6e4f2c919bba7fa32ed8ea11a8325f54da7db716e9d9dd98c7546001600160a01b03898116911614806113465750600160005260976020527f53bdca72fa8d2e145a1b3bd11cde5bd75428acd18eac3d6adf4e06e7e637706d546001600160a01b038981169116145b6113625760405162461bcd60e51b81526004016105a49061530e565b6001600160a01b03861660009081526098602052604090205460ff168061139057506001600160a01b038616155b6113dc5760405162461bcd60e51b815260206004820152601d60248201527f556e72656769737465726564207061796d656e7420636f6e747261637400000060448201526064016105a4565b6040516331a9108f60e11b8152600481018890526001600160a01b03891690636352211e9060240160206040518083038186803b15801561141c57600080fd5b505afa158015611430573d6000803e3d6000fd5b505050506040513d601f19601f820116820180604052508101906114549190614cc6565b6001600160a01b0316336001600160a01b031614611489578787604051631464bc1b60e11b81526004016105a4929190615240565b6001600160a01b03881660009081526099602090815260408083208a8452909152902054156114cf57878760405163367f3a2360e21b81526004016105a4929190615240565b6114df888888888888888861317d565b856001600160a01b0316336001600160a01b0316896001600160a01b03167ffa5304341d2518d90d489cd208dc6f099818aeb722684536370b93871d2e94a48a898961152b8f8f613368565b60405161156194939291909384526001600160801b0392831660208501529116604083015263ffffffff16606082015260800190565b60405180910390a461157388886133f4565b50506001606555505050505050565b600260655414156115a55760405162461bcd60e51b81526004016105a490615390565b60026065556001600160a01b038216600090815260996020908152604080832084845290915290205482908290158061165257506001600160a01b0382166000908152609a6020908152604080832060998352818420858552909252909120543391906116149060019061552a565b8154811061163257634e487b7160e01b600052603260045260246000fd5b60009182526020909120600460099092020101546001600160a01b031614155b1561167257604051630c7441bb60e31b81523360048201526024016105a4565b61167c84846134b0565b61169d57838360405163481e476160e11b81526004016105a4929190615240565b6116a8848433613534565b6116b28484612d01565b836001600160a01b03167fcc801e4a1662a9ed7f9dc813fce5781eeba9361ac5f2934d6d59594b40d62e85846040516116ed91815260200190565b60405180910390a2505060016065555050565b600260655414156117235760405162461bcd60e51b81526004016105a490615390565b60026065556001600160a01b0382166000908152609b602090815260408083208484529091529020548290829015806117d057506001600160a01b0382166000908152609c60209081526040808320609b8352818420858552909252909120543391906117929060019061552a565b815481106117b057634e487b7160e01b600052603260045260246000fd5b60009182526020909120600260069092020101546001600160a01b031614155b156117f05760405163a0c1a67d60e01b81523360048201526024016105a4565b6117fa8484613627565b604051632142170760e11b81526001600160a01b038516906342842e0e9061182a9030903390889060040161521c565b600060405180830381600087803b15801561184457600080fd5b505af1158015611858573d6000803e3d6000fd5b50505050836001600160a01b03167f5030805dc788ddab4854363945f64f79b4003801d92bfcd4de0cd64d8276fbd9846040516116ed91815260200190565b600260655414156118ba5760405162461bcd60e51b81526004016105a490615390565b60026065556001600160a01b0382166000908152609b602090815260408083208484529091529020548290829061190857818160405163718a8cb360e01b81526004016105a4929190615240565b6001600160a01b0384166000908152609b602090815260408083208684529091529020548490849015806119af57506001600160a01b0382166000908152609c60209081526040808320609b8352818420858552909252909120543391906119729060019061552a565b8154811061199057634e487b7160e01b600052603260045260246000fd5b60009182526020909120600260069092020101546001600160a01b0316145b156119d157818160405163367f3a2360e21b81526004016105a4929190615240565b6001600160a01b0386166000908152609c60209081526040808320609b8352818420898552909252822054611a089060019061552a565b81548110611a2657634e487b7160e01b600052603260045260246000fd5b60009182526020808320600360069093020191909101546001600160a01b038a168352609c82526040808420609b84528185208b8652909352832054909350611a719060019061552a565b81548110611a8f57634e487b7160e01b600052603260045260246000fd5b60009182526020808320600260069093020191909101546001600160a01b038b81168452609c83526040808520609b85528186208d875290945284205491169350611adc9060019061552a565b81548110611afa57634e487b7160e01b600052603260045260246000fd5b600091825260208220600160069092020101546001600160a01b031691506064611b2560058661550b565b611b2f91906154c8565b90506000611b3d828661552a565b9050611b498b8b613627565b60006001600160a01b038416611cf45785341015611ba95760405162461bcd60e51b815260206004820152601960248201527f496e73756666696369656e7420657468657220746f206275790000000000000060448201526064016105a4565b6040516001600160a01b038616908390600081818185875af1925050503d8060008114611bf2576040519150601f19603f3d011682016040523d82523d6000602084013e611bf7565b606091505b50508091505080611c4a5760405162461bcd60e51b815260206004820152601c60248201527f6661696c656420746f2073656e642065746820746f2073656c6c65720000000060448201526064016105a4565b609d546040516001600160a01b03909116908490600081818185875af1925050503d8060008114611c97576040519150601f19603f3d011682016040523d82523d6000602084013e611c9c565b606091505b50508091505080611cef5760405162461bcd60e51b815260206004820152601e60248201527f6661696c656420746f2073656e642065746820746f207472656173757279000060448201526064016105a4565b611e4f565b6040516323b872dd60e01b81526001600160a01b038516906323b872dd90611d249033908990879060040161521c565b602060405180830381600087803b158015611d3e57600080fd5b505af1158015611d52573d6000803e3d6000fd5b505050506040513d601f19601f82011682018060405250810190611d769190614fb3565b8015611e035750609d546040516323b872dd60e01b81526001600160a01b03808716926323b872dd92611db19233921690889060040161521c565b602060405180830381600087803b158015611dcb57600080fd5b505af1158015611ddf573d6000803e3d6000fd5b505050506040513d601f19601f82011682018060405250810190611e039190614fb3565b611e4f5760405162461bcd60e51b815260206004820152601d60248201527f6661696c656420746f2073656e64207062727420746f2073656c6c657200000060448201526064016105a4565b8b6001600160a01b03166342842e0e30338e6040518463ffffffff1660e01b8152600401611e7f9392919061521c565b600060405180830381600087803b158015611e9957600080fd5b505af1158015611ead573d6000803e3d6000fd5b50506040518d81523392506001600160a01b038f1691507fb89e44430873468e658c1262715e5939bbb09dea086295c4f60da5256bd8f1239060200160405180910390a35050600160655550505050505050505050565b600060976000836001811115611f2a57634e487b7160e01b600052602160045260246000fd5b6001811115611f4957634e487b7160e01b600052602160045260246000fd5b6001811115611f6857634e487b7160e01b600052602160045260246000fd5b81526020810191909152604001600020546001600160a01b031692915050565b6001600160a01b0381166000908152609c60209081526040808320805482518185028101850190935280835260609492939192909184015b828210156112855760008481526020908190206040805160c081018252600686029092018054835260018101546001600160a01b039081168486015260028201541683830152600381015460608401526004810180548351818702810187019094528084529394919360808601939283018282801561206857602002820191906000526020600020905b81546001600160a01b0316815260019091019060200180831161204a575b50505050508152602001600582018054806020026020016040519081016040528092919081815260200182805480156120ec57602002820191906000526020600020906000905b82829054906101000a900463ffffffff1663ffffffff16815260200190600401906020826003010492830192600103820291508084116120af5790505b50505050508152505081526020019060010190611fc0565b600260655414156121275760405162461bcd60e51b81526004016105a490615390565b60026065556001600160a01b03841660009081526099602090815260408083208684529091529020548490849015806121d357506001600160a01b0382166000908152609a6020908152604080832060998352818420858552909252909120543391906121969060019061552a565b815481106121b457634e487b7160e01b600052603260045260246000fd5b60009182526020909120600460099092020101546001600160a01b0316145b156121f557818160405163367f3a2360e21b81526004016105a4929190615240565b85856122018282612bfb565b612222578181604051631b09b27f60e01b81526004016105a4929190615240565b61157388888888613635565b6122796040518060c001604052806000815260200160006001600160a01b0316815260200160006001600160a01b031681526020016000815260200160608152602001606081525090565b6001600160a01b0383166000908152609b60209081526040808320858452909152902054839083906122c257818160405163718a8cb360e01b81526004016105a4929190615240565b6001600160a01b0385166000908152609c60209081526040808320609b8352818420888552909252909120546122fa9060019061552a565b8154811061231857634e487b7160e01b600052603260045260246000fd5b60009182526020918290206040805160c08101825260069093029091018054835260018101546001600160a01b03908116848601526002820154168383015260038101546060840152600481018054835181870281018701909452808452939491936080860193928301828280156123b957602002820191906000526020600020905b81546001600160a01b0316815260019091019060200180831161239b575b505050505081526020016005820180548060200260200160405190810160405280929190818152602001828054801561243d57602002820191906000526020600020906000905b82829054906101000a900463ffffffff1663ffffffff16815260200190600401906020826003010492830192600103820291508084116124005790505b5050505050815250509250505092915050565b612458612ba1565b6001600160a01b0382166124ae5760405162461bcd60e51b815260206004820152601d60248201527f496e76616c6964207061796d656e7420746f6b656e206164647265737300000060448201526064016105a4565b6001600160a01b038216600081815260986020908152604091829020805460ff191685151590811790915591519182527f950af12c697c3528afe9bacd20e837634714a3e8d594d8aa1a5d97adeca96d699101610fd5565b600260655414156125295760405162461bcd60e51b81526004016105a490615390565b60026065556000805260976020527f683723e34a772b6e4f2c919bba7fa32ed8ea11a8325f54da7db716e9d9dd98c754829082906001600160a01b03808416911614806125ac5750600160005260976020527f53bdca72fa8d2e145a1b3bd11cde5bd75428acd18eac3d6adf4e06e7e637706d546001600160a01b038381169116145b6125c85760405162461bcd60e51b81526004016105a49061530e565b6040516331a9108f60e11b8152600481018290526001600160a01b03831690636352211e9060240160206040518083038186803b15801561260857600080fd5b505afa15801561261c573d6000803e3d6000fd5b505050506040513d601f19601f820116820180604052508101906126409190614cc6565b6001600160a01b0316336001600160a01b031614612675578181604051631464bc1b60e11b81526004016105a4929190615240565b61267f848461372d565b836001600160a01b03167ff75f3e198453c5e8c50f6cea2f01a714e952664e7bfd574e8ee4feb176a5d63d846040516116ed91815260200190565b6126c2612ba1565b6001600160a01b0381166127275760405162461bcd60e51b815260206004820152602660248201527f4f776e61626c653a206e6577206f776e657220697320746865207a65726f206160448201526564647265737360d01b60648201526084016105a4565b6127308161312b565b50565b8151815180821415806127465750600582115b1561276e57604051631ffbfc4b60e01b815260048101839052602481018290526044016105a4565b612779888833613534565b6001600160a01b0388166000908152609c602052604090205461279d906001615440565b6001600160a01b03808a166000818152609b602090815260408083208d8452825280832095909555918152609c82529283208054600181810183559185529382902060069094029093018a81559283018054928a166001600160a01b031993841617905560028301805490921633179091556001600160801b03871660038301558551612832916004840191908801906149b8565b5083516128489060058301906020870190614a1d565b50604080518981526001600160801b03881660208201526001600160a01b03808a16923392918d16917fa07c96d3721fcbbef27183918f376a8391aaa9589eb11a14f0ef7271b1d8e961910160405180910390a4505050505050505050565b600054610100900460ff166128ce5760405162461bcd60e51b81526004016105a490615345565b6112a2613737565b600054610100900460ff166128fd5760405162461bcd60e51b81526004016105a490615345565b6112a2613767565b6001600160a01b0382166000908152609a602090815260408083206099835281842085855290925282205461293c9060019061552a565b8154811061295a57634e487b7160e01b600052603260045260246000fd5b6000918252602080832060099290920290910160030180546001600160a01b0319166001600160a01b039485161790559184168152609a82526040808220609984528183208584529093528120549091906129b79060019061552a565b815481106129d557634e487b7160e01b600052603260045260246000fd5b906000526020600020906009020160020160106101000a8154816001600160801b0302191690836001600160801b031602179055505050565b6001600160a01b03811615612af35760405163a9059cbb60e01b81526001600160a01b0382169063a9059cbb90612a4b9086908690600401615240565b602060405180830381600087803b158015612a6557600080fd5b505af1158015612a79573d6000803e3d6000fd5b505050506040513d601f19601f82011682018060405250810190612a9d9190614fb3565b610c5b5760405162461bcd60e51b815260206004820152602160248201527f6661696c656420746f2073656e64207062727420746f206665652072656369706044820152601d60fa1b60648201526084016105a4565b6000836001600160a01b031683614e2090604051600060405180830381858888f193505050503d8060008114612b45576040519150601f19603f3d011682016040523d82523d6000602084013e612b4a565b606091505b5050905080612b9b5760405162461bcd60e51b815260206004820152601f60248201527f4661696c656420746f2073656e642065746820746f20726563697069656e740060448201526064016105a4565b50505050565b6033546001600160a01b031633146112a25760405162461bcd60e51b815260206004820181905260248201527f4f776e61626c653a2063616c6c6572206973206e6f7420746865206f776e657260448201526064016105a4565b6001600160a01b0382166000908152609a6020908152604080832060998352818420858552909252822054612c329060019061552a565b81548110612c5057634e487b7160e01b600052603260045260246000fd5b600091825260209091206009909102016001015464010000000090046001600160401b03161580612cfa57506001600160a01b0383166000908152609a602090815260408083206099835281842086855290925290912054612cb49060019061552a565b81548110612cd257634e487b7160e01b600052603260045260246000fd5b600091825260209091206009909102016001015464010000000090046001600160401b031642105b9392505050565b6001600160a01b0382166000908152609960209081526040808320848452909152812054612d319060019061552a565b6001600160a01b0384166000908152609a602052604081208054929350909183908110612d6e57634e487b7160e01b600052603260045260246000fd5b60009182526020808320600460099093020191909101546001600160a01b038781168452609a9092526040832080549290911693509084908110612dc257634e487b7160e01b600052603260045260246000fd5b60009182526020808320600360099093020191909101546001600160a01b038881168452609a9092526040832080549290911693509085908110612e1657634e487b7160e01b600052603260045260246000fd5b600091825260208220600260099092020101546001600160801b03600160801b909104169150612e468787613795565b6001600160a01b0388166000908152609a602052604081208054929350909187908110612e8357634e487b7160e01b600052603260045260246000fd5b60009182526020808320600660099093020191909101546001600160a01b038b81168452609a9092526040832080549290911693509088908110612ed757634e487b7160e01b600052603260045260246000fd5b9060005260206000209060090201600701805480602002602001604051908101604052809291908181526020018280548015612f3c57602002820191906000526020600020905b81546001600160a01b03168152600190910190602001808311612f1e575b505050505090506000609a60008b6001600160a01b03166001600160a01b031681526020019081526020016000208881548110612f8957634e487b7160e01b600052603260045260246000fd5b906000526020600020906009020160080180548060200260200160405190810160405280929190818152602001828054801561301057602002820191906000526020600020906000905b82829054906101000a900463ffffffff1663ffffffff1681526020019060040190602082600301049283019260010382029150808411612fd35790505b505050505090506130218a8a612905565b61302b8a8a61372d565b61304187866001600160801b031685858561380e565b604051632142170760e11b81526001600160a01b038b16906342842e0e9061307190309088908e9060040161521c565b600060405180830381600087803b15801561308b57600080fd5b505af115801561309f573d6000803e3d6000fd5b50505050856001600160a01b0316876001600160a01b03168b6001600160a01b03167f08ff8776aa9dfead5713153ec011c6ce23d80a389215c384419cadc1acc4f7aa8c8989604051613117939291909283526001600160801b039190911660208301526001600160a01b0316604082015260600190565b60405180910390a450505050505050505050565b603380546001600160a01b038381166001600160a01b0319831681179093556040519116919082907f8be0079c531659141344cd1fd0a4f28419497f9722a3daafe3b4186f6b6457e090600090a35050565b8151815180821415806131905750600582115b156131b857604051631ffbfc4b60e01b815260048101839052602481018290526044016105a4565b6001600160801b038616158015906131f25750866001600160801b03166131f0876001600160801b0316611f4063ffffffff1661397e565b105b156132235760405163529a16e560e01b81526001600160801b038089166004830152871660248201526044016105a4565b6001600160a01b038a166000908152609a6020526040902054613247906001615440565b6001600160a01b038b811660008181526099602090815260408083208f8452825280832095909555918152609a825292832080546001810182559084529281902060099093029092018b81556006810180546001600160a01b031916928c1692909217909155855190916132c29160078401918801906149b8565b5083516132d89060088301906020870190614a1d565b506002810180546001600160801b039889166001600160801b0319909116179055600181018054600490920180546001600160a01b0319163317905563ffffffff90961663ffffffff1998909716600160601b02979097167fffffffff00000000000000000000000000000000ffffffffffffffff00000000909716969096179490941790925550505050505050565b6001600160a01b0382166000908152609a60209081526040808320609983528184208585529092528220548291906133a29060019061552a565b815481106133c057634e487b7160e01b600052603260045260246000fd5b600091825260209091206001600990920201015463ffffffff169050806133ed5762015180915050610b1b565b9050610b1b565b6001600160a01b0382166000908152609a602090815260408083206099835281842085855290925282205461342b9060019061552a565b8154811061344957634e487b7160e01b600052603260045260246000fd5b60009182526020909120600460099092020101546001600160a01b031690506134728383613997565b1561348c57613482838383613534565b610c5b8383612d01565b6134968383613aa9565b15610c5b576134a58383613b75565b610c5b838383613534565b6001600160a01b0382166000908152609a60209081526040808320609983528184208585529092528220548291906134ea9060019061552a565b8154811061350857634e487b7160e01b600052603260045260246000fd5b6000918252602090912060099091020160020154600160801b90046001600160801b0316119392505050565b6040516331a9108f60e11b8152600481018390526001600160a01b038083169190851690636352211e9060240160206040518083038186803b15801561357957600080fd5b505afa15801561358d573d6000803e3d6000fd5b505050506040513d601f19601f820116820180604052508101906135b19190614cc6565b6001600160a01b03161415610c5b57604051632142170760e11b81526001600160a01b038416906342842e0e906135f09084903090879060040161521c565b600060405180830381600087803b15801561360a57600080fd5b505af115801561361e573d6000803e3d6000fd5b50505050505050565b6136318282613ce0565b5050565b61364184848484613f40565b613662578383604051637f487ddb60e11b81526004016105a4929190615240565b61366d848483614029565b6136b95760405162461bcd60e51b815260206004820152601960248201527f496e73756666696369656e742066756e647320746f206269640000000000000060448201526064016105a4565b6136c48484836141b9565b6136ce84846133f4565b604080518481523460208201526001600160801b0383168183015290516001600160a01b03848116923392918816917f341120aa0dda9918f639de5b8ac08dd9a30cab1063e0cf0fc9abb8c6e8bffd369181900360600190a450505050565b613631828261433e565b600054610100900460ff1661375e5760405162461bcd60e51b81526004016105a490615345565b6112a23361312b565b600054610100900460ff1661378e5760405162461bcd60e51b81526004016105a490615345565b6001606555565b6001600160a01b0382166000908152609a60209081526040808320609983528184208585529092528220546137cc9060019061552a565b815481106137ea57634e487b7160e01b600052603260045260246000fd5b60009182526020909120600990910201600301546001600160a01b03169392505050565b6000606461381d60058761550b565b61382791906154c8565b9050613833818661552a565b609d5490955061384d906001600160a01b03168286612a0e565b60008060005b855181101561395f57600061271086838151811061388157634e487b7160e01b600052603260045260246000fd5b602002602001015163ffffffff168461389a9190615440565b11156138b1576138ac8361271061552a565b6138e0565b8582815181106138d157634e487b7160e01b600052603260045260246000fd5b602002602001015163ffffffff165b90506138ec8184615440565b925060006138fa8a8361397e565b90506139068186615440565b945061393a88848151811061392b57634e487b7160e01b600052603260045260246000fd5b6020026020010151828b612a0e565b612710841061394a57505061395f565b5050808061395790615541565b915050613853565b506139748861396e848a61552a565b88612a0e565b5050505050505050565b600061271061398d838561550b565b612cfa91906154c8565b6001600160a01b0382166000908152609a60209081526040808320609983528184208585529092528220548291906139d19060019061552a565b815481106139ef57634e487b7160e01b600052603260045260246000fd5b60009182526020909120600260099092020101546001600160801b031690508015801590613aa157506001600160a01b0384166000908152609a6020908152604080832060998352818420878552909252909120546001600160801b0383169190613a5c9060019061552a565b81548110613a7a57634e487b7160e01b600052603260045260246000fd5b6000918252602090912060099091020160020154600160801b90046001600160801b031610155b949350505050565b6001600160a01b0382166000908152609a6020908152604080832060998352818420858552909252822054829190613ae39060019061552a565b81548110613b0157634e487b7160e01b600052603260045260246000fd5b6000918252602090912060099091020160010154600160601b90046001600160801b031690508015801590613aa157506001600160a01b0384166000908152609a6020908152604080832060998352818420878552909252909120546001600160801b0383169190613a5c9060019061552a565b42613b808383613368565b63ffffffff16613b909190615480565b6001600160a01b0383166000908152609a602090815260408083206099835281842086855290925290912054613bc89060019061552a565b81548110613be657634e487b7160e01b600052603260045260246000fd5b600091825260208083206001600990930201820180546001600160401b0395909516640100000000026bffffffffffffffff0000000019909516949094179093556001600160a01b038516808352609a84526040808420609986528185208786529095529092205491927fa1e7b6c5b94ad1e2b5c13f1d1a517ae9584b9b96ed78750c76de93ae148ef231928592613c7d9161552a565b81548110613c9b57634e487b7160e01b600052603260045260246000fd5b906000526020600020906009020160010160049054906101000a90046001600160401b0316604051610fd59291909182526001600160401b0316602082015260400190565b6001600160a01b0382166000818152609b602090815260408083208584528083528184208054958552609c84529184205486855292529190915580821015613ea6576001600160a01b0384166000908152609c60205260408120613d4560018461552a565b81548110613d6357634e487b7160e01b600052603260045260246000fd5b600091825260208083206006909202909101546001600160a01b038816808452609b835260408085208386528452808520889055908452609c9092529120909150613daf60018461552a565b81548110613dcd57634e487b7160e01b600052603260045260246000fd5b600091825260208083206001600160a01b0389168452609c9091526040909220600690910290910190613e0160018661552a565b81548110613e1f57634e487b7160e01b600052603260045260246000fd5b60009182526020909120825460069092020190815560018083015490820180546001600160a01b039283166001600160a01b03199182161790915560028085015490840180549190931691161790556003808301549082015560048083018054613e8c9284019190614ac7565b5060058281018054613ea19284019190614b07565b505050505b6001600160a01b0384166000908152609c60205260409020805480613edb57634e487b7160e01b600052603160045260246000fd5b6000828152602081206006600019909301928302018181556001810180546001600160a01b031990811690915560028201805490911690556003810182905590613f286004830182614b54565b613f36600583016000614b72565b5050905550505050565b6001600160a01b0384166000908152609a6020908152604080832060998352818420878552909252822054829190613f7a9060019061552a565b81548110613f9857634e487b7160e01b600052603260045260246000fd5b60009182526020909120600990910201600601546001600160a01b031690508015613ff95734158015613fdc5750836001600160a01b0316816001600160a01b0316145b8015613ff157506000836001600160801b0316115b915050613aa1565b341580159061400f57506001600160a01b038416155b8015613ff1575050506001600160801b0316159392505050565b6001600160a01b0383166000908152609a60209081526040808320609983528184208685529092528220548291906140639060019061552a565b8154811061408157634e487b7160e01b600052603260045260246000fd5b60009182526020909120600260099092020101546001600160801b0316905080158015906140d45750806001600160801b0316341015806140d45750806001600160801b0316836001600160801b031610155b156140e3576001915050612cfa565b60006127106140f3606482615458565b6001600160a01b0388166000908152609a60209081526040808320609983528184208b85529092529091205463ffffffff92909216916141359060019061552a565b8154811061415357634e487b7160e01b600052603260045260246000fd5b906000526020600020906009020160020160109054906101000a90046001600160801b031661418291906154dc565b61418c91906154a2565b6001600160801b0316905080341015806141af575080846001600160801b031610155b9695505050505050565b6001600160a01b0383166000908152609a60209081526040808320609983528184208685529092528220546141f09060019061552a565b8154811061420e57634e487b7160e01b600052603260045260246000fd5b60009182526020808320600360099093020191909101546001600160a01b038781168452609a83526040808520609985528186208987529094528420549116935061425b9060019061552a565b8154811061427957634e487b7160e01b600052603260045260246000fd5b60009182526020808320600992909202909101600201546001600160a01b0388168352609a8252604080842060998452818520898652909352832054600160801b9091046001600160801b031693506142d49060019061552a565b815481106142f257634e487b7160e01b600052603260045260246000fd5b60009182526020909120600660099092020101546001600160a01b0316905061431c8686866146c3565b6001600160a01b0383161561433657614336838383612a0e565b505050505050565b6001600160a01b03821660008181526099602090815260408083208584528083528184208054958552609a84529184205486855292529190915580821015614605576001600160a01b0384166000908152609a602052604081206143a360018461552a565b815481106143c157634e487b7160e01b600052603260045260246000fd5b600091825260208083206009909202909101546001600160a01b0388168084526099835260408085208386528452808520889055908452609a909252912090915061440d60018461552a565b8154811061442b57634e487b7160e01b600052603260045260246000fd5b600091825260208083206001600160a01b0389168452609a909152604090922060099091029091019061445f60018661552a565b8154811061447d57634e487b7160e01b600052603260045260246000fd5b60009182526020909120825460099092020190815560018083018054918301805463ffffffff19811663ffffffff909416938417825582546001600160401b036401000000009182900416026bffffffffffffffffffffffff199091169093179290921780835590546001600160801b03600160601b9182900481169091026fffffffffffffffffffffffffffffffff60601b19909216919091179091556002808401805491840180546001600160801b03191692841692831781559054600160801b9081900490931690920217905560038083015490820180546001600160a01b03199081166001600160a01b039384161790915560048085015490840180548316918416919091179055600580850154908401805483169184169190911790556006808501805491850180549384169290941691821784555460ff600160a01b91829004161515026001600160a81b031990921617179055600780830180546145eb9284019190614ac7565b50600882810180546146009284019190614b07565b505050505b6001600160a01b0384166000908152609a6020526040902080548061463a57634e487b7160e01b600052603160045260246000fd5b6000828152602081206009600019909301928302018181556001810180546001600160e01b0319169055600281018290556003810180546001600160a01b03199081169091556004820180548216905560058201805490911690556006810180546001600160a81b0319169055906146b56007830182614b54565b613f36600883016000614b72565b6001600160a01b0383166000908152609a60209081526040808320609983528184208685529092528220546146fa9060019061552a565b8154811061471857634e487b7160e01b600052603260045260246000fd5b60009182526020909120600990910201600601546001600160a01b031690508015614895576040516323b872dd60e01b81523360048201523060248201526001600160801b03831660448201526001600160a01b038216906323b872dd90606401602060405180830381600087803b15801561479357600080fd5b505af11580156147a7573d6000803e3d6000fd5b505050506040513d601f19601f820116820180604052508101906147cb9190614fb3565b6148025760405163fefc7c5560e01b81526001600160a01b03821660048201526001600160801b03831660248201526044016105a4565b6001600160a01b0384166000908152609a60209081526040808320609983528184208785529092529091205483919061483d9060019061552a565b8154811061485b57634e487b7160e01b600052603260045260246000fd5b906000526020600020906009020160020160106101000a8154816001600160801b0302191690836001600160801b03160217905550614924565b6001600160a01b0384166000908152609a6020908152604080832060998352818420878552909252909120543491906148d09060019061552a565b815481106148ee57634e487b7160e01b600052603260045260246000fd5b906000526020600020906009020160020160106101000a8154816001600160801b0302191690836001600160801b031602179055505b6001600160a01b0384166000908152609a60209081526040808320609983528184208785529092529091205433919061495f9060019061552a565b8154811061497d57634e487b7160e01b600052603260045260246000fd5b906000526020600020906009020160030160006101000a8154816001600160a01b0302191690836001600160a01b0316021790555050505050565b828054828255906000526020600020908101928215614a0d579160200282015b82811115614a0d57825182546001600160a01b0319166001600160a01b039091161782556020909201916001909101906149d8565b50614a19929150614b93565b5090565b82805482825590600052602060002090600701600890048101928215614a0d5791602002820160005b83821115614a8a57835183826101000a81548163ffffffff021916908363ffffffff1602179055509260200192600401602081600301049283019260010302614a46565b8015614aba5782816101000a81549063ffffffff0219169055600401602081600301049283019260010302614a8a565b5050614a19929150614b93565b828054828255906000526020600020908101928215614a0d5760005260206000209182015b82811115614a0d578254825591600101919060010190614aec565b82805482825590600052602060002090600701600890048101928215614a0d5760005260206000209160070160089004820182811115614a0d578254825591600101919060010190614aec565b50805460008255906000526020600020908101906127309190614b93565b50805460008255600701600890049060005260206000209081019061273091905b5b80821115614a195760008155600101614b94565b600082601f830112614bb8578081fd5b81356020614bcd614bc88361541d565b6153ed565b80838252828201915082860187848660051b8901011115614bec578586fd5b855b85811015614c13578135614c018161559e565b84529284019290840190600101614bee565b5090979650505050505050565b600082601f830112614c30578081fd5b81356020614c40614bc88361541d565b80838252828201915082860187848660051b8901011115614c5f578586fd5b855b85811015614c1357813563ffffffff81168114614c7c578788fd5b84529284019290840190600101614c61565b80356001600160801b0381168114614ca557600080fd5b919050565b600060208284031215614cbb578081fd5b8135612cfa8161559e565b600060208284031215614cd7578081fd5b8151612cfa8161559e565b60008060408385031215614cf4578081fd5b8235614cff8161559e565b91506020830135614d0f8161559e565b809150509250929050565b600080600080600060808688031215614d31578081fd5b8535614d3c8161559e565b94506020860135614d4c8161559e565b93506040860135925060608601356001600160401b0380821115614d6e578283fd5b818801915088601f830112614d81578283fd5b813581811115614d8f578384fd5b896020828501011115614da0578384fd5b9699959850939650602001949392505050565b60008060408385031215614dc5578182fd5b8235614dd08161559e565b91506020830135614d0f816155b3565b60008060408385031215614df2578182fd5b8235614dfd8161559e565b946020939093013593505050565b60008060008060808587031215614e20578384fd5b8435614e2b8161559e565b9350602085013592506040850135614e428161559e565b9150614e5060608601614c8e565b905092959194509250565b60008060008060008060c08789031215614e73578081fd5b8635614e7e8161559e565b9550602087013594506040870135614e958161559e565b9350614ea360608801614c8e565b925060808701356001600160401b0380821115614ebe578283fd5b614eca8a838b01614ba8565b935060a0890135915080821115614edf578283fd5b50614eec89828a01614c20565b9150509295509295509295565b600080600080600080600080610100898b031215614f15578182fd5b8835614f208161559e565b9750602089013596506040890135614f378161559e565b9550614f4560608a01614c8e565b9450614f5360808a01614c8e565b935060a0890135925060c08901356001600160401b0380821115614f75578384fd5b614f818c838d01614ba8565b935060e08b0135915080821115614f96578283fd5b50614fa38b828c01614c20565b9150509295985092959890939650565b600060208284031215614fc4578081fd5b8151612cfa816155b3565b600060208284031215614fe0578081fd5b5035919050565b60008060408385031215614ff9578182fd5b823591506020830135614d0f8161559e565b6000815180845260208085019450808401835b838110156150435781516001600160a01b03168752958201959082019060010161501e565b509495945050505050565b6000815180845260208085019450808401835b8381101561504357815163ffffffff1687529582019590820190600101615061565b60006101a08251845260208301516150a3602086018263ffffffff169052565b5060408301516150be60408601826001600160401b03169052565b5060608301516150d960608601826001600160801b03169052565b5060808301516150f460808601826001600160801b03169052565b5060a083015161510f60a08601826001600160801b03169052565b5060c083015161512a60c08601826001600160a01b03169052565b5060e083015161514560e08601826001600160a01b03169052565b50610100838101516001600160a01b0390811691860191909152610120808501519091169085015261014080840151151590850152610160808401518186018390526151938387018261500b565b9250505061018080840151858303828701526141af838261504e565b805182526000602082015160018060a01b038082166020860152806040850151166040860152505060608201516060840152608082015160c060808501526151fa60c085018261500b565b905060a083015184820360a0860152615213828261504e565b95945050505050565b6001600160a01b039384168152919092166020820152604081019190915260600190565b6001600160a01b03929092168252602082015260400190565b6000602080830181845280855180835260408601915060408160051b8701019250838701855b828110156152ad57603f1988860301845261529b858351615083565b9450928501929085019060010161527f565b5092979650505050505050565b6000602080830181845280855180835260408601915060408160051b8701019250838701855b828110156152ad57603f198886030184526152fc8583516151af565b945092850192908501906001016152e0565b60208082526019908201527f556e72656769737465726564206e667420636f6e747261637400000000000000604082015260600190565b6020808252602b908201527f496e697469616c697a61626c653a20636f6e7472616374206973206e6f74206960408201526a6e697469616c697a696e6760a81b606082015260800190565b6020808252601f908201527f5265656e7472616e637947756172643a207265656e7472616e742063616c6c00604082015260600190565b602081526000612cfa6020830184615083565b602081526000612cfa60208301846151af565b604051601f8201601f191681016001600160401b038111828210171561541557615415615588565b604052919050565b60006001600160401b0382111561543657615436615588565b5060051b60200190565b600082198211156154535761545361555c565b500190565b600063ffffffff8083168185168083038211156154775761547761555c565b01949350505050565b60006001600160401b038083168185168083038211156154775761547761555c565b60006001600160801b03808416806154bc576154bc615572565b92169190910492915050565b6000826154d7576154d7615572565b500490565b60006001600160801b03808316818516818304811182151516156155025761550261555c565b02949350505050565b60008160001904831182151516156155255761552561555c565b500290565b60008282101561553c5761553c61555c565b500390565b60006000198214156155555761555561555c565b5060010190565b634e487b7160e01b600052601160045260246000fd5b634e487b7160e01b600052601260045260246000fd5b634e487b7160e01b600052604160045260246000fd5b6001600160a01b038116811461273057600080fd5b801515811461273057600080fdfea2646970667358221220bf8af0cf4111f26e8d855e57c26712ff0b80df3e35e18ec8fd2c912d91c3767164736f6c63430008040033",
  "linkReferences": {},
  "deployedLinkReferences": {}
}