{
  "_format": "hh-sol-artifact-1",
  "contractName": "NFTEngineV1",
  "sourceName": "contracts/engine/NFTEngineV1.sol",
  "abi": [
    {
      "inputs": [
        {
          "internalType": "address",
          "name": "nftContract",
          "type": "address"
        },
        {
          "internalType": "uint256",
          "name": "tokenId",
          "type": "uint256"
        }
      ],
      "name": "NFTEngineAlreadySalingToken",
      "type": "error"
    },
    {
      "inputs": [
        {
          "internalType": "address",
          "name": "nftContract",
          "type": "address"
        },
        {
          "internalType": "uint256",
          "name": "tokenId",
          "type": "uint256"
        }
      ],
      "name": "NFTEngineAuctionFinished",
      "type": "error"
    },
    {
      "inputs": [
        {
          "internalType": "address",
          "name": "nftContract",
          "type": "address"
        },
        {
          "internalType": "uint256",
          "name": "tokenId",
          "type": "uint256"
        }
      ],
      "name": "NFTEngineAuctionSellerCant",
      "type": "error"
    },
    {
      "inputs": [
        {
          "internalType": "address",
          "name": "nftContract",
          "type": "address"
        },
        {
          "internalType": "uint256",
          "name": "tokenId",
          "type": "uint256"
        }
      ],
      "name": "NFTEngineDidNotBid",
      "type": "error"
    },
    {
      "inputs": [
        {
          "internalType": "address",
          "name": "erc20token",
          "type": "address"
        },
        {
          "internalType": "uint256",
          "name": "amount",
          "type": "uint256"
        }
      ],
      "name": "NFTEngineERC20TransferFailed",
      "type": "error"
    },
    {
      "inputs": [],
      "name": "NFTEngineFeeRatesExceed",
      "type": "error"
    },
    {
      "inputs": [
        {
          "internalType": "uint256",
          "name": "minPrice",
          "type": "uint256"
        },
        {
          "internalType": "uint256",
          "name": "buyNowPrice",
          "type": "uint256"
        }
      ],
      "name": "NFTEngineInvalidMinPrice",
      "type": "error"
    },
    {
      "inputs": [
        {
          "internalType": "uint256",
          "name": "price",
          "type": "uint256"
        }
      ],
      "name": "NFTEngineInvalidPrice",
      "type": "error"
    },
    {
      "inputs": [
        {
          "internalType": "address",
          "name": "nftContract",
          "type": "address"
        },
        {
          "internalType": "uint256",
          "name": "tokenId",
          "type": "uint256"
        }
      ],
      "name": "NFTEngineNotAcceptablePayment",
      "type": "error"
    },
    {
      "inputs": [
        {
          "internalType": "address",
          "name": "nftContract",
          "type": "address"
        },
        {
          "internalType": "uint256",
          "name": "tokenId",
          "type": "uint256"
        }
      ],
      "name": "NFTEngineNotApprovedToken",
      "type": "error"
    },
    {
      "inputs": [
        {
          "internalType": "address",
          "name": "seller",
          "type": "address"
        }
      ],
      "name": "NFTEngineNotAuctionSeller",
      "type": "error"
    },
    {
      "inputs": [
        {
          "internalType": "address",
          "name": "nftContract",
          "type": "address"
        },
        {
          "internalType": "uint256",
          "name": "tokenId",
          "type": "uint256"
        }
      ],
      "name": "NFTEngineNotHighestBidder",
      "type": "error"
    },
    {
      "inputs": [
        {
          "internalType": "uint256",
          "name": "recipients",
          "type": "uint256"
        },
        {
          "internalType": "uint256",
          "name": "rates",
          "type": "uint256"
        }
      ],
      "name": "NFTEngineNotMatchedLength",
      "type": "error"
    },
    {
      "inputs": [
        {
          "internalType": "address",
          "name": "nftContract",
          "type": "address"
        },
        {
          "internalType": "uint256",
          "name": "tokenId",
          "type": "uint256"
        }
      ],
      "name": "NFTEngineNotSalingToken",
      "type": "error"
    },
    {
      "inputs": [
        {
          "internalType": "address",
          "name": "nftContract",
          "type": "address"
        },
        {
          "internalType": "uint256",
          "name": "tokenId",
          "type": "uint256"
        }
      ],
      "name": "NFTEngineNotTokenOwner",
      "type": "error"
    },
    {
      "inputs": [
        {
          "internalType": "address",
          "name": "nftContract",
          "type": "address"
        },
        {
          "internalType": "uint256",
          "name": "tokenId",
          "type": "uint256"
        }
      ],
      "name": "NFTEngineNotWhitelistedBuyer",
      "type": "error"
    },
    {
      "inputs": [
        {
          "internalType": "address",
          "name": "nftContract",
          "type": "address"
        },
        {
          "internalType": "uint256",
          "name": "tokenId",
          "type": "uint256"
        }
      ],
      "name": "NFTEngineTokenOwner",
      "type": "error"
    },
    {
      "inputs": [
        {
          "internalType": "address",
          "name": "nftContract",
          "type": "address"
        },
        {
          "internalType": "uint256",
          "name": "tokenId",
          "type": "uint256"
        }
      ],
      "name": "NFTEngineTokenTransferFailed",
      "type": "error"
    },
    {
      "anonymous": false,
      "inputs": [
        {
          "indexed": false,
          "internalType": "uint8",
          "name": "version",
          "type": "uint8"
        }
      ],
      "name": "Initialized",
      "type": "event"
    },
    {
      "anonymous": false,
      "inputs": [
        {
          "indexed": true,
          "internalType": "address",
          "name": "nftContract",
          "type": "address"
        },
        {
          "indexed": false,
          "internalType": "uint256",
          "name": "tokenId",
          "type": "uint256"
        },
        {
          "indexed": true,
          "internalType": "address",
          "name": "bidder",
          "type": "address"
        },
        {
          "indexed": false,
          "internalType": "uint256",
          "name": "ethAmount",
          "type": "uint256"
        },
        {
          "indexed": true,
          "internalType": "address",
          "name": "erc20Token",
          "type": "address"
        },
        {
          "indexed": false,
          "internalType": "uint256",
          "name": "tokenAmount",
          "type": "uint256"
        }
      ],
      "name": "NFTAuctionBidMade",
      "type": "event"
    },
    {
      "anonymous": false,
      "inputs": [
        {
          "indexed": true,
          "internalType": "address",
          "name": "nftContract",
          "type": "address"
        },
        {
          "indexed": false,
          "internalType": "uint256",
          "name": "tokenId",
          "type": "uint256"
        },
        {
          "indexed": true,
          "internalType": "address",
          "name": "highestBidder",
          "type": "address"
        }
      ],
      "name": "NFTAuctionBidWithdrawn",
      "type": "event"
    },
    {
      "anonymous": false,
      "inputs": [
        {
          "indexed": true,
          "internalType": "address",
          "name": "nftContract",
          "type": "address"
        },
        {
          "indexed": false,
          "internalType": "uint256",
          "name": "tokenId",
          "type": "uint256"
        },
        {
          "indexed": false,
          "internalType": "uint128",
          "name": "newBuyNowPrice",
          "type": "uint128"
        }
      ],
      "name": "NFTAuctionBuyNowPriceUpdated",
      "type": "event"
    },
    {
      "anonymous": false,
      "inputs": [
        {
          "indexed": true,
          "internalType": "address",
          "name": "nftContract",
          "type": "address"
        },
        {
          "indexed": false,
          "internalType": "uint256",
          "name": "tokenId",
          "type": "uint256"
        },
        {
          "indexed": true,
          "internalType": "address",
          "name": "seller",
          "type": "address"
        },
        {
          "indexed": true,
          "internalType": "address",
          "name": "erc20Token",
          "type": "address"
        },
        {
          "indexed": false,
          "internalType": "uint128",
          "name": "minPrice",
          "type": "uint128"
        },
        {
          "indexed": false,
          "internalType": "uint128",
          "name": "buyNowPrice",
          "type": "uint128"
        },
        {
          "indexed": false,
          "internalType": "uint32",
          "name": "auctionBidPeriod",
          "type": "uint32"
        },
        {
          "indexed": false,
          "internalType": "uint32",
          "name": "bidIncRate",
          "type": "uint32"
        }
      ],
      "name": "NFTAuctionCreated",
      "type": "event"
    },
    {
      "anonymous": false,
      "inputs": [
        {
          "indexed": true,
          "internalType": "address",
          "name": "nftContract",
          "type": "address"
        },
        {
          "indexed": false,
          "internalType": "uint256",
          "name": "tokenId",
          "type": "uint256"
        }
      ],
      "name": "NFTAuctionHighestBidTaken",
      "type": "event"
    },
    {
      "anonymous": false,
      "inputs": [
        {
          "indexed": true,
          "internalType": "address",
          "name": "nftContract",
          "type": "address"
        },
        {
          "indexed": false,
          "internalType": "uint256",
          "name": "tokenId",
          "type": "uint256"
        },
        {
          "indexed": false,
          "internalType": "uint256",
          "name": "newMinPrice",
          "type": "uint256"
        }
      ],
      "name": "NFTAuctionMinPriceUpdated",
      "type": "event"
    },
    {
      "anonymous": false,
      "inputs": [
        {
          "indexed": true,
          "internalType": "address",
          "name": "nftContract",
          "type": "address"
        },
        {
          "indexed": false,
          "internalType": "uint256",
          "name": "tokenId",
          "type": "uint256"
        },
        {
          "indexed": true,
          "internalType": "address",
          "name": "seller",
          "type": "address"
        },
        {
          "indexed": false,
          "internalType": "uint128",
          "name": "highestBid",
          "type": "uint128"
        },
        {
          "indexed": true,
          "internalType": "address",
          "name": "highestBidder",
          "type": "address"
        },
        {
          "indexed": false,
          "internalType": "address",
          "name": "buyer",
          "type": "address"
        }
      ],
      "name": "NFTAuctionPaid",
      "type": "event"
    },
    {
      "anonymous": false,
      "inputs": [
        {
          "indexed": true,
          "internalType": "address",
          "name": "nftContract",
          "type": "address"
        },
        {
          "indexed": false,
          "internalType": "uint256",
          "name": "tokenId",
          "type": "uint256"
        },
        {
          "indexed": true,
          "internalType": "address",
          "name": "settler",
          "type": "address"
        }
      ],
      "name": "NFTAuctionSettled",
      "type": "event"
    },
    {
      "anonymous": false,
      "inputs": [
        {
          "indexed": true,
          "internalType": "address",
          "name": "nftContract",
          "type": "address"
        },
        {
          "indexed": false,
          "internalType": "uint256",
          "name": "tokenId",
          "type": "uint256"
        },
        {
          "indexed": false,
          "internalType": "uint64",
          "name": "auctionEndPeriod",
          "type": "uint64"
        }
      ],
      "name": "NFTAuctionUpdated",
      "type": "event"
    },
    {
      "anonymous": false,
      "inputs": [
        {
          "indexed": true,
          "internalType": "address",
          "name": "nftContract",
          "type": "address"
        },
        {
          "indexed": false,
          "internalType": "uint256",
          "name": "tokenId",
          "type": "uint256"
        }
      ],
      "name": "NFTAuctionWithdrawn",
      "type": "event"
    },
    {
      "anonymous": false,
      "inputs": [
        {
          "indexed": true,
          "internalType": "address",
          "name": "nftContract",
          "type": "address"
        },
        {
          "indexed": false,
          "internalType": "uint256",
          "name": "tokenId",
          "type": "uint256"
        },
        {
          "indexed": true,
          "internalType": "address",
          "name": "to",
          "type": "address"
        }
      ],
      "name": "NFTTokenSaleClosed",
      "type": "event"
    },
    {
      "anonymous": false,
      "inputs": [
        {
          "indexed": true,
          "internalType": "address",
          "name": "nftContract",
          "type": "address"
        },
        {
          "indexed": false,
          "internalType": "uint256",
          "name": "tokenId",
          "type": "uint256"
        },
        {
          "indexed": true,
          "internalType": "address",
          "name": "from",
          "type": "address"
        },
        {
          "indexed": true,
          "internalType": "address",
          "name": "erc20Token",
          "type": "address"
        },
        {
          "indexed": false,
          "internalType": "uint256",
          "name": "price",
          "type": "uint256"
        }
      ],
      "name": "NFTTokenSaleCreated",
      "type": "event"
    },
    {
      "anonymous": false,
      "inputs": [
        {
          "indexed": true,
          "internalType": "address",
          "name": "nftContract",
          "type": "address"
        },
        {
          "indexed": false,
          "internalType": "uint256",
          "name": "tokenId",
          "type": "uint256"
        }
      ],
      "name": "NFTTokenSaleWithdrawn",
      "type": "event"
    },
    {
      "anonymous": false,
      "inputs": [
        {
          "indexed": true,
          "internalType": "address",
          "name": "previousOwner",
          "type": "address"
        },
        {
          "indexed": true,
          "internalType": "address",
          "name": "newOwner",
          "type": "address"
        }
      ],
      "name": "OwnershipTransferred",
      "type": "event"
    },
    {
      "inputs": [
        {
          "internalType": "address",
          "name": "nftContract",
          "type": "address"
        },
        {
          "internalType": "uint256",
          "name": "tokenId",
          "type": "uint256"
        }
      ],
      "name": "buyNFT",
      "outputs": [],
      "stateMutability": "payable",
      "type": "function"
    },
    {
      "inputs": [
        {
          "internalType": "address",
          "name": "newTreasury",
          "type": "address"
        }
      ],
      "name": "changeTreasury",
      "outputs": [],
      "stateMutability": "nonpayable",
      "type": "function"
    },
    {
      "inputs": [
        {
          "internalType": "address",
          "name": "nftContract",
          "type": "address"
        },
        {
          "internalType": "uint256",
          "name": "tokenId",
          "type": "uint256"
        },
        {
          "internalType": "address",
          "name": "erc20Token",
          "type": "address"
        },
        {
          "internalType": "uint128",
          "name": "minPrice",
          "type": "uint128"
        },
        {
          "internalType": "uint128",
          "name": "buyNowPrice",
          "type": "uint128"
        },
        {
          "internalType": "address[]",
          "name": "feeRecipients",
          "type": "address[]"
        },
        {
          "internalType": "uint32[]",
          "name": "feeRates",
          "type": "uint32[]"
        }
      ],
      "name": "createAuction",
      "outputs": [],
      "stateMutability": "nonpayable",
      "type": "function"
    },
    {
      "inputs": [
        {
          "internalType": "address",
          "name": "nftContract",
          "type": "address"
        },
        {
          "internalType": "uint256[]",
          "name": "tokenIds",
          "type": "uint256[]"
        },
        {
          "internalType": "address",
          "name": "erc20Token",
          "type": "address"
        },
        {
          "internalType": "uint128",
          "name": "sellPrice",
          "type": "uint128"
        },
        {
          "internalType": "address[]",
          "name": "feeRecipients",
          "type": "address[]"
        },
        {
          "internalType": "uint32[]",
          "name": "feeRates",
          "type": "uint32[]"
        }
      ],
      "name": "createBatchSale",
      "outputs": [],
      "stateMutability": "nonpayable",
      "type": "function"
    },
    {
      "inputs": [
        {
          "internalType": "address",
          "name": "nftContract",
          "type": "address"
        },
        {
          "internalType": "uint256",
          "name": "tokenId",
          "type": "uint256"
        },
        {
          "internalType": "address",
          "name": "erc20Token",
          "type": "address"
        },
        {
          "internalType": "uint128",
          "name": "sellPrice",
          "type": "uint128"
        },
        {
          "internalType": "address[]",
          "name": "feeRecipients",
          "type": "address[]"
        },
        {
          "internalType": "uint32[]",
          "name": "feeRates",
          "type": "uint32[]"
        }
      ],
      "name": "createSale",
      "outputs": [],
      "stateMutability": "nonpayable",
      "type": "function"
    },
    {
      "inputs": [],
      "name": "defaultAuctionBidPeriod",
      "outputs": [
        {
          "internalType": "uint32",
          "name": "",
          "type": "uint32"
        }
      ],
      "stateMutability": "view",
      "type": "function"
    },
    {
      "inputs": [],
      "name": "defaultBidIncRate",
      "outputs": [
        {
          "internalType": "uint32",
          "name": "",
          "type": "uint32"
        }
      ],
      "stateMutability": "view",
      "type": "function"
    },
    {
      "inputs": [],
      "name": "feeToTreasury",
      "outputs": [
        {
          "internalType": "uint256",
          "name": "",
          "type": "uint256"
        }
      ],
      "stateMutability": "view",
      "type": "function"
    },
    {
      "inputs": [
        {
          "internalType": "uint256",
          "name": "nftType",
          "type": "uint256"
        }
      ],
      "name": "getNFTContract",
      "outputs": [
        {
          "internalType": "address",
          "name": "",
          "type": "address"
        }
      ],
      "stateMutability": "view",
      "type": "function"
    },
    {
      "inputs": [
        {
          "internalType": "address",
          "name": "nftContract",
          "type": "address"
        },
        {
          "internalType": "uint256",
          "name": "tokenId",
          "type": "uint256"
        }
      ],
      "name": "getTokenAuctionInfo",
      "outputs": [
        {
          "components": [
            {
              "internalType": "uint32",
              "name": "bidIncRate",
              "type": "uint32"
            },
            {
              "internalType": "uint32",
              "name": "bidPeriod",
              "type": "uint32"
            },
            {
              "internalType": "uint64",
              "name": "endTime",
              "type": "uint64"
            },
            {
              "internalType": "uint128",
              "name": "minPrice",
              "type": "uint128"
            },
            {
              "internalType": "uint128",
              "name": "buyNowPrice",
              "type": "uint128"
            },
            {
              "internalType": "uint128",
              "name": "highestBid",
              "type": "uint128"
            },
            {
              "internalType": "address",
              "name": "highestBidder",
              "type": "address"
            },
            {
              "internalType": "address",
              "name": "seller",
              "type": "address"
            },
            {
              "internalType": "address",
              "name": "whitelistedBuyer",
              "type": "address"
            },
            {
              "internalType": "address",
              "name": "recipient",
              "type": "address"
            },
            {
              "internalType": "address",
              "name": "erc20Token",
              "type": "address"
            },
            {
              "internalType": "bool",
              "name": "isOnSale",
              "type": "bool"
            },
            {
              "internalType": "address[]",
              "name": "feeRecipients",
              "type": "address[]"
            },
            {
              "internalType": "uint32[]",
              "name": "feeRates",
              "type": "uint32[]"
            }
          ],
          "internalType": "struct LTypes.AuctionNFT",
          "name": "",
          "type": "tuple"
        }
      ],
      "stateMutability": "view",
      "type": "function"
    },
    {
      "inputs": [
        {
          "internalType": "address",
          "name": "nftContract",
          "type": "address"
        },
        {
          "internalType": "uint256",
          "name": "tokenId",
          "type": "uint256"
        }
      ],
      "name": "getTokenSaleInfo",
      "outputs": [
        {
          "components": [
            {
              "internalType": "address",
              "name": "erc20Token",
              "type": "address"
            },
            {
              "internalType": "address",
              "name": "seller",
              "type": "address"
            },
            {
              "internalType": "uint256",
              "name": "price",
              "type": "uint256"
            },
            {
              "internalType": "address[]",
              "name": "feeRecipients",
              "type": "address[]"
            },
            {
              "internalType": "uint32[]",
              "name": "feeRates",
              "type": "uint32[]"
            }
          ],
          "internalType": "struct LTypes.SellNFT",
          "name": "",
          "type": "tuple"
        }
      ],
      "stateMutability": "view",
      "type": "function"
    },
    {
      "inputs": [
        {
          "internalType": "address",
          "name": "nftContract",
          "type": "address"
        }
      ],
      "name": "getTokensOnAuction",
      "outputs": [
        {
          "internalType": "uint256[]",
          "name": "",
          "type": "uint256[]"
        }
      ],
      "stateMutability": "view",
      "type": "function"
    },
    {
      "inputs": [
        {
          "internalType": "address",
          "name": "nftContract",
          "type": "address"
        }
      ],
      "name": "getTokensOnSale",
      "outputs": [
        {
          "internalType": "uint256[]",
          "name": "",
          "type": "uint256[]"
        }
      ],
      "stateMutability": "view",
      "type": "function"
    },
    {
      "inputs": [
        {
          "internalType": "address",
          "name": "admin",
          "type": "address"
        },
        {
          "internalType": "address",
          "name": "treasury",
          "type": "address"
        }
      ],
      "name": "initialize",
      "outputs": [],
      "stateMutability": "nonpayable",
      "type": "function"
    },
    {
      "inputs": [
        {
          "internalType": "address",
          "name": "nftContract",
          "type": "address"
        },
        {
          "internalType": "uint256",
          "name": "tokenId",
          "type": "uint256"
        },
        {
          "internalType": "address",
          "name": "erc20Token",
          "type": "address"
        },
        {
          "internalType": "uint128",
          "name": "amount",
          "type": "uint128"
        }
      ],
      "name": "makeBid",
      "outputs": [],
      "stateMutability": "payable",
      "type": "function"
    },
    {
      "inputs": [],
      "name": "maxMinPriceRate",
      "outputs": [
        {
          "internalType": "uint32",
          "name": "",
          "type": "uint32"
        }
      ],
      "stateMutability": "view",
      "type": "function"
    },
    {
      "inputs": [],
      "name": "minSettableIncRate",
      "outputs": [
        {
          "internalType": "uint32",
          "name": "",
          "type": "uint32"
        }
      ],
      "stateMutability": "view",
      "type": "function"
    },
    {
      "inputs": [
        {
          "internalType": "address",
          "name": "erc20",
          "type": "address"
        },
        {
          "internalType": "uint256",
          "name": "price",
          "type": "uint256"
        },
        {
          "internalType": "uint256",
          "name": "royalty",
          "type": "uint256"
        },
        {
          "internalType": "string",
          "name": "uri",
          "type": "string"
        }
      ],
      "name": "mintNFT",
      "outputs": [],
      "stateMutability": "nonpayable",
      "type": "function"
    },
    {
      "inputs": [
        {
          "internalType": "address",
          "name": "nftContract",
          "type": "address"
        },
        {
          "internalType": "uint256",
          "name": "tokenId",
          "type": "uint256"
        }
      ],
      "name": "nftOwner",
      "outputs": [
        {
          "internalType": "address",
          "name": "",
          "type": "address"
        }
      ],
      "stateMutability": "view",
      "type": "function"
    },
    {
      "inputs": [
        {
          "internalType": "address",
          "name": "operator",
          "type": "address"
        },
        {
          "internalType": "address",
          "name": "from",
          "type": "address"
        },
        {
          "internalType": "uint256",
          "name": "tokenId",
          "type": "uint256"
        },
        {
          "internalType": "bytes",
          "name": "data",
          "type": "bytes"
        }
      ],
      "name": "onERC721Received",
      "outputs": [
        {
          "internalType": "bytes4",
          "name": "",
          "type": "bytes4"
        }
      ],
      "stateMutability": "pure",
      "type": "function"
    },
    {
      "inputs": [],
      "name": "owner",
      "outputs": [
        {
          "internalType": "address",
          "name": "",
          "type": "address"
        }
      ],
      "stateMutability": "view",
      "type": "function"
    },
    {
      "inputs": [],
      "name": "renounceOwnership",
      "outputs": [],
      "stateMutability": "nonpayable",
      "type": "function"
    },
    {
      "inputs": [
        {
          "internalType": "address",
          "name": "customNFT",
          "type": "address"
        },
        {
          "internalType": "address",
          "name": "fractionalNFT",
          "type": "address"
        },
        {
          "internalType": "address",
          "name": "membershipNFT",
          "type": "address"
        },
        {
          "internalType": "address",
          "name": "owndNFT",
          "type": "address"
        }
      ],
      "name": "setNFTContracts",
      "outputs": [],
      "stateMutability": "nonpayable",
      "type": "function"
    },
    {
      "inputs": [
        {
          "internalType": "address",
          "name": "nftContract",
          "type": "address"
        },
        {
          "internalType": "uint256",
          "name": "tokenId",
          "type": "uint256"
        }
      ],
      "name": "settleAuction",
      "outputs": [],
      "stateMutability": "nonpayable",
      "type": "function"
    },
    {
      "inputs": [
        {
          "internalType": "address",
          "name": "nftContract",
          "type": "address"
        },
        {
          "internalType": "uint256",
          "name": "tokenId",
          "type": "uint256"
        }
      ],
      "name": "takeHighestBid",
      "outputs": [],
      "stateMutability": "nonpayable",
      "type": "function"
    },
    {
      "inputs": [
        {
          "internalType": "address",
          "name": "newOwner",
          "type": "address"
        }
      ],
      "name": "transferOwnership",
      "outputs": [],
      "stateMutability": "nonpayable",
      "type": "function"
    },
    {
      "inputs": [
        {
          "internalType": "address",
          "name": "nftContract",
          "type": "address"
        },
        {
          "internalType": "uint256",
          "name": "tokenId",
          "type": "uint256"
        }
      ],
      "name": "withdrawAuction",
      "outputs": [],
      "stateMutability": "nonpayable",
      "type": "function"
    },
    {
      "inputs": [
        {
          "internalType": "address",
          "name": "nftContract",
          "type": "address"
        },
        {
          "internalType": "uint256",
          "name": "tokenId",
          "type": "uint256"
        }
      ],
      "name": "withdrawBid",
      "outputs": [],
      "stateMutability": "nonpayable",
      "type": "function"
    },
    {
      "inputs": [
        {
          "internalType": "address",
          "name": "nftContract",
          "type": "address"
        },
        {
          "internalType": "uint256",
          "name": "tokenId",
          "type": "uint256"
        }
      ],
      "name": "withdrawSale",
      "outputs": [],
      "stateMutability": "nonpayable",
      "type": "function"
    }
  ],
  "bytecode": "0x608060405234801561001057600080fd5b5061460d806100206000396000f3fe6080604052600436106101c25760003560e01c8063880d5cc5116100f7578063c24d5a5c11610095578063ceb8982011610064578063ceb8982014610372578063ebea602514610526578063ed570de514610546578063f2fde38b1461056657600080fd5b8063c24d5a5c146104a3578063c2ab8766146104b6578063c3f50534146104d9578063c697a82c146104f957600080fd5b80639bbba3a8116100d15780639bbba3a814610430578063a82ba76f14610450578063b14f2a3914610463578063b603c7d01461048357600080fd5b8063880d5cc5146103dc57806388b98b12146103f25780638da5cb5b1461041257600080fd5b80635138b08c1161016457806369710d0b1161013e57806369710d0b14610372578063715018a6146103875780637af255ff1461039c578063848e5c77146103bc57600080fd5b80635138b08c14610304578063626368cf14610324578063655a2b1a1461035157600080fd5b80633562f1cf116101a05780633562f1cf1461025f578063398d874614610297578063485cc955146102c45780634cb8ef5b146102e457600080fd5b806303382f22146101c7578063150b7a02146101e9578063186779d514610233575b600080fd5b3480156101d357600080fd5b506101e76101e2366004613ea4565b610586565b005b3480156101f557600080fd5b50610215610204366004613c7e565b630a85bd0160e11b95945050505050565b6040516001600160e01b031990911681526020015b60405180910390f35b34801561023f57600080fd5b5061024a6201518081565b60405163ffffffff909116815260200161022a565b34801561026b57600080fd5b5061027f61027a3660046140b7565b6107b5565b6040516001600160a01b03909116815260200161022a565b3480156102a357600080fd5b506102b76102b2366004613e29565b610839565b60405161022a919061424a565b3480156102d057600080fd5b506101e76102df366004613beb565b610a79565b3480156102f057600080fd5b506101e76102ff366004613e29565b610bde565b34801561031057600080fd5b506101e761031f366004613e29565b610cf6565b34801561033057600080fd5b5061034461033f366004613bb3565b610e53565b60405161022a9190614184565b34801561035d57600080fd5b506101e761036c366004613fe5565b50505050565b34801561037e57600080fd5b5061024a606481565b34801561039357600080fd5b506101e7610ebf565b3480156103a857600080fd5b506101e76103b7366004613c23565b610ed3565b3480156103c857600080fd5b506101e76103d7366004613e29565b610ff9565b3480156103e857600080fd5b5061024a611f4081565b3480156103fe57600080fd5b506101e761040d366004613e29565b61112a565b34801561041e57600080fd5b506033546001600160a01b031661027f565b34801561043c57600080fd5b5061034461044b366004613bb3565b61130d565b6101e761045e366004613e29565b611377565b34801561046f57600080fd5b506101e761047e366004613bb3565b6118a8565b34801561048f57600080fd5b5061027f61049e366004613e29565b6118e5565b6101e76104b1366004613e54565b611967565b3480156104c257600080fd5b506104cb600581565b60405190815260200161022a565b3480156104e557600080fd5b506101e76104f4366004613f35565b611a61565b34801561050557600080fd5b50610519610514366004613e29565b611c3c565b60405161022a91906143a5565b34801561053257600080fd5b506101e7610541366004613e29565b611d74565b34801561055257600080fd5b506101e7610561366004613d17565b611e92565b34801561057257600080fd5b506101e7610581366004613bb3565b6120e9565b600260655414156105b25760405162461bcd60e51b81526004016105a990614213565b60405180910390fd5b60026065556040516331a9108f60e11b815260048101869052869086906001600160a01b03831690636352211e9060240160206040518083038186803b1580156105fb57600080fd5b505afa15801561060f573d6000803e3d6000fd5b505050506040513d601f19601f820116820180604052508101906106339190613bcf565b6001600160a01b0316336001600160a01b031614610668578181604051631464bc1b60e11b81526004016105a992919061416b565b60405163020604bf60e21b815260048101889052889088906001600160a01b0383169063081812fc9060240160206040518083038186803b1580156106ac57600080fd5b505afa1580156106c0573d6000803e3d6000fd5b505050506040513d601f19601f820116820180604052508101906106e49190613bcf565b6001600160a01b0316306001600160a01b031614610719578181604051631d6d11e160e31b81526004016105a992919061416b565b6001600160801b0387168061074457604051630b707dc560e21b8152600481018290526024016105a9565b6001600160a01b03808c166000908152609a602090815260408083208e84529091529020600101548c918c9116156107935781816040516370b8c95f60e01b81526004016105a992919061416b565b6107a18d8d8d8d8d8d612162565b505060016065555050505050505050505050565b6000609760008360038111156107db57634e487b7160e01b600052602160045260246000fd5b60038111156107fa57634e487b7160e01b600052602160045260246000fd5b600381111561081957634e487b7160e01b600052602160045260246000fd5b81526020810191909152604001600020546001600160a01b031692915050565b604080516101c08101825260008082526020820181905291810182905260608082018390526080820183905260a0820183905260c0820183905260e0820183905261010082018390526101208201839052610140820183905261016082019290925261018081018290526101a08101919091526001600160a01b03838116600090815260986020908152604080832086845282529182902082516101c081018452815463ffffffff808216835264010000000082041682850152600160401b81046001600160401b031682860152600160801b908190046001600160801b03908116606084015260018401548082166080850152919091041660a08201526002820154851660c08201526003820154851660e082015260048201548516610100820152600582015485166101208201526006820154948516610140820152600160a01b90940460ff16151561016085015260078101805484518185028101850190955280855291936101808601939092908301828280156109e357602002820191906000526020600020905b81546001600160a01b031681526001909101906020018083116109c5575b5050505050815260200160088201805480602002602001604051908101604052809291908181526020018280548015610a6757602002820191906000526020600020906000905b82829054906101000a900463ffffffff1663ffffffff1681526020019060040190602082600301049283019260010382029150808411610a2a5790505b50505050508152505090505b92915050565b600054610100900460ff1615808015610a995750600054600160ff909116105b80610ab35750303b158015610ab3575060005460ff166001145b610b165760405162461bcd60e51b815260206004820152602e60248201527f496e697469616c697a61626c653a20636f6e747261637420697320616c72656160448201526d191e481a5b9a5d1a585b1a5e995960921b60648201526084016105a9565b6000805460ff191660011790558015610b39576000805461ff0019166101001790555b6001600160a01b038316610b4c57600080fd5b6001600160a01b038216610b5f57600080fd5b610b67612287565b610b6f6122b6565b609d80546001600160a01b0319166001600160a01b038416179055610b93836120e9565b8015610bd9576000805461ff0019169055604051600181527f7f26b83ff96e1f2b6a682f133852f6798a09c465da95921460cefb38474024989060200160405180910390a15b505050565b60026065541415610c015760405162461bcd60e51b81526004016105a990614213565b600260658190556001600160a01b03808416600090815260986020908152604080832086845290915290209091015416338114610c55578282604051638dcad11b60e01b81526004016105a992919061416b565b6001600160a01b0383166000908152609860209081526040808320858452909152902060010154600160801b90046001600160801b0316610c9684846122e5565b610cab848484846001600160801b031661233d565b60405183815233906001600160a01b038616907f1c67fba99d945a891489857a6f588badd10a0834d848de5574580cea4974ff5b9060200160405180910390a3505060016065555050565b60026065541415610d195760405162461bcd60e51b81526004016105a990614213565b60026065556040516331a9108f60e11b815260048101829052829082906001600160a01b03831690636352211e9060240160206040518083038186803b158015610d6257600080fd5b505afa158015610d76573d6000803e3d6000fd5b505050506040513d601f19601f82011682018060405250810190610d9a9190613bcf565b6001600160a01b0316336001600160a01b031614610dcf578181604051631464bc1b60e11b81526004016105a992919061416b565b8383610ddb8282612475565b610dfc578181604051631b09b27f60e01b81526004016105a992919061416b565b610e0686866124eb565b60405185815233906001600160a01b038816907f1b5a773e8fc5617b32cff68b696669f7e14d946e95ab5994e244a4e73a82e1ff9060200160405180910390a35050600160655550505050565b6001600160a01b038116600090815260996020908152604091829020805483518184028101840190945280845260609392830182828015610eb357602002820191906000526020600020905b815481526020019060010190808311610e9f575b50505050509050919050565b610ec7612663565b610ed160006126bd565b565b6001600160a01b03841615801590610ef357506001600160a01b03831615155b8015610f0757506001600160a01b03821615155b8015610f1b57506001600160a01b03811615155b610f2457600080fd5b60976020527f683723e34a772b6e4f2c919bba7fa32ed8ea11a8325f54da7db716e9d9dd98c780546001600160a01b03199081166001600160a01b03968716179091557f53bdca72fa8d2e145a1b3bd11cde5bd75428acd18eac3d6adf4e06e7e637706d80548216948616949094179093557fd6ca216b3b8b63bcc0099d5c8294d1780d598ac9b3a29b15c3c3e68c85f6e30c80549285169284169290921790915560036000527f017b8d24b2a0f404d68a0b2abb80fd2d4d2105d3355f1fc48a1949fe7fce12e58054919093169116179055565b6002606554141561101c5760405162461bcd60e51b81526004016105a990614213565b60026065556001600160a01b038083166000908152609a602090815260408083208584529091529020600101548391839116331461106f57604051630c7441bb60e31b81523360048201526024016105a9565b6001600160a01b0384166000908152609860209081526040808320868452909152902060010154600160801b90046001600160801b03166110c757838360405163481e476160e11b81526004016105a992919061416b565b6110d284843361270f565b6110dc84846124eb565b836001600160a01b03167fcc801e4a1662a9ed7f9dc813fce5781eeba9361ac5f2934d6d59594b40d62e858460405161111791815260200190565b60405180910390a2505060016065555050565b6002606554141561114d5760405162461bcd60e51b81526004016105a990614213565b60026065556040516331a9108f60e11b815260048101829052829082906001600160a01b03831690636352211e9060240160206040518083038186803b15801561119657600080fd5b505afa1580156111aa573d6000803e3d6000fd5b505050506040513d601f19601f820116820180604052508101906111ce9190613bcf565b6001600160a01b0316336001600160a01b031614611203578181604051631464bc1b60e11b81526004016105a992919061416b565b6001600160a01b038085166000908152609a60209081526040808320878452909152902060010154859185911661125157818160405163718a8cb360e01b81526004016105a992919061416b565b61125b86866128a3565b604051632142170760e11b81526001600160a01b038716906342842e0e9061128b90309033908a90600401614147565b600060405180830381600087803b1580156112a557600080fd5b505af11580156112b9573d6000803e3d6000fd5b50505050856001600160a01b03167f5030805dc788ddab4854363945f64f79b4003801d92bfcd4de0cd64d8276fbd9866040516112f891815260200190565b60405180910390a25050600160655550505050565b6001600160a01b0381166000908152609b6020908152604091829020805483518184028101840190945280845260609392830182828015610eb35760200282019190600052602060002090815481526020019060010190808311610e9f5750505050509050919050565b6002606554141561139a5760405162461bcd60e51b81526004016105a990614213565b60026065556001600160a01b038083166000908152609a6020908152604080832085845290915290206001015483918391166113ed57818160405163718a8cb360e01b81526004016105a992919061416b565b6040516331a9108f60e11b815260048101849052849084906001600160a01b03831690636352211e9060240160206040518083038186803b15801561143157600080fd5b505afa158015611445573d6000803e3d6000fd5b505050506040513d601f19601f820116820180604052508101906114699190613bcf565b6001600160a01b0316336001600160a01b0316141561149f5781816040516364ae7b2560e11b81526004016105a992919061416b565b6001600160a01b038681166000908152609a60209081526040808320898452909152812060028101546001820154915490939182169291169060646114e560058661452f565b6114ef91906144ec565b905060006114fd828661454e565b90506115098b8b6128a3565b6001600160a01b0383166116aa578434101561155c5760405162461bcd60e51b815260206004820152601260248201527124b739bab33334b1b4b2b73a1022ba3432b960711b60448201526064016105a9565b6000846001600160a01b03168260405160006040518083038185875af1925050503d80600081146115a9576040519150601f19603f3d011682016040523d82523d6000602084013e6115ae565b606091505b50509050806115ff5760405162461bcd60e51b815260206004820152601e60248201527f4661696c65642073656e64696e6720657468657220746f2073656c6c6572000060448201526064016105a9565b609d546040516001600160a01b03909116908490600081818185875af1925050503d806000811461164c576040519150601f19603f3d011682016040523d82523d6000602084013e611651565b606091505b505080915050806116a45760405162461bcd60e51b815260206004820181905260248201527f4661696c65642073656e64696e6720657468657220746f20747265617375727960448201526064016105a9565b506117f4565b6040516323b872dd60e01b81526001600160a01b038416906323b872dd906116da90339088908690600401614147565b602060405180830381600087803b1580156116f457600080fd5b505af1158015611708573d6000803e3d6000fd5b505050506040513d601f19601f8201168201806040525081019061172c9190614097565b61174d57828560405163fefc7c5560e01b81526004016105a992919061416b565b609d546040516323b872dd60e01b81526001600160a01b03808616926323b872dd9261178192339216908790600401614147565b602060405180830381600087803b15801561179b57600080fd5b505af11580156117af573d6000803e3d6000fd5b505050506040513d601f19601f820116820180604052508101906117d39190614097565b6117f457828560405163fefc7c5560e01b81526004016105a992919061416b565b604051632142170760e11b81526001600160a01b038c16906342842e0e9061182490309033908f90600401614147565b600060405180830381600087803b15801561183e57600080fd5b505af1158015611852573d6000803e3d6000fd5b50506040518c81523392506001600160a01b038e1691507fb89e44430873468e658c1262715e5939bbb09dea086295c4f60da5256bd8f1239060200160405180910390a350506001606555505050505050505050565b6118b0612663565b6001600160a01b0381166118c357600080fd5b609d80546001600160a01b0319166001600160a01b0392909216919091179055565b6040516331a9108f60e11b8152600481018290526000906001600160a01b03841690636352211e9060240160206040518083038186803b15801561192857600080fd5b505afa15801561193c573d6000803e3d6000fd5b505050506040513d601f19601f820116820180604052508101906119609190613bcf565b9392505050565b6002606554141561198a5760405162461bcd60e51b81526004016105a990614213565b6002606555838361199b8282612475565b6119bc578181604051631b09b27f60e01b81526004016105a992919061416b565b85856119f082826001600160a01b039182166000908152609860209081526040808320938352929052206004015416151590565b8015611a2457506001600160a01b038281166000908152609860209081526040808320858452909152902060040154163314155b15611a4657818160405163025dfde360e41b81526004016105a992919061416b565b611a52888888886128b1565b50506001606555505050505050565b60026065541415611a845760405162461bcd60e51b81526004016105a990614213565b60026065556040516331a9108f60e11b8152600481018790526001600160a01b03881690636352211e9060240160206040518083038186803b158015611ac957600080fd5b505afa158015611add573d6000803e3d6000fd5b505050506040513d601f19601f82011682018060405250810190611b019190613bcf565b6001600160a01b0316336001600160a01b031614611b36578686604051631464bc1b60e11b81526004016105a992919061416b565b6001600160a01b0387811660009081526098602090815260408083208a84529091529020600301541615611b8157868660405163617db15960e01b81526004016105a992919061416b565b611b9087878787878787612a04565b846001600160a01b0316336001600160a01b0316886001600160a01b03167f417a3a06afeda17cea0e2ba5fb24f396f62f30bf5ce1099641d8e30117e4e029898888611bdc8e8e612c99565b611be68f8f612ce3565b604080519586526001600160801b039485166020870152929093168483015263ffffffff90811660608501529091166080830152519081900360a00190a4611c2e8787612d1c565b505060016065555050505050565b6040805160a08101825260008082526020820181905291810191909152606080820181905260808201526001600160a01b038084166000908152609a60209081526040808320868452825291829020825160a08101845281548516815260018201549094168483015260028101548484015260038101805484518185028101850190955280855291936060860193909290830182828015611d0657602002820191906000526020600020905b81546001600160a01b03168152600190910190602001808311611ce8575b5050505050815260200160048201805480602002602001604051908101604052809291908181526020018280548015610a67576000918252602091829020805463ffffffff168452908202830192909160049101808411610a2a579050505050505081525050905092915050565b60026065541415611d975760405162461bcd60e51b81526004016105a990614213565b60026065556040516331a9108f60e11b815260048101829052829082906001600160a01b03831690636352211e9060240160206040518083038186803b158015611de057600080fd5b505afa158015611df4573d6000803e3d6000fd5b505050506040513d601f19601f82011682018060405250810190611e189190613bcf565b6001600160a01b0316336001600160a01b031614611e4d578181604051631464bc1b60e11b81526004016105a992919061416b565b611e578484612d8d565b836001600160a01b03167ff75f3e198453c5e8c50f6cea2f01a714e952664e7bfd574e8ee4feb176a5d63d8460405161111791815260200190565b60026065541415611eb55760405162461bcd60e51b81526004016105a990614213565b60026065556001600160801b03831680611ee557604051630b707dc560e21b8152600481018290526024016105a9565b60005b8651811015611a52576000878281518110611f1357634e487b7160e01b600052603260045260246000fd5b60200260200101519050886001600160a01b0316636352211e826040518263ffffffff1660e01b8152600401611f4b91815260200190565b60206040518083038186803b158015611f6357600080fd5b505afa158015611f77573d6000803e3d6000fd5b505050506040513d601f19601f82011682018060405250810190611f9b9190613bcf565b6001600160a01b0316336001600160a01b031614611fd0578881604051631464bc1b60e11b81526004016105a992919061416b565b60405163020604bf60e21b8152600481018290526001600160a01b038a169063081812fc9060240160206040518083038186803b15801561201057600080fd5b505afa158015612024573d6000803e3d6000fd5b505050506040513d601f19601f820116820180604052508101906120489190613bcf565b6001600160a01b0316306001600160a01b03161461207d578881604051631d6d11e160e31b81526004016105a992919061416b565b6001600160a01b03808a166000908152609a6020908152604080832085845290915290206001015416156120c85788816040516370b8c95f60e01b81526004016105a992919061416b565b6120d6898289898989612162565b50806120e181614565565b915050611ee8565b6120f1612663565b6001600160a01b0381166121565760405162461bcd60e51b815260206004820152602660248201527f4f776e61626c653a206e6577206f776e657220697320746865207a65726f206160448201526564647265737360d01b60648201526084016105a9565b61215f816126bd565b50565b61216d86863361270f565b6001600160a01b038681166000818152609b60209081526040808320805460018082018355918552838520018b9055938352609a82528083208a8452825290912080549388166001600160a01b0319948516178155918201805490931633179092556001600160801b038516600282015583516121f292600390920191850190613943565b506001600160a01b0386166000908152609a602090815260408083208884528252909120825161222a926004909201918401906139a8565b50604080518681526001600160801b03851660208201526001600160a01b03808716923392918a16917fa07c96d3721fcbbef27183918f376a8391aaa9589eb11a14f0ef7271b1d8e96191015b60405180910390a4505050505050565b600054610100900460ff166122ae5760405162461bcd60e51b81526004016105a9906141c8565b610ed1612dfa565b600054610100900460ff166122dd5760405162461bcd60e51b81526004016105a9906141c8565b610ed1612e2a565b6001600160a01b03919091166000908152609860209081526040808320938352929052206002810180546001600160a01b03199081169091556001820180546001600160801b03169055600590910180549091169055565b6001600160a01b0384811660009081526098602090815260408083208784529091529020600601541680156124125760405163a9059cbb60e01b81526001600160a01b0382169063a9059cbb9061239a908690869060040161416b565b602060405180830381600087803b1580156123b457600080fd5b505af11580156123c8573d6000803e3d6000fd5b505050506040513d601f19601f820116820180604052508101906123ec9190614097565b61240d57808260405163fefc7c5560e01b81526004016105a992919061416b565b61246e565b6000836001600160a01b031683614e2090604051600060405180830381858888f193505050503d8060008114612464576040519150601f19603f3d011682016040523d82523d6000602084013e612469565b606091505b505050505b5050505050565b6001600160a01b0382166000908152609860209081526040808320848452909152812054600160401b90046001600160401b031615806119605750506001600160a01b039190911660009081526098602090815260408083209383529290522054600160401b90046001600160401b0316421090565b6001600160a01b0382811660009081526098602090815260408083208584529091528120600381015460029091015490831692169061252a8585612e58565b6001600160a01b0386166000908152609860209081526040808320888452909152902060010154909150600160801b90046001600160801b031661256e86866122e5565b6125788686612d8d565b61258d868686846001600160801b0316612eb8565b604051632142170760e11b81526001600160a01b038716906342842e0e906125bd90309086908a90600401614147565b600060405180830381600087803b1580156125d757600080fd5b505af11580156125eb573d6000803e3d6000fd5b50505050826001600160a01b0316846001600160a01b0316876001600160a01b03167f08ff8776aa9dfead5713153ec011c6ce23d80a389215c384419cadc1acc4f7aa888587604051612277939291909283526001600160801b039190911660208301526001600160a01b0316604082015260600190565b6033546001600160a01b03163314610ed15760405162461bcd60e51b815260206004820181905260248201527f4f776e61626c653a2063616c6c6572206973206e6f7420746865206f776e657260448201526064016105a9565b603380546001600160a01b038381166001600160a01b0319831681179093556040519116919082907f8be0079c531659141344cd1fd0a4f28419497f9722a3daafe3b4186f6b6457e090600090a35050565b6040516331a9108f60e11b8152600481018390526001600160a01b038083169190851690636352211e9060240160206040518083038186803b15801561275457600080fd5b505afa158015612768573d6000803e3d6000fd5b505050506040513d601f19601f8201168201806040525081019061278c9190613bcf565b6001600160a01b031614156127fe57604051632142170760e11b81526001600160a01b038416906342842e0e906127cb90849030908790600401614147565b600060405180830381600087803b1580156127e557600080fd5b505af11580156127f9573d6000803e3d6000fd5b505050505b6040516331a9108f60e11b81526004810183905230906001600160a01b03851690636352211e9060240160206040518083038186803b15801561284057600080fd5b505afa158015612854573d6000803e3d6000fd5b505050506040513d601f19601f820116820180604052508101906128789190613bcf565b6001600160a01b031614610bd957828260405163d99c81e360e01b81526004016105a992919061416b565b6128ad8282613000565b5050565b6001600160a01b038085166000908152609a60209081526040808320878452909152902060010154859185911633141561290257818160405163617db15960e01b81526004016105a992919061416b565b858585856129128484848461320c565b612933578383604051637f487ddb60e11b81526004016105a992919061416b565b61293e8a8a896132ac565b61298a5760405162461bcd60e51b815260206004820152601e60248201527f4e6f7420656e6f7567682066756e647320746f20626964206f6e204e4654000060448201526064016105a9565b6129958a8a896133b8565b61299f8a8a612d1c565b604080518a81523460208201526001600160801b0389168183015290516001600160a01b038a8116923392918e16917f341120aa0dda9918f639de5b8ac08dd9a30cab1063e0cf0fc9abb8c6e8bffd369181900360600190a450505050505050505050565b82846001600160801b03821615801590612a405750806001600160801b0316612a3e836001600160801b0316611f4063ffffffff16613420565b105b15612a715760405163529a16e560e01b81526001600160801b038083166004830152831660248201526044016105a9565b83518351808214612a9f5760405163147d4b2360e11b815260048101839052602481018290526044016105a9565b846000805b8251811015612af457828181518110612acd57634e487b7160e01b600052603260045260246000fd5b602002602001015182612ae0919061447c565b915080612aec81614565565b915050612aa4565b506127108163ffffffff161115612b1e576040516307c1726f60e51b815260040160405180910390fd5b8a609860008f6001600160a01b03166001600160a01b0316815260200190815260200160002060008e815260200190815260200160002060060160006101000a8154816001600160a01b0302191690836001600160a01b0316021790555087609860008f6001600160a01b03166001600160a01b0316815260200190815260200160002060008e81526020019081526020016000206007019080519060200190612bc9929190613943565b506001600160a01b038d1660009081526098602090815260408083208f845282529091208851612c01926008909201918a01906139a8565b5050506001600160a01b03909a1660008181526098602090815260408083208d84528252808320600180820180546001600160801b039d8e166001600160801b031990911617905581549c8c16600160801b029c909b169b909b178b556003909a0180546001600160a01b03191633179055918152609982529788208054978801815588529096209094019690965550505050505050565b6001600160a01b0382166000908152609860209081526040808320848452909152812054640100000000900463ffffffff1680612cdc5762015180915050610a73565b9050610a73565b6001600160a01b038216600090815260986020908152604080832084845290915281205463ffffffff1680612cdc576064915050610a73565b6001600160a01b03808316600090815260986020908152604080832085845290915290206003015416612d4f8383613439565b15612d6957612d5f83838361270f565b610bd983836124eb565b612d7383836134b8565b15610bd957612d82838361353c565b610bd983838361270f565b6001600160a01b038216600090815260986020908152604080832084845290915281206001810180546001600160801b03191690559081556003810180546001600160a01b0319908116909155600482018054821690556006909101805490911690556128ad82826135e9565b600054610100900460ff16612e215760405162461bcd60e51b81526004016105a9906141c8565b610ed1336126bd565b600054610100900460ff16612e515760405162461bcd60e51b81526004016105a9906141c8565b6001606555565b6001600160a01b03808316600090815260986020908152604080832085845290915281206005015490911680612cdc5750506001600160a01b03808316600090815260986020908152604080832085845290915290206002015416610a73565b6000805b6001600160a01b0386166000908152609860209081526040808320888452909152902060070154811015612fea576001600160a01b038616600090815260986020908152604080832088845290915281206008018054612f5f91869185908110612f3657634e487b7160e01b600052603260045260246000fd5b6000918252602090912060088204015460079091166004026101000a900463ffffffff16613420565b9050612f6b8184614464565b6001600160a01b03881660009081526098602090815260408083208a845290915290206007018054919450612fd7918991899186908110612fbc57634e487b7160e01b600052603260045260246000fd5b6000918252602090912001546001600160a01b03168461233d565b5080612fe281614565565b915050612ebc565b5061246e858585612ffb858761454e565b61233d565b60005b6001600160a01b0383166000908152609b60205260409020548110156131aa576001600160a01b0383166000908152609b6020526040902080548391908390811061305e57634e487b7160e01b600052603260045260246000fd5b9060005260206000200154141561319857805b6001600160a01b0384166000908152609b60205260409020546130969060019061454e565b81101561314b576001600160a01b0384166000908152609b602052604090206130c0826001614464565b815481106130de57634e487b7160e01b600052603260045260246000fd5b9060005260206000200154609b6000866001600160a01b03166001600160a01b03168152602001908152602001600020828154811061312d57634e487b7160e01b600052603260045260246000fd5b6000918252602090912001558061314381614565565b915050613071565b506001600160a01b0383166000908152609b6020526040902080548061318157634e487b7160e01b600052603160045260246000fd5b600190038181906000526020600020016000905590555b806131a281614565565b915050613003565b506001600160a01b0382166000908152609a60209081526040808320848452909152812080546001600160a01b03199081168255600182018054909116905560028101829055906131fe6003830182613a52565b61036c600483016000613a70565b6001600160a01b0384811660009081526098602090815260408083208784529091528120600601549091168015613279573415801561325c5750836001600160a01b0316816001600160a01b0316145b801561327157506000836001600160801b0316115b9150506132a4565b341580159061328f57506001600160a01b038416155b8015613271575050506001600160801b038116155b949350505050565b6001600160a01b03831660009081526098602090815260408083208584529091528120600101546001600160801b031680158015906133105750806001600160801b0316341015806133105750806001600160801b0316836001600160801b031610155b1561331f576001915050611960565b600061271061332e8787612ce3565b61333a9061271061447c565b6001600160a01b03881660009081526098602090815260408083208a84529091529020600101546133819163ffffffff1690600160801b90046001600160801b0316614500565b61338b91906144c6565b6001600160801b0316905080341015806133ae575080846001600160801b031610155b9695505050505050565b6001600160a01b03838116600090815260986020908152604080832086845290915290206002810154600190910154911690600160801b90046001600160801b0316613405858585613793565b6001600160a01b0382161561246e5761246e8585848461233d565b600061271061342f838561452f565b61196091906144ec565b6001600160a01b03821660009081526098602090815260408083208484529091528120600101546001600160801b031680158015906132a457506001600160a01b03841660009081526098602090815260408083208684529091529020600101546001600160801b03808316600160801b909204161015949350505050565b6001600160a01b0382166000908152609860209081526040808320848452909152812054600160801b90046001600160801b031680158015906132a457506001600160a01b03841660009081526098602090815260408083208684529091529020600101546001600160801b03808316600160801b90920416101591505092915050565b426135478383612c99565b63ffffffff1661355791906144a4565b6001600160a01b038316600081815260986020908152604080832086845282529182902080546fffffffffffffffff00000000000000001916600160401b6001600160401b0396871681029190911791829055835187815291049094169084015290917fa1e7b6c5b94ad1e2b5c13f1d1a517ae9584b9b96ed78750c76de93ae148ef231910160405180910390a25050565b60005b6001600160a01b038316600090815260996020526040902054811015610bd9576001600160a01b038316600090815260996020526040902080548391908390811061364757634e487b7160e01b600052603260045260246000fd5b9060005260206000200154141561378157805b6001600160a01b03841660009081526099602052604090205461367f9060019061454e565b811015613734576001600160a01b03841660009081526099602052604090206136a9826001614464565b815481106136c757634e487b7160e01b600052603260045260246000fd5b906000526020600020015460996000866001600160a01b03166001600160a01b03168152602001908152602001600020828154811061371657634e487b7160e01b600052603260045260246000fd5b6000918252602090912001558061372c81614565565b91505061365a565b506001600160a01b038316600090815260996020526040902080548061376a57634e487b7160e01b600052603160045260246000fd5b600190038181906000526020600020016000905590555b8061378b81614565565b9150506135ec565b6001600160a01b0383811660009081526098602090815260408083208684529091529020600601541680156138ca576040516323b872dd60e01b81523360048201523060248201526001600160801b03831660448201526001600160a01b038216906323b872dd90606401602060405180830381600087803b15801561381857600080fd5b505af115801561382c573d6000803e3d6000fd5b505050506040513d601f19601f820116820180604052508101906138509190614097565b6138875760405163fefc7c5560e01b81526001600160a01b03821660048201526001600160801b03831660248201526044016105a9565b6001600160a01b0384166000908152609860209081526040808320868452909152902060010180546001600160801b03808516600160801b029116179055613909565b6001600160a01b0384166000908152609860209081526040808320868452909152902060010180546001600160801b03348116600160801b0291161790555b50506001600160a01b0390911660009081526098602090815260408083209383529290522060020180546001600160a01b03191633179055565b828054828255906000526020600020908101928215613998579160200282015b8281111561399857825182546001600160a01b0319166001600160a01b03909116178255602090920191600190910190613963565b506139a4929150613a91565b5090565b828054828255906000526020600020906007016008900481019282156139985791602002820160005b83821115613a1557835183826101000a81548163ffffffff021916908363ffffffff16021790555092602001926004016020816003010492830192600103026139d1565b8015613a455782816101000a81549063ffffffff0219169055600401602081600301049283019260010302613a15565b50506139a4929150613a91565b508054600082559060005260206000209081019061215f9190613a91565b50805460008255600701600890049060005260206000209081019061215f91905b5b808211156139a45760008155600101613a92565b8035613ab1816145c2565b919050565b600082601f830112613ac6578081fd5b81356020613adb613ad683614441565b614411565b80838252828201915082860187848660051b8901011115613afa578586fd5b855b85811015613b21578135613b0f816145c2565b84529284019290840190600101613afc565b5090979650505050505050565b600082601f830112613b3e578081fd5b81356020613b4e613ad683614441565b80838252828201915082860187848660051b8901011115613b6d578586fd5b855b85811015613b2157813563ffffffff81168114613b8a578788fd5b84529284019290840190600101613b6f565b80356001600160801b0381168114613ab157600080fd5b600060208284031215613bc4578081fd5b8135611960816145c2565b600060208284031215613be0578081fd5b8151611960816145c2565b60008060408385031215613bfd578081fd5b8235613c08816145c2565b91506020830135613c18816145c2565b809150509250929050565b60008060008060808587031215613c38578182fd5b8435613c43816145c2565b93506020850135613c53816145c2565b92506040850135613c63816145c2565b91506060850135613c73816145c2565b939692955090935050565b600080600080600060808688031215613c95578081fd5b8535613ca0816145c2565b94506020860135613cb0816145c2565b93506040860135925060608601356001600160401b0380821115613cd2578283fd5b818801915088601f830112613ce5578283fd5b813581811115613cf3578384fd5b896020828501011115613d04578384fd5b9699959850939650602001949392505050565b60008060008060008060c08789031215613d2f578081fd5b8635613d3a816145c2565b95506020878101356001600160401b0380821115613d56578384fd5b818a0191508a601f830112613d69578384fd5b8135613d77613ad682614441565b8082825285820191508585018e878560051b8801011115613d96578788fd5b8795505b83861015613db8578035835260019590950194918601918601613d9a565b509950613dca91505060408b01613aa6565b9650613dd860608b01613b9c565b955060808a0135925080831115613ded578384fd5b613df98b848c01613ab6565b945060a08a0135925080831115613e0e578384fd5b5050613e1c89828a01613b2e565b9150509295509295509295565b60008060408385031215613e3b578182fd5b8235613e46816145c2565b946020939093013593505050565b60008060008060808587031215613e69578182fd5b8435613e74816145c2565b9350602085013592506040850135613e8b816145c2565b9150613e9960608601613b9c565b905092959194509250565b60008060008060008060c08789031215613ebc578384fd5b8635613ec7816145c2565b9550602087013594506040870135613ede816145c2565b9350613eec60608801613b9c565b925060808701356001600160401b0380821115613f07578384fd5b613f138a838b01613ab6565b935060a0890135915080821115613f28578283fd5b50613e1c89828a01613b2e565b600080600080600080600060e0888a031215613f4f578485fd5b8735613f5a816145c2565b9650602088013595506040880135613f71816145c2565b9450613f7f60608901613b9c565b9350613f8d60808901613b9c565b925060a08801356001600160401b0380821115613fa8578283fd5b613fb48b838c01613ab6565b935060c08a0135915080821115613fc9578283fd5b50613fd68a828b01613b2e565b91505092959891949750929550565b60008060008060808587031215613ffa578182fd5b8435614005816145c2565b935060208581013593506040860135925060608601356001600160401b038082111561402f578384fd5b818801915088601f830112614042578384fd5b813581811115614054576140546145ac565b614066601f8201601f19168501614411565b9150808252898482850101111561407b578485fd5b8084840185840137810190920192909252939692955090935050565b6000602082840312156140a8578081fd5b81518015158114611960578182fd5b6000602082840312156140c8578081fd5b5035919050565b6000815180845260208085019450808401835b838110156141075781516001600160a01b0316875295820195908201906001016140e2565b509495945050505050565b6000815180845260208085019450808401835b8381101561410757815163ffffffff1687529582019590820190600101614125565b6001600160a01b039384168152919092166020820152604081019190915260600190565b6001600160a01b03929092168252602082015260400190565b6020808252825182820181905260009190848201906040850190845b818110156141bc578351835292840192918401916001016141a0565b50909695505050505050565b6020808252602b908201527f496e697469616c697a61626c653a20636f6e7472616374206973206e6f74206960408201526a6e697469616c697a696e6760a81b606082015260800190565b6020808252601f908201527f5265656e7472616e637947756172643a207265656e7472616e742063616c6c00604082015260600190565b6020815261426160208201835163ffffffff169052565b6000602083015161427a604084018263ffffffff169052565b5060408301516001600160401b03811660608401525060608301516001600160801b03811660808401525060808301516001600160801b03811660a08401525060a08301516001600160801b03811660c08401525060c08301516001600160a01b03811660e08401525060e0830151610100614300818501836001600160a01b03169052565b840151905061012061431c848201836001600160a01b03169052565b8401519050610140614338848201836001600160a01b03169052565b8401519050610160614354848201836001600160a01b03169052565b84015190506101806143698482018315159052565b808501519150506101c06101a081818601526143896101e08601846140cf565b90860151858203601f1901838701529092506133ae8382614112565b60208152600060018060a01b038084511660208401528060208501511660408401525060408301516060830152606083015160a060808401526143eb60c08401826140cf565b90506080840151601f198483030160a08501526144088282614112565b95945050505050565b604051601f8201601f191681016001600160401b0381118282101715614439576144396145ac565b604052919050565b60006001600160401b0382111561445a5761445a6145ac565b5060051b60200190565b6000821982111561447757614477614580565b500190565b600063ffffffff80831681851680830382111561449b5761449b614580565b01949350505050565b60006001600160401b0380831681851680830382111561449b5761449b614580565b60006001600160801b03808416806144e0576144e0614596565b92169190910492915050565b6000826144fb576144fb614596565b500490565b60006001600160801b038083168185168183048111821515161561452657614526614580565b02949350505050565b600081600019048311821515161561454957614549614580565b500290565b60008282101561456057614560614580565b500390565b600060001982141561457957614579614580565b5060010190565b634e487b7160e01b600052601160045260246000fd5b634e487b7160e01b600052601260045260246000fd5b634e487b7160e01b600052604160045260246000fd5b6001600160a01b038116811461215f57600080fdfea2646970667358221220f575ced7d55cf05a2102cf1f660439022724444d58cbe71de1e2ce2e49cad22d64736f6c63430008040033",
  "linkReferences": {},
  "deployedLinkReferences": {}
}