{
  "_format": "hh-sol-artifact-1",
  "contractName": "NFTEngineV1",
  "sourceName": "contracts/engine/NFTEngineV1.sol",
  "abi": [
    {
      "inputs": [
        {
          "internalType": "address",
          "name": "nftContract",
          "type": "address"
        },
        {
          "internalType": "uint256",
          "name": "tokenId",
          "type": "uint256"
        }
      ],
      "name": "NFTEngineAlreadySalingToken",
      "type": "error"
    },
    {
      "inputs": [
        {
          "internalType": "address",
          "name": "nftContract",
          "type": "address"
        },
        {
          "internalType": "uint256",
          "name": "tokenId",
          "type": "uint256"
        }
      ],
      "name": "NFTEngineAuctionFinished",
      "type": "error"
    },
    {
      "inputs": [
        {
          "internalType": "address",
          "name": "nftContract",
          "type": "address"
        },
        {
          "internalType": "uint256",
          "name": "tokenId",
          "type": "uint256"
        }
      ],
      "name": "NFTEngineDidNotBid",
      "type": "error"
    },
    {
      "inputs": [
        {
          "internalType": "address",
          "name": "erc20token",
          "type": "address"
        },
        {
          "internalType": "uint256",
          "name": "amount",
          "type": "uint256"
        }
      ],
      "name": "NFTEngineERC20TransferFailed",
      "type": "error"
    },
    {
      "inputs": [],
      "name": "NFTEngineFeeRatesExceed",
      "type": "error"
    },
    {
      "inputs": [
        {
          "internalType": "uint256",
          "name": "minPrice",
          "type": "uint256"
        },
        {
          "internalType": "uint256",
          "name": "buyNowPrice",
          "type": "uint256"
        }
      ],
      "name": "NFTEngineInvalidMinPrice",
      "type": "error"
    },
    {
      "inputs": [
        {
          "internalType": "uint256",
          "name": "price",
          "type": "uint256"
        }
      ],
      "name": "NFTEngineInvalidPrice",
      "type": "error"
    },
    {
      "inputs": [
        {
          "internalType": "address",
          "name": "nftContract",
          "type": "address"
        },
        {
          "internalType": "uint256",
          "name": "tokenId",
          "type": "uint256"
        }
      ],
      "name": "NFTEngineNotAcceptablePayment",
      "type": "error"
    },
    {
      "inputs": [
        {
          "internalType": "address",
          "name": "nftContract",
          "type": "address"
        },
        {
          "internalType": "uint256",
          "name": "tokenId",
          "type": "uint256"
        }
      ],
      "name": "NFTEngineNotApprovedToken",
      "type": "error"
    },
    {
      "inputs": [
        {
          "internalType": "address",
          "name": "seller",
          "type": "address"
        }
      ],
      "name": "NFTEngineNotAuctionSeller",
      "type": "error"
    },
    {
      "inputs": [
        {
          "internalType": "address",
          "name": "nftContract",
          "type": "address"
        },
        {
          "internalType": "uint256",
          "name": "tokenId",
          "type": "uint256"
        }
      ],
      "name": "NFTEngineNotAuctionToken",
      "type": "error"
    },
    {
      "inputs": [
        {
          "internalType": "address",
          "name": "nftContract",
          "type": "address"
        },
        {
          "internalType": "uint256",
          "name": "tokenId",
          "type": "uint256"
        }
      ],
      "name": "NFTEngineNotHighestBidder",
      "type": "error"
    },
    {
      "inputs": [
        {
          "internalType": "uint256",
          "name": "recipients",
          "type": "uint256"
        },
        {
          "internalType": "uint256",
          "name": "rates",
          "type": "uint256"
        }
      ],
      "name": "NFTEngineNotMatchedLength",
      "type": "error"
    },
    {
      "inputs": [
        {
          "internalType": "address",
          "name": "seller",
          "type": "address"
        }
      ],
      "name": "NFTEngineNotSaleSeller",
      "type": "error"
    },
    {
      "inputs": [
        {
          "internalType": "address",
          "name": "nftContract",
          "type": "address"
        },
        {
          "internalType": "uint256",
          "name": "tokenId",
          "type": "uint256"
        }
      ],
      "name": "NFTEngineNotSalingToken",
      "type": "error"
    },
    {
      "inputs": [
        {
          "internalType": "address",
          "name": "nftContract",
          "type": "address"
        },
        {
          "internalType": "uint256",
          "name": "tokenId",
          "type": "uint256"
        }
      ],
      "name": "NFTEngineNotTokenOwner",
      "type": "error"
    },
    {
      "inputs": [
        {
          "internalType": "address",
          "name": "nftContract",
          "type": "address"
        },
        {
          "internalType": "uint256",
          "name": "tokenId",
          "type": "uint256"
        }
      ],
      "name": "NFTEngineSellerCant",
      "type": "error"
    },
    {
      "inputs": [
        {
          "internalType": "address",
          "name": "nftContract",
          "type": "address"
        },
        {
          "internalType": "uint256",
          "name": "tokenId",
          "type": "uint256"
        }
      ],
      "name": "NFTEngineTokenOwner",
      "type": "error"
    },
    {
      "anonymous": false,
      "inputs": [
        {
          "indexed": false,
          "internalType": "uint8",
          "name": "version",
          "type": "uint8"
        }
      ],
      "name": "Initialized",
      "type": "event"
    },
    {
      "anonymous": false,
      "inputs": [
        {
          "indexed": true,
          "internalType": "address",
          "name": "nftContract",
          "type": "address"
        },
        {
          "indexed": false,
          "internalType": "uint256",
          "name": "tokenId",
          "type": "uint256"
        },
        {
          "indexed": true,
          "internalType": "address",
          "name": "bidder",
          "type": "address"
        },
        {
          "indexed": false,
          "internalType": "uint256",
          "name": "ethAmount",
          "type": "uint256"
        },
        {
          "indexed": true,
          "internalType": "address",
          "name": "erc20Token",
          "type": "address"
        },
        {
          "indexed": false,
          "internalType": "uint256",
          "name": "tokenAmount",
          "type": "uint256"
        }
      ],
      "name": "NFTAuctionBidMade",
      "type": "event"
    },
    {
      "anonymous": false,
      "inputs": [
        {
          "indexed": true,
          "internalType": "address",
          "name": "nftContract",
          "type": "address"
        },
        {
          "indexed": false,
          "internalType": "uint256",
          "name": "tokenId",
          "type": "uint256"
        },
        {
          "indexed": true,
          "internalType": "address",
          "name": "highestBidder",
          "type": "address"
        }
      ],
      "name": "NFTAuctionBidWithdrawn",
      "type": "event"
    },
    {
      "anonymous": false,
      "inputs": [
        {
          "indexed": true,
          "internalType": "address",
          "name": "nftContract",
          "type": "address"
        },
        {
          "indexed": false,
          "internalType": "uint256",
          "name": "tokenId",
          "type": "uint256"
        },
        {
          "indexed": false,
          "internalType": "uint128",
          "name": "newBuyNowPrice",
          "type": "uint128"
        }
      ],
      "name": "NFTAuctionBuyNowPriceUpdated",
      "type": "event"
    },
    {
      "anonymous": false,
      "inputs": [
        {
          "indexed": true,
          "internalType": "address",
          "name": "nftContract",
          "type": "address"
        },
        {
          "indexed": false,
          "internalType": "uint256",
          "name": "tokenId",
          "type": "uint256"
        },
        {
          "indexed": true,
          "internalType": "address",
          "name": "seller",
          "type": "address"
        },
        {
          "indexed": true,
          "internalType": "address",
          "name": "erc20Token",
          "type": "address"
        },
        {
          "indexed": false,
          "internalType": "uint128",
          "name": "minPrice",
          "type": "uint128"
        },
        {
          "indexed": false,
          "internalType": "uint128",
          "name": "buyNowPrice",
          "type": "uint128"
        },
        {
          "indexed": false,
          "internalType": "uint32",
          "name": "auctionBidPeriod",
          "type": "uint32"
        }
      ],
      "name": "NFTAuctionCreated",
      "type": "event"
    },
    {
      "anonymous": false,
      "inputs": [
        {
          "indexed": true,
          "internalType": "address",
          "name": "nftContract",
          "type": "address"
        },
        {
          "indexed": false,
          "internalType": "uint256",
          "name": "tokenId",
          "type": "uint256"
        }
      ],
      "name": "NFTAuctionHighestBidTaken",
      "type": "event"
    },
    {
      "anonymous": false,
      "inputs": [
        {
          "indexed": true,
          "internalType": "address",
          "name": "nftContract",
          "type": "address"
        },
        {
          "indexed": false,
          "internalType": "uint256",
          "name": "tokenId",
          "type": "uint256"
        },
        {
          "indexed": false,
          "internalType": "uint256",
          "name": "newMinPrice",
          "type": "uint256"
        }
      ],
      "name": "NFTAuctionMinPriceUpdated",
      "type": "event"
    },
    {
      "anonymous": false,
      "inputs": [
        {
          "indexed": true,
          "internalType": "address",
          "name": "nftContract",
          "type": "address"
        },
        {
          "indexed": false,
          "internalType": "uint256",
          "name": "tokenId",
          "type": "uint256"
        },
        {
          "indexed": true,
          "internalType": "address",
          "name": "seller",
          "type": "address"
        },
        {
          "indexed": false,
          "internalType": "uint128",
          "name": "highestBid",
          "type": "uint128"
        },
        {
          "indexed": true,
          "internalType": "address",
          "name": "highestBidder",
          "type": "address"
        },
        {
          "indexed": false,
          "internalType": "address",
          "name": "buyer",
          "type": "address"
        }
      ],
      "name": "NFTAuctionPaid",
      "type": "event"
    },
    {
      "anonymous": false,
      "inputs": [
        {
          "indexed": true,
          "internalType": "address",
          "name": "nftContract",
          "type": "address"
        },
        {
          "indexed": false,
          "internalType": "uint256",
          "name": "tokenId",
          "type": "uint256"
        },
        {
          "indexed": true,
          "internalType": "address",
          "name": "settler",
          "type": "address"
        }
      ],
      "name": "NFTAuctionSettled",
      "type": "event"
    },
    {
      "anonymous": false,
      "inputs": [
        {
          "indexed": true,
          "internalType": "address",
          "name": "nftContract",
          "type": "address"
        },
        {
          "indexed": false,
          "internalType": "uint256",
          "name": "tokenId",
          "type": "uint256"
        },
        {
          "indexed": false,
          "internalType": "uint64",
          "name": "auctionEndPeriod",
          "type": "uint64"
        }
      ],
      "name": "NFTAuctionUpdated",
      "type": "event"
    },
    {
      "anonymous": false,
      "inputs": [
        {
          "indexed": true,
          "internalType": "address",
          "name": "nftContract",
          "type": "address"
        },
        {
          "indexed": false,
          "internalType": "uint256",
          "name": "tokenId",
          "type": "uint256"
        }
      ],
      "name": "NFTAuctionWithdrawn",
      "type": "event"
    },
    {
      "anonymous": false,
      "inputs": [
        {
          "indexed": false,
          "internalType": "uint256",
          "name": "nftType",
          "type": "uint256"
        },
        {
          "indexed": true,
          "internalType": "address",
          "name": "nftContract",
          "type": "address"
        }
      ],
      "name": "NFTContractUpdated",
      "type": "event"
    },
    {
      "anonymous": false,
      "inputs": [
        {
          "indexed": true,
          "internalType": "address",
          "name": "nftContract",
          "type": "address"
        },
        {
          "indexed": false,
          "internalType": "uint256",
          "name": "tokenId",
          "type": "uint256"
        },
        {
          "indexed": true,
          "internalType": "address",
          "name": "to",
          "type": "address"
        }
      ],
      "name": "NFTTokenSaleClosed",
      "type": "event"
    },
    {
      "anonymous": false,
      "inputs": [
        {
          "indexed": true,
          "internalType": "address",
          "name": "nftContract",
          "type": "address"
        },
        {
          "indexed": false,
          "internalType": "uint256",
          "name": "tokenId",
          "type": "uint256"
        },
        {
          "indexed": true,
          "internalType": "address",
          "name": "from",
          "type": "address"
        },
        {
          "indexed": true,
          "internalType": "address",
          "name": "erc20Token",
          "type": "address"
        },
        {
          "indexed": false,
          "internalType": "uint256",
          "name": "price",
          "type": "uint256"
        }
      ],
      "name": "NFTTokenSaleCreated",
      "type": "event"
    },
    {
      "anonymous": false,
      "inputs": [
        {
          "indexed": true,
          "internalType": "address",
          "name": "nftContract",
          "type": "address"
        },
        {
          "indexed": false,
          "internalType": "uint256",
          "name": "tokenId",
          "type": "uint256"
        }
      ],
      "name": "NFTTokenSaleWithdrawn",
      "type": "event"
    },
    {
      "anonymous": false,
      "inputs": [
        {
          "indexed": true,
          "internalType": "address",
          "name": "previousOwner",
          "type": "address"
        },
        {
          "indexed": true,
          "internalType": "address",
          "name": "newOwner",
          "type": "address"
        }
      ],
      "name": "OwnershipTransferred",
      "type": "event"
    },
    {
      "inputs": [
        {
          "internalType": "address",
          "name": "nftContract",
          "type": "address"
        },
        {
          "internalType": "uint256",
          "name": "tokenId",
          "type": "uint256"
        }
      ],
      "name": "buyNFT",
      "outputs": [],
      "stateMutability": "payable",
      "type": "function"
    },
    {
      "inputs": [
        {
          "internalType": "address",
          "name": "nftContract",
          "type": "address"
        },
        {
          "internalType": "uint256",
          "name": "tokenId",
          "type": "uint256"
        },
        {
          "internalType": "address",
          "name": "erc20Token",
          "type": "address"
        },
        {
          "internalType": "uint128",
          "name": "minPrice",
          "type": "uint128"
        },
        {
          "internalType": "uint128",
          "name": "buyNowPrice",
          "type": "uint128"
        },
        {
          "internalType": "uint256",
          "name": "bidPeriod",
          "type": "uint256"
        },
        {
          "internalType": "address[]",
          "name": "feeRecipients",
          "type": "address[]"
        },
        {
          "internalType": "uint32[]",
          "name": "feeRates",
          "type": "uint32[]"
        }
      ],
      "name": "createAuction",
      "outputs": [],
      "stateMutability": "nonpayable",
      "type": "function"
    },
    {
      "inputs": [
        {
          "internalType": "address",
          "name": "nftContract",
          "type": "address"
        },
        {
          "internalType": "uint256",
          "name": "tokenId",
          "type": "uint256"
        },
        {
          "internalType": "address",
          "name": "erc20Token",
          "type": "address"
        },
        {
          "internalType": "uint128",
          "name": "sellPrice",
          "type": "uint128"
        },
        {
          "internalType": "address[]",
          "name": "feeRecipients",
          "type": "address[]"
        },
        {
          "internalType": "uint32[]",
          "name": "feeRates",
          "type": "uint32[]"
        }
      ],
      "name": "createSale",
      "outputs": [],
      "stateMutability": "nonpayable",
      "type": "function"
    },
    {
      "inputs": [],
      "name": "defaultAuctionBidPeriod",
      "outputs": [
        {
          "internalType": "uint32",
          "name": "",
          "type": "uint32"
        }
      ],
      "stateMutability": "view",
      "type": "function"
    },
    {
      "inputs": [],
      "name": "defaultBidIncRate",
      "outputs": [
        {
          "internalType": "uint32",
          "name": "",
          "type": "uint32"
        }
      ],
      "stateMutability": "view",
      "type": "function"
    },
    {
      "inputs": [],
      "name": "feeToTreasury",
      "outputs": [
        {
          "internalType": "uint256",
          "name": "",
          "type": "uint256"
        }
      ],
      "stateMutability": "view",
      "type": "function"
    },
    {
      "inputs": [
        {
          "internalType": "uint256",
          "name": "tokenType",
          "type": "uint256"
        }
      ],
      "name": "getContractAddress",
      "outputs": [
        {
          "internalType": "address",
          "name": "",
          "type": "address"
        }
      ],
      "stateMutability": "view",
      "type": "function"
    },
    {
      "inputs": [
        {
          "internalType": "address",
          "name": "nftContract",
          "type": "address"
        },
        {
          "internalType": "uint256",
          "name": "tokenId",
          "type": "uint256"
        }
      ],
      "name": "getTokenAuctionInfo",
      "outputs": [
        {
          "components": [
            {
              "internalType": "uint256",
              "name": "tokenId",
              "type": "uint256"
            },
            {
              "internalType": "uint32",
              "name": "bidIncRate",
              "type": "uint32"
            },
            {
              "internalType": "uint32",
              "name": "bidPeriod",
              "type": "uint32"
            },
            {
              "internalType": "uint64",
              "name": "endTime",
              "type": "uint64"
            },
            {
              "internalType": "uint128",
              "name": "minPrice",
              "type": "uint128"
            },
            {
              "internalType": "uint128",
              "name": "buyNowPrice",
              "type": "uint128"
            },
            {
              "internalType": "uint128",
              "name": "highestBid",
              "type": "uint128"
            },
            {
              "internalType": "address",
              "name": "highestBidder",
              "type": "address"
            },
            {
              "internalType": "address",
              "name": "seller",
              "type": "address"
            },
            {
              "internalType": "address",
              "name": "whitelistedBuyer",
              "type": "address"
            },
            {
              "internalType": "address",
              "name": "recipient",
              "type": "address"
            },
            {
              "internalType": "address",
              "name": "erc20Token",
              "type": "address"
            },
            {
              "internalType": "bool",
              "name": "isOnSale",
              "type": "bool"
            },
            {
              "internalType": "address[]",
              "name": "feeRecipients",
              "type": "address[]"
            },
            {
              "internalType": "uint32[]",
              "name": "feeRates",
              "type": "uint32[]"
            }
          ],
          "internalType": "struct LTypes.AuctionNFT",
          "name": "",
          "type": "tuple"
        }
      ],
      "stateMutability": "view",
      "type": "function"
    },
    {
      "inputs": [
        {
          "internalType": "address",
          "name": "nftContract",
          "type": "address"
        }
      ],
      "name": "getTokenInfosOnAuction",
      "outputs": [
        {
          "components": [
            {
              "internalType": "uint256",
              "name": "tokenId",
              "type": "uint256"
            },
            {
              "internalType": "uint32",
              "name": "bidIncRate",
              "type": "uint32"
            },
            {
              "internalType": "uint32",
              "name": "bidPeriod",
              "type": "uint32"
            },
            {
              "internalType": "uint64",
              "name": "endTime",
              "type": "uint64"
            },
            {
              "internalType": "uint128",
              "name": "minPrice",
              "type": "uint128"
            },
            {
              "internalType": "uint128",
              "name": "buyNowPrice",
              "type": "uint128"
            },
            {
              "internalType": "uint128",
              "name": "highestBid",
              "type": "uint128"
            },
            {
              "internalType": "address",
              "name": "highestBidder",
              "type": "address"
            },
            {
              "internalType": "address",
              "name": "seller",
              "type": "address"
            },
            {
              "internalType": "address",
              "name": "whitelistedBuyer",
              "type": "address"
            },
            {
              "internalType": "address",
              "name": "recipient",
              "type": "address"
            },
            {
              "internalType": "address",
              "name": "erc20Token",
              "type": "address"
            },
            {
              "internalType": "bool",
              "name": "isOnSale",
              "type": "bool"
            },
            {
              "internalType": "address[]",
              "name": "feeRecipients",
              "type": "address[]"
            },
            {
              "internalType": "uint32[]",
              "name": "feeRates",
              "type": "uint32[]"
            }
          ],
          "internalType": "struct LTypes.AuctionNFT[]",
          "name": "tokenInfos",
          "type": "tuple[]"
        }
      ],
      "stateMutability": "view",
      "type": "function"
    },
    {
      "inputs": [
        {
          "internalType": "address",
          "name": "nftContract",
          "type": "address"
        }
      ],
      "name": "getTokenInfosOnSale",
      "outputs": [
        {
          "components": [
            {
              "internalType": "uint256",
              "name": "tokenId",
              "type": "uint256"
            },
            {
              "internalType": "address",
              "name": "erc20Token",
              "type": "address"
            },
            {
              "internalType": "address",
              "name": "seller",
              "type": "address"
            },
            {
              "internalType": "uint256",
              "name": "price",
              "type": "uint256"
            },
            {
              "internalType": "address[]",
              "name": "feeRecipients",
              "type": "address[]"
            },
            {
              "internalType": "uint32[]",
              "name": "feeRates",
              "type": "uint32[]"
            }
          ],
          "internalType": "struct LTypes.SellNFT[]",
          "name": "tokenInfos",
          "type": "tuple[]"
        }
      ],
      "stateMutability": "view",
      "type": "function"
    },
    {
      "inputs": [
        {
          "internalType": "address",
          "name": "nftContract",
          "type": "address"
        },
        {
          "internalType": "uint256",
          "name": "tokenId",
          "type": "uint256"
        }
      ],
      "name": "getTokenSaleInfo",
      "outputs": [
        {
          "components": [
            {
              "internalType": "uint256",
              "name": "tokenId",
              "type": "uint256"
            },
            {
              "internalType": "address",
              "name": "erc20Token",
              "type": "address"
            },
            {
              "internalType": "address",
              "name": "seller",
              "type": "address"
            },
            {
              "internalType": "uint256",
              "name": "price",
              "type": "uint256"
            },
            {
              "internalType": "address[]",
              "name": "feeRecipients",
              "type": "address[]"
            },
            {
              "internalType": "uint32[]",
              "name": "feeRates",
              "type": "uint32[]"
            }
          ],
          "internalType": "struct LTypes.SellNFT",
          "name": "",
          "type": "tuple"
        }
      ],
      "stateMutability": "view",
      "type": "function"
    },
    {
      "inputs": [
        {
          "internalType": "address",
          "name": "admin",
          "type": "address"
        },
        {
          "internalType": "address",
          "name": "treasury",
          "type": "address"
        }
      ],
      "name": "initialize",
      "outputs": [],
      "stateMutability": "nonpayable",
      "type": "function"
    },
    {
      "inputs": [
        {
          "internalType": "address",
          "name": "nftContract",
          "type": "address"
        },
        {
          "internalType": "uint256",
          "name": "tokenId",
          "type": "uint256"
        },
        {
          "internalType": "address",
          "name": "erc20Token",
          "type": "address"
        },
        {
          "internalType": "uint128",
          "name": "amount",
          "type": "uint128"
        }
      ],
      "name": "makeBid",
      "outputs": [],
      "stateMutability": "payable",
      "type": "function"
    },
    {
      "inputs": [],
      "name": "maxMinPriceRate",
      "outputs": [
        {
          "internalType": "uint32",
          "name": "",
          "type": "uint32"
        }
      ],
      "stateMutability": "view",
      "type": "function"
    },
    {
      "inputs": [],
      "name": "minSettableIncRate",
      "outputs": [
        {
          "internalType": "uint32",
          "name": "",
          "type": "uint32"
        }
      ],
      "stateMutability": "view",
      "type": "function"
    },
    {
      "inputs": [
        {
          "internalType": "address",
          "name": "operator",
          "type": "address"
        },
        {
          "internalType": "address",
          "name": "from",
          "type": "address"
        },
        {
          "internalType": "uint256",
          "name": "tokenId",
          "type": "uint256"
        },
        {
          "internalType": "bytes",
          "name": "data",
          "type": "bytes"
        }
      ],
      "name": "onERC721Received",
      "outputs": [
        {
          "internalType": "bytes4",
          "name": "",
          "type": "bytes4"
        }
      ],
      "stateMutability": "pure",
      "type": "function"
    },
    {
      "inputs": [],
      "name": "owner",
      "outputs": [
        {
          "internalType": "address",
          "name": "",
          "type": "address"
        }
      ],
      "stateMutability": "view",
      "type": "function"
    },
    {
      "inputs": [],
      "name": "renounceOwnership",
      "outputs": [],
      "stateMutability": "nonpayable",
      "type": "function"
    },
    {
      "inputs": [
        {
          "internalType": "uint256",
          "name": "nftType",
          "type": "uint256"
        },
        {
          "internalType": "address",
          "name": "nftContract",
          "type": "address"
        }
      ],
      "name": "setNFTContract",
      "outputs": [],
      "stateMutability": "nonpayable",
      "type": "function"
    },
    {
      "inputs": [
        {
          "internalType": "address",
          "name": "paymentToken",
          "type": "address"
        }
      ],
      "name": "setPaymentContract",
      "outputs": [],
      "stateMutability": "nonpayable",
      "type": "function"
    },
    {
      "inputs": [
        {
          "internalType": "address",
          "name": "nftContract",
          "type": "address"
        },
        {
          "internalType": "uint256",
          "name": "tokenId",
          "type": "uint256"
        }
      ],
      "name": "settleAuction",
      "outputs": [],
      "stateMutability": "nonpayable",
      "type": "function"
    },
    {
      "inputs": [
        {
          "internalType": "address",
          "name": "nftContract",
          "type": "address"
        },
        {
          "internalType": "uint256",
          "name": "tokenId",
          "type": "uint256"
        }
      ],
      "name": "takeHighestBid",
      "outputs": [],
      "stateMutability": "nonpayable",
      "type": "function"
    },
    {
      "inputs": [
        {
          "internalType": "address",
          "name": "newOwner",
          "type": "address"
        }
      ],
      "name": "transferOwnership",
      "outputs": [],
      "stateMutability": "nonpayable",
      "type": "function"
    },
    {
      "inputs": [
        {
          "internalType": "address",
          "name": "nftContract",
          "type": "address"
        },
        {
          "internalType": "uint256",
          "name": "tokenId",
          "type": "uint256"
        }
      ],
      "name": "withdrawAuction",
      "outputs": [],
      "stateMutability": "nonpayable",
      "type": "function"
    },
    {
      "inputs": [
        {
          "internalType": "address",
          "name": "nftContract",
          "type": "address"
        },
        {
          "internalType": "uint256",
          "name": "tokenId",
          "type": "uint256"
        }
      ],
      "name": "withdrawBid",
      "outputs": [],
      "stateMutability": "nonpayable",
      "type": "function"
    },
    {
      "inputs": [
        {
          "internalType": "address",
          "name": "nftContract",
          "type": "address"
        },
        {
          "internalType": "uint256",
          "name": "tokenId",
          "type": "uint256"
        }
      ],
      "name": "withdrawSale",
      "outputs": [],
      "stateMutability": "nonpayable",
      "type": "function"
    }
  ],
  "bytecode": "0x608060405234801561001057600080fd5b506157ab80620000216000396000f3fe6080604052600436106101815760003560e01c8063880d5cc5116100d1578063bc09b84c1161008a578063c697a82c11610064578063c697a82c14610480578063ceb89820146102cb578063ebea6025146104ad578063f2fde38b146104cd57600080fd5b8063bc09b84c1461041d578063c24d5a5c1461044a578063c2ab87661461045d57600080fd5b8063880d5cc51461036257806388b98b12146103785780638abb20cc146103985780638da5cb5b146103b8578063a82ba76f146103ea578063aefa7d98146103fd57600080fd5b80634d86f8341161013e5780636f3c898d116101185780636f3c898d146102e0578063715018a61461030d5780637b088e8e14610322578063848e5c771461034257600080fd5b80634d86f8341461028b5780635138b08c146102ab57806369710d0b146102cb57600080fd5b806303382f2214610186578063150b7a02146101a8578063186779d5146101f2578063398d87461461021e578063485cc9551461024b5780634cb8ef5b1461026b575b600080fd5b34801561019257600080fd5b506101a66101a1366004614fe2565b6104ed565b005b3480156101b457600080fd5b506101d46101c3366004614ece565b630a85bd0160e11b95945050505050565b6040516001600160e01b031990911681526020015b60405180910390f35b3480156101fe57600080fd5b506102096201518081565b60405163ffffffff90911681526020016101e9565b34801561022a57600080fd5b5061023e610239366004614f67565b6107f9565b6040516101e99190615569565b34801561025757600080fd5b506101a6610266366004614e96565b610ad5565b34801561027757600080fd5b506101a6610286366004614f67565b610c14565b34801561029757600080fd5b506101a66102a6366004615172565b610e2d565b3480156102b757600080fd5b506101a66102c6366004614f67565b610f97565b3480156102d757600080fd5b50610209606481565b3480156102ec57600080fd5b506103006102fb366004614e5e565b611041565b6040516101e991906153fb565b34801561031957600080fd5b506101a6611261565b34801561032e57600080fd5b506101a661033d366004615080565b611275565b34801561034e57600080fd5b506101a661035d366004614f67565b611571565b34801561036e57600080fd5b50610209611f4081565b34801561038457600080fd5b506101a6610393366004614f67565b6116ef565b3480156103a457600080fd5b506101a66103b3366004614e5e565b611886565b3480156103c457600080fd5b506033546001600160a01b03165b6040516001600160a01b0390911681526020016101e9565b6101a66103f8366004614f67565b611965565b34801561040957600080fd5b506103d261041836600461515a565b611fc1565b34801561042957600080fd5b5061043d610438366004614e5e565b612045565b6040516101e9919061545c565b6101a6610458366004614f92565b6121c1565b34801561046957600080fd5b50610472600581565b6040519081526020016101e9565b34801561048c57600080fd5b506104a061049b366004614f67565b6122eb565b6040516101e9919061557c565b3480156104b957600080fd5b506101a66104c8366004614f67565b61250d565b3480156104d957600080fd5b506101a66104e8366004614e5e565b6126c1565b600260655414156105195760405162461bcd60e51b815260040161051090615532565b60405180910390fd5b60026065556000805260976020527f683723e34a772b6e4f2c919bba7fa32ed8ea11a8325f54da7db716e9d9dd98c754869086906001600160a01b038084169116148061059c5750600160005260976020527f53bdca72fa8d2e145a1b3bd11cde5bd75428acd18eac3d6adf4e06e7e637706d546001600160a01b038381169116145b6105b85760405162461bcd60e51b8152600401610510906154b0565b6040516331a9108f60e11b8152600481018290526001600160a01b03831690636352211e9060240160206040518083038186803b1580156105f857600080fd5b505afa15801561060c573d6000803e3d6000fd5b505050506040513d601f19601f820116820180604052508101906106309190614e7a565b6001600160a01b0316336001600160a01b031614610665578181604051631464bc1b60e11b81526004016105109291906153e2565b60405163020604bf60e21b815260048101889052889088906001600160a01b0383169063081812fc9060240160206040518083038186803b1580156106a957600080fd5b505afa1580156106bd573d6000803e3d6000fd5b505050506040513d601f19601f820116820180604052508101906106e19190614e7a565b6001600160a01b0316306001600160a01b031614610716578181604051631d6d11e160e31b81526004016105109291906153e2565b6001600160801b0387168061074157604051630b707dc560e21b815260048101829052602401610510565b600260005260976020527fd6ca216b3b8b63bcc0099d5c8294d1780d598ac9b3a29b15c3c3e68c85f6e30c546001600160a01b038a81169116148061078d57506001600160a01b038916155b6107d95760405162461bcd60e51b815260206004820152601d60248201527f556e72656769737465726564207061796d656e7420636f6e74726163740000006044820152606401610510565b6107e78b8b8b8b8b8b61273a565b50506001606555505050505050505050565b604080516101e0810182526000808252602080830182905282840182905260608084018390526080840183905260a0840183905260c0840183905260e08401839052610100840183905261012084018390526101408401839052610160840183905261018084018390526101a084018190526101c08401526001600160a01b038616825260988152838220858352905291909120546108af578282604051630cf7ca1d60e11b81526004016105109291906153e2565b6001600160a01b038316600090815260996020908152604080832060988352818420868552909252909120546108e7906001906156cc565b8154811061090557634e487b7160e01b600052603260045260246000fd5b6000918252602091829020604080516101e081018252600a90930290910180548352600181015463ffffffff80821685870152640100000000820416848401526001600160401b03600160401b82041660608501526001600160801b03600160801b9182900481166080860152600283015480821660a0870152919091041660c084015260038101546001600160a01b0390811660e0850152600482015481166101008501526005820154811661012085015260068201548116610140850152600782015490811661016085015260ff600160a01b909104161515610180840152600881018054835181870281018701909452808452939491936101a086019392830182828015610a3f57602002820191906000526020600020905b81546001600160a01b03168152600190910190602001808311610a21575b5050505050815260200160098201805480602002602001604051908101604052809291908181526020018280548015610ac357602002820191906000526020600020906000905b82829054906101000a900463ffffffff1663ffffffff1681526020019060040190602082600301049283019260010382029150808411610a865790505b50505050508152505090505b92915050565b600054610100900460ff1615808015610af55750600054600160ff909116105b80610b0f5750303b158015610b0f575060005460ff166001145b610b725760405162461bcd60e51b815260206004820152602e60248201527f496e697469616c697a61626c653a20636f6e747261637420697320616c72656160448201526d191e481a5b9a5d1a585b1a5e995960921b6064820152608401610510565b6000805460ff191660011790558015610b95576000805461ff0019166101001790555b610b9d612871565b610ba56128a0565b609c80546001600160a01b0319166001600160a01b038416179055610bc9836126c1565b8015610c0f576000805461ff0019169055604051600181527f7f26b83ff96e1f2b6a682f133852f6798a09c465da95921460cefb38474024989060200160405180910390a15b505050565b60026065541415610c375760405162461bcd60e51b815260040161051090615532565b60026065556001600160a01b038216600090815260996020908152604080832060988352818420858552909252822054610c73906001906156cc565b81548110610c9157634e487b7160e01b600052603260045260246000fd5b600091825260209091206003600a9092020101546001600160a01b03169050338114610cd4578282604051638dcad11b60e01b81526004016105109291906153e2565b6001600160a01b038316600090815260996020908152604080832060988352818420868552909252822054610d0b906001906156cc565b81548110610d2957634e487b7160e01b600052603260045260246000fd5b60009182526020808320600a92909202909101600201546001600160a01b038716835260998252604080842060988452818520888652909352832054600160801b9091046001600160801b03169350610d84906001906156cc565b81548110610da257634e487b7160e01b600052603260045260246000fd5b600091825260209091206007600a9092020101546001600160a01b03169050610dcb85856128cf565b610de1858585856001600160801b031685612a5c565b60405184815233906001600160a01b038716907f1c67fba99d945a891489857a6f588badd10a0834d848de5574580cea4974ff5b9060200160405180910390a350506001606555505050565b610e35612b76565b6001600160a01b038116610e8b5760405162461bcd60e51b815260206004820152601c60248201527f496e76616c6964206e667420636f6e74726163742061646472657373000000006044820152606401610510565b6001821115610ecf5760405162461bcd60e51b815260206004820152601060248201526f496e76616c6964206e6674207479706560801b6044820152606401610510565b8060976000846002811115610ef457634e487b7160e01b600052602160045260246000fd5b6002811115610f1357634e487b7160e01b600052602160045260246000fd5b6002811115610f3257634e487b7160e01b600052602160045260246000fd5b8152602080820192909252604090810160002080546001600160a01b0319166001600160a01b0394851617905551848152918316917f441c264f6f587886bff15cb9afe61526df4a56c9b6bb8288b7af7d754b11366e91015b60405180910390a25050565b60026065541415610fba5760405162461bcd60e51b815260040161051090615532565b60026065558181610fcb8282612bd0565b610fec578181604051631b09b27f60e01b81526004016105109291906153e2565b610ff68484612cd4565b60405183815233906001600160a01b038616907f1b5a773e8fc5617b32cff68b696669f7e14d946e95ab5994e244a4e73a82e1ff9060200160405180910390a3505060016065555050565b6001600160a01b0381166000908152609960209081526040808320805482518185028101850190935280835260609492939192909184015b82821015611256576000848152602090819020604080516101e081018252600a860290920180548352600181015463ffffffff80821685870152640100000000820416848401526001600160401b03600160401b82041660608501526001600160801b03600160801b9182900481166080860152600283015480821660a0870152919091041660c084015260038101546001600160a01b0390811660e0850152600482015481166101008501526005820154811661012085015260068201548116610140850152600782015490811661016085015260ff600160a01b909104161515610180840152600881018054835181870281018701909452808452939491936101a0860193928301828280156111ba57602002820191906000526020600020905b81546001600160a01b0316815260019091019060200180831161119c575b505050505081526020016009820180548060200260200160405190810160405280929190818152602001828054801561123e57602002820191906000526020600020906000905b82829054906101000a900463ffffffff1663ffffffff16815260200190600401906020826003010492830192600103820291508084116112015790505b50505050508152505081526020019060010190611079565b505050509050919050565b611269612b76565b6112736000613100565b565b600260655414156112985760405162461bcd60e51b815260040161051090615532565b60026065556000805260976020527f683723e34a772b6e4f2c919bba7fa32ed8ea11a8325f54da7db716e9d9dd98c7546001600160a01b03898116911614806113175750600160005260976020527f53bdca72fa8d2e145a1b3bd11cde5bd75428acd18eac3d6adf4e06e7e637706d546001600160a01b038981169116145b6113335760405162461bcd60e51b8152600401610510906154b0565b600260005260976020527fd6ca216b3b8b63bcc0099d5c8294d1780d598ac9b3a29b15c3c3e68c85f6e30c546001600160a01b038781169116148061137f57506001600160a01b038616155b6113cb5760405162461bcd60e51b815260206004820152601d60248201527f556e72656769737465726564207061796d656e7420636f6e74726163740000006044820152606401610510565b6040516331a9108f60e11b8152600481018890526001600160a01b03891690636352211e9060240160206040518083038186803b15801561140b57600080fd5b505afa15801561141f573d6000803e3d6000fd5b505050506040513d601f19601f820116820180604052508101906114439190614e7a565b6001600160a01b0316336001600160a01b031614611478578787604051631464bc1b60e11b81526004016105109291906153e2565b6001600160a01b03881660009081526098602090815260408083208a8452909152902054156114be57878760405163367f3a2360e21b81526004016105109291906153e2565b6114ce8888888888888888613152565b856001600160a01b0316336001600160a01b0316896001600160a01b03167ffa5304341d2518d90d489cd208dc6f099818aeb722684536370b93871d2e94a48a898961151a8f8f613402565b60405161155094939291909384526001600160801b0392831660208501529116604083015263ffffffff16606082015260800190565b60405180910390a46115628888613496565b50506001606555505050505050565b600260655414156115945760405162461bcd60e51b815260040161051090615532565b60026065556001600160a01b038216600090815260986020908152604080832084845290915290205482908290158061164157506001600160a01b03821660009081526099602090815260408083206098835281842085855290925290912054339190611603906001906156cc565b8154811061162157634e487b7160e01b600052603260045260246000fd5b600091825260209091206004600a9092020101546001600160a01b031614155b1561166157604051630c7441bb60e31b8152336004820152602401610510565b61166b8484613552565b61168c57838360405163481e476160e11b81526004016105109291906153e2565b6116978484336135d6565b6116a18484612cd4565b836001600160a01b03167fcc801e4a1662a9ed7f9dc813fce5781eeba9361ac5f2934d6d59594b40d62e85846040516116dc91815260200190565b60405180910390a2505060016065555050565b600260655414156117125760405162461bcd60e51b815260040161051090615532565b60026065556001600160a01b0382166000908152609a602090815260408083208484529091529020548290829015806117bf57506001600160a01b0382166000908152609b60209081526040808320609a835281842085855290925290912054339190611781906001906156cc565b8154811061179f57634e487b7160e01b600052603260045260246000fd5b60009182526020909120600260069092020101546001600160a01b031614155b156117df5760405163a0c1a67d60e01b8152336004820152602401610510565b6117e984846136c9565b604051632142170760e11b81526001600160a01b038516906342842e0e90611819903090339088906004016153be565b600060405180830381600087803b15801561183357600080fd5b505af1158015611847573d6000803e3d6000fd5b50505050836001600160a01b03167f5030805dc788ddab4854363945f64f79b4003801d92bfcd4de0cd64d8276fbd9846040516116dc91815260200190565b61188e612b76565b6001600160a01b0381166118e45760405162461bcd60e51b815260206004820152601d60248201527f496e76616c6964207061796d656e7420746f6b656e20616464726573730000006044820152606401610510565b60026000819052609760209081527fd6ca216b3b8b63bcc0099d5c8294d1780d598ac9b3a29b15c3c3e68c85f6e30c80546001600160a01b0319166001600160a01b038516908117909155604080519384525190927f441c264f6f587886bff15cb9afe61526df4a56c9b6bb8288b7af7d754b11366e92908290030190a250565b600260655414156119885760405162461bcd60e51b815260040161051090615532565b60026065556001600160a01b0382166000908152609a60209081526040808320848452909152902054829082906119d657818160405163718a8cb360e01b81526004016105109291906153e2565b6001600160a01b0384166000908152609a60209081526040808320868452909152902054849084901580611a7d57506001600160a01b0382166000908152609b60209081526040808320609a835281842085855290925290912054339190611a40906001906156cc565b81548110611a5e57634e487b7160e01b600052603260045260246000fd5b60009182526020909120600260069092020101546001600160a01b0316145b15611a9f57818160405163367f3a2360e21b81526004016105109291906153e2565b6001600160a01b0386166000908152609b60209081526040808320609a8352818420898552909252822054611ad6906001906156cc565b81548110611af457634e487b7160e01b600052603260045260246000fd5b60009182526020808320600360069093020191909101546001600160a01b038a168352609b82526040808420609a84528185208b8652909352832054909350611b3f906001906156cc565b81548110611b5d57634e487b7160e01b600052603260045260246000fd5b60009182526020808320600260069093020191909101546001600160a01b038b81168452609b83526040808520609a85528186208d875290945284205491169350611baa906001906156cc565b81548110611bc857634e487b7160e01b600052603260045260246000fd5b600091825260208220600160069092020101546001600160a01b031691506064611bf36005866156ad565b611bfd919061566a565b90506000611c0b82866156cc565b9050611c178b8b6136c9565b6001600160a01b038316611dc35784341015611c755760405162461bcd60e51b815260206004820152601960248201527f496e73756666696369656e7420657468657220746f20627579000000000000006044820152606401610510565b6000846001600160a01b03168260405160006040518083038185875af1925050503d8060008114611cc2576040519150601f19603f3d011682016040523d82523d6000602084013e611cc7565b606091505b5050905080611d185760405162461bcd60e51b815260206004820152601e60248201527f4661696c65642073656e64696e6720657468657220746f2073656c6c657200006044820152606401610510565b609c546040516001600160a01b03909116908490600081818185875af1925050503d8060008114611d65576040519150601f19603f3d011682016040523d82523d6000602084013e611d6a565b606091505b50508091505080611dbd5760405162461bcd60e51b815260206004820181905260248201527f4661696c65642073656e64696e6720657468657220746f2074726561737572796044820152606401610510565b50611f0d565b6040516323b872dd60e01b81526001600160a01b038416906323b872dd90611df3903390889086906004016153be565b602060405180830381600087803b158015611e0d57600080fd5b505af1158015611e21573d6000803e3d6000fd5b505050506040513d601f19601f82011682018060405250810190611e45919061513a565b611e6657828560405163fefc7c5560e01b81526004016105109291906153e2565b609c546040516323b872dd60e01b81526001600160a01b03808616926323b872dd92611e9a923392169087906004016153be565b602060405180830381600087803b158015611eb457600080fd5b505af1158015611ec8573d6000803e3d6000fd5b505050506040513d601f19601f82011682018060405250810190611eec919061513a565b611f0d57828560405163fefc7c5560e01b81526004016105109291906153e2565b604051632142170760e11b81526001600160a01b038c16906342842e0e90611f3d90309033908f906004016153be565b600060405180830381600087803b158015611f5757600080fd5b505af1158015611f6b573d6000803e3d6000fd5b50506040518c81523392506001600160a01b038e1691507fb89e44430873468e658c1262715e5939bbb09dea086295c4f60da5256bd8f1239060200160405180910390a350506001606555505050505050505050565b600060976000836002811115611fe757634e487b7160e01b600052602160045260246000fd5b600281111561200657634e487b7160e01b600052602160045260246000fd5b600281111561202557634e487b7160e01b600052602160045260246000fd5b81526020810191909152604001600020546001600160a01b031692915050565b6001600160a01b0381166000908152609b60209081526040808320805482518185028101850190935280835260609492939192909184015b828210156112565760008481526020908190206040805160c081018252600686029092018054835260018101546001600160a01b039081168486015260028201541683830152600381015460608401526004810180548351818702810187019094528084529394919360808601939283018282801561212557602002820191906000526020600020905b81546001600160a01b03168152600190910190602001808311612107575b50505050508152602001600582018054806020026020016040519081016040528092919081815260200182805480156121a957602002820191906000526020600020906000905b82829054906101000a900463ffffffff1663ffffffff168152602001906004019060208260030104928301926001038202915080841161216c5790505b5050505050815250508152602001906001019061207d565b600260655414156121e45760405162461bcd60e51b815260040161051090615532565b60026065556001600160a01b038416600090815260986020908152604080832086845290915290205484908490158061229057506001600160a01b03821660009081526099602090815260408083206098835281842085855290925290912054339190612253906001906156cc565b8154811061227157634e487b7160e01b600052603260045260246000fd5b600091825260209091206004600a9092020101546001600160a01b0316145b156122b257818160405163367f3a2360e21b81526004016105109291906153e2565b85856122be8282612bd0565b6122df578181604051631b09b27f60e01b81526004016105109291906153e2565b611562888888886136d7565b6123366040518060c001604052806000815260200160006001600160a01b0316815260200160006001600160a01b031681526020016000815260200160608152602001606081525090565b6001600160a01b0383166000908152609a602090815260408083208584529091529020548390839061237f57818160405163718a8cb360e01b81526004016105109291906153e2565b6001600160a01b0385166000908152609b60209081526040808320609a8352818420888552909252909120546123b7906001906156cc565b815481106123d557634e487b7160e01b600052603260045260246000fd5b60009182526020918290206040805160c08101825260069093029091018054835260018101546001600160a01b039081168486015260028201541683830152600381015460608401526004810180548351818702810187019094528084529394919360808601939283018282801561247657602002820191906000526020600020905b81546001600160a01b03168152600190910190602001808311612458575b50505050508152602001600582018054806020026020016040519081016040528092919081815260200182805480156124fa57602002820191906000526020600020906000905b82829054906101000a900463ffffffff1663ffffffff16815260200190600401906020826003010492830192600103820291508084116124bd5790505b5050505050815250509250505092915050565b600260655414156125305760405162461bcd60e51b815260040161051090615532565b60026065556000805260976020527f683723e34a772b6e4f2c919bba7fa32ed8ea11a8325f54da7db716e9d9dd98c754829082906001600160a01b03808416911614806125b35750600160005260976020527f53bdca72fa8d2e145a1b3bd11cde5bd75428acd18eac3d6adf4e06e7e637706d546001600160a01b038381169116145b6125cf5760405162461bcd60e51b8152600401610510906154b0565b6040516331a9108f60e11b8152600481018290526001600160a01b03831690636352211e9060240160206040518083038186803b15801561260f57600080fd5b505afa158015612623573d6000803e3d6000fd5b505050506040513d601f19601f820116820180604052508101906126479190614e7a565b6001600160a01b0316336001600160a01b03161461267c578181604051631464bc1b60e11b81526004016105109291906153e2565b61268684846137cf565b836001600160a01b03167ff75f3e198453c5e8c50f6cea2f01a714e952664e7bfd574e8ee4feb176a5d63d846040516116dc91815260200190565b6126c9612b76565b6001600160a01b03811661272e5760405162461bcd60e51b815260206004820152602660248201527f4f776e61626c653a206e6577206f776e657220697320746865207a65726f206160448201526564647265737360d01b6064820152608401610510565b61273781613100565b50565b6127458686336135d6565b6001600160a01b0386166000908152609b60205260409020546127699060016155e2565b6001600160a01b038088166000818152609a602090815260408083208b8452825280832095909555918152609b825292832080546001818101835591855293829020600690940290930188815592830180549288166001600160a01b031993841617905560028301805490921633179091556001600160801b038516600383015583516127fe91600484019190860190614b6c565b5081516128149060058301906020850190614bd1565b50604080518781526001600160801b03861660208201526001600160a01b03808816923392918b16917fa07c96d3721fcbbef27183918f376a8391aaa9589eb11a14f0ef7271b1d8e961910160405180910390a450505050505050565b600054610100900460ff166128985760405162461bcd60e51b8152600401610510906154e7565b6112736137d9565b600054610100900460ff166128c75760405162461bcd60e51b8152600401610510906154e7565b611273613809565b6001600160a01b038216600090815260996020908152604080832060988352818420858552909252822054612906906001906156cc565b8154811061292457634e487b7160e01b600052603260045260246000fd5b60009182526020808320600a9290920290910160030180546001600160a01b0319166001600160a01b03948516179055918416815260998252604080822060988452818320858452909352812054909190612981906001906156cc565b8154811061299f57634e487b7160e01b600052603260045260246000fd5b600091825260208083206002600a909302019190910180546001600160801b03948516600160801b029416939093179092556001600160a01b038416815260998252604080822060988452818320858452909352812054909190612a05906001906156cc565b81548110612a2357634e487b7160e01b600052603260045260246000fd5b90600052602060002090600a020160060160006101000a8154816001600160a01b0302191690836001600160a01b031602179055505050565b6001600160a01b03811615612b115760405163a9059cbb60e01b81526001600160a01b0382169063a9059cbb90612a9990869086906004016153e2565b602060405180830381600087803b158015612ab357600080fd5b505af1158015612ac7573d6000803e3d6000fd5b505050506040513d601f19601f82011682018060405250810190612aeb919061513a565b612b0c57808260405163fefc7c5560e01b81526004016105109291906153e2565b612b6f565b6000836001600160a01b031683614e2090604051600060405180830381858888f193505050503d8060008114612b63576040519150601f19603f3d011682016040523d82523d6000602084013e612b68565b606091505b505090505b505b5050505050565b6033546001600160a01b031633146112735760405162461bcd60e51b815260206004820181905260248201527f4f776e61626c653a2063616c6c6572206973206e6f7420746865206f776e65726044820152606401610510565b6001600160a01b038216600090815260996020908152604080832060988352818420858552909252822054612c07906001906156cc565b81548110612c2557634e487b7160e01b600052603260045260246000fd5b60009182526020909120600a9091020160010154600160401b90046001600160401b03161580612ccd57506001600160a01b03831660009081526099602090815260408083206098835281842086855290925290912054612c88906001906156cc565b81548110612ca657634e487b7160e01b600052603260045260246000fd5b60009182526020909120600a9091020160010154600160401b90046001600160401b031642105b9392505050565b6001600160a01b0382166000908152609860209081526040808320848452909152812054612d04906001906156cc565b6001600160a01b03841660009081526099602052604081208054929350909183908110612d4157634e487b7160e01b600052603260045260246000fd5b600091825260208083206004600a9093020191909101546001600160a01b03878116845260999092526040832080549290911693509084908110612d9557634e487b7160e01b600052603260045260246000fd5b600091825260208083206003600a9093020191909101546001600160a01b03888116845260999092526040832080549290911693509085908110612de957634e487b7160e01b600052603260045260246000fd5b6000918252602082206002600a9092020101546001600160801b03600160801b909104169150612e198787613837565b6001600160a01b03881660009081526099602052604081208054929350909187908110612e5657634e487b7160e01b600052603260045260246000fd5b600091825260208083206007600a9093020191909101546001600160a01b038b8116845260999092526040832080549290911693509088908110612eaa57634e487b7160e01b600052603260045260246000fd5b90600052602060002090600a0201600801805480602002602001604051908101604052809291908181526020018280548015612f0f57602002820191906000526020600020905b81546001600160a01b03168152600190910190602001808311612ef1575b505050505090506000609960008b6001600160a01b03166001600160a01b031681526020019081526020016000208881548110612f5c57634e487b7160e01b600052603260045260246000fd5b90600052602060002090600a0201600901805480602002602001604051908101604052809291908181526020018280548015612fe357602002820191906000526020600020906000905b82829054906101000a900463ffffffff1663ffffffff1681526020019060040190602082600301049283019260010382029150808411612fa65790505b50505050509050612ff48a8a6128cf565b612ffe8a8a6137cf565b6130168a8a89886001600160801b031687878761392f565b604051632142170760e11b81526001600160a01b038b16906342842e0e9061304690309088908e906004016153be565b600060405180830381600087803b15801561306057600080fd5b505af1158015613074573d6000803e3d6000fd5b50505050856001600160a01b0316876001600160a01b03168b6001600160a01b03167f08ff8776aa9dfead5713153ec011c6ce23d80a389215c384419cadc1acc4f7aa8c89896040516130ec939291909283526001600160801b039190911660208301526001600160a01b0316604082015260600190565b60405180910390a450505050505050505050565b603380546001600160a01b038381166001600160a01b0319831681179093556040519116919082907f8be0079c531659141344cd1fd0a4f28419497f9722a3daafe3b4186f6b6457e090600090a35050565b815181518082146131805760405163147d4b2360e11b81526004810183905260248101829052604401610510565b826000805b82518160ff16101561320457828160ff16815181106131b457634e487b7160e01b600052603260045260246000fd5b6020026020010151826131c791906155fa565b91506127108263ffffffff1611156131f2576040516307c1726f60e51b815260040160405180910390fd5b806131fc816156fe565b915050613185565b506001600160801b0388161580159061323f5750886001600160801b031661323d896001600160801b0316611f4063ffffffff16613a2f565b105b156132705760405163529a16e560e01b81526001600160801b03808b16600483015289166024820152604401610510565b6001600160a01b038c166000908152609960205260409020546132949060016155e2565b609860008e6001600160a01b03166001600160a01b0316815260200190815260200160002060008d8152602001908152602001600020819055506000609960008e6001600160a01b03166001600160a01b031681526020019081526020016000206001816001815401808255809150500390600052602060002090600a020190508b81600001819055508a8160070160006101000a8154816001600160a01b0302191690836001600160a01b031602179055508681600801908051906020019061335f929190614b6c565b5085516133759060098301906020890190614bd1565b506002810180546001600160801b039a8b166001600160801b0319909116179055600181018054600490920180546001600160a01b0319163317905563ffffffff9098166401000000000267ffffffff00000000199a909916600160801b02999099166fffffffffffffffff00000000ffffffff9099169890981796909617909455505050505050505050565b6001600160a01b03821660009081526099602090815260408083206098835281842085855290925282205482919061343c906001906156cc565b8154811061345a57634e487b7160e01b600052603260045260246000fd5b60009182526020909120600a9091020160010154640100000000900463ffffffff1690508061348f5762015180915050610acf565b9050610acf565b6001600160a01b0382166000908152609960209081526040808320609883528184208585529092528220546134cd906001906156cc565b815481106134eb57634e487b7160e01b600052603260045260246000fd5b600091825260209091206004600a9092020101546001600160a01b031690506135148383613a48565b1561352e576135248383836135d6565b610c0f8383612cd4565b6135388383613b5a565b15610c0f576135478383613c26565b610c0f8383836135d6565b6001600160a01b03821660009081526099602090815260408083206098835281842085855290925282205482919061358c906001906156cc565b815481106135aa57634e487b7160e01b600052603260045260246000fd5b60009182526020909120600a9091020160020154600160801b90046001600160801b0316119392505050565b6040516331a9108f60e11b8152600481018390526001600160a01b038083169190851690636352211e9060240160206040518083038186803b15801561361b57600080fd5b505afa15801561362f573d6000803e3d6000fd5b505050506040513d601f19601f820116820180604052508101906136539190614e7a565b6001600160a01b03161415610c0f57604051632142170760e11b81526001600160a01b038416906342842e0e90613692908490309087906004016153be565b600060405180830381600087803b1580156136ac57600080fd5b505af11580156136c0573d6000803e3d6000fd5b50505050505050565b6136d38282613d8f565b5050565b6136e38484848461401d565b613704578383604051637f487ddb60e11b81526004016105109291906153e2565b61370f848483614106565b61375b5760405162461bcd60e51b815260206004820152601960248201527f496e73756666696369656e742066756e647320746f20626964000000000000006044820152606401610510565b6137668484836142a1565b6137708484613496565b604080518481523460208201526001600160801b0383168183015290516001600160a01b03848116923392918816917f341120aa0dda9918f639de5b8ac08dd9a30cab1063e0cf0fc9abb8c6e8bffd369181900360600190a450505050565b6136d38282614420565b600054610100900460ff166138005760405162461bcd60e51b8152600401610510906154e7565b61127333613100565b600054610100900460ff166138305760405162461bcd60e51b8152600401610510906154e7565b6001606555565b6001600160a01b038216600090815260996020908152604080832060988352818420858552909252822054829190613871906001906156cc565b8154811061388f57634e487b7160e01b600052603260045260246000fd5b600091825260209091206006600a9092020101546001600160a01b031690508061348f576001600160a01b038416600090815260996020908152604080832060988352818420878552909252909120546138eb906001906156cc565b8154811061390957634e487b7160e01b600052603260045260246000fd5b600091825260209091206003600a9092020101546001600160a01b03169150610acf9050565b6000606461393e6005876156ad565b613948919061566a565b905061395481866156cc565b609c5490955061397290899089906001600160a01b03168488612a5c565b6000805b8451811015613a0d5760006139b8888684815181106139a557634e487b7160e01b600052603260045260246000fd5b602002602001015163ffffffff16613a2f565b90506139c481846155e2565b92506139fa8b8b8885815181106139eb57634e487b7160e01b600052603260045260246000fd5b6020026020010151848b612a5c565b5080613a05816156e3565b915050613976565b50613a24898989613a1e858b6156cc565b89612a5c565b505050505050505050565b6000612710613a3e83856156ad565b612ccd919061566a565b6001600160a01b038216600090815260996020908152604080832060988352818420858552909252822054829190613a82906001906156cc565b81548110613aa057634e487b7160e01b600052603260045260246000fd5b600091825260209091206002600a9092020101546001600160801b031690508015801590613b5257506001600160a01b038416600090815260996020908152604080832060988352818420878552909252909120546001600160801b0383169190613b0d906001906156cc565b81548110613b2b57634e487b7160e01b600052603260045260246000fd5b60009182526020909120600a9091020160020154600160801b90046001600160801b031610155b949350505050565b6001600160a01b038216600090815260996020908152604080832060988352818420858552909252822054829190613b94906001906156cc565b81548110613bb257634e487b7160e01b600052603260045260246000fd5b60009182526020909120600a9091020160010154600160801b90046001600160801b031690508015801590613b5257506001600160a01b038416600090815260996020908152604080832060988352818420878552909252909120546001600160801b0383169190613b0d906001906156cc565b42613c318383613402565b63ffffffff16613c419190615622565b6001600160a01b03831660009081526099602090815260408083206098835281842086855290925290912054613c79906001906156cc565b81548110613c9757634e487b7160e01b600052603260045260246000fd5b600091825260208083206001600a90930201820180546001600160401b0395909516600160401b0267ffffffffffffffff60401b19909516949094179093556001600160a01b038516808352609984526040808420609886528185208786529095529092205491927fa1e7b6c5b94ad1e2b5c13f1d1a517ae9584b9b96ed78750c76de93ae148ef231928592613d2c916156cc565b81548110613d4a57634e487b7160e01b600052603260045260246000fd5b90600052602060002090600a020160010160089054906101000a90046001600160401b0316604051610f8b9291909182526001600160401b0316602082015260400190565b6001600160a01b0382166000818152609a60209081526040808320858452825280832054938352609b9091529020548115801590613dcd5750808211155b15614017576001600160a01b0384166000908152609a6020908152604080832086845290915281205580821015613f82576001600160a01b0384166000908152609b60205260408120613e216001846156cc565b81548110613e3f57634e487b7160e01b600052603260045260246000fd5b600091825260208083206006909202909101546001600160a01b038816808452609a835260408085208386528452808520889055908452609b9092529120909150613e8b6001846156cc565b81548110613ea957634e487b7160e01b600052603260045260246000fd5b600091825260208083206001600160a01b0389168452609b9091526040909220600690910290910190613edd6001866156cc565b81548110613efb57634e487b7160e01b600052603260045260246000fd5b60009182526020909120825460069092020190815560018083015490820180546001600160a01b039283166001600160a01b03199182161790915560028085015490840180549190931691161790556003808301549082015560048083018054613f689284019190614c7b565b5060058281018054613f7d9284019190614cbb565b505050505b6001600160a01b0384166000908152609b60205260409020805480613fb757634e487b7160e01b600052603160045260246000fd5b6000828152602081206006600019909301928302018181556001810180546001600160a01b0319908116909155600282018054909116905560038101829055906140046004830182614d08565b614012600583016000614d26565b505090555b50505050565b6001600160a01b038416600090815260996020908152604080832060988352818420878552909252822054829190614057906001906156cc565b8154811061407557634e487b7160e01b600052603260045260246000fd5b60009182526020909120600a90910201600701546001600160a01b0316905080156140d657341580156140b95750836001600160a01b0316816001600160a01b0316145b80156140ce57506000836001600160801b0316115b915050613b52565b34158015906140ec57506001600160a01b038416155b80156140ce575050506001600160801b0316159392505050565b6001600160a01b038316600090815260996020908152604080832060988352818420868552909252822054829190614140906001906156cc565b8154811061415e57634e487b7160e01b600052603260045260246000fd5b600091825260209091206002600a9092020101546001600160801b0316905080158015906141b15750806001600160801b0316341015806141b15750806001600160801b0316836001600160801b031610155b156141c0576001915050612ccd565b60006127106141cf87876147f4565b6141db906127106155fa565b6001600160a01b0388166000908152609960209081526040808320609883528184208b85529092529091205463ffffffff929092169161421d906001906156cc565b8154811061423b57634e487b7160e01b600052603260045260246000fd5b90600052602060002090600a020160020160109054906101000a90046001600160801b031661426a919061567e565b6142749190615644565b6001600160801b031690508034101580614297575080846001600160801b031610155b9695505050505050565b6001600160a01b0383166000908152609960209081526040808320609883528184208685529092528220546142d8906001906156cc565b815481106142f657634e487b7160e01b600052603260045260246000fd5b600091825260208083206003600a9093020191909101546001600160a01b0387811684526099835260408085206098855281862089875290945284205491169350614343906001906156cc565b8154811061436157634e487b7160e01b600052603260045260246000fd5b60009182526020808320600a92909202909101600201546001600160a01b038816835260998252604080842060988452818520898652909352832054600160801b9091046001600160801b031693506143bc906001906156cc565b815481106143da57634e487b7160e01b600052603260045260246000fd5b600091825260209091206007600a9092020101546001600160a01b03169050614404868686614877565b6001600160a01b03831615612b6d57612b6d8686858585612a5c565b6001600160a01b03821660008181526098602090815260408083208584528252808320549383526099909152902054811580159061445e5750808211155b15614017576001600160a01b038416600090815260986020908152604080832086845290915281205580821015614737576001600160a01b03841660009081526099602052604081206144b26001846156cc565b815481106144d057634e487b7160e01b600052603260045260246000fd5b60009182526020808320600a909202909101546001600160a01b03881680845260988352604080852083865284528085208890559084526099909252912090915061451c6001846156cc565b8154811061453a57634e487b7160e01b600052603260045260246000fd5b600091825260208083206001600160a01b038916845260999091526040909220600a9091029091019061456e6001866156cc565b8154811061458c57634e487b7160e01b600052603260045260246000fd5b600091825260209091208254600a9092020190815560018083018054918301805463ffffffff93841663ffffffff19821681178355835467ffffffffffffffff1990921617640100000000918290049094160292909217808355815467ffffffffffffffff60401b198216600160401b918290046001600160401b039081169092029081178555925491166001600160801b0392831617600160801b9182900483168202179092556002808501805491850180549284166001600160801b0319909316831781559054849004909216909202909117905560038083015490820180546001600160a01b039283166001600160a01b0319918216179091556004808501549084018054918416918316919091179055600580850154908401805491841691831691909117905560068085015490840180549184169183169190911790556007808501805491850180549290941692821683178455546001600160a81b0319909116909117600160a01b9182900460ff1615159091021790556008808301805461471d9284019190614c7b565b50600982810180546147329284019190614cbb565b505050505b6001600160a01b038416600090815260996020526040902080548061476c57634e487b7160e01b600052603160045260246000fd5b600082815260208120600a6000199093019283020181815560018101829055600281018290556003810180546001600160a01b0319908116909155600482018054821690556005820180548216905560068201805490911690556007810180546001600160a81b0319169055906147e66008830182614d08565b614012600983016000614d26565b6001600160a01b03821660009081526099602090815260408083206098835281842085855290925282205482919061482e906001906156cc565b8154811061484c57634e487b7160e01b600052603260045260246000fd5b600091825260209091206001600a90920201015463ffffffff1690508061348f576064915050610acf565b6001600160a01b0383166000908152609960209081526040808320609883528184208685529092528220546148ae906001906156cc565b815481106148cc57634e487b7160e01b600052603260045260246000fd5b60009182526020909120600a90910201600701546001600160a01b031690508015614a49576040516323b872dd60e01b81523360048201523060248201526001600160801b03831660448201526001600160a01b038216906323b872dd90606401602060405180830381600087803b15801561494757600080fd5b505af115801561495b573d6000803e3d6000fd5b505050506040513d601f19601f8201168201806040525081019061497f919061513a565b6149b65760405163fefc7c5560e01b81526001600160a01b03821660048201526001600160801b0383166024820152604401610510565b6001600160a01b038416600090815260996020908152604080832060988352818420878552909252909120548391906149f1906001906156cc565b81548110614a0f57634e487b7160e01b600052603260045260246000fd5b90600052602060002090600a020160020160106101000a8154816001600160801b0302191690836001600160801b03160217905550614ad8565b6001600160a01b03841660009081526099602090815260408083206098835281842087855290925290912054349190614a84906001906156cc565b81548110614aa257634e487b7160e01b600052603260045260246000fd5b90600052602060002090600a020160020160106101000a8154816001600160801b0302191690836001600160801b031602179055505b6001600160a01b03841660009081526099602090815260408083206098835281842087855290925290912054339190614b13906001906156cc565b81548110614b3157634e487b7160e01b600052603260045260246000fd5b90600052602060002090600a020160030160006101000a8154816001600160a01b0302191690836001600160a01b0316021790555050505050565b828054828255906000526020600020908101928215614bc1579160200282015b82811115614bc157825182546001600160a01b0319166001600160a01b03909116178255602090920191600190910190614b8c565b50614bcd929150614d47565b5090565b82805482825590600052602060002090600701600890048101928215614bc15791602002820160005b83821115614c3e57835183826101000a81548163ffffffff021916908363ffffffff1602179055509260200192600401602081600301049283019260010302614bfa565b8015614c6e5782816101000a81549063ffffffff0219169055600401602081600301049283019260010302614c3e565b5050614bcd929150614d47565b828054828255906000526020600020908101928215614bc15760005260206000209182015b82811115614bc1578254825591600101919060010190614ca0565b82805482825590600052602060002090600701600890048101928215614bc15760005260206000209160070160089004820182811115614bc1578254825591600101919060010190614ca0565b50805460008255906000526020600020908101906127379190614d47565b50805460008255600701600890049060005260206000209081019061273791905b5b80821115614bcd5760008155600101614d48565b600082601f830112614d6c578081fd5b81356020614d81614d7c836155bf565b61558f565b80838252828201915082860187848660051b8901011115614da0578586fd5b855b85811015614dc7578135614db581615760565b84529284019290840190600101614da2565b5090979650505050505050565b600082601f830112614de4578081fd5b81356020614df4614d7c836155bf565b80838252828201915082860187848660051b8901011115614e13578586fd5b855b85811015614dc757813563ffffffff81168114614e30578788fd5b84529284019290840190600101614e15565b80356001600160801b0381168114614e5957600080fd5b919050565b600060208284031215614e6f578081fd5b8135612ccd81615760565b600060208284031215614e8b578081fd5b8151612ccd81615760565b60008060408385031215614ea8578081fd5b8235614eb381615760565b91506020830135614ec381615760565b809150509250929050565b600080600080600060808688031215614ee5578081fd5b8535614ef081615760565b94506020860135614f0081615760565b93506040860135925060608601356001600160401b0380821115614f22578283fd5b818801915088601f830112614f35578283fd5b813581811115614f43578384fd5b896020828501011115614f54578384fd5b9699959850939650602001949392505050565b60008060408385031215614f79578182fd5b8235614f8481615760565b946020939093013593505050565b60008060008060808587031215614fa7578384fd5b8435614fb281615760565b9350602085013592506040850135614fc981615760565b9150614fd760608601614e42565b905092959194509250565b60008060008060008060c08789031215614ffa578081fd5b863561500581615760565b955060208701359450604087013561501c81615760565b935061502a60608801614e42565b925060808701356001600160401b0380821115615045578283fd5b6150518a838b01614d5c565b935060a0890135915080821115615066578283fd5b5061507389828a01614dd4565b9150509295509295509295565b600080600080600080600080610100898b03121561509c578182fd5b88356150a781615760565b97506020890135965060408901356150be81615760565b95506150cc60608a01614e42565b94506150da60808a01614e42565b935060a0890135925060c08901356001600160401b03808211156150fc578384fd5b6151088c838d01614d5c565b935060e08b013591508082111561511d578283fd5b5061512a8b828c01614dd4565b9150509295985092959890939650565b60006020828403121561514b578081fd5b81518015158114612ccd578182fd5b60006020828403121561516b578081fd5b5035919050565b60008060408385031215615184578182fd5b823591506020830135614ec381615760565b6000815180845260208085019450808401835b838110156151ce5781516001600160a01b0316875295820195908201906001016151a9565b509495945050505050565b6000815180845260208085019450808401835b838110156151ce57815163ffffffff16875295820195908201906001016151ec565b60006101e082518452602083015161522e602086018263ffffffff169052565b506040830151615246604086018263ffffffff169052565b50606083015161526160608601826001600160401b03169052565b50608083015161527c60808601826001600160801b03169052565b5060a083015161529760a08601826001600160801b03169052565b5060c08301516152b260c08601826001600160801b03169052565b5060e08301516152cd60e08601826001600160a01b03169052565b50610100838101516001600160a01b039081169186019190915261012080850151821690860152610140808501518216908601526101608085015190911690850152610180808401511515908501526101a08084015181860183905261533583870182615196565b925050506101c0808401518583038287015261429783826151d9565b805182526000602082015160018060a01b038082166020860152806040850151166040860152505060608201516060840152608082015160c0608085015261539c60c0850182615196565b905060a083015184820360a08601526153b582826151d9565b95945050505050565b6001600160a01b039384168152919092166020820152604081019190915260600190565b6001600160a01b03929092168252602082015260400190565b6000602080830181845280855180835260408601915060408160051b8701019250838701855b8281101561544f57603f1988860301845261543d85835161520e565b94509285019290850190600101615421565b5092979650505050505050565b6000602080830181845280855180835260408601915060408160051b8701019250838701855b8281101561544f57603f1988860301845261549e858351615351565b94509285019290850190600101615482565b60208082526019908201527f556e72656769737465726564206e667420636f6e747261637400000000000000604082015260600190565b6020808252602b908201527f496e697469616c697a61626c653a20636f6e7472616374206973206e6f74206960408201526a6e697469616c697a696e6760a81b606082015260800190565b6020808252601f908201527f5265656e7472616e637947756172643a207265656e7472616e742063616c6c00604082015260600190565b602081526000612ccd602083018461520e565b602081526000612ccd6020830184615351565b604051601f8201601f191681016001600160401b03811182821017156155b7576155b761574a565b604052919050565b60006001600160401b038211156155d8576155d861574a565b5060051b60200190565b600082198211156155f5576155f561571e565b500190565b600063ffffffff8083168185168083038211156156195761561961571e565b01949350505050565b60006001600160401b038083168185168083038211156156195761561961571e565b60006001600160801b038084168061565e5761565e615734565b92169190910492915050565b60008261567957615679615734565b500490565b60006001600160801b03808316818516818304811182151516156156a4576156a461571e565b02949350505050565b60008160001904831182151516156156c7576156c761571e565b500290565b6000828210156156de576156de61571e565b500390565b60006000198214156156f7576156f761571e565b5060010190565b600060ff821660ff8114156157155761571561571e565b60010192915050565b634e487b7160e01b600052601160045260246000fd5b634e487b7160e01b600052601260045260246000fd5b634e487b7160e01b600052604160045260246000fd5b6001600160a01b038116811461273757600080fdfea2646970667358221220539a6eaf3e743e163824250deae6c1af285af7751d27fcffa5c101853b409de364736f6c63430008040033",
  "linkReferences": {},
  "deployedLinkReferences": {}
}