{
  "_format": "hh-sol-artifact-1",
  "contractName": "PefpNFT",
  "sourceName": "contracts/test/PefpNFT.sol",
  "abi": [
    {
      "inputs": [
        {
          "internalType": "string",
          "name": "name_",
          "type": "string"
        },
        {
          "internalType": "string",
          "name": "symbol_",
          "type": "string"
        }
      ],
      "stateMutability": "nonpayable",
      "type": "constructor"
    },
    {
      "inputs": [],
      "name": "ApprovalCallerNotOwnerNorApproved",
      "type": "error"
    },
    {
      "inputs": [],
      "name": "ApprovalQueryForNonexistentToken",
      "type": "error"
    },
    {
      "inputs": [],
      "name": "ApprovalToCurrentOwner",
      "type": "error"
    },
    {
      "inputs": [],
      "name": "ApproveToCaller",
      "type": "error"
    },
    {
      "inputs": [],
      "name": "BalanceQueryForZeroAddress",
      "type": "error"
    },
    {
      "inputs": [],
      "name": "MintToZeroAddress",
      "type": "error"
    },
    {
      "inputs": [],
      "name": "MintZeroQuantity",
      "type": "error"
    },
    {
      "inputs": [],
      "name": "OwnerQueryForNonexistentToken",
      "type": "error"
    },
    {
      "inputs": [],
      "name": "PeasNFT_CurrentLocked",
      "type": "error"
    },
    {
      "inputs": [],
      "name": "TransferCallerNotOwnerNorApproved",
      "type": "error"
    },
    {
      "inputs": [],
      "name": "TransferFromIncorrectOwner",
      "type": "error"
    },
    {
      "inputs": [],
      "name": "TransferToNonERC721ReceiverImplementer",
      "type": "error"
    },
    {
      "inputs": [],
      "name": "TransferToZeroAddress",
      "type": "error"
    },
    {
      "inputs": [],
      "name": "URIQueryForNonexistentToken",
      "type": "error"
    },
    {
      "anonymous": false,
      "inputs": [
        {
          "indexed": true,
          "internalType": "address",
          "name": "owner",
          "type": "address"
        },
        {
          "indexed": true,
          "internalType": "address",
          "name": "approved",
          "type": "address"
        },
        {
          "indexed": true,
          "internalType": "uint256",
          "name": "tokenId",
          "type": "uint256"
        }
      ],
      "name": "Approval",
      "type": "event"
    },
    {
      "anonymous": false,
      "inputs": [
        {
          "indexed": true,
          "internalType": "address",
          "name": "owner",
          "type": "address"
        },
        {
          "indexed": true,
          "internalType": "address",
          "name": "operator",
          "type": "address"
        },
        {
          "indexed": false,
          "internalType": "bool",
          "name": "approved",
          "type": "bool"
        }
      ],
      "name": "ApprovalForAll",
      "type": "event"
    },
    {
      "anonymous": false,
      "inputs": [
        {
          "indexed": true,
          "internalType": "address",
          "name": "operator",
          "type": "address"
        },
        {
          "indexed": false,
          "internalType": "uint256",
          "name": "tokenID",
          "type": "uint256"
        }
      ],
      "name": "Burn",
      "type": "event"
    },
    {
      "anonymous": false,
      "inputs": [
        {
          "indexed": true,
          "internalType": "address",
          "name": "operator",
          "type": "address"
        },
        {
          "indexed": false,
          "internalType": "bool",
          "name": "locked",
          "type": "bool"
        }
      ],
      "name": "Locked",
      "type": "event"
    },
    {
      "anonymous": false,
      "inputs": [
        {
          "indexed": true,
          "internalType": "address",
          "name": "operator",
          "type": "address"
        },
        {
          "indexed": true,
          "internalType": "address",
          "name": "to",
          "type": "address"
        },
        {
          "indexed": false,
          "internalType": "uint256",
          "name": "tokenId",
          "type": "uint256"
        }
      ],
      "name": "Mint",
      "type": "event"
    },
    {
      "anonymous": false,
      "inputs": [
        {
          "indexed": true,
          "internalType": "address",
          "name": "operator",
          "type": "address"
        },
        {
          "indexed": false,
          "internalType": "uint256",
          "name": "quantity",
          "type": "uint256"
        }
      ],
      "name": "MintToPool",
      "type": "event"
    },
    {
      "anonymous": false,
      "inputs": [
        {
          "indexed": true,
          "internalType": "address",
          "name": "previousOwner",
          "type": "address"
        },
        {
          "indexed": true,
          "internalType": "address",
          "name": "newOwner",
          "type": "address"
        }
      ],
      "name": "OwnershipTransferred",
      "type": "event"
    },
    {
      "anonymous": false,
      "inputs": [
        {
          "indexed": true,
          "internalType": "address",
          "name": "operator",
          "type": "address"
        },
        {
          "indexed": false,
          "internalType": "address",
          "name": "pool",
          "type": "address"
        }
      ],
      "name": "SetupPool",
      "type": "event"
    },
    {
      "anonymous": false,
      "inputs": [
        {
          "indexed": true,
          "internalType": "address",
          "name": "operator",
          "type": "address"
        },
        {
          "indexed": false,
          "internalType": "bool",
          "name": "allowed",
          "type": "bool"
        }
      ],
      "name": "TradingAllowed",
      "type": "event"
    },
    {
      "anonymous": false,
      "inputs": [
        {
          "indexed": true,
          "internalType": "address",
          "name": "from",
          "type": "address"
        },
        {
          "indexed": true,
          "internalType": "address",
          "name": "to",
          "type": "address"
        },
        {
          "indexed": true,
          "internalType": "uint256",
          "name": "tokenId",
          "type": "uint256"
        }
      ],
      "name": "Transfer",
      "type": "event"
    },
    {
      "anonymous": false,
      "inputs": [
        {
          "indexed": false,
          "internalType": "string",
          "name": "",
          "type": "string"
        }
      ],
      "name": "UpdateMetadataAnimationUrl",
      "type": "event"
    },
    {
      "anonymous": false,
      "inputs": [
        {
          "indexed": false,
          "internalType": "string",
          "name": "",
          "type": "string"
        }
      ],
      "name": "UpdateMetadataExternalUrl",
      "type": "event"
    },
    {
      "anonymous": false,
      "inputs": [
        {
          "indexed": false,
          "internalType": "string",
          "name": "",
          "type": "string"
        }
      ],
      "name": "UpdateMetadataImage",
      "type": "event"
    },
    {
      "inputs": [
        {
          "internalType": "address",
          "name": "to",
          "type": "address"
        },
        {
          "internalType": "uint256",
          "name": "tokenId",
          "type": "uint256"
        }
      ],
      "name": "approve",
      "outputs": [],
      "stateMutability": "nonpayable",
      "type": "function"
    },
    {
      "inputs": [
        {
          "internalType": "address",
          "name": "owner",
          "type": "address"
        }
      ],
      "name": "balanceOf",
      "outputs": [
        {
          "internalType": "uint256",
          "name": "",
          "type": "uint256"
        }
      ],
      "stateMutability": "view",
      "type": "function"
    },
    {
      "inputs": [],
      "name": "baseURI",
      "outputs": [
        {
          "internalType": "string",
          "name": "",
          "type": "string"
        }
      ],
      "stateMutability": "view",
      "type": "function"
    },
    {
      "inputs": [
        {
          "internalType": "uint256",
          "name": "tokenId",
          "type": "uint256"
        }
      ],
      "name": "burn",
      "outputs": [],
      "stateMutability": "nonpayable",
      "type": "function"
    },
    {
      "inputs": [
        {
          "internalType": "uint256",
          "name": "tokenId",
          "type": "uint256"
        }
      ],
      "name": "getApproved",
      "outputs": [
        {
          "internalType": "address",
          "name": "",
          "type": "address"
        }
      ],
      "stateMutability": "view",
      "type": "function"
    },
    {
      "inputs": [
        {
          "internalType": "address",
          "name": "owner",
          "type": "address"
        },
        {
          "internalType": "address",
          "name": "operator",
          "type": "address"
        }
      ],
      "name": "isApprovedForAll",
      "outputs": [
        {
          "internalType": "bool",
          "name": "",
          "type": "bool"
        }
      ],
      "stateMutability": "view",
      "type": "function"
    },
    {
      "inputs": [],
      "name": "lock",
      "outputs": [],
      "stateMutability": "nonpayable",
      "type": "function"
    },
    {
      "inputs": [],
      "name": "maxOwnLimit",
      "outputs": [
        {
          "internalType": "uint256",
          "name": "",
          "type": "uint256"
        }
      ],
      "stateMutability": "view",
      "type": "function"
    },
    {
      "inputs": [
        {
          "internalType": "address",
          "name": "to",
          "type": "address"
        },
        {
          "internalType": "uint256",
          "name": "profile",
          "type": "uint256"
        },
        {
          "internalType": "uint256",
          "name": "gamescore",
          "type": "uint256"
        },
        {
          "internalType": "uint256",
          "name": "transaction",
          "type": "uint256"
        },
        {
          "internalType": "uint128",
          "name": "rarity",
          "type": "uint128"
        },
        {
          "internalType": "uint128",
          "name": "tierlevel",
          "type": "uint128"
        }
      ],
      "name": "mint",
      "outputs": [],
      "stateMutability": "nonpayable",
      "type": "function"
    },
    {
      "inputs": [],
      "name": "name",
      "outputs": [
        {
          "internalType": "string",
          "name": "",
          "type": "string"
        }
      ],
      "stateMutability": "view",
      "type": "function"
    },
    {
      "inputs": [],
      "name": "owner",
      "outputs": [
        {
          "internalType": "address",
          "name": "",
          "type": "address"
        }
      ],
      "stateMutability": "view",
      "type": "function"
    },
    {
      "inputs": [
        {
          "internalType": "uint256",
          "name": "tokenId",
          "type": "uint256"
        }
      ],
      "name": "ownerOf",
      "outputs": [
        {
          "internalType": "address",
          "name": "",
          "type": "address"
        }
      ],
      "stateMutability": "view",
      "type": "function"
    },
    {
      "inputs": [],
      "name": "renounceOwnership",
      "outputs": [],
      "stateMutability": "nonpayable",
      "type": "function"
    },
    {
      "inputs": [
        {
          "internalType": "address",
          "name": "from",
          "type": "address"
        },
        {
          "internalType": "address",
          "name": "to",
          "type": "address"
        },
        {
          "internalType": "uint256",
          "name": "tokenId",
          "type": "uint256"
        }
      ],
      "name": "safeTransferFrom",
      "outputs": [],
      "stateMutability": "nonpayable",
      "type": "function"
    },
    {
      "inputs": [
        {
          "internalType": "address",
          "name": "from",
          "type": "address"
        },
        {
          "internalType": "address",
          "name": "to",
          "type": "address"
        },
        {
          "internalType": "uint256",
          "name": "tokenId",
          "type": "uint256"
        },
        {
          "internalType": "bytes",
          "name": "_data",
          "type": "bytes"
        }
      ],
      "name": "safeTransferFrom",
      "outputs": [],
      "stateMutability": "nonpayable",
      "type": "function"
    },
    {
      "inputs": [
        {
          "internalType": "address",
          "name": "operator",
          "type": "address"
        },
        {
          "internalType": "bool",
          "name": "approved",
          "type": "bool"
        }
      ],
      "name": "setApprovalForAll",
      "outputs": [],
      "stateMutability": "nonpayable",
      "type": "function"
    },
    {
      "inputs": [
        {
          "internalType": "string",
          "name": "_newBaseURI",
          "type": "string"
        }
      ],
      "name": "setBaseURI",
      "outputs": [],
      "stateMutability": "nonpayable",
      "type": "function"
    },
    {
      "inputs": [
        {
          "internalType": "uint256",
          "name": "_maxLimit",
          "type": "uint256"
        }
      ],
      "name": "setLimitation",
      "outputs": [],
      "stateMutability": "nonpayable",
      "type": "function"
    },
    {
      "inputs": [
        {
          "internalType": "bytes4",
          "name": "interfaceId",
          "type": "bytes4"
        }
      ],
      "name": "supportsInterface",
      "outputs": [
        {
          "internalType": "bool",
          "name": "",
          "type": "bool"
        }
      ],
      "stateMutability": "view",
      "type": "function"
    },
    {
      "inputs": [],
      "name": "symbol",
      "outputs": [
        {
          "internalType": "string",
          "name": "",
          "type": "string"
        }
      ],
      "stateMutability": "view",
      "type": "function"
    },
    {
      "inputs": [
        {
          "internalType": "uint256",
          "name": "index",
          "type": "uint256"
        }
      ],
      "name": "tokenByIndex",
      "outputs": [
        {
          "internalType": "uint256",
          "name": "",
          "type": "uint256"
        }
      ],
      "stateMutability": "view",
      "type": "function"
    },
    {
      "inputs": [
        {
          "internalType": "address",
          "name": "owner",
          "type": "address"
        },
        {
          "internalType": "uint256",
          "name": "index",
          "type": "uint256"
        }
      ],
      "name": "tokenOfOwnerByIndex",
      "outputs": [
        {
          "internalType": "uint256",
          "name": "tokenId",
          "type": "uint256"
        }
      ],
      "stateMutability": "view",
      "type": "function"
    },
    {
      "inputs": [
        {
          "internalType": "uint256",
          "name": "tokenId",
          "type": "uint256"
        }
      ],
      "name": "tokenURI",
      "outputs": [
        {
          "internalType": "string",
          "name": "",
          "type": "string"
        }
      ],
      "stateMutability": "view",
      "type": "function"
    },
    {
      "inputs": [],
      "name": "totalSupply",
      "outputs": [
        {
          "internalType": "uint256",
          "name": "",
          "type": "uint256"
        }
      ],
      "stateMutability": "view",
      "type": "function"
    },
    {
      "inputs": [
        {
          "internalType": "address",
          "name": "from",
          "type": "address"
        },
        {
          "internalType": "address",
          "name": "to",
          "type": "address"
        },
        {
          "internalType": "uint256",
          "name": "tokenId",
          "type": "uint256"
        }
      ],
      "name": "transferFrom",
      "outputs": [],
      "stateMutability": "nonpayable",
      "type": "function"
    },
    {
      "inputs": [
        {
          "internalType": "address",
          "name": "newOwner",
          "type": "address"
        }
      ],
      "name": "transferOwnership",
      "outputs": [],
      "stateMutability": "nonpayable",
      "type": "function"
    },
    {
      "inputs": [],
      "name": "unlock",
      "outputs": [],
      "stateMutability": "nonpayable",
      "type": "function"
    }
  ],
  "bytecode": "0x60806040526004600c553480156200001657600080fd5b5060405162002ba138038062002ba1833981016040819052620000399162000279565b8151829082906200005290600190602085019062000120565b5080516200006890600290602084019062000120565b505050620000856200007f620000ca60201b60201c565b620000ce565b600b805460ff191660011790556040805160808101909152605680825262002b4b60208301398051620000c191600a9160209091019062000120565b50505062000333565b3390565b600780546001600160a01b038381166001600160a01b0319831681179093556040519116919082907f8be0079c531659141344cd1fd0a4f28419497f9722a3daafe3b4186f6b6457e090600090a35050565b8280546200012e90620002e0565b90600052602060002090601f0160209004810192826200015257600085556200019d565b82601f106200016d57805160ff19168380011785556200019d565b828001600101855582156200019d579182015b828111156200019d57825182559160200191906001019062000180565b50620001ab929150620001af565b5090565b5b80821115620001ab5760008155600101620001b0565b600082601f830112620001d7578081fd5b81516001600160401b0380821115620001f457620001f46200031d565b604051601f8301601f19908116603f011681019082821181831017156200021f576200021f6200031d565b816040528381526020925086838588010111156200023b578485fd5b8491505b838210156200025e57858201830151818301840152908201906200023f565b838211156200026f57848385830101525b9695505050505050565b600080604083850312156200028c578182fd5b82516001600160401b0380821115620002a3578384fd5b620002b186838701620001c6565b93506020850151915080821115620002c7578283fd5b50620002d685828601620001c6565b9150509250929050565b600181811c90821680620002f557607f821691505b602082108114156200031757634e487b7160e01b600052602260045260246000fd5b50919050565b634e487b7160e01b600052604160045260246000fd5b61280880620003436000396000f3fe608060405234801561001057600080fd5b50600436106101a95760003560e01c806355f804b3116100f9578063a22cb46511610097578063c87b56dd11610071578063c87b56dd1461035f578063e985e9c514610372578063f2fde38b146103ae578063f83d08ba146103c157600080fd5b8063a22cb46514610331578063a69df4b514610344578063b88d4fde1461034c57600080fd5b806370a08231116100d357806370a08231146102fd578063715018a6146103105780638da5cb5b1461031857806395d89b411461032957600080fd5b806355f804b3146102cf5780636352211e146102e25780636c0360eb146102f557600080fd5b806323b872dd11610166578063342edd7e11610140578063342edd7e1461028357806342842e0e1461029657806342966c68146102a95780634f6ccce7146102bc57600080fd5b806323b872dd1461024a57806325005f1a1461025d5780632f745c591461027057600080fd5b806301ffc9a7146101ae57806306fdde03146101d6578063081812fc146101eb578063095ea7b31461021657806318160ddd1461022b5780632232c95714610241575b600080fd5b6101c16101bc366004611fa6565b6103c9565b60405190151581526020015b60405180910390f35b6101de610436565b6040516101cd9190612486565b6101fe6101f9366004612024565b6104c8565b6040516001600160a01b0390911681526020016101cd565b610229610224366004611f1f565b610558565b005b610233610670565b6040519081526020016101cd565b610233600c5481565b610229610258366004611e31565b61068c565b61022961026b366004612024565b6106bd565b61023361027e366004611f1f565b6106ca565b610229610291366004611f48565b61079f565b6102296102a4366004611e31565b61084b565b6102296102b7366004612024565b610866565b6102336102ca366004612024565b610910565b6102296102dd366004611fde565b6109d8565b6101fe6102f0366004612024565b6109f7565b6101de610a0b565b61023361030b366004611dde565b610a99565b610229610b75565b6007546001600160a01b03166101fe565b6101de610b89565b61022961033f366004611ee5565b610b98565b610229610c5d565b61022961035a366004611e6c565b610c71565b6101de61036d366004612024565b610ca9565b6101c1610380366004611dff565b6001600160a01b03918216600090815260066020908152604080832093909416825291909152205460ff1690565b6102296103bc366004611dde565b610dc8565b610229610e41565b60006001600160e01b031982166380ac58cd60e01b14806103fa57506001600160e01b03198216635b5e139f60e01b145b8061041557506001600160e01b0319821663780e9d6360e01b145b8061043057506301ffc9a760e01b6001600160e01b03198316145b92915050565b606060018054610445906125d0565b80601f0160208091040260200160405190810160405280929190818152602001828054610471906125d0565b80156104be5780601f10610493576101008083540402835291602001916104be565b820191906000526020600020905b8154815290600101906020018083116104a157829003601f168201915b5050505050905090565b60006104d382610e58565b61053c5760405162461bcd60e51b815260206004820152602f60248201527f4552433732315073693a20617070726f76656420717565727920666f72206e6f60448201526e3732bc34b9ba32b73a103a37b5b2b760891b60648201526084015b60405180910390fd5b506000908152600560205260409020546001600160a01b031690565b6000610563826109f7565b9050806001600160a01b0316836001600160a01b031614156105d35760405162461bcd60e51b8152602060048201526024808201527f4552433732315073693a20617070726f76616c20746f2063757272656e74206f6044820152633bb732b960e11b6064820152608401610533565b336001600160a01b03821614806105ef57506105ef8133610380565b6106615760405162461bcd60e51b815260206004820152603b60248201527f4552433732315073693a20617070726f76652063616c6c6572206973206e6f7460448201527f206f776e6572206e6f7220617070726f76656420666f7220616c6c00000000006064820152608401610533565b61066b8383610e8d565b505050565b600061067a610efb565b600454610687919061258d565b905090565b6106963382610f5b565b6106b25760405162461bcd60e51b8152600401610533906124ee565b61066b838383611048565b6106c561124d565b600c55565b60008060015b60016004546106df9190612542565b81101561074a576106ef81610e58565b801561071457506106ff816109f7565b6001600160a01b0316856001600160a01b0316145b15610738578382141561072a5791506104309050565b816107348161260b565b9250505b806107428161260b565b9150506106d0565b5060405162461bcd60e51b8152602060048201526024808201527f4552433732315073693a206f776e657220696e646578206f7574206f6620626f604482015263756e647360e01b6064820152608401610533565b6107a761124d565b6004546107b58760016112a7565b600081815260086020526040902086815560018101869055600281018590556001600160801b03838116600160801b029085161760038201556001600160a01b0388166107ff3390565b6001600160a01b03167fab8530f87dc9b59234c4623bf917212bb2536d647574c8e7e5da92c2ede0c9f88460405161083991815260200190565b60405180910390a35050505050505050565b61066b83838360405180602001604052806000815250610c71565b61086f816109f7565b6001600160a01b0316336001600160a01b0316146108cf5760405162461bcd60e51b815260206004820152601960248201527f6f6e6c7920616c6c6f77656420627920746865206f776e6572000000000000006044820152606401610533565b6108d8816112c1565b60405181815233907fcc16f5dbb4873280815c1ee09dbd06736cffcc184412cf7a71a0fdb75d397ca59060200160405180910390a250565b600061091a610670565b82106109765760405162461bcd60e51b815260206004820152602560248201527f4552433732315073693a20676c6f62616c20696e646578206f7574206f6620626044820152646f756e647360d81b6064820152608401610533565b600060015b600160045461098a9190612542565b8110156109ce5761099a81610e58565b156109bc57838214156109ae579392505050565b816109b88161260b565b9250505b806109c68161260b565b91505061097b565b5060009392505050565b6109e061124d565b80516109f390600a906020840190611ca1565b5050565b600080610a0383611323565b509392505050565b600a8054610a18906125d0565b80601f0160208091040260200160405190810160405280929190818152602001828054610a44906125d0565b8015610a915780601f10610a6657610100808354040283529160200191610a91565b820191906000526020600020905b815481529060010190602001808311610a7457829003601f168201915b505050505081565b60006001600160a01b038216610b075760405162461bcd60e51b815260206004820152602d60248201527f4552433732315073693a2062616c616e636520717565727920666f722074686560448201526c207a65726f206164647265737360981b6064820152608401610533565b600060015b6001600454610b1b9190612542565b811015610b6e57610b2b81610e58565b15610b5e57610b39816109f7565b6001600160a01b0316846001600160a01b03161415610b5e57610b5b8261260b565b91505b610b678161260b565b9050610b0c565b5092915050565b610b7d61124d565b610b8760006113ba565b565b606060028054610445906125d0565b6001600160a01b038216331415610bf15760405162461bcd60e51b815260206004820152601c60248201527f4552433732315073693a20617070726f766520746f2063616c6c6572000000006044820152606401610533565b3360008181526006602090815260408083206001600160a01b03871680855290835292819020805460ff191686151590811790915590519081529192917f17307eab39ab6107e8899845ad3d59bd9653f200f220920489ca2b5937696c31910160405180910390a35050565b610c6561124d565b600b805460ff19169055565b610c7b3383610f5b565b610c975760405162461bcd60e51b8152600401610533906124ee565b610ca38484848461140c565b50505050565b6060610cb482610e58565b610cd157604051630a14c4b560e41b815260040160405180910390fd5b6000610cdc83611441565b9050600081610ce9610436565b83610cf38761155b565b604051602001610d06949392919061238e565b60408051808303601f190181529181526000868152600860205290812060038101546001909101549293509091610d99918491600160801b9091046001600160801b0316908690610d5690611441565b60008a815260086020526040902060020154610d7190611441565b604051602001610d85959493929190612084565b604051602081830303815290604052611598565b9050600081604051602001610dae9190612349565b60408051601f198184030181529190529695505050505050565b610dd061124d565b6001600160a01b038116610e355760405162461bcd60e51b815260206004820152602660248201527f4f776e61626c653a206e6577206f776e657220697320746865207a65726f206160448201526564647265737360d01b6064820152608401610533565b610e3e816113ba565b50565b610e4961124d565b600b805460ff19166001179055565b600881901c600090815260096020526040812054600160ff1b60ff84161c1615610e8457506000919050565b610430826116f1565b600081815260056020526040902080546001600160a01b0319166001600160a01b0384169081179091558190610ec2826109f7565b6001600160a01b03167f8c5be1e5ebec7d5bd14f71427d1e84f3dd0314c0f7b2291e5b200ac8c7c3b92560405160405180910390a45050565b6000806008600454901c6001610f119190612542565b905060005b81811015610f5657600081815260096020526040902054610f3681611716565b610f409085612542565b9350508080610f4e9061260b565b915050610f16565b505090565b6000610f6682610e58565b610fca5760405162461bcd60e51b815260206004820152602f60248201527f4552433732315073693a206f70657261746f7220717565727920666f72206e6f60448201526e3732bc34b9ba32b73a103a37b5b2b760891b6064820152608401610533565b6000610fd5836109f7565b9050806001600160a01b0316846001600160a01b031614806110105750836001600160a01b0316611005846104c8565b6001600160a01b0316145b8061104057506001600160a01b0380821660009081526006602090815260408083209388168352929052205460ff165b949350505050565b60008061105483611323565b91509150846001600160a01b0316826001600160a01b0316146110ce5760405162461bcd60e51b815260206004820152602c60248201527f4552433732315073693a207472616e73666572206f6620746f6b656e2074686160448201526b3a1034b9903737ba1037bbb760a11b6064820152608401610533565b6001600160a01b0384166111345760405162461bcd60e51b815260206004820152602760248201527f4552433732315073693a207472616e7366657220746f20746865207a65726f206044820152666164647265737360c81b6064820152608401610533565b6111418585856001611735565b61114c600084610e8d565b6000611159846001612542565b600881901c600090815260208190526040902054909150600160ff1b60ff83161c16158015611195575060016004546111929190612542565b81105b156111cb57600081815260036020526040812080546001600160a01b0319166001600160a01b0389161790556111cb90826117f8565b600084815260036020526040902080546001600160a01b0319166001600160a01b038716179055818414611204576112046000856117f8565b83856001600160a01b0316876001600160a01b03167fddf252ad1be2c89b69c2b068fc378daa952ba7f163c4a11628f55a4df523b3ef60405160405180910390a4505050505050565b6007546001600160a01b03163314610b875760405162461bcd60e51b815260206004820181905260248201527f4f776e61626c653a2063616c6c6572206973206e6f7420746865206f776e65726044820152606401610533565b6109f3828260405180602001604052806000815250611824565b60006112cc826109f7565b90506112dc816000846001611735565b6112e76009836117f8565b60405182906000906001600160a01b038416907fddf252ad1be2c89b69c2b068fc378daa952ba7f163c4a11628f55a4df523b3ef908390a45050565b60008061132f83610e58565b6113905760405162461bcd60e51b815260206004820152602c60248201527f4552433732315073693a206f776e657220717565727920666f72206e6f6e657860448201526b34b9ba32b73a103a37b5b2b760a11b6064820152608401610533565b6113998361183f565b6000818152600360205260409020546001600160a01b031694909350915050565b600780546001600160a01b038381166001600160a01b0319831681179093556040519116919082907f8be0079c531659141344cd1fd0a4f28419497f9722a3daafe3b4186f6b6457e090600090a35050565b611417848484611048565b61142584848460018561184b565b610ca35760405162461bcd60e51b815260040161053390612499565b6060816114655750506040805180820190915260018152600360fc1b602082015290565b8160005b811561148f57806114798161260b565b91506114889050600a8361255a565b9150611469565b60008167ffffffffffffffff8111156114b857634e487b7160e01b600052604160045260246000fd5b6040519080825280601f01601f1916602001820160405280156114e2576020820181803683370190505b5090505b8415611040576114f760018361258d565b9150611504600a86612626565b61150f906030612542565b60f81b81838151811061153257634e487b7160e01b600052603260045260246000fd5b60200101906001600160f81b031916908160001a905350611554600a8661255a565b94506114e6565b6060600061156883611441565b90506000600a82604051602001611580929190612299565b60408051601f19818403018152919052949350505050565b8051606090600060036115ac836002612542565b6115b6919061255a565b6115c190600461256e565b905060006115d0826020612542565b67ffffffffffffffff8111156115f657634e487b7160e01b600052604160045260246000fd5b6040519080825280601f01601f191660200182016040528015611620576020820181803683370190505b5090506000604051806060016040528060408152602001612693604091399050600181016020830160005b868110156116ac576003818a01810151603f601282901c8116860151600c83901c8216870151600684901c831688015192909316870151600891821b60ff94851601821b92841692909201901b91160160e01b83526004909201910161164b565b5060038606600181146116c657600281146116d7576116e3565b613d3d60f01b6001198301526116e3565b603d60f81b6000198301525b505050918152949350505050565b6000816001111580156104305750600160045461170e9190612542565b821092915050565b60005b811561173057600019820190911690600101611719565b919050565b6001600160a01b0384161580159061175557506001600160a01b03831615155b15610ca357600b5460ff161561179f5760405162461bcd60e51b815260206004820152600f60248201526e1d1bdad95b881a5cc81b1bd8dad959608a1b6044820152606401610533565b600c546117ab84610a99565b10610ca35760405162461bcd60e51b815260206004820152601a60248201527f6f766572666c6f77206f66206d6178206c696d69746174696f6e0000000000006044820152606401610533565b600881901c600090815260209290925260409091208054600160ff1b60ff9093169290921c9091179055565b600454611831848461198e565b61142560008583868661184b565b60006104308183611b19565b60006001600160a01b0385163b1561198157506001835b61186c8486612542565b81101561197b57604051630a85bd0160e11b81526001600160a01b0387169063150b7a02906118a59033908b9086908990600401612449565b602060405180830381600087803b1580156118bf57600080fd5b505af19250505080156118ef575060408051601f3d908101601f191682019092526118ec91810190611fc2565b60015b611949573d80801561191d576040519150601f19603f3d011682016040523d82523d6000602084013e611922565b606091505b5080516119415760405162461bcd60e51b815260040161053390612499565b805181602001fd5b82801561196657506001600160e01b03198116630a85bd0160e11b145b925050806119738161260b565b915050611862565b50611985565b5060015b95945050505050565b600060045461199b600190565b6119a59190612542565b905060008211611a055760405162461bcd60e51b815260206004820152602560248201527f4552433732315073693a207175616e74697479206d7573742062652067726561604482015264074657220360dc1b6064820152608401610533565b6001600160a01b038316611a675760405162461bcd60e51b815260206004820152602360248201527f4552433732315073693a206d696e7420746f20746865207a65726f206164647260448201526265737360e81b6064820152608401610533565b611a746000848385611735565b8160046000828254611a869190612542565b9091555050600081815260036020526040812080546001600160a01b0319166001600160a01b038616179055611abc90826117f8565b805b611ac88383612542565b811015610ca35760405181906001600160a01b038616906000907fddf252ad1be2c89b69c2b068fc378daa952ba7f163c4a11628f55a4df523b3ef908290a480611b118161260b565b915050611abe565b600881901c60008181526020849052604081205490919060ff808516919082181c8015611b5b57611b4981611c11565b60ff168203600884901b179350611c08565b60008311611bc85760405162461bcd60e51b815260206004820152603460248201527f4269744d6170733a205468652073657420626974206265666f7265207468652060448201527334b73232bc103237b2b9b713ba1032bc34b9ba1760611b6064820152608401610533565b506000199091016000818152602086905260409020549091908015611c0357611bf081611c11565b60ff0360ff16600884901b179350611c08565b611b5b565b50505092915050565b600060405180610120016040528061010081526020016126d3610100913960f87e818283848586878898a8b8c8d8e8f929395969799a9b9d9e9faaeb6bedeeff611c5a85611c89565b02901c81518110611c7b57634e487b7160e01b600052603260045260246000fd5b016020015160f81c92915050565b6000808211611c9757600080fd5b5060008190031690565b828054611cad906125d0565b90600052602060002090601f016020900481019282611ccf5760008555611d15565b82601f10611ce857805160ff1916838001178555611d15565b82800160010185558215611d15579182015b82811115611d15578251825591602001919060010190611cfa565b50611d21929150611d25565b5090565b5b80821115611d215760008155600101611d26565b600067ffffffffffffffff80841115611d5557611d55612666565b604051601f8501601f19908116603f01168101908282118183101715611d7d57611d7d612666565b81604052809350858152868686011115611d9657600080fd5b858560208301376000602087830101525050509392505050565b80356001600160a01b038116811461173057600080fd5b80356001600160801b038116811461173057600080fd5b600060208284031215611def578081fd5b611df882611db0565b9392505050565b60008060408385031215611e11578081fd5b611e1a83611db0565b9150611e2860208401611db0565b90509250929050565b600080600060608486031215611e45578081fd5b611e4e84611db0565b9250611e5c60208501611db0565b9150604084013590509250925092565b60008060008060808587031215611e81578081fd5b611e8a85611db0565b9350611e9860208601611db0565b925060408501359150606085013567ffffffffffffffff811115611eba578182fd5b8501601f81018713611eca578182fd5b611ed987823560208401611d3a565b91505092959194509250565b60008060408385031215611ef7578182fd5b611f0083611db0565b915060208301358015158114611f14578182fd5b809150509250929050565b60008060408385031215611f31578182fd5b611f3a83611db0565b946020939093013593505050565b60008060008060008060c08789031215611f60578182fd5b611f6987611db0565b9550602087013594506040870135935060608701359250611f8c60808801611dc7565b9150611f9a60a08801611dc7565b90509295509295509295565b600060208284031215611fb7578081fd5b8135611df88161267c565b600060208284031215611fd3578081fd5b8151611df88161267c565b600060208284031215611fef578081fd5b813567ffffffffffffffff811115612005578182fd5b8201601f81018413612015578182fd5b61104084823560208401611d3a565b600060208284031215612035578081fd5b5035919050565b600081518084526120548160208601602086016125a4565b601f01601f19169290920160200192915050565b6000815161207a8185602086016125a4565b9290920192915050565b60008651612096818460208b016125a4565b7f222c20226465736372697074696f6e223a2022506c61794573746174657320469083019081527437bab73234b73390283630bcb2b9102a37b5b2b71160591b6020820152702c202261747472696275746573223a205b60781b60358201527f7b202274726169745f74797065223a202254696572222c202276616c7565223a604682015261101160f11b6066820152608087901b6fffffffffffffffffffffffffffffffff1916606882015262089f4b60ea1b60788201527f7b202274726169745f74797065223a20224944222c202276616c7565223a2022607b82015261228d61227f61227261226c61220c6121fe6121f86121a961219a609b8a018f612068565b62089f4b60ea1b815260030190565b7f7b2022646973706c61795f74797065223a20226e756d626572222c202274726181527f69745f74797065223a202247616d6520506c6179222c202276616c7565223a20602082015260400190565b8b612068565b611f4b60f21b815260020190565b7f7b2022646973706c61795f74797065223a20226e756d626572222c202274726181527f69745f74797065223a2022546f6b656e205472616e73616374696f6e222c202260208201526703b30b63ab2911d160c51b604082015260480190565b87612068565b607d60f81b815260010190565b615d7d60f01b815260020190565b98975050505050505050565b600080845482600182811c9150808316806122b557607f831692505b60208084108214156122d557634e487b7160e01b87526022600452602487fd5b8180156122e957600181146122fa57612326565b60ff19861689528489019650612326565b60008b815260209020885b8681101561231e5781548b820152908501908301612305565b505084890196505b5050505050506119856123398286612068565b632e706e6760e01b815260040190565b7f646174613a6170706c69636174696f6e2f6a736f6e3b6261736536342c00000081526000825161238181601d8501602087016125a4565b91909101601d0192915050565b6603d9134b2111d160cd1b815284516000906123b1816007850160208a016125a4565b6a1610113730b6b2911d101160a91b60079184019182015285516123dc816012840160208a016125a4565b61202360f01b6012929091019182015284516123ff8160148401602089016125a4565b6c1116101134b6b0b3b2911d101160991b60149290910191820152835161242d8160218401602088016125a4565b601160f91b602192909101918201526022019695505050505050565b6001600160a01b038581168252841660208201526040810183905260806060820181905260009061247c9083018461203c565b9695505050505050565b602081526000611df8602083018461203c565b60208082526035908201527f4552433732315073693a207472616e7366657220746f206e6f6e20455243373260408201527418a932b1b2b4bb32b91034b6b83632b6b2b73a32b960591b606082015260800190565b60208082526034908201527f4552433732315073693a207472616e736665722063616c6c6572206973206e6f6040820152731d081bdddb995c881b9bdc88185c1c1c9bdd995960621b606082015260800190565b600082198211156125555761255561263a565b500190565b60008261256957612569612650565b500490565b60008160001904831182151516156125885761258861263a565b500290565b60008282101561259f5761259f61263a565b500390565b60005b838110156125bf5781810151838201526020016125a7565b83811115610ca35750506000910152565b600181811c908216806125e457607f821691505b6020821081141561260557634e487b7160e01b600052602260045260246000fd5b50919050565b600060001982141561261f5761261f61263a565b5060010190565b60008261263557612635612650565b500690565b634e487b7160e01b600052601160045260246000fd5b634e487b7160e01b600052601260045260246000fd5b634e487b7160e01b600052604160045260246000fd5b6001600160e01b031981168114610e3e57600080fdfe4142434445464748494a4b4c4d4e4f505152535455565758595a6162636465666768696a6b6c6d6e6f707172737475767778797a303132333435363738392b2f0001020903110a19042112290b311a3905412245134d2a550c5d32651b6d3a7506264262237d468514804e8d2b95569d0d495ea533a966b11c886eb93bc176c9071727374353637324837e9b47af86c7155181ad4fd18ed32c9096db57d59ee30e2e4a6a5f92a6be3498aae067ddb2eb1d5989b56fd7baf33ca0c2ee77e5caf7ff0810182028303840444c545c646c7425617c847f8c949c48a4a8b087b8c0c816365272829aaec650acd0d28fdad4e22d6991bd97dfdcea58b4d6f29fede4f6fe0f1f2f3f4b5b6b607b8b93a3a7b7bf357199c5abcfd9e168bcdee9b3f1ecf5fd1e3e5a7a8aa2b670c4ced8bbe8f0f4fc3d79a1c3cde7effb78cce6facbf9f8a26469706673582212201bb9c6f95fa5c769f79b6c9ef1bd472b852e9d55f1c0e1d21396b76ee35dee9764736f6c6343000804003368747470733a2f2f706c6179657374617465732e6d7970696e6174612e636c6f75642f697066732f516d537a6152534851367965595065376f5232756d7941434638346f7452324477436d545558344c727267763963",
  "linkReferences": {},
  "deployedLinkReferences": {}
}