{
  "_format": "hh-sol-artifact-1",
  "contractName": "MembershipNFT",
  "sourceName": "contracts/token/MembershipNFT.sol",
  "abi": [
    {
      "inputs": [
        {
          "internalType": "string",
          "name": "name_",
          "type": "string"
        },
        {
          "internalType": "string",
          "name": "symbol_",
          "type": "string"
        }
      ],
      "stateMutability": "nonpayable",
      "type": "constructor"
    },
    {
      "inputs": [],
      "name": "ApprovalCallerNotOwnerNorApproved",
      "type": "error"
    },
    {
      "inputs": [],
      "name": "ApprovalQueryForNonexistentToken",
      "type": "error"
    },
    {
      "inputs": [],
      "name": "ApprovalToCurrentOwner",
      "type": "error"
    },
    {
      "inputs": [],
      "name": "ApproveToCaller",
      "type": "error"
    },
    {
      "inputs": [],
      "name": "BalanceQueryForZeroAddress",
      "type": "error"
    },
    {
      "inputs": [],
      "name": "MintToZeroAddress",
      "type": "error"
    },
    {
      "inputs": [],
      "name": "MintZeroQuantity",
      "type": "error"
    },
    {
      "inputs": [],
      "name": "OwnerQueryForNonexistentToken",
      "type": "error"
    },
    {
      "inputs": [],
      "name": "TransferCallerNotOwnerNorApproved",
      "type": "error"
    },
    {
      "inputs": [],
      "name": "TransferFromIncorrectOwner",
      "type": "error"
    },
    {
      "inputs": [],
      "name": "TransferToNonERC721ReceiverImplementer",
      "type": "error"
    },
    {
      "inputs": [],
      "name": "TransferToZeroAddress",
      "type": "error"
    },
    {
      "inputs": [],
      "name": "URIQueryForNonexistentToken",
      "type": "error"
    },
    {
      "anonymous": false,
      "inputs": [
        {
          "indexed": true,
          "internalType": "address",
          "name": "owner",
          "type": "address"
        },
        {
          "indexed": true,
          "internalType": "address",
          "name": "approved",
          "type": "address"
        },
        {
          "indexed": true,
          "internalType": "uint256",
          "name": "tokenId",
          "type": "uint256"
        }
      ],
      "name": "Approval",
      "type": "event"
    },
    {
      "anonymous": false,
      "inputs": [
        {
          "indexed": true,
          "internalType": "address",
          "name": "owner",
          "type": "address"
        },
        {
          "indexed": true,
          "internalType": "address",
          "name": "operator",
          "type": "address"
        },
        {
          "indexed": false,
          "internalType": "bool",
          "name": "approved",
          "type": "bool"
        }
      ],
      "name": "ApprovalForAll",
      "type": "event"
    },
    {
      "anonymous": false,
      "inputs": [
        {
          "indexed": true,
          "internalType": "address",
          "name": "operator",
          "type": "address"
        },
        {
          "indexed": false,
          "internalType": "uint256",
          "name": "tokenID",
          "type": "uint256"
        }
      ],
      "name": "Burn",
      "type": "event"
    },
    {
      "anonymous": false,
      "inputs": [
        {
          "indexed": true,
          "internalType": "address",
          "name": "operator",
          "type": "address"
        },
        {
          "indexed": false,
          "internalType": "bool",
          "name": "locked",
          "type": "bool"
        }
      ],
      "name": "Locked",
      "type": "event"
    },
    {
      "anonymous": false,
      "inputs": [
        {
          "indexed": true,
          "internalType": "address",
          "name": "operator",
          "type": "address"
        },
        {
          "indexed": true,
          "internalType": "address",
          "name": "to",
          "type": "address"
        },
        {
          "indexed": false,
          "internalType": "uint256",
          "name": "quantity",
          "type": "uint256"
        }
      ],
      "name": "Mint",
      "type": "event"
    },
    {
      "anonymous": false,
      "inputs": [
        {
          "indexed": true,
          "internalType": "address",
          "name": "operator",
          "type": "address"
        },
        {
          "indexed": false,
          "internalType": "uint256",
          "name": "quantity",
          "type": "uint256"
        }
      ],
      "name": "MintToPool",
      "type": "event"
    },
    {
      "anonymous": false,
      "inputs": [
        {
          "indexed": true,
          "internalType": "address",
          "name": "previousOwner",
          "type": "address"
        },
        {
          "indexed": true,
          "internalType": "address",
          "name": "newOwner",
          "type": "address"
        }
      ],
      "name": "OwnershipTransferred",
      "type": "event"
    },
    {
      "anonymous": false,
      "inputs": [
        {
          "indexed": true,
          "internalType": "address",
          "name": "operator",
          "type": "address"
        },
        {
          "indexed": false,
          "internalType": "address",
          "name": "pool",
          "type": "address"
        }
      ],
      "name": "SetupPool",
      "type": "event"
    },
    {
      "anonymous": false,
      "inputs": [
        {
          "indexed": true,
          "internalType": "address",
          "name": "operator",
          "type": "address"
        },
        {
          "indexed": false,
          "internalType": "bool",
          "name": "allowed",
          "type": "bool"
        }
      ],
      "name": "TradingAllowed",
      "type": "event"
    },
    {
      "anonymous": false,
      "inputs": [
        {
          "indexed": true,
          "internalType": "address",
          "name": "from",
          "type": "address"
        },
        {
          "indexed": true,
          "internalType": "address",
          "name": "to",
          "type": "address"
        },
        {
          "indexed": true,
          "internalType": "uint256",
          "name": "tokenId",
          "type": "uint256"
        }
      ],
      "name": "Transfer",
      "type": "event"
    },
    {
      "anonymous": false,
      "inputs": [
        {
          "indexed": false,
          "internalType": "string",
          "name": "",
          "type": "string"
        }
      ],
      "name": "UpdateMetadataAnimationUrl",
      "type": "event"
    },
    {
      "anonymous": false,
      "inputs": [
        {
          "indexed": false,
          "internalType": "string",
          "name": "",
          "type": "string"
        }
      ],
      "name": "UpdateMetadataExternalUrl",
      "type": "event"
    },
    {
      "anonymous": false,
      "inputs": [
        {
          "indexed": false,
          "internalType": "string",
          "name": "",
          "type": "string"
        }
      ],
      "name": "UpdateMetadataImage",
      "type": "event"
    },
    {
      "inputs": [],
      "name": "SUPPLY_PER_TYPE",
      "outputs": [
        {
          "internalType": "uint256",
          "name": "",
          "type": "uint256"
        }
      ],
      "stateMutability": "view",
      "type": "function"
    },
    {
      "inputs": [
        {
          "internalType": "address",
          "name": "to",
          "type": "address"
        },
        {
          "internalType": "uint256",
          "name": "tokenId",
          "type": "uint256"
        }
      ],
      "name": "approve",
      "outputs": [],
      "stateMutability": "nonpayable",
      "type": "function"
    },
    {
      "inputs": [
        {
          "internalType": "address",
          "name": "owner",
          "type": "address"
        }
      ],
      "name": "balanceOf",
      "outputs": [
        {
          "internalType": "uint256",
          "name": "",
          "type": "uint256"
        }
      ],
      "stateMutability": "view",
      "type": "function"
    },
    {
      "inputs": [
        {
          "internalType": "uint256",
          "name": "tokenId",
          "type": "uint256"
        }
      ],
      "name": "burn",
      "outputs": [],
      "stateMutability": "nonpayable",
      "type": "function"
    },
    {
      "inputs": [
        {
          "internalType": "uint256",
          "name": "tokenId",
          "type": "uint256"
        }
      ],
      "name": "getApproved",
      "outputs": [
        {
          "internalType": "address",
          "name": "",
          "type": "address"
        }
      ],
      "stateMutability": "view",
      "type": "function"
    },
    {
      "inputs": [
        {
          "internalType": "enum MembershipNFT.TokenType",
          "name": "tokenType",
          "type": "uint8"
        }
      ],
      "name": "getMintedPerType",
      "outputs": [
        {
          "internalType": "uint256",
          "name": "",
          "type": "uint256"
        }
      ],
      "stateMutability": "view",
      "type": "function"
    },
    {
      "inputs": [
        {
          "internalType": "address",
          "name": "owner",
          "type": "address"
        },
        {
          "internalType": "address",
          "name": "operator",
          "type": "address"
        }
      ],
      "name": "isApprovedForAll",
      "outputs": [
        {
          "internalType": "bool",
          "name": "",
          "type": "bool"
        }
      ],
      "stateMutability": "view",
      "type": "function"
    },
    {
      "inputs": [
        {
          "internalType": "address",
          "name": "to",
          "type": "address"
        },
        {
          "internalType": "uint256",
          "name": "quantity",
          "type": "uint256"
        },
        {
          "internalType": "enum MembershipNFT.TokenType",
          "name": "tokenType",
          "type": "uint8"
        }
      ],
      "name": "mint",
      "outputs": [],
      "stateMutability": "nonpayable",
      "type": "function"
    },
    {
      "inputs": [],
      "name": "name",
      "outputs": [
        {
          "internalType": "string",
          "name": "",
          "type": "string"
        }
      ],
      "stateMutability": "view",
      "type": "function"
    },
    {
      "inputs": [],
      "name": "owner",
      "outputs": [
        {
          "internalType": "address",
          "name": "",
          "type": "address"
        }
      ],
      "stateMutability": "view",
      "type": "function"
    },
    {
      "inputs": [
        {
          "internalType": "uint256",
          "name": "tokenId",
          "type": "uint256"
        }
      ],
      "name": "ownerOf",
      "outputs": [
        {
          "internalType": "address",
          "name": "",
          "type": "address"
        }
      ],
      "stateMutability": "view",
      "type": "function"
    },
    {
      "inputs": [],
      "name": "renounceOwnership",
      "outputs": [],
      "stateMutability": "nonpayable",
      "type": "function"
    },
    {
      "inputs": [
        {
          "internalType": "address",
          "name": "from",
          "type": "address"
        },
        {
          "internalType": "address",
          "name": "to",
          "type": "address"
        },
        {
          "internalType": "uint256",
          "name": "tokenId",
          "type": "uint256"
        }
      ],
      "name": "safeTransferFrom",
      "outputs": [],
      "stateMutability": "nonpayable",
      "type": "function"
    },
    {
      "inputs": [
        {
          "internalType": "address",
          "name": "from",
          "type": "address"
        },
        {
          "internalType": "address",
          "name": "to",
          "type": "address"
        },
        {
          "internalType": "uint256",
          "name": "tokenId",
          "type": "uint256"
        },
        {
          "internalType": "bytes",
          "name": "_data",
          "type": "bytes"
        }
      ],
      "name": "safeTransferFrom",
      "outputs": [],
      "stateMutability": "nonpayable",
      "type": "function"
    },
    {
      "inputs": [
        {
          "internalType": "string",
          "name": "animationURI",
          "type": "string"
        }
      ],
      "name": "setAnimationURI",
      "outputs": [],
      "stateMutability": "nonpayable",
      "type": "function"
    },
    {
      "inputs": [
        {
          "internalType": "address",
          "name": "operator",
          "type": "address"
        },
        {
          "internalType": "bool",
          "name": "approved",
          "type": "bool"
        }
      ],
      "name": "setApprovalForAll",
      "outputs": [],
      "stateMutability": "nonpayable",
      "type": "function"
    },
    {
      "inputs": [
        {
          "internalType": "string",
          "name": "imageURI",
          "type": "string"
        }
      ],
      "name": "setImageURI",
      "outputs": [],
      "stateMutability": "nonpayable",
      "type": "function"
    },
    {
      "inputs": [
        {
          "internalType": "bytes4",
          "name": "interfaceId",
          "type": "bytes4"
        }
      ],
      "name": "supportsInterface",
      "outputs": [
        {
          "internalType": "bool",
          "name": "",
          "type": "bool"
        }
      ],
      "stateMutability": "view",
      "type": "function"
    },
    {
      "inputs": [],
      "name": "symbol",
      "outputs": [
        {
          "internalType": "string",
          "name": "",
          "type": "string"
        }
      ],
      "stateMutability": "view",
      "type": "function"
    },
    {
      "inputs": [],
      "name": "tierAnimationURL",
      "outputs": [
        {
          "internalType": "string",
          "name": "",
          "type": "string"
        }
      ],
      "stateMutability": "view",
      "type": "function"
    },
    {
      "inputs": [],
      "name": "tierImageURI",
      "outputs": [
        {
          "internalType": "string",
          "name": "",
          "type": "string"
        }
      ],
      "stateMutability": "view",
      "type": "function"
    },
    {
      "inputs": [
        {
          "internalType": "uint256",
          "name": "index",
          "type": "uint256"
        }
      ],
      "name": "tokenByIndex",
      "outputs": [
        {
          "internalType": "uint256",
          "name": "",
          "type": "uint256"
        }
      ],
      "stateMutability": "view",
      "type": "function"
    },
    {
      "inputs": [
        {
          "internalType": "address",
          "name": "owner",
          "type": "address"
        },
        {
          "internalType": "uint256",
          "name": "index",
          "type": "uint256"
        }
      ],
      "name": "tokenOfOwnerByIndex",
      "outputs": [
        {
          "internalType": "uint256",
          "name": "tokenId",
          "type": "uint256"
        }
      ],
      "stateMutability": "view",
      "type": "function"
    },
    {
      "inputs": [
        {
          "internalType": "uint256",
          "name": "tokenId",
          "type": "uint256"
        }
      ],
      "name": "tokenURI",
      "outputs": [
        {
          "internalType": "string",
          "name": "",
          "type": "string"
        }
      ],
      "stateMutability": "view",
      "type": "function"
    },
    {
      "inputs": [],
      "name": "totalSupply",
      "outputs": [
        {
          "internalType": "uint256",
          "name": "",
          "type": "uint256"
        }
      ],
      "stateMutability": "view",
      "type": "function"
    },
    {
      "inputs": [
        {
          "internalType": "address",
          "name": "from",
          "type": "address"
        },
        {
          "internalType": "address",
          "name": "to",
          "type": "address"
        },
        {
          "internalType": "uint256",
          "name": "tokenId",
          "type": "uint256"
        }
      ],
      "name": "transferFrom",
      "outputs": [],
      "stateMutability": "nonpayable",
      "type": "function"
    },
    {
      "inputs": [
        {
          "internalType": "address",
          "name": "newOwner",
          "type": "address"
        }
      ],
      "name": "transferOwnership",
      "outputs": [],
      "stateMutability": "nonpayable",
      "type": "function"
    },
    {
      "inputs": [
        {
          "internalType": "uint256",
          "name": "",
          "type": "uint256"
        }
      ],
      "name": "typeNames",
      "outputs": [
        {
          "internalType": "string",
          "name": "",
          "type": "string"
        }
      ],
      "stateMutability": "view",
      "type": "function"
    }
  ],
  "bytecode": "0x600560c090815264135bd9dd5b60da1b60e052608090815261014060405260086101009081526724b73b32b9ba37b960c11b6101205260a0526200004890600c90600262000189565b503480156200005657600080fd5b5060405162002f2938038062002f298339810160408190526200007991620003a5565b81518290829062000092906001906020850190620001ed565b508051620000a8906002906020840190620001ed565b505050620000c5620000bf6200013360201b60201c565b62000137565b60016008556040805160808101909152605780825262002e7b60208301398051620000f991600a91602090910190620001ed565b5060405180608001604052806057815260200162002ed26057913980516200012a91600b91602090910190620001ed565b5050506200045f565b3390565b600780546001600160a01b038381166001600160a01b0319831681179093556040519116919082907f8be0079c531659141344cd1fd0a4f28419497f9722a3daafe3b4186f6b6457e090600090a35050565b828054828255906000526020600020908101928215620001db579160200282015b82811115620001db5782518051620001ca918491602090910190620001ed565b5091602001919060010190620001aa565b50620001e992915062000278565b5090565b828054620001fb906200040c565b90600052602060002090601f0160209004810192826200021f57600085556200026a565b82601f106200023a57805160ff19168380011785556200026a565b828001600101855582156200026a579182015b828111156200026a5782518255916020019190600101906200024d565b50620001e992915062000299565b80821115620001e95760006200028f8282620002b0565b5060010162000278565b5b80821115620001e957600081556001016200029a565b508054620002be906200040c565b6000825580601f10620002cf575050565b601f016020900490600052602060002090810190620002ef919062000299565b50565b600082601f83011262000303578081fd5b81516001600160401b038082111562000320576200032062000449565b604051601f8301601f19908116603f011681019082821181831017156200034b576200034b62000449565b8160405283815260209250868385880101111562000367578485fd5b8491505b838210156200038a57858201830151818301840152908201906200036b565b838211156200039b57848385830101525b9695505050505050565b60008060408385031215620003b8578182fd5b82516001600160401b0380821115620003cf578384fd5b620003dd86838701620002f2565b93506020850151915080821115620003f3578283fd5b506200040285828601620002f2565b9150509250929050565b600181811c908216806200042157607f821691505b602082108114156200044357634e487b7160e01b600052602260045260246000fd5b50919050565b634e487b7160e01b600052604160045260246000fd5b612a0c806200046f6000396000f3fe608060405234801561001057600080fd5b50600436106101c45760003560e01c80636352211e116100f9578063b88d4fde11610097578063c87b56dd11610071578063c87b56dd1461038d578063e985e9c5146103a0578063f2fde38b146103dc578063fde800c7146103ef57600080fd5b8063b88d4fde1461035e578063c0a15ec414610371578063c5ac58e11461037a57600080fd5b80638da5cb5b116100d35780638da5cb5b1461031f57806395d89b41146103305780639732f1d514610338578063a22cb4651461034b57600080fd5b80636352211e146102f157806370a0823114610304578063715018a61461031757600080fd5b80632f745c59116101665780634a7df786116101405780634a7df786146102bb5780634f6ccce7146102c35780635259450e146102d65780636112e8ac146102de57600080fd5b80632f745c591461028257806342842e0e1461029557806342966c68146102a857600080fd5b8063081812fc116101a2578063081812fc1461021b578063095ea7b31461024657806318160ddd1461025957806323b872dd1461026f57600080fd5b806301ffc9a7146101c957806304787ca2146101f157806306fdde0314610206575b600080fd5b6101dc6101d7366004612269565b610402565b60405190151581526020015b60405180910390f35b6102046101ff3660046122bb565b61046f565b005b61020e61048e565b6040516101e89190612673565b61022e610229366004612301565b610520565b6040516001600160a01b0390911681526020016101e8565b610204610254366004612205565b6105b0565b6102616106c8565b6040519081526020016101e8565b61020461027d366004612117565b6106e4565b610261610290366004612205565b610715565b6102046102a3366004612117565b6107ea565b6102046102b6366004612301565b610805565b61020e61093b565b6102616102d1366004612301565b6109c9565b61020e610a91565b6102046102ec36600461222e565b610a9e565b61022e6102ff366004612301565b610d1d565b6102616103123660046120c4565b610d31565b610204610e0d565b6007546001600160a01b031661022e565b61020e610e21565b61020e610346366004612301565b610e30565b6102046103593660046121cb565b610e5b565b61020461036c366004612152565b610f20565b61026161271081565b6102046103883660046122bb565b610f58565b61020e61039b366004612301565b610f73565b6101dc6103ae3660046120e5565b6001600160a01b03918216600090815260066020908152604080832093909416825291909152205460ff1690565b6102046103ea3660046120c4565b611196565b6102616103fd3660046122a1565b61120f565b60006001600160e01b031982166380ac58cd60e01b148061043357506001600160e01b03198216635b5e139f60e01b145b8061044e57506001600160e01b0319821663780e9d6360e01b145b8061046957506301ffc9a760e01b6001600160e01b03198316145b92915050565b610477611273565b805161048a90600a906020840190611f8f565b5050565b60606001805461049d906127d4565b80601f01602080910402602001604051908101604052809291908181526020018280546104c9906127d4565b80156105165780601f106104eb57610100808354040283529160200191610516565b820191906000526020600020905b8154815290600101906020018083116104f957829003601f168201915b5050505050905090565b600061052b826112cd565b6105945760405162461bcd60e51b815260206004820152602f60248201527f4552433732315073693a20617070726f76656420717565727920666f72206e6f60448201526e3732bc34b9ba32b73a103a37b5b2b760891b60648201526084015b60405180910390fd5b506000908152600560205260409020546001600160a01b031690565b60006105bb82610d1d565b9050806001600160a01b0316836001600160a01b0316141561062b5760405162461bcd60e51b8152602060048201526024808201527f4552433732315073693a20617070726f76616c20746f2063757272656e74206f6044820152633bb732b960e11b606482015260840161058b565b336001600160a01b0382161480610647575061064781336103ae565b6106b95760405162461bcd60e51b815260206004820152603b60248201527f4552433732315073693a20617070726f76652063616c6c6572206973206e6f7460448201527f206f776e6572206e6f7220617070726f76656420666f7220616c6c0000000000606482015260840161058b565b6106c38383611302565b505050565b60006106d2611370565b6004546106df919061277a565b905090565b6106ee33826113d0565b61070a5760405162461bcd60e51b815260040161058b906126db565b6106c38383836114bd565b60008060015b600160045461072a919061272f565b8110156107955761073a816112cd565b801561075f575061074a81610d1d565b6001600160a01b0316856001600160a01b0316145b1561078357838214156107755791506104699050565b8161077f8161280f565b9250505b8061078d8161280f565b91505061071b565b5060405162461bcd60e51b8152602060048201526024808201527f4552433732315073693a206f776e657220696e646578206f7574206f6620626f604482015263756e647360e01b606482015260840161058b565b6106c383838360405180602001604052806000815250610f20565b61080e81610d1d565b6001600160a01b0316336001600160a01b0316146108605760405162461bcd60e51b815260206004820152600f60248201526e2737ba103a37b5b2b71037bbb732b960891b604482015260640161058b565b6000818152600d60205260408120600190810154600e929160ff9091169081111561089b57634e487b7160e01b600052602160045260246000fd5b60018111156108ba57634e487b7160e01b600052602160045260246000fd5b815260200190815260200160002060008154809291906108d9906127bd565b90915550506000818152600d60205260408120908155600101805460ff19169055610903816116b5565b60405181815233907fcc16f5dbb4873280815c1ee09dbd06736cffcc184412cf7a71a0fdb75d397ca59060200160405180910390a250565b600b8054610948906127d4565b80601f0160208091040260200160405190810160405280929190818152602001828054610974906127d4565b80156109c15780601f10610996576101008083540402835291602001916109c1565b820191906000526020600020905b8154815290600101906020018083116109a457829003601f168201915b505050505081565b60006109d36106c8565b8210610a2f5760405162461bcd60e51b815260206004820152602560248201527f4552433732315073693a20676c6f62616c20696e646578206f7574206f6620626044820152646f756e647360d81b606482015260840161058b565b600060015b6001600454610a43919061272f565b811015610a8757610a53816112cd565b15610a755783821415610a67579392505050565b81610a718161280f565b9250505b80610a7f8161280f565b915050610a34565b5060009392505050565b600a8054610948906127d4565b610aa6611273565b806000816001811115610ac957634e487b7160e01b600052602160045260246000fd5b10158015610af757506001816001811115610af457634e487b7160e01b600052602160045260246000fd5b11155b610b385760405162461bcd60e51b8152602060048201526012602482015271496e76616c696420746f6b656e207479706560701b604482015260640161058b565b61271083600e6000856001811115610b6057634e487b7160e01b600052602160045260246000fd5b6001811115610b7f57634e487b7160e01b600052602160045260246000fd5b815260200190815260200160002054610b98919061272f565b1115610bf45760405162461bcd60e51b815260206004820152602560248201527f4f766572666c6f772074686520746f74616c737570706c7920666f7220746865604482015264207479706560d81b606482015260840161058b565b610bfe8484611709565b6004545b83600454610c10919061277a565b811115610c70576000818152600d6020526040902081815560018082018054869260ff19909116908381811115610c5757634e487b7160e01b600052602160045260246000fd5b0217905550508080610c68906127bd565b915050610c02565b5082600e6000846001811115610c9657634e487b7160e01b600052602160045260246000fd5b6001811115610cb557634e487b7160e01b600052602160045260246000fd5b81526020019081526020016000206000828254610cd2919061272f565b90915550506040518381526001600160a01b0385169033907fab8530f87dc9b59234c4623bf917212bb2536d647574c8e7e5da92c2ede0c9f89060200160405180910390a350505050565b600080610d2983611723565b509392505050565b60006001600160a01b038216610d9f5760405162461bcd60e51b815260206004820152602d60248201527f4552433732315073693a2062616c616e636520717565727920666f722074686560448201526c207a65726f206164647265737360981b606482015260840161058b565b600060015b6001600454610db3919061272f565b811015610e0657610dc3816112cd565b15610df657610dd181610d1d565b6001600160a01b0316846001600160a01b03161415610df657610df38261280f565b91505b610dff8161280f565b9050610da4565b5092915050565b610e15611273565b610e1f60006117ba565b565b60606002805461049d906127d4565b600c8181548110610e4057600080fd5b906000526020600020016000915090508054610948906127d4565b6001600160a01b038216331415610eb45760405162461bcd60e51b815260206004820152601c60248201527f4552433732315073693a20617070726f766520746f2063616c6c657200000000604482015260640161058b565b3360008181526006602090815260408083206001600160a01b03871680855290835292819020805460ff191686151590811790915590519081529192917f17307eab39ab6107e8899845ad3d59bd9653f200f220920489ca2b5937696c31910160405180910390a35050565b610f2a33836113d0565b610f465760405162461bcd60e51b815260040161058b906126db565b610f528484848461180c565b50505050565b610f60611273565b805161048a90600b906020840190611f8f565b6060610f7e826112cd565b610f9b57604051630a14c4b560e41b815260040160405180910390fd5b6000828152600d60209081526040808320815180830190925280548252600180820154929391929184019160ff1690811115610fe757634e487b7160e01b600052602160045260246000fd5b600181111561100657634e487b7160e01b600052602160045260246000fd5b9052509050600061101684611841565b905060008161102361048e565b83600a600c8760200151600181111561104c57634e487b7160e01b600052602160045260246000fd5b8154811061106a57634e487b7160e01b600052603260045260246000fd5b90600052602060002001600b600c8960200151600181111561109c57634e487b7160e01b600052602160045260246000fd5b815481106110ba57634e487b7160e01b600052603260045260246000fd5b906000526020600020016040516020016110da979695949392919061253d565b604051602081830303815290604052905060006111668284600c8760200151600181111561111857634e487b7160e01b600052602160045260246000fd5b8154811061113657634e487b7160e01b600052603260045260246000fd5b90600052602060002001604051602001611152939291906123dd565b60405160208183030381529060405261195b565b905060008160405160200161117b91906124f8565b60408051601f19818403018152919052979650505050505050565b61119e611273565b6001600160a01b0381166112035760405162461bcd60e51b815260206004820152602660248201527f4f776e61626c653a206e6577206f776e657220697320746865207a65726f206160448201526564647265737360d01b606482015260840161058b565b61120c816117ba565b50565b6000611219611273565b600e600083600181111561123d57634e487b7160e01b600052602160045260246000fd5b600181111561125c57634e487b7160e01b600052602160045260246000fd5b81526020019081526020016000205490505b919050565b6007546001600160a01b03163314610e1f5760405162461bcd60e51b815260206004820181905260248201527f4f776e61626c653a2063616c6c6572206973206e6f7420746865206f776e6572604482015260640161058b565b600881901c600090815260096020526040812054600160ff1b60ff84161c16156112f957506000919050565b61046982611ab4565b600081815260056020526040902080546001600160a01b0319166001600160a01b038416908117909155819061133782610d1d565b6001600160a01b03167f8c5be1e5ebec7d5bd14f71427d1e84f3dd0314c0f7b2291e5b200ac8c7c3b92560405160405180910390a45050565b6000806008600454901c6001611386919061272f565b905060005b818110156113cb576000818152600960205260409020546113ab81611ad9565b6113b5908561272f565b93505080806113c39061280f565b91505061138b565b505090565b60006113db826112cd565b61143f5760405162461bcd60e51b815260206004820152602f60248201527f4552433732315073693a206f70657261746f7220717565727920666f72206e6f60448201526e3732bc34b9ba32b73a103a37b5b2b760891b606482015260840161058b565b600061144a83610d1d565b9050806001600160a01b0316846001600160a01b031614806114855750836001600160a01b031661147a84610520565b6001600160a01b0316145b806114b557506001600160a01b0380821660009081526006602090815260408083209388168352929052205460ff165b949350505050565b6000806114c983611723565b91509150846001600160a01b0316826001600160a01b0316146115435760405162461bcd60e51b815260206004820152602c60248201527f4552433732315073693a207472616e73666572206f6620746f6b656e2074686160448201526b3a1034b9903737ba1037bbb760a11b606482015260840161058b565b6001600160a01b0384166115a95760405162461bcd60e51b815260206004820152602760248201527f4552433732315073693a207472616e7366657220746f20746865207a65726f206044820152666164647265737360c81b606482015260840161058b565b6115b4600084611302565b60006115c184600161272f565b600881901c600090815260208190526040902054909150600160ff1b60ff83161c161580156115fd575060016004546115fa919061272f565b81105b1561163357600081815260036020526040812080546001600160a01b0319166001600160a01b0389161790556116339082611af3565b600084815260036020526040902080546001600160a01b0319166001600160a01b03871617905581841461166c5761166c600085611af3565b83856001600160a01b0316876001600160a01b03167fddf252ad1be2c89b69c2b068fc378daa952ba7f163c4a11628f55a4df523b3ef60405160405180910390a4505050505050565b60006116c082610d1d565b90506116cd600983611af3565b60405182906000906001600160a01b038416907fddf252ad1be2c89b69c2b068fc378daa952ba7f163c4a11628f55a4df523b3ef908390a45050565b61048a828260405180602001604052806000815250611b1f565b60008061172f836112cd565b6117905760405162461bcd60e51b815260206004820152602c60248201527f4552433732315073693a206f776e657220717565727920666f72206e6f6e657860448201526b34b9ba32b73a103a37b5b2b760a11b606482015260840161058b565b61179983611b3a565b6000818152600360205260409020546001600160a01b031694909350915050565b600780546001600160a01b038381166001600160a01b0319831681179093556040519116919082907f8be0079c531659141344cd1fd0a4f28419497f9722a3daafe3b4186f6b6457e090600090a35050565b6118178484846114bd565b611825848484600185611b46565b610f525760405162461bcd60e51b815260040161058b90612686565b6060816118655750506040805180820190915260018152600360fc1b602082015290565b8160005b811561188f57806118798161280f565b91506118889050600a83612747565b9150611869565b60008167ffffffffffffffff8111156118b857634e487b7160e01b600052604160045260246000fd5b6040519080825280601f01601f1916602001820160405280156118e2576020820181803683370190505b5090505b84156114b5576118f760018361277a565b9150611904600a8661282a565b61190f90603061272f565b60f81b81838151811061193257634e487b7160e01b600052603260045260246000fd5b60200101906001600160f81b031916908160001a905350611954600a86612747565b94506118e6565b80516060906000600361196f83600261272f565b6119799190612747565b61198490600461275b565b9050600061199382602061272f565b67ffffffffffffffff8111156119b957634e487b7160e01b600052604160045260246000fd5b6040519080825280601f01601f1916602001820160405280156119e3576020820181803683370190505b5090506000604051806060016040528060408152602001612897604091399050600181016020830160005b86811015611a6f576003818a01810151603f601282901c8116860151600c83901c8216870151600684901c831688015192909316870151600891821b60ff94851601821b92841692909201901b91160160e01b835260049092019101611a0e565b506003860660018114611a895760028114611a9a57611aa6565b613d3d60f01b600119830152611aa6565b603d60f81b6000198301525b505050918152949350505050565b60008160011115801561046957506001600454611ad1919061272f565b821092915050565b60005b811561126e57600019820190911690600101611adc565b600881901c600090815260209290925260409091208054600160ff1b60ff9093169290921c9091179055565b600454611b2c8484611c89565b611825600085838686611b46565b60006104698183611e07565b60006001600160a01b0385163b15611c7c57506001835b611b67848661272f565b811015611c7657604051630a85bd0160e11b81526001600160a01b0387169063150b7a0290611ba09033908b9086908990600401612636565b602060405180830381600087803b158015611bba57600080fd5b505af1925050508015611bea575060408051601f3d908101601f19168201909252611be791810190612285565b60015b611c44573d808015611c18576040519150601f19603f3d011682016040523d82523d6000602084013e611c1d565b606091505b508051611c3c5760405162461bcd60e51b815260040161058b90612686565b805181602001fd5b828015611c6157506001600160e01b03198116630a85bd0160e11b145b92505080611c6e8161280f565b915050611b5d565b50611c80565b5060015b95945050505050565b6000600454611c96600190565b611ca0919061272f565b905060008211611d005760405162461bcd60e51b815260206004820152602560248201527f4552433732315073693a207175616e74697479206d7573742062652067726561604482015264074657220360dc1b606482015260840161058b565b6001600160a01b038316611d625760405162461bcd60e51b815260206004820152602360248201527f4552433732315073693a206d696e7420746f20746865207a65726f206164647260448201526265737360e81b606482015260840161058b565b8160046000828254611d74919061272f565b9091555050600081815260036020526040812080546001600160a01b0319166001600160a01b038616179055611daa9082611af3565b805b611db6838361272f565b811015610f525760405181906001600160a01b038616906000907fddf252ad1be2c89b69c2b068fc378daa952ba7f163c4a11628f55a4df523b3ef908290a480611dff8161280f565b915050611dac565b600881901c60008181526020849052604081205490919060ff808516919082181c8015611e4957611e3781611eff565b60ff168203600884901b179350611ef6565b60008311611eb65760405162461bcd60e51b815260206004820152603460248201527f4269744d6170733a205468652073657420626974206265666f7265207468652060448201527334b73232bc103237b2b9b713ba1032bc34b9ba1760611b606482015260840161058b565b506000199091016000818152602086905260409020549091908015611ef157611ede81611eff565b60ff0360ff16600884901b179350611ef6565b611e49565b50505092915050565b600060405180610120016040528061010081526020016128d7610100913960f87e818283848586878898a8b8c8d8e8f929395969799a9b9d9e9faaeb6bedeeff611f4885611f77565b02901c81518110611f6957634e487b7160e01b600052603260045260246000fd5b016020015160f81c92915050565b6000808211611f8557600080fd5b5060008190031690565b828054611f9b906127d4565b90600052602060002090601f016020900481019282611fbd5760008555612003565b82601f10611fd657805160ff1916838001178555612003565b82800160010185558215612003579182015b82811115612003578251825591602001919060010190611fe8565b5061200f929150612013565b5090565b5b8082111561200f5760008155600101612014565b600067ffffffffffffffff808411156120435761204361286a565b604051601f8501601f19908116603f0116810190828211818310171561206b5761206b61286a565b8160405280935085815286868601111561208457600080fd5b858560208301376000602087830101525050509392505050565b80356001600160a01b038116811461126e57600080fd5b80356002811061126e57600080fd5b6000602082840312156120d5578081fd5b6120de8261209e565b9392505050565b600080604083850312156120f7578081fd5b6121008361209e565b915061210e6020840161209e565b90509250929050565b60008060006060848603121561212b578081fd5b6121348461209e565b92506121426020850161209e565b9150604084013590509250925092565b60008060008060808587031215612167578081fd5b6121708561209e565b935061217e6020860161209e565b925060408501359150606085013567ffffffffffffffff8111156121a0578182fd5b8501601f810187136121b0578182fd5b6121bf87823560208401612028565b91505092959194509250565b600080604083850312156121dd578182fd5b6121e68361209e565b9150602083013580151581146121fa578182fd5b809150509250929050565b60008060408385031215612217578182fd5b6122208361209e565b946020939093013593505050565b600080600060608486031215612242578283fd5b61224b8461209e565b925060208401359150612260604085016120b5565b90509250925092565b60006020828403121561227a578081fd5b81356120de81612880565b600060208284031215612296578081fd5b81516120de81612880565b6000602082840312156122b2578081fd5b6120de826120b5565b6000602082840312156122cc578081fd5b813567ffffffffffffffff8111156122e2578182fd5b8201601f810184136122f2578182fd5b6114b584823560208401612028565b600060208284031215612312578081fd5b5035919050565b60008151808452612331816020860160208601612791565b601f01601f19169290920160200192915050565b8054600090600181811c908083168061235f57607f831692505b602080841082141561237f57634e487b7160e01b86526022600452602486fd5b81801561239357600181146123a4576123d1565b60ff198616895284890196506123d1565b60008881526020902060005b868110156123c95781548b8201529085019083016123b0565b505084890196505b50505050505092915050565b600084516123ef818460208901612791565b80830190507f2c20226465736372697074696f6e223a2022506c61794573746174657320466f8152733ab73234b7339026b2b6b132b9102a37b5b2b71160611b6020820152702c202261747472696275746573223a205b60781b60348201527f7b202274726169745f74797065223a20224944222c202276616c7565223a202260458201528451612487816065840160208901612791565b64011103e96160dd1b606592909101918201527f7b202274726169745f74797065223a202254696572222c202276616c7565223a606a82015261101160f11b608a8201526124d8608c820185612345565b61227d60f01b8152615d7d60f01b60028201526004019695505050505050565b7f646174613a6170706c69636174696f6e2f6a736f6e3b6261736536342c00000081526000825161253081601d850160208701612791565b91909101601d0192915050565b6603d9134b2111d160cd1b81528751600090612560816007850160208d01612791565b6a1610113730b6b2911d101160a91b600791840191820152885161258b816012840160208d01612791565b61202360f01b6012929091019182015287516125ae816014840160208c01612791565b6c1116101134b6b0b3b2911d101160991b601492909101918201526125df6125d96021830189612345565b87612345565b90507f2e6a7067222c2022616e696d6174696f6e5f75726c223a202200000000000000815261261a6126146019830187612345565b85612345565b641736b81a1160d91b81526005019a9950505050505050505050565b6001600160a01b038581168252841660208201526040810183905260806060820181905260009061266990830184612319565b9695505050505050565b6020815260006120de6020830184612319565b60208082526035908201527f4552433732315073693a207472616e7366657220746f206e6f6e20455243373260408201527418a932b1b2b4bb32b91034b6b83632b6b2b73a32b960591b606082015260800190565b60208082526034908201527f4552433732315073693a207472616e736665722063616c6c6572206973206e6f6040820152731d081bdddb995c881b9bdc88185c1c1c9bdd995960621b606082015260800190565b600082198211156127425761274261283e565b500190565b60008261275657612756612854565b500490565b60008160001904831182151516156127755761277561283e565b500290565b60008282101561278c5761278c61283e565b500390565b60005b838110156127ac578181015183820152602001612794565b83811115610f525750506000910152565b6000816127cc576127cc61283e565b506000190190565b600181811c908216806127e857607f821691505b6020821081141561280957634e487b7160e01b600052602260045260246000fd5b50919050565b60006000198214156128235761282361283e565b5060010190565b60008261283957612839612854565b500690565b634e487b7160e01b600052601160045260246000fd5b634e487b7160e01b600052601260045260246000fd5b634e487b7160e01b600052604160045260246000fd5b6001600160e01b03198116811461120c57600080fdfe4142434445464748494a4b4c4d4e4f505152535455565758595a6162636465666768696a6b6c6d6e6f707172737475767778797a303132333435363738392b2f0001020903110a19042112290b311a3905412245134d2a550c5d32651b6d3a7506264262237d468514804e8d2b95569d0d495ea533a966b11c886eb93bc176c9071727374353637324837e9b47af86c7155181ad4fd18ed32c9096db57d59ee30e2e4a6a5f92a6be3498aae067ddb2eb1d5989b56fd7baf33ca0c2ee77e5caf7ff0810182028303840444c545c646c7425617c847f8c949c48a4a8b087b8c0c816365272829aaec650acd0d28fdad4e22d6991bd97dfdcea58b4d6f29fede4f6fe0f1f2f3f4b5b6b607b8b93a3a7b7bf357199c5abcfd9e168bcdee9b3f1ecf5fd1e3e5a7a8aa2b670c4ced8bbe8f0f4fc3d79a1c3cde7effb78cce6facbf9f8a26469706673582212204ce6f17da706cf0231a5fc740d6af038c2e4b9edbfbb29cd1c007513238b7d3164736f6c6343000804003368747470733a2f2f706c6179657374617465732e6d7970696e6174612e636c6f75642f697066732f516d6652646159784d6d76787242624563703379567a345455776e514a6d546d506e716331745168664b576f4b462f68747470733a2f2f706c6179657374617465732e6d7970696e6174612e636c6f75642f697066732f516d62316b724d35636d324765736d6e58344d67544764716969504b55395a356576694b4c7835747161743756562f",
  "linkReferences": {},
  "deployedLinkReferences": {}
}