{
  "_format": "hh-sol-artifact-1",
  "contractName": "PlayEstatesTokenization",
  "sourceName": "contracts/test/PlayEstatesTokenization.sol",
  "abi": [
    {
      "inputs": [
        {
          "internalType": "string",
          "name": "name_",
          "type": "string"
        },
        {
          "internalType": "string",
          "name": "symbol_",
          "type": "string"
        },
        {
          "internalType": "address",
          "name": "poolAddress_",
          "type": "address"
        },
        {
          "internalType": "uint256",
          "name": "supply_",
          "type": "uint256"
        }
      ],
      "stateMutability": "nonpayable",
      "type": "constructor"
    },
    {
      "inputs": [],
      "name": "URIQueryForNonexistentToken",
      "type": "error"
    },
    {
      "anonymous": false,
      "inputs": [
        {
          "indexed": true,
          "internalType": "address",
          "name": "owner",
          "type": "address"
        },
        {
          "indexed": true,
          "internalType": "address",
          "name": "approved",
          "type": "address"
        },
        {
          "indexed": true,
          "internalType": "uint256",
          "name": "tokenId",
          "type": "uint256"
        }
      ],
      "name": "Approval",
      "type": "event"
    },
    {
      "anonymous": false,
      "inputs": [
        {
          "indexed": true,
          "internalType": "address",
          "name": "owner",
          "type": "address"
        },
        {
          "indexed": true,
          "internalType": "address",
          "name": "operator",
          "type": "address"
        },
        {
          "indexed": false,
          "internalType": "bool",
          "name": "approved",
          "type": "bool"
        }
      ],
      "name": "ApprovalForAll",
      "type": "event"
    },
    {
      "anonymous": false,
      "inputs": [
        {
          "indexed": true,
          "internalType": "address",
          "name": "account",
          "type": "address"
        },
        {
          "indexed": false,
          "internalType": "uint256",
          "name": "tokenId",
          "type": "uint256"
        }
      ],
      "name": "Burn",
      "type": "event"
    },
    {
      "anonymous": false,
      "inputs": [
        {
          "indexed": true,
          "internalType": "address",
          "name": "owner",
          "type": "address"
        },
        {
          "indexed": false,
          "internalType": "bool",
          "name": "locked",
          "type": "bool"
        }
      ],
      "name": "Locked",
      "type": "event"
    },
    {
      "anonymous": false,
      "inputs": [
        {
          "indexed": true,
          "internalType": "address",
          "name": "previousOwner",
          "type": "address"
        },
        {
          "indexed": true,
          "internalType": "address",
          "name": "newOwner",
          "type": "address"
        }
      ],
      "name": "OwnershipTransferred",
      "type": "event"
    },
    {
      "anonymous": false,
      "inputs": [
        {
          "indexed": true,
          "internalType": "address",
          "name": "owner",
          "type": "address"
        },
        {
          "indexed": false,
          "internalType": "bool",
          "name": "tradingAllowed",
          "type": "bool"
        }
      ],
      "name": "TradingAllowed",
      "type": "event"
    },
    {
      "anonymous": false,
      "inputs": [
        {
          "indexed": true,
          "internalType": "address",
          "name": "from",
          "type": "address"
        },
        {
          "indexed": true,
          "internalType": "address",
          "name": "to",
          "type": "address"
        },
        {
          "indexed": true,
          "internalType": "uint256",
          "name": "tokenId",
          "type": "uint256"
        }
      ],
      "name": "Transfer",
      "type": "event"
    },
    {
      "anonymous": false,
      "inputs": [
        {
          "indexed": false,
          "internalType": "string",
          "name": "tierName",
          "type": "string"
        },
        {
          "indexed": false,
          "internalType": "uint256",
          "name": "tierTokenValue",
          "type": "uint256"
        },
        {
          "indexed": false,
          "internalType": "uint256",
          "name": "tierPercent",
          "type": "uint256"
        }
      ],
      "name": "UpdateTierInfo",
      "type": "event"
    },
    {
      "inputs": [
        {
          "internalType": "address",
          "name": "to",
          "type": "address"
        },
        {
          "internalType": "uint256",
          "name": "tokenId",
          "type": "uint256"
        }
      ],
      "name": "approve",
      "outputs": [],
      "stateMutability": "nonpayable",
      "type": "function"
    },
    {
      "inputs": [
        {
          "internalType": "address",
          "name": "owner",
          "type": "address"
        }
      ],
      "name": "balanceOf",
      "outputs": [
        {
          "internalType": "uint256",
          "name": "",
          "type": "uint256"
        }
      ],
      "stateMutability": "view",
      "type": "function"
    },
    {
      "inputs": [
        {
          "internalType": "uint256",
          "name": "tokenId",
          "type": "uint256"
        }
      ],
      "name": "burn",
      "outputs": [],
      "stateMutability": "nonpayable",
      "type": "function"
    },
    {
      "inputs": [
        {
          "internalType": "uint256",
          "name": "tokenId",
          "type": "uint256"
        }
      ],
      "name": "getApproved",
      "outputs": [
        {
          "internalType": "address",
          "name": "",
          "type": "address"
        }
      ],
      "stateMutability": "view",
      "type": "function"
    },
    {
      "inputs": [
        {
          "internalType": "address",
          "name": "owner",
          "type": "address"
        },
        {
          "internalType": "address",
          "name": "operator",
          "type": "address"
        }
      ],
      "name": "isApprovedForAll",
      "outputs": [
        {
          "internalType": "bool",
          "name": "",
          "type": "bool"
        }
      ],
      "stateMutability": "view",
      "type": "function"
    },
    {
      "inputs": [],
      "name": "locked",
      "outputs": [
        {
          "internalType": "bool",
          "name": "",
          "type": "bool"
        }
      ],
      "stateMutability": "view",
      "type": "function"
    },
    {
      "inputs": [],
      "name": "maxOwnLimit",
      "outputs": [
        {
          "internalType": "uint256",
          "name": "",
          "type": "uint256"
        }
      ],
      "stateMutability": "view",
      "type": "function"
    },
    {
      "inputs": [],
      "name": "name",
      "outputs": [
        {
          "internalType": "string",
          "name": "",
          "type": "string"
        }
      ],
      "stateMutability": "view",
      "type": "function"
    },
    {
      "inputs": [],
      "name": "nftPoolAddress",
      "outputs": [
        {
          "internalType": "address",
          "name": "",
          "type": "address"
        }
      ],
      "stateMutability": "view",
      "type": "function"
    },
    {
      "inputs": [],
      "name": "owner",
      "outputs": [
        {
          "internalType": "address",
          "name": "",
          "type": "address"
        }
      ],
      "stateMutability": "view",
      "type": "function"
    },
    {
      "inputs": [
        {
          "internalType": "uint256",
          "name": "tokenId",
          "type": "uint256"
        }
      ],
      "name": "ownerOf",
      "outputs": [
        {
          "internalType": "address",
          "name": "",
          "type": "address"
        }
      ],
      "stateMutability": "view",
      "type": "function"
    },
    {
      "inputs": [],
      "name": "renounceOwnership",
      "outputs": [],
      "stateMutability": "nonpayable",
      "type": "function"
    },
    {
      "inputs": [
        {
          "internalType": "address",
          "name": "from",
          "type": "address"
        },
        {
          "internalType": "address",
          "name": "to",
          "type": "address"
        },
        {
          "internalType": "uint256",
          "name": "tokenId",
          "type": "uint256"
        }
      ],
      "name": "safeTransferFrom",
      "outputs": [],
      "stateMutability": "nonpayable",
      "type": "function"
    },
    {
      "inputs": [
        {
          "internalType": "address",
          "name": "from",
          "type": "address"
        },
        {
          "internalType": "address",
          "name": "to",
          "type": "address"
        },
        {
          "internalType": "uint256",
          "name": "tokenId",
          "type": "uint256"
        },
        {
          "internalType": "bytes",
          "name": "_data",
          "type": "bytes"
        }
      ],
      "name": "safeTransferFrom",
      "outputs": [],
      "stateMutability": "nonpayable",
      "type": "function"
    },
    {
      "inputs": [
        {
          "internalType": "address",
          "name": "operator",
          "type": "address"
        },
        {
          "internalType": "bool",
          "name": "approved",
          "type": "bool"
        }
      ],
      "name": "setApprovalForAll",
      "outputs": [],
      "stateMutability": "nonpayable",
      "type": "function"
    },
    {
      "inputs": [
        {
          "internalType": "uint256",
          "name": "_maxLimit",
          "type": "uint256"
        }
      ],
      "name": "setMaxOwnLimit",
      "outputs": [],
      "stateMutability": "nonpayable",
      "type": "function"
    },
    {
      "inputs": [
        {
          "internalType": "bytes4",
          "name": "interfaceId",
          "type": "bytes4"
        }
      ],
      "name": "supportsInterface",
      "outputs": [
        {
          "internalType": "bool",
          "name": "",
          "type": "bool"
        }
      ],
      "stateMutability": "view",
      "type": "function"
    },
    {
      "inputs": [],
      "name": "symbol",
      "outputs": [
        {
          "internalType": "string",
          "name": "",
          "type": "string"
        }
      ],
      "stateMutability": "view",
      "type": "function"
    },
    {
      "inputs": [],
      "name": "tierInfo",
      "outputs": [
        {
          "internalType": "string",
          "name": "name",
          "type": "string"
        },
        {
          "internalType": "uint256",
          "name": "percent",
          "type": "uint256"
        },
        {
          "internalType": "uint256",
          "name": "value",
          "type": "uint256"
        },
        {
          "internalType": "string",
          "name": "image",
          "type": "string"
        },
        {
          "internalType": "string",
          "name": "ext_url",
          "type": "string"
        },
        {
          "internalType": "string",
          "name": "ani_url",
          "type": "string"
        }
      ],
      "stateMutability": "view",
      "type": "function"
    },
    {
      "inputs": [],
      "name": "toggleLock",
      "outputs": [],
      "stateMutability": "nonpayable",
      "type": "function"
    },
    {
      "inputs": [],
      "name": "toggleTradingAllowed",
      "outputs": [],
      "stateMutability": "nonpayable",
      "type": "function"
    },
    {
      "inputs": [
        {
          "internalType": "uint256",
          "name": "index",
          "type": "uint256"
        }
      ],
      "name": "tokenByIndex",
      "outputs": [
        {
          "internalType": "uint256",
          "name": "",
          "type": "uint256"
        }
      ],
      "stateMutability": "view",
      "type": "function"
    },
    {
      "inputs": [
        {
          "internalType": "address",
          "name": "owner",
          "type": "address"
        },
        {
          "internalType": "uint256",
          "name": "index",
          "type": "uint256"
        }
      ],
      "name": "tokenOfOwnerByIndex",
      "outputs": [
        {
          "internalType": "uint256",
          "name": "tokenId",
          "type": "uint256"
        }
      ],
      "stateMutability": "view",
      "type": "function"
    },
    {
      "inputs": [
        {
          "internalType": "uint256",
          "name": "tokenId",
          "type": "uint256"
        }
      ],
      "name": "tokenURI",
      "outputs": [
        {
          "internalType": "string",
          "name": "",
          "type": "string"
        }
      ],
      "stateMutability": "view",
      "type": "function"
    },
    {
      "inputs": [],
      "name": "totalSupply",
      "outputs": [
        {
          "internalType": "uint256",
          "name": "",
          "type": "uint256"
        }
      ],
      "stateMutability": "view",
      "type": "function"
    },
    {
      "inputs": [],
      "name": "tradingAllowed",
      "outputs": [
        {
          "internalType": "bool",
          "name": "",
          "type": "bool"
        }
      ],
      "stateMutability": "view",
      "type": "function"
    },
    {
      "inputs": [
        {
          "internalType": "address",
          "name": "from",
          "type": "address"
        },
        {
          "internalType": "address",
          "name": "to",
          "type": "address"
        },
        {
          "internalType": "uint256",
          "name": "tokenId",
          "type": "uint256"
        }
      ],
      "name": "transferFrom",
      "outputs": [],
      "stateMutability": "nonpayable",
      "type": "function"
    },
    {
      "inputs": [
        {
          "internalType": "address",
          "name": "newOwner",
          "type": "address"
        }
      ],
      "name": "transferOwnership",
      "outputs": [],
      "stateMutability": "nonpayable",
      "type": "function"
    },
    {
      "inputs": [
        {
          "internalType": "string",
          "name": "tierName_",
          "type": "string"
        },
        {
          "internalType": "uint256",
          "name": "tierTokenValue_",
          "type": "uint256"
        },
        {
          "internalType": "uint256",
          "name": "tierPercent_",
          "type": "uint256"
        },
        {
          "internalType": "string",
          "name": "tierImageUri_",
          "type": "string"
        },
        {
          "internalType": "string",
          "name": "tierAnimationUri_",
          "type": "string"
        },
        {
          "internalType": "string",
          "name": "tierExternalUri_",
          "type": "string"
        }
      ],
      "name": "updateTierInfo",
      "outputs": [],
      "stateMutability": "nonpayable",
      "type": "function"
    }
  ],
  "bytecode": "0x60806040526002600a553480156200001657600080fd5b506040516200359a3803806200359a833981016040819052620000399162000d2c565b8351849084906200005290600190602085019062000bc6565b5080516200006890600290602084019062000bc6565b505050620000856200007f6200015460201b60201c565b62000158565b6001600160a01b038216620000d35760405162461bcd60e51b815260206004820152600f60248201526e696e76616c6964206164647265737360881b60448201526064015b60405180910390fd5b80620001135760405162461bcd60e51b815260206004820152600e60248201526d696e76616c696420737570706c7960901b6044820152606401620000ca565b6009805462010000600160b01b031916620100006001600160a01b03858116820292909217928390556200014a92041682620001aa565b5050505062000ee2565b3390565b600780546001600160a01b038381166001600160a01b0319831681179093556040519116919082907f8be0079c531659141344cd1fd0a4f28419497f9722a3daafe3b4186f6b6457e090600090a35050565b620001cc828260405180602001604052806000815250620001d060201b60201c565b5050565b600454620001df848462000258565b620001ef600085838686620003fc565b620002525760405162461bcd60e51b815260206004820152603560248201526000805160206200347a83398151915260448201527f31526563656976657220696d706c656d656e74657200000000000000000000006064820152608401620000ca565b50505050565b6004546000906200026b90600162000e11565b905060008211620002cd5760405162461bcd60e51b815260206004820152602560248201527f4552433732315073693a207175616e74697479206d7573742062652067726561604482015264074657220360dc1b6064820152608401620000ca565b6001600160a01b038316620003315760405162461bcd60e51b815260206004820152602360248201527f4552433732315073693a206d696e7420746f20746865207a65726f206164647260448201526265737360e81b6064820152608401620000ca565b620003406000848385620005ac565b816004600082825462000354919062000e11565b90915550506000818152600360209081526040822080546001600160a01b0319166001600160a01b038716179055620003999190839062000782811b6200115a17901c565b805b620003a7838362000e11565b811015620002525760405181906001600160a01b038616906000907fddf252ad1be2c89b69c2b068fc378daa952ba7f163c4a11628f55a4df523b3ef908290a480620003f38162000e98565b9150506200039b565b60006200041d856001600160a01b0316620007ae60201b620011861760201c565b156200059f57506001835b62000434848662000e11565b8110156200059857604051630a85bd0160e11b81526001600160a01b0387169063150b7a0290620004709033908b908690899060040162000dbb565b602060405180830381600087803b1580156200048b57600080fd5b505af1925050508015620004be575060408051601f3d908101601f19168201909252620004bb9181019062000cfb565b60015b62000562573d808015620004ef576040519150601f19603f3d011682016040523d82523d6000602084013e620004f4565b606091505b5080516200055a5760405162461bcd60e51b815260206004820152603560248201526000805160206200347a83398151915260448201527f31526563656976657220696d706c656d656e74657200000000000000000000006064820152608401620000ca565b805181602001fd5b8280156200058057506001600160e01b03198116630a85bd0160e11b145b925050806200058f8162000e98565b91505062000428565b50620005a3565b5060015b95945050505050565b60095460ff1615620005ea5760405162461bcd60e51b81526020600482015260066024820152651b1bd8dad95960d21b6044820152606401620000ca565b6001600160a01b038416620005ff5762000252565b6001600160a01b038316620006145762000252565b6009546001600160a01b0385811662010000909204161415620006b0576009546001600160a01b03848116620100009092041614620006aa57600a54816200065c85620007bd565b62000668919062000e11565b1115620006aa5760405162461bcd60e51b815260206004820152600f60248201526e195e18d95959195908185b5bdd5b9d608a1b6044820152606401620000ca565b62000252565b6009546001600160a01b038481166201000090920416146200025257600954610100900460ff16620007255760405162461bcd60e51b815260206004820152601360248201527f74726164696e6720636f6d696e6720736f6f6e000000000000000000000000006044820152606401620000ca565b600a54816200073485620007bd565b62000740919062000e11565b1115620002525760405162461bcd60e51b815260206004820152600f60248201526e195e18d95959195908185b5bdd5b9d608a1b6044820152606401620000ca565b600881901c600090815260209290925260409091208054600160ff1b60ff9093169290921c9091179055565b6001600160a01b03163b151590565b60006001600160a01b0382166200082d5760405162461bcd60e51b815260206004820152602d60248201527f4552433732315073693a2062616c616e636520717565727920666f722074686560448201526c207a65726f206164647265737360981b6064820152608401620000ca565b600060015b600160045462000843919062000e11565b811015620008a2576200085681620008a9565b156200088f576200086781620008f0565b6001600160a01b0316846001600160a01b031614156200088f576200088c8262000e98565b91505b6200089a8162000e98565b905062000832565b5092915050565b6000620008c68260086200090660201b620011951790919060201c565b15620008d457506000919050565b620008ea826200092d60201b620011bc1760201c565b92915050565b600080620008fe8362000955565b509392505050565b600881901c600090815260208390526040902054600160ff1b60ff83161c16151592915050565b600081600111158015620008ea575060016004546200094d919062000e11565b821092915050565b6000806200096383620008a9565b620009c65760405162461bcd60e51b815260206004820152602c60248201527f4552433732315073693a206f776e657220717565727920666f72206e6f6e657860448201526b34b9ba32b73a103a37b5b2b760a11b6064820152608401620000ca565b620009d183620009f2565b6000818152600360205260409020546001600160a01b031694909350915050565b6000620008ea82600062000a0f60201b620011e11790919060201c565b600881901c60008181526020849052604081205490919060ff808516919082181c801562000a605762000a4d8162000b3160201b620012d91760201c565b60ff168203600884901b17935062000b28565b6000831162000ad85760405162461bcd60e51b815260206004820152603460248201527f4269744d6170733a205468652073657420626974206265666f7265207468652060448201527f696e64657820646f65736e27742065786973742e0000000000000000000000006064820152608401620000ca565b50600019909101600081815260208690526040902054909190801562000b225762000b0e8162000b3160201b620012d91760201c565b60ff0360ff16600884901b17935062000b28565b62000a60565b50505092915050565b600060405180610120016040528061010081526020016200349a610100913960f87e818283848586878898a8b8c8d8e8f929395969799a9b9d9e9faaeb6bedeeff62000b7d8562000bad565b02901c8151811062000b9f57634e487b7160e01b600052603260045260246000fd5b016020015160f81c92915050565b600080821162000bbc57600080fd5b5060008190031690565b82805462000bd49062000e5b565b90600052602060002090601f01602090048101928262000bf8576000855562000c43565b82601f1062000c1357805160ff191683800117855562000c43565b8280016001018555821562000c43579182015b8281111562000c4357825182559160200191906001019062000c26565b5062000c5192915062000c55565b5090565b5b8082111562000c51576000815560010162000c56565b600082601f83011262000c7d578081fd5b81516001600160401b038082111562000c9a5762000c9a62000ecc565b604051601f8301601f19908116603f0116810190828211818310171562000cc55762000cc562000ecc565b8160405283815286602085880101111562000cde578485fd5b62000cf184602083016020890162000e2c565b9695505050505050565b60006020828403121562000d0d578081fd5b81516001600160e01b03198116811462000d25578182fd5b9392505050565b6000806000806080858703121562000d42578283fd5b84516001600160401b038082111562000d59578485fd5b62000d678883890162000c6c565b9550602087015191508082111562000d7d578485fd5b5062000d8c8782880162000c6c565b604087015190945090506001600160a01b038116811462000dab578283fd5b6060959095015193969295505050565b600060018060a01b03808716835280861660208401525083604083015260806060830152825180608084015262000dfa8160a085016020870162000e2c565b601f01601f19169190910160a00195945050505050565b6000821982111562000e275762000e2762000eb6565b500190565b60005b8381101562000e4957818101518382015260200162000e2f565b83811115620002525750506000910152565b600181811c9082168062000e7057607f821691505b6020821081141562000e9257634e487b7160e01b600052602260045260246000fd5b50919050565b600060001982141562000eaf5762000eaf62000eb6565b5060010190565b634e487b7160e01b600052601160045260246000fd5b634e487b7160e01b600052604160045260246000fd5b6125888062000ef26000396000f3fe608060405234801561001057600080fd5b50600436106101cf5760003560e01c806370a0823111610104578063b88d4fde116100a2578063e985e9c511610071578063e985e9c5146103b6578063e9a6dba1146103f2578063f2fde38b1461040b578063ff9413d81461041e57600080fd5b8063b88d4fde14610369578063c87b56dd1461037c578063cf3090121461038f578063cfa4a5bf1461039c57600080fd5b8063957326cf116100de578063957326cf1461032857806395d89b411461033b578063a22cb46514610343578063aec2d3cb1461035657600080fd5b806370a08231146102fc578063715018a61461030f5780638da5cb5b1461031757600080fd5b80632f745c591161017157806342966c681161014b57806342966c68146102b15780634f6ccce7146102c457806353371be0146102d75780636352211e146102e957600080fd5b80632f745c591461028357806336b22b4f1461029657806342842e0e1461029e57600080fd5b8063095ea7b3116101ad578063095ea7b31461023c57806318160ddd146102515780632232c9571461026757806323b872dd1461027057600080fd5b806301ffc9a7146101d457806306fdde03146101fc578063081812fc14610211575b600080fd5b6101e76101e2366004612003565b610426565b60405190151581526020015b60405180910390f35b610204610493565b6040516101f391906121ff565b61022461021f366004612110565b610525565b6040516001600160a01b0390911681526020016101f3565b61024f61024a366004611fda565b6105b5565b005b6102596106cd565b6040519081526020016101f3565b610259600a5481565b61024f61027e366004611e90565b6106e9565b610259610291366004611fda565b61071a565b61024f6107ef565b61024f6102ac366004611e90565b610859565b61024f6102bf366004612110565b610874565b6102596102d2366004612110565b6108bd565b6009546101e790610100900460ff1681565b6102246102f7366004612110565b610985565b61025961030a366004611e44565b610999565b61024f610a75565b6007546001600160a01b0316610224565b61024f61033636600461203b565b610a89565b610204610c5b565b61024f610351366004611fa0565b610c6a565b61024f610364366004612110565b610d2f565b61024f610377366004611ecb565b610d3c565b61020461038a366004612110565b610d74565b6009546101e79060ff1681565b6103a4610e47565b6040516101f396959493929190612212565b6101e76103c4366004611e5e565b6001600160a01b03918216600090815260066020908152604080832093909416825291909152205460ff1690565b600954610224906201000090046001600160a01b031681565b61024f610419366004611e44565b61108f565b61024f611108565b60006001600160e01b031982166380ac58cd60e01b148061045757506001600160e01b03198216635b5e139f60e01b145b8061047257506001600160e01b0319821663780e9d6360e01b145b8061048d57506301ffc9a760e01b6001600160e01b03198316145b92915050565b6060600180546104a290612390565b80601f01602080910402602001604051908101604052809291908181526020018280546104ce90612390565b801561051b5780601f106104f05761010080835404028352916020019161051b565b820191906000526020600020905b8154815290600101906020018083116104fe57829003601f168201915b5050505050905090565b600061053082611351565b6105995760405162461bcd60e51b815260206004820152602f60248201527f4552433732315073693a20617070726f76656420717565727920666f72206e6f60448201526e3732bc34b9ba32b73a103a37b5b2b760891b60648201526084015b60405180910390fd5b506000908152600560205260409020546001600160a01b031690565b60006105c082610985565b9050806001600160a01b0316836001600160a01b031614156106305760405162461bcd60e51b8152602060048201526024808201527f4552433732315073693a20617070726f76616c20746f2063757272656e74206f6044820152633bb732b960e11b6064820152608401610590565b336001600160a01b038216148061064c575061064c81336103c4565b6106be5760405162461bcd60e51b815260206004820152603b60248201527f4552433732315073693a20617070726f76652063616c6c6572206973206e6f7460448201527f206f776e6572206e6f7220617070726f76656420666f7220616c6c00000000006064820152608401610590565b6106c88383611374565b505050565b60006106d76113e2565b6004546106e4919061234d565b905090565b6106f33382611442565b61070f5760405162461bcd60e51b8152600401610590906122cd565b6106c883838361152f565b60008060015b600160045461072f9190612321565b81101561079a5761073f81611351565b8015610764575061074f81610985565b6001600160a01b0316856001600160a01b0316145b15610788578382141561077a57915061048d9050565b81610784816123cb565b9250505b80610792816123cb565b915050610720565b5060405162461bcd60e51b8152602060048201526024808201527f4552433732315073693a206f776e657220696e646578206f7574206f6620626f604482015263756e647360e01b6064820152608401610590565b6107f761171f565b6009805460ff610100808304821615810261ff0019909316929092179283905560405133937faef734d6041f99698bd8ce0fe5f4f68e33fe33fbb02b3ed57d5d4798fb00049e9361084f939104161515815260200190565b60405180910390a2565b6106c883838360405180602001604052806000815250610d3c565b61087c61171f565b61088581611779565b60405181815233907fcc16f5dbb4873280815c1ee09dbd06736cffcc184412cf7a71a0fdb75d397ca59060200160405180910390a250565b60006108c76106cd565b82106109235760405162461bcd60e51b815260206004820152602560248201527f4552433732315073693a20676c6f62616c20696e646578206f7574206f6620626044820152646f756e647360d81b6064820152608401610590565b600060015b60016004546109379190612321565b81101561097b5761094781611351565b15610969578382141561095b579392505050565b81610965816123cb565b9250505b80610973816123cb565b915050610928565b5060009392505050565b600080610991836117db565b509392505050565b60006001600160a01b038216610a075760405162461bcd60e51b815260206004820152602d60248201527f4552433732315073693a2062616c616e636520717565727920666f722074686560448201526c207a65726f206164647265737360981b6064820152608401610590565b600060015b6001600454610a1b9190612321565b811015610a6e57610a2b81611351565b15610a5e57610a3981610985565b6001600160a01b0316846001600160a01b03161415610a5e57610a5b826123cb565b91505b610a67816123cb565b9050610a0c565b5092915050565b610a7d61171f565b610a876000611872565b565b610a9161171f565b6040518060c001604052808b8b8080601f01602080910402602001604051908101604052809392919081815260200183838082843760009201919091525050509082525060208082018a905260408083018c90528051601f8a01839004830281018301909152888152606090920191908990899081908401838280828437600092019190915250505090825250604080516020601f860181900481028201810190925284815291810191908590859081908401838280828437600092019190915250505090825250604080516020601f880181900481028201810190925286815291810191908790879081908401838280828437600092019190915250505091525080518051600b91610ba991839160200190611d4d565b5060208281015160018301556040830151600283015560608301518051610bd69260038501920190611d4d565b5060808201518051610bf2916004840191602090910190611d4d565b5060a08201518051610c0e916005840191602090910190611d4d565b509050507f2bce3ca02af4ccde7aa909427575ded41b2a445fbb9334dd609f7aef0bb42d2a8a8a8a8a604051610c4794939291906121c0565b60405180910390a150505050505050505050565b6060600280546104a290612390565b6001600160a01b038216331415610cc35760405162461bcd60e51b815260206004820152601c60248201527f4552433732315073693a20617070726f766520746f2063616c6c6572000000006044820152606401610590565b3360008181526006602090815260408083206001600160a01b03871680855290835292819020805460ff191686151590811790915590519081529192917f17307eab39ab6107e8899845ad3d59bd9653f200f220920489ca2b5937696c31910160405180910390a35050565b610d3761171f565b600a55565b610d463383611442565b610d625760405162461bcd60e51b8152600401610590906122cd565b610d6e848484846118c4565b50505050565b6060610d7f82611351565b610dde5760405162461bcd60e51b815260206004820152602a60248201527f4552433732315073693a2055524920717565727920666f72206e6f6e657869736044820152693a32b73a103a37b5b2b760b11b6064820152608401610590565b6000610df560408051602081019091526000815290565b90506000815111610e155760405180602001604052806000815250610e40565b80610e1f846118f9565b604051602001610e30929190612154565b6040516020818303038152906040525b9392505050565b600b80548190610e5690612390565b80601f0160208091040260200160405190810160405280929190818152602001828054610e8290612390565b8015610ecf5780601f10610ea457610100808354040283529160200191610ecf565b820191906000526020600020905b815481529060010190602001808311610eb257829003601f168201915b505050505090806001015490806002015490806003018054610ef090612390565b80601f0160208091040260200160405190810160405280929190818152602001828054610f1c90612390565b8015610f695780601f10610f3e57610100808354040283529160200191610f69565b820191906000526020600020905b815481529060010190602001808311610f4c57829003601f168201915b505050505090806004018054610f7e90612390565b80601f0160208091040260200160405190810160405280929190818152602001828054610faa90612390565b8015610ff75780601f10610fcc57610100808354040283529160200191610ff7565b820191906000526020600020905b815481529060010190602001808311610fda57829003601f168201915b50505050509080600501805461100c90612390565b80601f016020809104026020016040519081016040528092919081815260200182805461103890612390565b80156110855780601f1061105a57610100808354040283529160200191611085565b820191906000526020600020905b81548152906001019060200180831161106857829003601f168201915b5050505050905086565b61109761171f565b6001600160a01b0381166110fc5760405162461bcd60e51b815260206004820152602660248201527f4f776e61626c653a206e6577206f776e657220697320746865207a65726f206160448201526564647265737360d01b6064820152608401610590565b61110581611872565b50565b61111061171f565b6009805460ff8082161560ff19909216821790925560405191161515815233907fcaf46096bdd957e9271a7e46a00ff61870b80644805049e7ea814162a2b606bc9060200161084f565b600881901c600090815260209290925260409091208054600160ff1b60ff9093169290921c9091179055565b6001600160a01b03163b151590565b600881901c600090815260208390526040902054600160ff1b60ff83161c16151592915050565b60008160011115801561048d575060016004546111d99190612321565b821092915050565b600881901c60008181526020849052604081205490919060ff808516919082181c801561122357611211816112d9565b60ff168203600884901b1793506112d0565b600083116112905760405162461bcd60e51b815260206004820152603460248201527f4269744d6170733a205468652073657420626974206265666f7265207468652060448201527334b73232bc103237b2b9b713ba1032bc34b9ba1760611b6064820152608401610590565b5060001990910160008181526020869052604090205490919080156112cb576112b8816112d9565b60ff0360ff16600884901b1793506112d0565b611223565b50505092915050565b60006040518061012001604052806101008152602001612453610100913960f87e818283848586878898a8b8c8d8e8f929395969799a9b9d9e9faaeb6bedeeff61132285611a13565b02901c8151811061134357634e487b7160e01b600052603260045260246000fd5b016020015160f81c92915050565b600061135e600883611195565b1561136b57506000919050565b61048d826111bc565b600081815260056020526040902080546001600160a01b0319166001600160a01b03841690811790915581906113a982610985565b6001600160a01b03167f8c5be1e5ebec7d5bd14f71427d1e84f3dd0314c0f7b2291e5b200ac8c7c3b92560405160405180910390a45050565b6000806008600454901c60016113f89190612321565b905060005b8181101561143d5760008181526008602052604090205461141d81611a2b565b6114279085612321565b9350508080611435906123cb565b9150506113fd565b505090565b600061144d82611351565b6114b15760405162461bcd60e51b815260206004820152602f60248201527f4552433732315073693a206f70657261746f7220717565727920666f72206e6f60448201526e3732bc34b9ba32b73a103a37b5b2b760891b6064820152608401610590565b60006114bc83610985565b9050806001600160a01b0316846001600160a01b031614806114f75750836001600160a01b03166114ec84610525565b6001600160a01b0316145b8061152757506001600160a01b0380821660009081526006602090815260408083209388168352929052205460ff165b949350505050565b60008061153b836117db565b91509150846001600160a01b0316826001600160a01b0316146115b55760405162461bcd60e51b815260206004820152602c60248201527f4552433732315073693a207472616e73666572206f6620746f6b656e2074686160448201526b3a1034b9903737ba1037bbb760a11b6064820152608401610590565b6001600160a01b03841661161b5760405162461bcd60e51b815260206004820152602760248201527f4552433732315073693a207472616e7366657220746f20746865207a65726f206044820152666164647265737360c81b6064820152608401610590565b6116288585856001611a4a565b611633600084611374565b6000611640846001612321565b905061164d600082611195565b158015611667575060016004546116649190612321565b81105b1561169d57600081815260036020526040812080546001600160a01b0319166001600160a01b03891617905561169d908261115a565b600084815260036020526040902080546001600160a01b0319166001600160a01b0387161790558184146116d6576116d660008561115a565b83856001600160a01b0316876001600160a01b03167fddf252ad1be2c89b69c2b068fc378daa952ba7f163c4a11628f55a4df523b3ef60405160405180910390a4505050505050565b6007546001600160a01b03163314610a875760405162461bcd60e51b815260206004820181905260248201527f4f776e61626c653a2063616c6c6572206973206e6f7420746865206f776e65726044820152606401610590565b600061178482610985565b9050611794816000846001611a4a565b61179f60088361115a565b60405182906000906001600160a01b038416907fddf252ad1be2c89b69c2b068fc378daa952ba7f163c4a11628f55a4df523b3ef908390a45050565b6000806117e783611351565b6118485760405162461bcd60e51b815260206004820152602c60248201527f4552433732315073693a206f776e657220717565727920666f72206e6f6e657860448201526b34b9ba32b73a103a37b5b2b760a11b6064820152608401610590565b61185183611bfe565b6000818152600360205260409020546001600160a01b031694909350915050565b600780546001600160a01b038381166001600160a01b0319831681179093556040519116919082907f8be0079c531659141344cd1fd0a4f28419497f9722a3daafe3b4186f6b6457e090600090a35050565b6118cf84848461152f565b6118dd848484600185611c0a565b610d6e5760405162461bcd60e51b815260040161059090612278565b60608161191d5750506040805180820190915260018152600360fc1b602082015290565b8160005b81156119475780611931816123cb565b91506119409050600a83612339565b9150611921565b60008167ffffffffffffffff81111561197057634e487b7160e01b600052604160045260246000fd5b6040519080825280601f01601f19166020018201604052801561199a576020820181803683370190505b5090505b8415611527576119af60018361234d565b91506119bc600a866123e6565b6119c7906030612321565b60f81b8183815181106119ea57634e487b7160e01b600052603260045260246000fd5b60200101906001600160f81b031916908160001a905350611a0c600a86612339565b945061199e565b6000808211611a2157600080fd5b5060008190031690565b60005b8115611a4557600019820190911690600101611a2e565b919050565b60095460ff1615611a865760405162461bcd60e51b81526020600482015260066024820152651b1bd8dad95960d21b6044820152606401610590565b6001600160a01b038416611a9957610d6e565b6001600160a01b038316611aac57610d6e565b6009546001600160a01b0385811662010000909204161415611b3f576009546001600160a01b03848116620100009092041614611b3a57600a5481611af085610999565b611afa9190612321565b1115611b3a5760405162461bcd60e51b815260206004820152600f60248201526e195e18d95959195908185b5bdd5b9d608a1b6044820152606401610590565b610d6e565b6009546001600160a01b03848116620100009092041614610d6e57600954610100900460ff16611ba75760405162461bcd60e51b81526020600482015260136024820152723a3930b234b7339031b7b6b4b7339039b7b7b760691b6044820152606401610590565b600a5481611bb485610999565b611bbe9190612321565b1115610d6e5760405162461bcd60e51b815260206004820152600f60248201526e195e18d95959195908185b5bdd5b9d608a1b6044820152606401610590565b600061048d81836111e1565b60006001600160a01b0385163b15611d4057506001835b611c2b8486612321565b811015611d3a57604051630a85bd0160e11b81526001600160a01b0387169063150b7a0290611c649033908b9086908990600401612183565b602060405180830381600087803b158015611c7e57600080fd5b505af1925050508015611cae575060408051601f3d908101601f19168201909252611cab9181019061201f565b60015b611d08573d808015611cdc576040519150601f19603f3d011682016040523d82523d6000602084013e611ce1565b606091505b508051611d005760405162461bcd60e51b815260040161059090612278565b805181602001fd5b828015611d2557506001600160e01b03198116630a85bd0160e11b145b92505080611d32816123cb565b915050611c21565b50611d44565b5060015b95945050505050565b828054611d5990612390565b90600052602060002090601f016020900481019282611d7b5760008555611dc1565b82601f10611d9457805160ff1916838001178555611dc1565b82800160010185558215611dc1579182015b82811115611dc1578251825591602001919060010190611da6565b50611dcd929150611dd1565b5090565b5b80821115611dcd5760008155600101611dd2565b80356001600160a01b0381168114611a4557600080fd5b60008083601f840112611e0e578182fd5b50813567ffffffffffffffff811115611e25578182fd5b602083019150836020828501011115611e3d57600080fd5b9250929050565b600060208284031215611e55578081fd5b610e4082611de6565b60008060408385031215611e70578081fd5b611e7983611de6565b9150611e8760208401611de6565b90509250929050565b600080600060608486031215611ea4578081fd5b611ead84611de6565b9250611ebb60208501611de6565b9150604084013590509250925092565b60008060008060808587031215611ee0578081fd5b611ee985611de6565b9350611ef760208601611de6565b925060408501359150606085013567ffffffffffffffff80821115611f1a578283fd5b818701915087601f830112611f2d578283fd5b813581811115611f3f57611f3f612426565b604051601f8201601f19908116603f01168101908382118183101715611f6757611f67612426565b816040528281528a6020848701011115611f7f578586fd5b82602086016020830137918201602001949094529598949750929550505050565b60008060408385031215611fb2578182fd5b611fbb83611de6565b915060208301358015158114611fcf578182fd5b809150509250929050565b60008060408385031215611fec578182fd5b611ff583611de6565b946020939093013593505050565b600060208284031215612014578081fd5b8135610e408161243c565b600060208284031215612030578081fd5b8151610e408161243c565b60008060008060008060008060008060c08b8d031215612059578586fd5b8a3567ffffffffffffffff80821115612070578788fd5b61207c8e838f01611dfd565b909c509a5060208d0135995060408d0135985060608d01359150808211156120a2578788fd5b6120ae8e838f01611dfd565b909850965060808d01359150808211156120c6578586fd5b6120d28e838f01611dfd565b909650945060a08d01359150808211156120ea578384fd5b506120f78d828e01611dfd565b915080935050809150509295989b9194979a5092959850565b600060208284031215612121578081fd5b5035919050565b60008151808452612140816020860160208601612364565b601f01601f19169290920160200192915050565b60008351612166818460208801612364565b83519083019061217a818360208801612364565b01949350505050565b6001600160a01b03858116825284166020820152604081018390526080606082018190526000906121b690830184612128565b9695505050505050565b6060815283606082015283856080830137600080608086840101526080601f19601f870116830101905083602083015282604083015295945050505050565b602081526000610e406020830184612128565b60c08152600061222560c0830189612128565b87602084015286604084015282810360608401526122438187612128565b905082810360808401526122578186612128565b905082810360a084015261226b8185612128565b9998505050505050505050565b60208082526035908201527f4552433732315073693a207472616e7366657220746f206e6f6e20455243373260408201527418a932b1b2b4bb32b91034b6b83632b6b2b73a32b960591b606082015260800190565b60208082526034908201527f4552433732315073693a207472616e736665722063616c6c6572206973206e6f6040820152731d081bdddb995c881b9bdc88185c1c1c9bdd995960621b606082015260800190565b60008219821115612334576123346123fa565b500190565b60008261234857612348612410565b500490565b60008282101561235f5761235f6123fa565b500390565b60005b8381101561237f578181015183820152602001612367565b83811115610d6e5750506000910152565b600181811c908216806123a457607f821691505b602082108114156123c557634e487b7160e01b600052602260045260246000fd5b50919050565b60006000198214156123df576123df6123fa565b5060010190565b6000826123f5576123f5612410565b500690565b634e487b7160e01b600052601160045260246000fd5b634e487b7160e01b600052601260045260246000fd5b634e487b7160e01b600052604160045260246000fd5b6001600160e01b03198116811461110557600080fdfe0001020903110a19042112290b311a3905412245134d2a550c5d32651b6d3a7506264262237d468514804e8d2b95569d0d495ea533a966b11c886eb93bc176c9071727374353637324837e9b47af86c7155181ad4fd18ed32c9096db57d59ee30e2e4a6a5f92a6be3498aae067ddb2eb1d5989b56fd7baf33ca0c2ee77e5caf7ff0810182028303840444c545c646c7425617c847f8c949c48a4a8b087b8c0c816365272829aaec650acd0d28fdad4e22d6991bd97dfdcea58b4d6f29fede4f6fe0f1f2f3f4b5b6b607b8b93a3a7b7bf357199c5abcfd9e168bcdee9b3f1ecf5fd1e3e5a7a8aa2b670c4ced8bbe8f0f4fc3d79a1c3cde7effb78cce6facbf9f8a264697066735822122015d940e0c5fc83b7a9f171d978e84e559a8cee7a217e9f0996a377ab9e7d03bc64736f6c634300080400334552433732315073693a207472616e7366657220746f206e6f6e2045524337320001020903110a19042112290b311a3905412245134d2a550c5d32651b6d3a7506264262237d468514804e8d2b95569d0d495ea533a966b11c886eb93bc176c9071727374353637324837e9b47af86c7155181ad4fd18ed32c9096db57d59ee30e2e4a6a5f92a6be3498aae067ddb2eb1d5989b56fd7baf33ca0c2ee77e5caf7ff0810182028303840444c545c646c7425617c847f8c949c48a4a8b087b8c0c816365272829aaec650acd0d28fdad4e22d6991bd97dfdcea58b4d6f29fede4f6fe0f1f2f3f4b5b6b607b8b93a3a7b7bf357199c5abcfd9e168bcdee9b3f1ecf5fd1e3e5a7a8aa2b670c4ced8bbe8f0f4fc3d79a1c3cde7effb78cce6facbf9f8",
  "linkReferences": {},
  "deployedLinkReferences": {}
}