{
  "_format": "hh-sol-artifact-1",
  "contractName": "MembershipNFTMock",
  "sourceName": "contracts/test/MembershipNFTMock.sol",
  "abi": [
    {
      "inputs": [
        {
          "internalType": "string",
          "name": "name_",
          "type": "string"
        },
        {
          "internalType": "string",
          "name": "symbol_",
          "type": "string"
        }
      ],
      "stateMutability": "nonpayable",
      "type": "constructor"
    },
    {
      "inputs": [],
      "name": "ApprovalCallerNotOwnerNorApproved",
      "type": "error"
    },
    {
      "inputs": [],
      "name": "ApprovalQueryForNonexistentToken",
      "type": "error"
    },
    {
      "inputs": [],
      "name": "ApprovalToCurrentOwner",
      "type": "error"
    },
    {
      "inputs": [],
      "name": "ApproveToCaller",
      "type": "error"
    },
    {
      "inputs": [],
      "name": "BalanceQueryForZeroAddress",
      "type": "error"
    },
    {
      "inputs": [],
      "name": "MintToZeroAddress",
      "type": "error"
    },
    {
      "inputs": [],
      "name": "MintZeroQuantity",
      "type": "error"
    },
    {
      "inputs": [],
      "name": "OwnerQueryForNonexistentToken",
      "type": "error"
    },
    {
      "inputs": [],
      "name": "TransferCallerNotOwnerNorApproved",
      "type": "error"
    },
    {
      "inputs": [],
      "name": "TransferFromIncorrectOwner",
      "type": "error"
    },
    {
      "inputs": [],
      "name": "TransferToNonERC721ReceiverImplementer",
      "type": "error"
    },
    {
      "inputs": [],
      "name": "TransferToZeroAddress",
      "type": "error"
    },
    {
      "inputs": [],
      "name": "URIQueryForNonexistentToken",
      "type": "error"
    },
    {
      "anonymous": false,
      "inputs": [
        {
          "indexed": true,
          "internalType": "address",
          "name": "owner",
          "type": "address"
        },
        {
          "indexed": true,
          "internalType": "address",
          "name": "approved",
          "type": "address"
        },
        {
          "indexed": true,
          "internalType": "uint256",
          "name": "tokenId",
          "type": "uint256"
        }
      ],
      "name": "Approval",
      "type": "event"
    },
    {
      "anonymous": false,
      "inputs": [
        {
          "indexed": true,
          "internalType": "address",
          "name": "owner",
          "type": "address"
        },
        {
          "indexed": true,
          "internalType": "address",
          "name": "operator",
          "type": "address"
        },
        {
          "indexed": false,
          "internalType": "bool",
          "name": "approved",
          "type": "bool"
        }
      ],
      "name": "ApprovalForAll",
      "type": "event"
    },
    {
      "anonymous": false,
      "inputs": [
        {
          "indexed": true,
          "internalType": "address",
          "name": "operator",
          "type": "address"
        },
        {
          "indexed": false,
          "internalType": "uint256",
          "name": "tokenID",
          "type": "uint256"
        }
      ],
      "name": "Burn",
      "type": "event"
    },
    {
      "anonymous": false,
      "inputs": [
        {
          "indexed": true,
          "internalType": "address",
          "name": "operator",
          "type": "address"
        },
        {
          "indexed": false,
          "internalType": "bool",
          "name": "locked",
          "type": "bool"
        }
      ],
      "name": "Locked",
      "type": "event"
    },
    {
      "anonymous": false,
      "inputs": [
        {
          "indexed": true,
          "internalType": "address",
          "name": "operator",
          "type": "address"
        },
        {
          "indexed": true,
          "internalType": "address",
          "name": "to",
          "type": "address"
        },
        {
          "indexed": false,
          "internalType": "uint256",
          "name": "quantity",
          "type": "uint256"
        }
      ],
      "name": "Mint",
      "type": "event"
    },
    {
      "anonymous": false,
      "inputs": [
        {
          "indexed": true,
          "internalType": "address",
          "name": "operator",
          "type": "address"
        },
        {
          "indexed": false,
          "internalType": "uint256",
          "name": "quantity",
          "type": "uint256"
        }
      ],
      "name": "MintToPool",
      "type": "event"
    },
    {
      "anonymous": false,
      "inputs": [
        {
          "indexed": true,
          "internalType": "address",
          "name": "previousOwner",
          "type": "address"
        },
        {
          "indexed": true,
          "internalType": "address",
          "name": "newOwner",
          "type": "address"
        }
      ],
      "name": "OwnershipTransferred",
      "type": "event"
    },
    {
      "anonymous": false,
      "inputs": [
        {
          "indexed": true,
          "internalType": "address",
          "name": "operator",
          "type": "address"
        },
        {
          "indexed": false,
          "internalType": "address",
          "name": "pool",
          "type": "address"
        }
      ],
      "name": "SetupPool",
      "type": "event"
    },
    {
      "anonymous": false,
      "inputs": [
        {
          "indexed": true,
          "internalType": "address",
          "name": "operator",
          "type": "address"
        },
        {
          "indexed": false,
          "internalType": "bool",
          "name": "allowed",
          "type": "bool"
        }
      ],
      "name": "TradingAllowed",
      "type": "event"
    },
    {
      "anonymous": false,
      "inputs": [
        {
          "indexed": true,
          "internalType": "address",
          "name": "from",
          "type": "address"
        },
        {
          "indexed": true,
          "internalType": "address",
          "name": "to",
          "type": "address"
        },
        {
          "indexed": true,
          "internalType": "uint256",
          "name": "tokenId",
          "type": "uint256"
        }
      ],
      "name": "Transfer",
      "type": "event"
    },
    {
      "anonymous": false,
      "inputs": [
        {
          "indexed": false,
          "internalType": "string",
          "name": "",
          "type": "string"
        }
      ],
      "name": "UpdateMetadataAnimationUrl",
      "type": "event"
    },
    {
      "anonymous": false,
      "inputs": [
        {
          "indexed": false,
          "internalType": "string",
          "name": "",
          "type": "string"
        }
      ],
      "name": "UpdateMetadataExternalUrl",
      "type": "event"
    },
    {
      "anonymous": false,
      "inputs": [
        {
          "indexed": false,
          "internalType": "string",
          "name": "",
          "type": "string"
        }
      ],
      "name": "UpdateMetadataImage",
      "type": "event"
    },
    {
      "inputs": [],
      "name": "SUPPLY_PER_TYPE",
      "outputs": [
        {
          "internalType": "uint256",
          "name": "",
          "type": "uint256"
        }
      ],
      "stateMutability": "view",
      "type": "function"
    },
    {
      "inputs": [
        {
          "internalType": "address",
          "name": "to",
          "type": "address"
        },
        {
          "internalType": "uint256",
          "name": "tokenId",
          "type": "uint256"
        }
      ],
      "name": "approve",
      "outputs": [],
      "stateMutability": "nonpayable",
      "type": "function"
    },
    {
      "inputs": [
        {
          "internalType": "address",
          "name": "owner",
          "type": "address"
        }
      ],
      "name": "balanceOf",
      "outputs": [
        {
          "internalType": "uint256",
          "name": "",
          "type": "uint256"
        }
      ],
      "stateMutability": "view",
      "type": "function"
    },
    {
      "inputs": [
        {
          "internalType": "uint256",
          "name": "tokenId",
          "type": "uint256"
        }
      ],
      "name": "burn",
      "outputs": [],
      "stateMutability": "nonpayable",
      "type": "function"
    },
    {
      "inputs": [
        {
          "internalType": "uint256",
          "name": "tokenId",
          "type": "uint256"
        }
      ],
      "name": "getApproved",
      "outputs": [
        {
          "internalType": "address",
          "name": "",
          "type": "address"
        }
      ],
      "stateMutability": "view",
      "type": "function"
    },
    {
      "inputs": [
        {
          "internalType": "enum MembershipNFTMock.TokenType",
          "name": "tokenType",
          "type": "uint8"
        }
      ],
      "name": "getMintedPerType",
      "outputs": [
        {
          "internalType": "uint256",
          "name": "",
          "type": "uint256"
        }
      ],
      "stateMutability": "view",
      "type": "function"
    },
    {
      "inputs": [
        {
          "internalType": "address",
          "name": "owner",
          "type": "address"
        },
        {
          "internalType": "address",
          "name": "operator",
          "type": "address"
        }
      ],
      "name": "isApprovedForAll",
      "outputs": [
        {
          "internalType": "bool",
          "name": "",
          "type": "bool"
        }
      ],
      "stateMutability": "view",
      "type": "function"
    },
    {
      "inputs": [
        {
          "internalType": "address",
          "name": "to",
          "type": "address"
        },
        {
          "internalType": "uint256",
          "name": "quantity",
          "type": "uint256"
        },
        {
          "internalType": "enum MembershipNFTMock.TokenType",
          "name": "tokenType",
          "type": "uint8"
        }
      ],
      "name": "mint",
      "outputs": [],
      "stateMutability": "nonpayable",
      "type": "function"
    },
    {
      "inputs": [],
      "name": "name",
      "outputs": [
        {
          "internalType": "string",
          "name": "",
          "type": "string"
        }
      ],
      "stateMutability": "view",
      "type": "function"
    },
    {
      "inputs": [],
      "name": "owner",
      "outputs": [
        {
          "internalType": "address",
          "name": "",
          "type": "address"
        }
      ],
      "stateMutability": "view",
      "type": "function"
    },
    {
      "inputs": [
        {
          "internalType": "uint256",
          "name": "tokenId",
          "type": "uint256"
        }
      ],
      "name": "ownerOf",
      "outputs": [
        {
          "internalType": "address",
          "name": "",
          "type": "address"
        }
      ],
      "stateMutability": "view",
      "type": "function"
    },
    {
      "inputs": [],
      "name": "renounceOwnership",
      "outputs": [],
      "stateMutability": "nonpayable",
      "type": "function"
    },
    {
      "inputs": [
        {
          "internalType": "address",
          "name": "from",
          "type": "address"
        },
        {
          "internalType": "address",
          "name": "to",
          "type": "address"
        },
        {
          "internalType": "uint256",
          "name": "tokenId",
          "type": "uint256"
        }
      ],
      "name": "safeTransferFrom",
      "outputs": [],
      "stateMutability": "nonpayable",
      "type": "function"
    },
    {
      "inputs": [
        {
          "internalType": "address",
          "name": "from",
          "type": "address"
        },
        {
          "internalType": "address",
          "name": "to",
          "type": "address"
        },
        {
          "internalType": "uint256",
          "name": "tokenId",
          "type": "uint256"
        },
        {
          "internalType": "bytes",
          "name": "_data",
          "type": "bytes"
        }
      ],
      "name": "safeTransferFrom",
      "outputs": [],
      "stateMutability": "nonpayable",
      "type": "function"
    },
    {
      "inputs": [
        {
          "internalType": "string",
          "name": "animationURI",
          "type": "string"
        }
      ],
      "name": "setAnimationURI",
      "outputs": [],
      "stateMutability": "nonpayable",
      "type": "function"
    },
    {
      "inputs": [
        {
          "internalType": "address",
          "name": "operator",
          "type": "address"
        },
        {
          "internalType": "bool",
          "name": "approved",
          "type": "bool"
        }
      ],
      "name": "setApprovalForAll",
      "outputs": [],
      "stateMutability": "nonpayable",
      "type": "function"
    },
    {
      "inputs": [
        {
          "internalType": "string",
          "name": "imageURI",
          "type": "string"
        }
      ],
      "name": "setImageURI",
      "outputs": [],
      "stateMutability": "nonpayable",
      "type": "function"
    },
    {
      "inputs": [
        {
          "internalType": "bytes4",
          "name": "interfaceId",
          "type": "bytes4"
        }
      ],
      "name": "supportsInterface",
      "outputs": [
        {
          "internalType": "bool",
          "name": "",
          "type": "bool"
        }
      ],
      "stateMutability": "view",
      "type": "function"
    },
    {
      "inputs": [],
      "name": "symbol",
      "outputs": [
        {
          "internalType": "string",
          "name": "",
          "type": "string"
        }
      ],
      "stateMutability": "view",
      "type": "function"
    },
    {
      "inputs": [],
      "name": "tierAnimationURL",
      "outputs": [
        {
          "internalType": "string",
          "name": "",
          "type": "string"
        }
      ],
      "stateMutability": "view",
      "type": "function"
    },
    {
      "inputs": [],
      "name": "tierImageURI",
      "outputs": [
        {
          "internalType": "string",
          "name": "",
          "type": "string"
        }
      ],
      "stateMutability": "view",
      "type": "function"
    },
    {
      "inputs": [
        {
          "internalType": "uint256",
          "name": "index",
          "type": "uint256"
        }
      ],
      "name": "tokenByIndex",
      "outputs": [
        {
          "internalType": "uint256",
          "name": "",
          "type": "uint256"
        }
      ],
      "stateMutability": "view",
      "type": "function"
    },
    {
      "inputs": [
        {
          "internalType": "address",
          "name": "owner",
          "type": "address"
        },
        {
          "internalType": "uint256",
          "name": "index",
          "type": "uint256"
        }
      ],
      "name": "tokenOfOwnerByIndex",
      "outputs": [
        {
          "internalType": "uint256",
          "name": "tokenId",
          "type": "uint256"
        }
      ],
      "stateMutability": "view",
      "type": "function"
    },
    {
      "inputs": [
        {
          "internalType": "uint256",
          "name": "tokenId",
          "type": "uint256"
        }
      ],
      "name": "tokenURI",
      "outputs": [
        {
          "internalType": "string",
          "name": "",
          "type": "string"
        }
      ],
      "stateMutability": "view",
      "type": "function"
    },
    {
      "inputs": [],
      "name": "totalSupply",
      "outputs": [
        {
          "internalType": "uint256",
          "name": "",
          "type": "uint256"
        }
      ],
      "stateMutability": "view",
      "type": "function"
    },
    {
      "inputs": [
        {
          "internalType": "address",
          "name": "from",
          "type": "address"
        },
        {
          "internalType": "address",
          "name": "to",
          "type": "address"
        },
        {
          "internalType": "uint256",
          "name": "tokenId",
          "type": "uint256"
        }
      ],
      "name": "transferFrom",
      "outputs": [],
      "stateMutability": "nonpayable",
      "type": "function"
    },
    {
      "inputs": [
        {
          "internalType": "address",
          "name": "newOwner",
          "type": "address"
        }
      ],
      "name": "transferOwnership",
      "outputs": [],
      "stateMutability": "nonpayable",
      "type": "function"
    },
    {
      "inputs": [
        {
          "internalType": "uint256",
          "name": "",
          "type": "uint256"
        }
      ],
      "name": "typeNames",
      "outputs": [
        {
          "internalType": "string",
          "name": "",
          "type": "string"
        }
      ],
      "stateMutability": "view",
      "type": "function"
    }
  ],
  "bytecode": "0x600560c090815264135bd9dd5b60da1b60e052608090815261014060405260086101009081526724b73b32b9ba37b960c11b6101205260a0526200004890600c90600262000189565b503480156200005657600080fd5b5060405162002ef138038062002ef18339810160408190526200007991620003a5565b81518290829062000092906001906020850190620001ed565b508051620000a8906002906020840190620001ed565b505050620000c5620000bf6200013360201b60201c565b62000137565b60016008556040805160808101909152605780825262002e4360208301398051620000f991600a91602090910190620001ed565b5060405180608001604052806057815260200162002e9a6057913980516200012a91600b91602090910190620001ed565b5050506200045f565b3390565b600780546001600160a01b038381166001600160a01b0319831681179093556040519116919082907f8be0079c531659141344cd1fd0a4f28419497f9722a3daafe3b4186f6b6457e090600090a35050565b828054828255906000526020600020908101928215620001db579160200282015b82811115620001db5782518051620001ca918491602090910190620001ed565b5091602001919060010190620001aa565b50620001e992915062000278565b5090565b828054620001fb906200040c565b90600052602060002090601f0160209004810192826200021f57600085556200026a565b82601f106200023a57805160ff19168380011785556200026a565b828001600101855582156200026a579182015b828111156200026a5782518255916020019190600101906200024d565b50620001e992915062000299565b80821115620001e95760006200028f8282620002b0565b5060010162000278565b5b80821115620001e957600081556001016200029a565b508054620002be906200040c565b6000825580601f10620002cf575050565b601f016020900490600052602060002090810190620002ef919062000299565b50565b600082601f83011262000303578081fd5b81516001600160401b038082111562000320576200032062000449565b604051601f8301601f19908116603f011681019082821181831017156200034b576200034b62000449565b8160405283815260209250868385880101111562000367578485fd5b8491505b838210156200038a57858201830151818301840152908201906200036b565b838211156200039b57848385830101525b9695505050505050565b60008060408385031215620003b8578182fd5b82516001600160401b0380821115620003cf578384fd5b620003dd86838701620002f2565b93506020850151915080821115620003f3578283fd5b506200040285828601620002f2565b9150509250929050565b600181811c908216806200042157607f821691505b602082108114156200044357634e487b7160e01b600052602260045260246000fd5b50919050565b634e487b7160e01b600052604160045260246000fd5b6129d4806200046f6000396000f3fe608060405234801561001057600080fd5b50600436106101c45760003560e01c80636352211e116100f9578063b88d4fde11610097578063c87b56dd11610071578063c87b56dd1461038d578063e985e9c5146103a0578063f2fde38b146103dc578063fde800c7146103ef57600080fd5b8063b88d4fde1461035e578063c0a15ec414610371578063c5ac58e11461037a57600080fd5b80638da5cb5b116100d35780638da5cb5b1461031f57806395d89b41146103305780639732f1d514610338578063a22cb4651461034b57600080fd5b80636352211e146102f157806370a0823114610304578063715018a61461031757600080fd5b80632f745c59116101665780634a7df786116101405780634a7df786146102bb5780634f6ccce7146102c35780635259450e146102d65780636112e8ac146102de57600080fd5b80632f745c591461028257806342842e0e1461029557806342966c68146102a857600080fd5b8063081812fc116101a2578063081812fc1461021b578063095ea7b31461024657806318160ddd1461025957806323b872dd1461026f57600080fd5b806301ffc9a7146101c957806304787ca2146101f157806306fdde0314610206575b600080fd5b6101dc6101d7366004612231565b610402565b60405190151581526020015b60405180910390f35b6102046101ff366004612283565b61046f565b005b61020e61048e565b6040516101e8919061263b565b61022e6102293660046122c9565b610520565b6040516001600160a01b0390911681526020016101e8565b6102046102543660046121cd565b6105b0565b6102616106c8565b6040519081526020016101e8565b61020461027d3660046120df565b6106e4565b6102616102903660046121cd565b610715565b6102046102a33660046120df565b6107ea565b6102046102b63660046122c9565b610805565b61020e6108e8565b6102616102d13660046122c9565b610976565b61020e610a3e565b6102046102ec3660046121f6565b610a4b565b61022e6102ff3660046122c9565b610cca565b61026161031236600461208c565b610cde565b610204610dba565b6007546001600160a01b031661022e565b61020e610dce565b61020e6103463660046122c9565b610ddd565b610204610359366004612193565b610e08565b61020461036c36600461211a565b610ecd565b61026161271081565b610204610388366004612283565b610f05565b61020e61039b3660046122c9565b610f20565b6101dc6103ae3660046120ad565b6001600160a01b03918216600090815260066020908152604080832093909416825291909152205460ff1690565b6102046103ea36600461208c565b611143565b6102616103fd366004612269565b6111bc565b60006001600160e01b031982166380ac58cd60e01b148061043357506001600160e01b03198216635b5e139f60e01b145b8061044e57506001600160e01b0319821663780e9d6360e01b145b8061046957506301ffc9a760e01b6001600160e01b03198316145b92915050565b610477611220565b805161048a90600a906020840190611f57565b5050565b60606001805461049d9061279c565b80601f01602080910402602001604051908101604052809291908181526020018280546104c99061279c565b80156105165780601f106104eb57610100808354040283529160200191610516565b820191906000526020600020905b8154815290600101906020018083116104f957829003601f168201915b5050505050905090565b600061052b8261127a565b6105945760405162461bcd60e51b815260206004820152602f60248201527f4552433732315073693a20617070726f76656420717565727920666f72206e6f60448201526e3732bc34b9ba32b73a103a37b5b2b760891b60648201526084015b60405180910390fd5b506000908152600560205260409020546001600160a01b031690565b60006105bb82610cca565b9050806001600160a01b0316836001600160a01b0316141561062b5760405162461bcd60e51b8152602060048201526024808201527f4552433732315073693a20617070726f76616c20746f2063757272656e74206f6044820152633bb732b960e11b606482015260840161058b565b336001600160a01b0382161480610647575061064781336103ae565b6106b95760405162461bcd60e51b815260206004820152603b60248201527f4552433732315073693a20617070726f76652063616c6c6572206973206e6f7460448201527f206f776e6572206e6f7220617070726f76656420666f7220616c6c0000000000606482015260840161058b565b6106c383836112af565b505050565b60006106d261131d565b6004546106df9190612742565b905090565b6106ee338261137d565b61070a5760405162461bcd60e51b815260040161058b906126a3565b6106c383838361146a565b60008060015b600160045461072a91906126f7565b8110156107955761073a8161127a565b801561075f575061074a81610cca565b6001600160a01b0316856001600160a01b0316145b1561078357838214156107755791506104699050565b8161077f816127d7565b9250505b8061078d816127d7565b91505061071b565b5060405162461bcd60e51b8152602060048201526024808201527f4552433732315073693a206f776e657220696e646578206f7574206f6620626f604482015263756e647360e01b606482015260840161058b565b6106c383838360405180602001604052806000815250610ecd565b61080d611220565b6000818152600d60205260408120600190810154600e929160ff9091169081111561084857634e487b7160e01b600052602160045260246000fd5b600181111561086757634e487b7160e01b600052602160045260246000fd5b8152602001908152602001600020600081548092919061088690612785565b90915550506000818152600d60205260408120908155600101805460ff191690556108b081611662565b60405181815233907fcc16f5dbb4873280815c1ee09dbd06736cffcc184412cf7a71a0fdb75d397ca59060200160405180910390a250565b600b80546108f59061279c565b80601f01602080910402602001604051908101604052809291908181526020018280546109219061279c565b801561096e5780601f106109435761010080835404028352916020019161096e565b820191906000526020600020905b81548152906001019060200180831161095157829003601f168201915b505050505081565b60006109806106c8565b82106109dc5760405162461bcd60e51b815260206004820152602560248201527f4552433732315073693a20676c6f62616c20696e646578206f7574206f6620626044820152646f756e647360d81b606482015260840161058b565b600060015b60016004546109f091906126f7565b811015610a3457610a008161127a565b15610a225783821415610a14579392505050565b81610a1e816127d7565b9250505b80610a2c816127d7565b9150506109e1565b5060009392505050565b600a80546108f59061279c565b610a53611220565b806000816001811115610a7657634e487b7160e01b600052602160045260246000fd5b10158015610aa457506001816001811115610aa157634e487b7160e01b600052602160045260246000fd5b11155b610ae55760405162461bcd60e51b8152602060048201526012602482015271496e76616c696420746f6b656e207479706560701b604482015260640161058b565b61271083600e6000856001811115610b0d57634e487b7160e01b600052602160045260246000fd5b6001811115610b2c57634e487b7160e01b600052602160045260246000fd5b815260200190815260200160002054610b4591906126f7565b1115610ba15760405162461bcd60e51b815260206004820152602560248201527f4f766572666c6f772074686520746f74616c737570706c7920666f7220746865604482015264207479706560d81b606482015260840161058b565b610bab84846116b6565b6004545b83600454610bbd9190612742565b811115610c1d576000818152600d6020526040902081815560018082018054869260ff19909116908381811115610c0457634e487b7160e01b600052602160045260246000fd5b0217905550508080610c1590612785565b915050610baf565b5082600e6000846001811115610c4357634e487b7160e01b600052602160045260246000fd5b6001811115610c6257634e487b7160e01b600052602160045260246000fd5b81526020019081526020016000206000828254610c7f91906126f7565b90915550506040518381526001600160a01b0385169033907fab8530f87dc9b59234c4623bf917212bb2536d647574c8e7e5da92c2ede0c9f89060200160405180910390a350505050565b600080610cd6836116d0565b509392505050565b60006001600160a01b038216610d4c5760405162461bcd60e51b815260206004820152602d60248201527f4552433732315073693a2062616c616e636520717565727920666f722074686560448201526c207a65726f206164647265737360981b606482015260840161058b565b600060015b6001600454610d6091906126f7565b811015610db357610d708161127a565b15610da357610d7e81610cca565b6001600160a01b0316846001600160a01b03161415610da357610da0826127d7565b91505b610dac816127d7565b9050610d51565b5092915050565b610dc2611220565b610dcc6000611767565b565b60606002805461049d9061279c565b600c8181548110610ded57600080fd5b9060005260206000200160009150905080546108f59061279c565b6001600160a01b038216331415610e615760405162461bcd60e51b815260206004820152601c60248201527f4552433732315073693a20617070726f766520746f2063616c6c657200000000604482015260640161058b565b3360008181526006602090815260408083206001600160a01b03871680855290835292819020805460ff191686151590811790915590519081529192917f17307eab39ab6107e8899845ad3d59bd9653f200f220920489ca2b5937696c31910160405180910390a35050565b610ed7338361137d565b610ef35760405162461bcd60e51b815260040161058b906126a3565b610eff848484846117b9565b50505050565b610f0d611220565b805161048a90600b906020840190611f57565b6060610f2b8261127a565b610f4857604051630a14c4b560e41b815260040160405180910390fd5b6000828152600d60209081526040808320815180830190925280548252600180820154929391929184019160ff1690811115610f9457634e487b7160e01b600052602160045260246000fd5b6001811115610fb357634e487b7160e01b600052602160045260246000fd5b90525090506000610fc3846117ee565b9050600081610fd061048e565b83600a600c87602001516001811115610ff957634e487b7160e01b600052602160045260246000fd5b8154811061101757634e487b7160e01b600052603260045260246000fd5b90600052602060002001600b600c8960200151600181111561104957634e487b7160e01b600052602160045260246000fd5b8154811061106757634e487b7160e01b600052603260045260246000fd5b906000526020600020016040516020016110879796959493929190612505565b604051602081830303815290604052905060006111138284600c876020015160018111156110c557634e487b7160e01b600052602160045260246000fd5b815481106110e357634e487b7160e01b600052603260045260246000fd5b906000526020600020016040516020016110ff939291906123a5565b604051602081830303815290604052611908565b905060008160405160200161112891906124c0565b60408051601f19818403018152919052979650505050505050565b61114b611220565b6001600160a01b0381166111b05760405162461bcd60e51b815260206004820152602660248201527f4f776e61626c653a206e6577206f776e657220697320746865207a65726f206160448201526564647265737360d01b606482015260840161058b565b6111b981611767565b50565b60006111c6611220565b600e60008360018111156111ea57634e487b7160e01b600052602160045260246000fd5b600181111561120957634e487b7160e01b600052602160045260246000fd5b81526020019081526020016000205490505b919050565b6007546001600160a01b03163314610dcc5760405162461bcd60e51b815260206004820181905260248201527f4f776e61626c653a2063616c6c6572206973206e6f7420746865206f776e6572604482015260640161058b565b600881901c600090815260096020526040812054600160ff1b60ff84161c16156112a657506000919050565b61046982611a7c565b600081815260056020526040902080546001600160a01b0319166001600160a01b03841690811790915581906112e482610cca565b6001600160a01b03167f8c5be1e5ebec7d5bd14f71427d1e84f3dd0314c0f7b2291e5b200ac8c7c3b92560405160405180910390a45050565b6000806008600454901c600161133391906126f7565b905060005b818110156113785760008181526009602052604090205461135881611aa1565b61136290856126f7565b9350508080611370906127d7565b915050611338565b505090565b60006113888261127a565b6113ec5760405162461bcd60e51b815260206004820152602f60248201527f4552433732315073693a206f70657261746f7220717565727920666f72206e6f60448201526e3732bc34b9ba32b73a103a37b5b2b760891b606482015260840161058b565b60006113f783610cca565b9050806001600160a01b0316846001600160a01b031614806114325750836001600160a01b031661142784610520565b6001600160a01b0316145b8061146257506001600160a01b0380821660009081526006602090815260408083209388168352929052205460ff165b949350505050565b600080611476836116d0565b91509150846001600160a01b0316826001600160a01b0316146114f05760405162461bcd60e51b815260206004820152602c60248201527f4552433732315073693a207472616e73666572206f6620746f6b656e2074686160448201526b3a1034b9903737ba1037bbb760a11b606482015260840161058b565b6001600160a01b0384166115565760405162461bcd60e51b815260206004820152602760248201527f4552433732315073693a207472616e7366657220746f20746865207a65726f206044820152666164647265737360c81b606482015260840161058b565b6115616000846112af565b600061156e8460016126f7565b600881901c600090815260208190526040902054909150600160ff1b60ff83161c161580156115aa575060016004546115a791906126f7565b81105b156115e057600081815260036020526040812080546001600160a01b0319166001600160a01b0389161790556115e09082611abb565b600084815260036020526040902080546001600160a01b0319166001600160a01b03871617905581841461161957611619600085611abb565b83856001600160a01b0316876001600160a01b03167fddf252ad1be2c89b69c2b068fc378daa952ba7f163c4a11628f55a4df523b3ef60405160405180910390a4505050505050565b600061166d82610cca565b905061167a600983611abb565b60405182906000906001600160a01b038416907fddf252ad1be2c89b69c2b068fc378daa952ba7f163c4a11628f55a4df523b3ef908390a45050565b61048a828260405180602001604052806000815250611ae7565b6000806116dc8361127a565b61173d5760405162461bcd60e51b815260206004820152602c60248201527f4552433732315073693a206f776e657220717565727920666f72206e6f6e657860448201526b34b9ba32b73a103a37b5b2b760a11b606482015260840161058b565b61174683611b02565b6000818152600360205260409020546001600160a01b031694909350915050565b600780546001600160a01b038381166001600160a01b0319831681179093556040519116919082907f8be0079c531659141344cd1fd0a4f28419497f9722a3daafe3b4186f6b6457e090600090a35050565b6117c484848461146a565b6117d2848484600185611b0e565b610eff5760405162461bcd60e51b815260040161058b9061264e565b6060816118125750506040805180820190915260018152600360fc1b602082015290565b8160005b811561183c5780611826816127d7565b91506118359050600a8361270f565b9150611816565b60008167ffffffffffffffff81111561186557634e487b7160e01b600052604160045260246000fd5b6040519080825280601f01601f19166020018201604052801561188f576020820181803683370190505b5090505b8415611462576118a4600183612742565b91506118b1600a866127f2565b6118bc9060306126f7565b60f81b8183815181106118df57634e487b7160e01b600052603260045260246000fd5b60200101906001600160f81b031916908160001a905350611901600a8661270f565b9450611893565b805160609080611928575050604080516020810190915260008152919050565b600060036119378360026126f7565b611941919061270f565b61194c906004612723565b9050600061195b8260206126f7565b67ffffffffffffffff81111561198157634e487b7160e01b600052604160045260246000fd5b6040519080825280601f01601f1916602001820160405280156119ab576020820181803683370190505b509050600060405180606001604052806040815260200161285f604091399050600181016020830160005b86811015611a37576003818a01810151603f601282901c8116860151600c83901c8216870151600684901c831688015192909316870151600891821b60ff94851601821b92841692909201901b91160160e01b8352600490920191016119d6565b506003860660018114611a515760028114611a6257611a6e565b613d3d60f01b600119830152611a6e565b603d60f81b6000198301525b505050918152949350505050565b60008160011115801561046957506001600454611a9991906126f7565b821092915050565b60005b811561121b57600019820190911690600101611aa4565b600881901c600090815260209290925260409091208054600160ff1b60ff9093169290921c9091179055565b600454611af48484611c51565b6117d2600085838686611b0e565b60006104698183611dcf565b60006001600160a01b0385163b15611c4457506001835b611b2f84866126f7565b811015611c3e57604051630a85bd0160e11b81526001600160a01b0387169063150b7a0290611b689033908b90869089906004016125fe565b602060405180830381600087803b158015611b8257600080fd5b505af1925050508015611bb2575060408051601f3d908101601f19168201909252611baf9181019061224d565b60015b611c0c573d808015611be0576040519150601f19603f3d011682016040523d82523d6000602084013e611be5565b606091505b508051611c045760405162461bcd60e51b815260040161058b9061264e565b805181602001fd5b828015611c2957506001600160e01b03198116630a85bd0160e11b145b92505080611c36816127d7565b915050611b25565b50611c48565b5060015b95945050505050565b6000600454611c5e600190565b611c6891906126f7565b905060008211611cc85760405162461bcd60e51b815260206004820152602560248201527f4552433732315073693a207175616e74697479206d7573742062652067726561604482015264074657220360dc1b606482015260840161058b565b6001600160a01b038316611d2a5760405162461bcd60e51b815260206004820152602360248201527f4552433732315073693a206d696e7420746f20746865207a65726f206164647260448201526265737360e81b606482015260840161058b565b8160046000828254611d3c91906126f7565b9091555050600081815260036020526040812080546001600160a01b0319166001600160a01b038616179055611d729082611abb565b805b611d7e83836126f7565b811015610eff5760405181906001600160a01b038616906000907fddf252ad1be2c89b69c2b068fc378daa952ba7f163c4a11628f55a4df523b3ef908290a480611dc7816127d7565b915050611d74565b600881901c60008181526020849052604081205490919060ff808516919082181c8015611e1157611dff81611ec7565b60ff168203600884901b179350611ebe565b60008311611e7e5760405162461bcd60e51b815260206004820152603460248201527f4269744d6170733a205468652073657420626974206265666f7265207468652060448201527334b73232bc103237b2b9b713ba1032bc34b9ba1760611b606482015260840161058b565b506000199091016000818152602086905260409020549091908015611eb957611ea681611ec7565b60ff0360ff16600884901b179350611ebe565b611e11565b50505092915050565b6000604051806101200160405280610100815260200161289f610100913960f87e818283848586878898a8b8c8d8e8f929395969799a9b9d9e9faaeb6bedeeff611f1085611f3f565b02901c81518110611f3157634e487b7160e01b600052603260045260246000fd5b016020015160f81c92915050565b6000808211611f4d57600080fd5b5060008190031690565b828054611f639061279c565b90600052602060002090601f016020900481019282611f855760008555611fcb565b82601f10611f9e57805160ff1916838001178555611fcb565b82800160010185558215611fcb579182015b82811115611fcb578251825591602001919060010190611fb0565b50611fd7929150611fdb565b5090565b5b80821115611fd75760008155600101611fdc565b600067ffffffffffffffff8084111561200b5761200b612832565b604051601f8501601f19908116603f0116810190828211818310171561203357612033612832565b8160405280935085815286868601111561204c57600080fd5b858560208301376000602087830101525050509392505050565b80356001600160a01b038116811461121b57600080fd5b80356002811061121b57600080fd5b60006020828403121561209d578081fd5b6120a682612066565b9392505050565b600080604083850312156120bf578081fd5b6120c883612066565b91506120d660208401612066565b90509250929050565b6000806000606084860312156120f3578081fd5b6120fc84612066565b925061210a60208501612066565b9150604084013590509250925092565b6000806000806080858703121561212f578081fd5b61213885612066565b935061214660208601612066565b925060408501359150606085013567ffffffffffffffff811115612168578182fd5b8501601f81018713612178578182fd5b61218787823560208401611ff0565b91505092959194509250565b600080604083850312156121a5578182fd5b6121ae83612066565b9150602083013580151581146121c2578182fd5b809150509250929050565b600080604083850312156121df578182fd5b6121e883612066565b946020939093013593505050565b60008060006060848603121561220a578283fd5b61221384612066565b9250602084013591506122286040850161207d565b90509250925092565b600060208284031215612242578081fd5b81356120a681612848565b60006020828403121561225e578081fd5b81516120a681612848565b60006020828403121561227a578081fd5b6120a68261207d565b600060208284031215612294578081fd5b813567ffffffffffffffff8111156122aa578182fd5b8201601f810184136122ba578182fd5b61146284823560208401611ff0565b6000602082840312156122da578081fd5b5035919050565b600081518084526122f9816020860160208601612759565b601f01601f19169290920160200192915050565b8054600090600181811c908083168061232757607f831692505b602080841082141561234757634e487b7160e01b86526022600452602486fd5b81801561235b576001811461236c57612399565b60ff19861689528489019650612399565b60008881526020902060005b868110156123915781548b820152908501908301612378565b505084890196505b50505050505092915050565b600084516123b7818460208901612759565b80830190507f2c20226465736372697074696f6e223a2022506c61794573746174657320466f8152733ab73234b7339026b2b6b132b9102a37b5b2b71160611b6020820152702c202261747472696275746573223a205b60781b60348201527f7b202274726169745f74797065223a20224944222c202276616c7565223a20226045820152845161244f816065840160208901612759565b64011103e96160dd1b606592909101918201527f7b202274726169745f74797065223a202254696572222c202276616c7565223a606a82015261101160f11b608a8201526124a0608c82018561230d565b61227d60f01b8152615d7d60f01b60028201526004019695505050505050565b7f646174613a6170706c69636174696f6e2f6a736f6e3b6261736536342c0000008152600082516124f881601d850160208701612759565b91909101601d0192915050565b6603d9134b2111d160cd1b81528751600090612528816007850160208d01612759565b6a1610113730b6b2911d101160a91b6007918401918201528851612553816012840160208d01612759565b61202360f01b601292909101918201528751612576816014840160208c01612759565b6c1116101134b6b0b3b2911d101160991b601492909101918201526125a76125a1602183018961230d565b8761230d565b90507f2e6a7067222c2022616e696d6174696f6e5f75726c223a20220000000000000081526125e26125dc601983018761230d565b8561230d565b641736b81a1160d91b81526005019a9950505050505050505050565b6001600160a01b0385811682528416602082015260408101839052608060608201819052600090612631908301846122e1565b9695505050505050565b6020815260006120a660208301846122e1565b60208082526035908201527f4552433732315073693a207472616e7366657220746f206e6f6e20455243373260408201527418a932b1b2b4bb32b91034b6b83632b6b2b73a32b960591b606082015260800190565b60208082526034908201527f4552433732315073693a207472616e736665722063616c6c6572206973206e6f6040820152731d081bdddb995c881b9bdc88185c1c1c9bdd995960621b606082015260800190565b6000821982111561270a5761270a612806565b500190565b60008261271e5761271e61281c565b500490565b600081600019048311821515161561273d5761273d612806565b500290565b60008282101561275457612754612806565b500390565b60005b8381101561277457818101518382015260200161275c565b83811115610eff5750506000910152565b60008161279457612794612806565b506000190190565b600181811c908216806127b057607f821691505b602082108114156127d157634e487b7160e01b600052602260045260246000fd5b50919050565b60006000198214156127eb576127eb612806565b5060010190565b6000826128015761280161281c565b500690565b634e487b7160e01b600052601160045260246000fd5b634e487b7160e01b600052601260045260246000fd5b634e487b7160e01b600052604160045260246000fd5b6001600160e01b0319811681146111b957600080fdfe4142434445464748494a4b4c4d4e4f505152535455565758595a6162636465666768696a6b6c6d6e6f707172737475767778797a303132333435363738392b2f0001020903110a19042112290b311a3905412245134d2a550c5d32651b6d3a7506264262237d468514804e8d2b95569d0d495ea533a966b11c886eb93bc176c9071727374353637324837e9b47af86c7155181ad4fd18ed32c9096db57d59ee30e2e4a6a5f92a6be3498aae067ddb2eb1d5989b56fd7baf33ca0c2ee77e5caf7ff0810182028303840444c545c646c7425617c847f8c949c48a4a8b087b8c0c816365272829aaec650acd0d28fdad4e22d6991bd97dfdcea58b4d6f29fede4f6fe0f1f2f3f4b5b6b607b8b93a3a7b7bf357199c5abcfd9e168bcdee9b3f1ecf5fd1e3e5a7a8aa2b670c4ced8bbe8f0f4fc3d79a1c3cde7effb78cce6facbf9f8a264697066735822122027a0ca901afd78eb67c760bed08085a7f53774171ab23f9178d5241b7b7a501964736f6c6343000804003368747470733a2f2f706c6179657374617465732e6d7970696e6174612e636c6f75642f697066732f516d6652646159784d6d76787242624563703379567a345455776e514a6d546d506e716331745168664b576f4b462f68747470733a2f2f706c6179657374617465732e6d7970696e6174612e636c6f75642f697066732f516d62316b724d35636d324765736d6e58344d67544764716969504b55395a356576694b4c7835747161743756562f",
  "linkReferences": {},
  "deployedLinkReferences": {}
}