{
  "_format": "hh-sol-artifact-1",
  "contractName": "MembershipNFTMock",
  "sourceName": "contracts/test/MembershipNFTMock.sol",
  "abi": [
    {
      "inputs": [
        {
          "internalType": "string",
          "name": "name_",
          "type": "string"
        },
        {
          "internalType": "string",
          "name": "symbol_",
          "type": "string"
        }
      ],
      "stateMutability": "nonpayable",
      "type": "constructor"
    },
    {
      "anonymous": false,
      "inputs": [
        {
          "indexed": true,
          "internalType": "address",
          "name": "owner",
          "type": "address"
        },
        {
          "indexed": true,
          "internalType": "address",
          "name": "approved",
          "type": "address"
        },
        {
          "indexed": true,
          "internalType": "uint256",
          "name": "tokenId",
          "type": "uint256"
        }
      ],
      "name": "Approval",
      "type": "event"
    },
    {
      "anonymous": false,
      "inputs": [
        {
          "indexed": true,
          "internalType": "address",
          "name": "owner",
          "type": "address"
        },
        {
          "indexed": true,
          "internalType": "address",
          "name": "operator",
          "type": "address"
        },
        {
          "indexed": false,
          "internalType": "bool",
          "name": "approved",
          "type": "bool"
        }
      ],
      "name": "ApprovalForAll",
      "type": "event"
    },
    {
      "anonymous": false,
      "inputs": [
        {
          "indexed": true,
          "internalType": "address",
          "name": "previousOwner",
          "type": "address"
        },
        {
          "indexed": true,
          "internalType": "address",
          "name": "newOwner",
          "type": "address"
        }
      ],
      "name": "OwnershipTransferred",
      "type": "event"
    },
    {
      "anonymous": false,
      "inputs": [
        {
          "indexed": true,
          "internalType": "address",
          "name": "from",
          "type": "address"
        },
        {
          "indexed": true,
          "internalType": "address",
          "name": "to",
          "type": "address"
        },
        {
          "indexed": true,
          "internalType": "uint256",
          "name": "tokenId",
          "type": "uint256"
        }
      ],
      "name": "Transfer",
      "type": "event"
    },
    {
      "inputs": [
        {
          "internalType": "address",
          "name": "to",
          "type": "address"
        },
        {
          "internalType": "uint256",
          "name": "tokenId",
          "type": "uint256"
        }
      ],
      "name": "approve",
      "outputs": [],
      "stateMutability": "nonpayable",
      "type": "function"
    },
    {
      "inputs": [
        {
          "internalType": "address",
          "name": "owner",
          "type": "address"
        }
      ],
      "name": "balanceOf",
      "outputs": [
        {
          "internalType": "uint256",
          "name": "",
          "type": "uint256"
        }
      ],
      "stateMutability": "view",
      "type": "function"
    },
    {
      "inputs": [
        {
          "internalType": "uint256",
          "name": "tokenId",
          "type": "uint256"
        }
      ],
      "name": "getApproved",
      "outputs": [
        {
          "internalType": "address",
          "name": "",
          "type": "address"
        }
      ],
      "stateMutability": "view",
      "type": "function"
    },
    {
      "inputs": [
        {
          "internalType": "address",
          "name": "owner",
          "type": "address"
        },
        {
          "internalType": "address",
          "name": "operator",
          "type": "address"
        }
      ],
      "name": "isApprovedForAll",
      "outputs": [
        {
          "internalType": "bool",
          "name": "",
          "type": "bool"
        }
      ],
      "stateMutability": "view",
      "type": "function"
    },
    {
      "inputs": [
        {
          "internalType": "address",
          "name": "to",
          "type": "address"
        },
        {
          "internalType": "uint256",
          "name": "quantity",
          "type": "uint256"
        }
      ],
      "name": "mint",
      "outputs": [],
      "stateMutability": "nonpayable",
      "type": "function"
    },
    {
      "inputs": [],
      "name": "name",
      "outputs": [
        {
          "internalType": "string",
          "name": "",
          "type": "string"
        }
      ],
      "stateMutability": "view",
      "type": "function"
    },
    {
      "inputs": [],
      "name": "owner",
      "outputs": [
        {
          "internalType": "address",
          "name": "",
          "type": "address"
        }
      ],
      "stateMutability": "view",
      "type": "function"
    },
    {
      "inputs": [
        {
          "internalType": "uint256",
          "name": "tokenId",
          "type": "uint256"
        }
      ],
      "name": "ownerOf",
      "outputs": [
        {
          "internalType": "address",
          "name": "",
          "type": "address"
        }
      ],
      "stateMutability": "view",
      "type": "function"
    },
    {
      "inputs": [],
      "name": "renounceOwnership",
      "outputs": [],
      "stateMutability": "nonpayable",
      "type": "function"
    },
    {
      "inputs": [
        {
          "internalType": "address",
          "name": "from",
          "type": "address"
        },
        {
          "internalType": "address",
          "name": "to",
          "type": "address"
        },
        {
          "internalType": "uint256",
          "name": "tokenId",
          "type": "uint256"
        }
      ],
      "name": "safeTransferFrom",
      "outputs": [],
      "stateMutability": "nonpayable",
      "type": "function"
    },
    {
      "inputs": [
        {
          "internalType": "address",
          "name": "from",
          "type": "address"
        },
        {
          "internalType": "address",
          "name": "to",
          "type": "address"
        },
        {
          "internalType": "uint256",
          "name": "tokenId",
          "type": "uint256"
        },
        {
          "internalType": "bytes",
          "name": "_data",
          "type": "bytes"
        }
      ],
      "name": "safeTransferFrom",
      "outputs": [],
      "stateMutability": "nonpayable",
      "type": "function"
    },
    {
      "inputs": [
        {
          "internalType": "address",
          "name": "operator",
          "type": "address"
        },
        {
          "internalType": "bool",
          "name": "approved",
          "type": "bool"
        }
      ],
      "name": "setApprovalForAll",
      "outputs": [],
      "stateMutability": "nonpayable",
      "type": "function"
    },
    {
      "inputs": [
        {
          "internalType": "bytes4",
          "name": "interfaceId",
          "type": "bytes4"
        }
      ],
      "name": "supportsInterface",
      "outputs": [
        {
          "internalType": "bool",
          "name": "",
          "type": "bool"
        }
      ],
      "stateMutability": "view",
      "type": "function"
    },
    {
      "inputs": [],
      "name": "symbol",
      "outputs": [
        {
          "internalType": "string",
          "name": "",
          "type": "string"
        }
      ],
      "stateMutability": "view",
      "type": "function"
    },
    {
      "inputs": [
        {
          "internalType": "uint256",
          "name": "index",
          "type": "uint256"
        }
      ],
      "name": "tokenByIndex",
      "outputs": [
        {
          "internalType": "uint256",
          "name": "tokenId",
          "type": "uint256"
        }
      ],
      "stateMutability": "view",
      "type": "function"
    },
    {
      "inputs": [
        {
          "internalType": "address",
          "name": "owner",
          "type": "address"
        },
        {
          "internalType": "uint256",
          "name": "index",
          "type": "uint256"
        }
      ],
      "name": "tokenOfOwnerByIndex",
      "outputs": [
        {
          "internalType": "uint256",
          "name": "tokenId",
          "type": "uint256"
        }
      ],
      "stateMutability": "view",
      "type": "function"
    },
    {
      "inputs": [
        {
          "internalType": "uint256",
          "name": "tokenId",
          "type": "uint256"
        }
      ],
      "name": "tokenURI",
      "outputs": [
        {
          "internalType": "string",
          "name": "",
          "type": "string"
        }
      ],
      "stateMutability": "view",
      "type": "function"
    },
    {
      "inputs": [],
      "name": "totalSupply",
      "outputs": [
        {
          "internalType": "uint256",
          "name": "",
          "type": "uint256"
        }
      ],
      "stateMutability": "view",
      "type": "function"
    },
    {
      "inputs": [
        {
          "internalType": "address",
          "name": "from",
          "type": "address"
        },
        {
          "internalType": "address",
          "name": "to",
          "type": "address"
        },
        {
          "internalType": "uint256",
          "name": "tokenId",
          "type": "uint256"
        }
      ],
      "name": "transferFrom",
      "outputs": [],
      "stateMutability": "nonpayable",
      "type": "function"
    },
    {
      "inputs": [
        {
          "internalType": "address",
          "name": "newOwner",
          "type": "address"
        }
      ],
      "name": "transferOwnership",
      "outputs": [],
      "stateMutability": "nonpayable",
      "type": "function"
    }
  ],
  "bytecode": "0x60806040523480156200001157600080fd5b5060405162001e3338038062001e33833981016040819052620000349162000237565b8151829082906200004d906001906020850190620000de565b50805162000063906002906020840190620000de565b505050620000806200007a6200008860201b60201c565b6200008c565b5050620002f1565b3390565b600780546001600160a01b038381166001600160a01b0319831681179093556040519116919082907f8be0079c531659141344cd1fd0a4f28419497f9722a3daafe3b4186f6b6457e090600090a35050565b828054620000ec906200029e565b90600052602060002090601f0160209004810192826200011057600085556200015b565b82601f106200012b57805160ff19168380011785556200015b565b828001600101855582156200015b579182015b828111156200015b5782518255916020019190600101906200013e565b50620001699291506200016d565b5090565b5b808211156200016957600081556001016200016e565b600082601f83011262000195578081fd5b81516001600160401b0380821115620001b257620001b2620002db565b604051601f8301601f19908116603f01168101908282118183101715620001dd57620001dd620002db565b81604052838152602092508683858801011115620001f9578485fd5b8491505b838210156200021c5785820183015181830184015290820190620001fd565b838211156200022d57848385830101525b9695505050505050565b600080604083850312156200024a578182fd5b82516001600160401b038082111562000261578384fd5b6200026f8683870162000184565b9350602085015191508082111562000285578283fd5b50620002948582860162000184565b9150509250929050565b600181811c90821680620002b357607f821691505b60208210811415620002d557634e487b7160e01b600052602260045260246000fd5b50919050565b634e487b7160e01b600052604160045260246000fd5b611b3280620003016000396000f3fe608060405234801561001057600080fd5b506004361061012c5760003560e01c80636352211e116100ad578063a22cb46511610071578063a22cb46514610266578063b88d4fde14610279578063c87b56dd1461028c578063e985e9c51461029f578063f2fde38b146102db57600080fd5b80636352211e1461021f57806370a0823114610232578063715018a6146102455780638da5cb5b1461024d57806395d89b411461025e57600080fd5b806323b872dd116100f457806323b872dd146101c05780632f745c59146101d357806340c10f19146101e657806342842e0e146101f95780634f6ccce71461020c57600080fd5b806301ffc9a71461013157806306fdde0314610159578063081812fc1461016e578063095ea7b31461019957806318160ddd146101ae575b600080fd5b61014461013f366004611727565b6102ee565b60405190151581526020015b60405180910390f35b61016161035b565b604051610150919061180f565b61018161017c36600461175f565b6103ed565b6040516001600160a01b039091168152602001610150565b6101ac6101a73660046116fe565b61047f565b005b6004545b604051908152602001610150565b6101ac6101ce3660046115b4565b610597565b6101b26101e13660046116fe565b6105c8565b6101ac6101f43660046116fe565b610693565b6101ac6102073660046115b4565b6106a9565b6101b261021a36600461175f565b6106c4565b61018161022d36600461175f565b61077f565b6101b2610240366004611568565b610793565b6101ac610864565b6007546001600160a01b0316610181565b610161610878565b6101ac6102743660046116c4565b610887565b6101ac6102873660046115ef565b61094c565b61016161029a36600461175f565b610984565b6101446102ad366004611582565b6001600160a01b03918216600090815260066020908152604080832093909416825291909152205460ff1690565b6101ac6102e9366004611568565b610a59565b60006001600160e01b031982166380ac58cd60e01b148061031f57506001600160e01b03198216635b5e139f60e01b145b8061033a57506001600160e01b0319821663780e9d6360e01b145b8061035557506301ffc9a760e01b6001600160e01b03198316145b92915050565b60606001805461036a9061193a565b80601f01602080910402602001604051908101604052809291908181526020018280546103969061193a565b80156103e35780601f106103b8576101008083540402835291602001916103e3565b820191906000526020600020905b8154815290600101906020018083116103c657829003601f168201915b5050505050905090565b60006103fa826004541190565b6104635760405162461bcd60e51b815260206004820152602f60248201527f4552433732315073693a20617070726f76656420717565727920666f72206e6f60448201526e3732bc34b9ba32b73a103a37b5b2b760891b60648201526084015b60405180910390fd5b506000908152600560205260409020546001600160a01b031690565b600061048a8261077f565b9050806001600160a01b0316836001600160a01b031614156104fa5760405162461bcd60e51b8152602060048201526024808201527f4552433732315073693a20617070726f76616c20746f2063757272656e74206f6044820152633bb732b960e11b606482015260840161045a565b336001600160a01b0382161480610516575061051681336102ad565b6105885760405162461bcd60e51b815260206004820152603b60248201527f4552433732315073693a20617070726f76652063616c6c6572206973206e6f7460448201527f206f776e6572206e6f7220617070726f76656420666f7220616c6c0000000000606482015260840161045a565b6105928383610ad2565b505050565b6105a13382610b40565b6105bd5760405162461bcd60e51b815260040161045a90611877565b610592838383610c2f565b60008060005b60045481101561063e576105e3816004541190565b801561060857506105f38161077f565b6001600160a01b0316856001600160a01b0316145b1561062c578382141561061e5791506103559050565b8161062881611975565b9250505b8061063681611975565b9150506105ce565b5060405162461bcd60e51b8152602060048201526024808201527f4552433732315073693a206f776e657220696e646578206f7574206f6620626f604482015263756e647360e01b606482015260840161045a565b61069b610e1b565b6106a58282610e75565b5050565b6105928383836040518060200160405280600081525061094c565b60006106cf60045490565b821061072b5760405162461bcd60e51b815260206004820152602560248201527f4552433732315073693a20676c6f62616c20696e646578206f7574206f6620626044820152646f756e647360d81b606482015260840161045a565b6000805b60045481101561077857610744816004541190565b156107665783821415610758579392505050565b8161076281611975565b9250505b8061077081611975565b91505061072f565b5050919050565b60008061078b83610e8f565b509392505050565b60006001600160a01b0382166108015760405162461bcd60e51b815260206004820152602d60248201527f4552433732315073693a2062616c616e636520717565727920666f722074686560448201526c207a65726f206164647265737360981b606482015260840161045a565b6000805b60045481101561085d5761081a816004541190565b1561084d576108288161077f565b6001600160a01b0316846001600160a01b0316141561084d5761084a82611975565b91505b61085681611975565b9050610805565b5092915050565b61086c610e1b565b6108766000610f28565b565b60606002805461036a9061193a565b6001600160a01b0382163314156108e05760405162461bcd60e51b815260206004820152601c60248201527f4552433732315073693a20617070726f766520746f2063616c6c657200000000604482015260640161045a565b3360008181526006602090815260408083206001600160a01b03871680855290835292819020805460ff191686151590811790915590519081529192917f17307eab39ab6107e8899845ad3d59bd9653f200f220920489ca2b5937696c31910160405180910390a35050565b6109563383610b40565b6109725760405162461bcd60e51b815260040161045a90611877565b61097e84848484610f7a565b50505050565b6060610991826004541190565b6109f05760405162461bcd60e51b815260206004820152602a60248201527f4552433732315073693a2055524920717565727920666f72206e6f6e657869736044820152693a32b73a103a37b5b2b760b11b606482015260840161045a565b6000610a0760408051602081019091526000815290565b90506000815111610a275760405180602001604052806000815250610a52565b80610a3184610faf565b604051602001610a429291906117a3565b6040516020818303038152906040525b9392505050565b610a61610e1b565b6001600160a01b038116610ac65760405162461bcd60e51b815260206004820152602660248201527f4f776e61626c653a206e6577206f776e657220697320746865207a65726f206160448201526564647265737360d01b606482015260840161045a565b610acf81610f28565b50565b600081815260056020526040902080546001600160a01b0319166001600160a01b0384169081179091558190610b078261077f565b6001600160a01b03167f8c5be1e5ebec7d5bd14f71427d1e84f3dd0314c0f7b2291e5b200ac8c7c3b92560405160405180910390a45050565b6000610b4d826004541190565b610bb15760405162461bcd60e51b815260206004820152602f60248201527f4552433732315073693a206f70657261746f7220717565727920666f72206e6f60448201526e3732bc34b9ba32b73a103a37b5b2b760891b606482015260840161045a565b6000610bbc8361077f565b9050806001600160a01b0316846001600160a01b03161480610bf75750836001600160a01b0316610bec846103ed565b6001600160a01b0316145b80610c2757506001600160a01b0380821660009081526006602090815260408083209388168352929052205460ff165b949350505050565b600080610c3b83610e8f565b91509150846001600160a01b0316826001600160a01b031614610cb55760405162461bcd60e51b815260206004820152602c60248201527f4552433732315073693a207472616e73666572206f6620746f6b656e2074686160448201526b3a1034b9903737ba1037bbb760a11b606482015260840161045a565b6001600160a01b038416610d1b5760405162461bcd60e51b815260206004820152602760248201527f4552433732315073693a207472616e7366657220746f20746865207a65726f206044820152666164647265737360c81b606482015260840161045a565b610d26600084610ad2565b6000610d338460016118cb565b600881901c600090815260208190526040902054909150600160ff1b60ff83161c16158015610d63575060045481105b15610d9957600081815260036020526040812080546001600160a01b0319166001600160a01b038916179055610d9990826110c9565b600084815260036020526040902080546001600160a01b0319166001600160a01b038716179055818414610dd257610dd26000856110c9565b83856001600160a01b0316876001600160a01b03167fddf252ad1be2c89b69c2b068fc378daa952ba7f163c4a11628f55a4df523b3ef60405160405180910390a4505050505050565b6007546001600160a01b031633146108765760405162461bcd60e51b815260206004820181905260248201527f4f776e61626c653a2063616c6c6572206973206e6f7420746865206f776e6572604482015260640161045a565b6106a58282604051806020016040528060008152506110f5565b600080610e9d836004541190565b610efe5760405162461bcd60e51b815260206004820152602c60248201527f4552433732315073693a206f776e657220717565727920666f72206e6f6e657860448201526b34b9ba32b73a103a37b5b2b760a11b606482015260840161045a565b610f0783611110565b6000818152600360205260409020546001600160a01b031694909350915050565b600780546001600160a01b038381166001600160a01b0319831681179093556040519116919082907f8be0079c531659141344cd1fd0a4f28419497f9722a3daafe3b4186f6b6457e090600090a35050565b610f85848484610c2f565b610f9384848460018561111c565b61097e5760405162461bcd60e51b815260040161045a90611822565b606081610fd35750506040805180820190915260018152600360fc1b602082015290565b8160005b8115610ffd5780610fe781611975565b9150610ff69050600a836118e3565b9150610fd7565b60008167ffffffffffffffff81111561102657634e487b7160e01b600052604160045260246000fd5b6040519080825280601f01601f191660200182016040528015611050576020820181803683370190505b5090505b8415610c27576110656001836118f7565b9150611072600a86611990565b61107d9060306118cb565b60f81b8183815181106110a057634e487b7160e01b600052603260045260246000fd5b60200101906001600160f81b031916908160001a9053506110c2600a866118e3565b9450611054565b600881901c600090815260209290925260409091208054600160ff1b60ff9093169290921c9091179055565b600454611102848461125f565b610f9360008583868661111c565b600061035581836113c4565b60006001600160a01b0385163b1561125257506001835b61113d84866118cb565b81101561124c57604051630a85bd0160e11b81526001600160a01b0387169063150b7a02906111769033908b90869089906004016117d2565b602060405180830381600087803b15801561119057600080fd5b505af19250505080156111c0575060408051601f3d908101601f191682019092526111bd91810190611743565b60015b61121a573d8080156111ee576040519150601f19603f3d011682016040523d82523d6000602084013e6111f3565b606091505b5080516112125760405162461bcd60e51b815260040161045a90611822565b805181602001fd5b82801561123757506001600160e01b03198116630a85bd0160e11b145b9250508061124481611975565b915050611133565b50611256565b5060015b95945050505050565b600454816112bd5760405162461bcd60e51b815260206004820152602560248201527f4552433732315073693a207175616e74697479206d7573742062652067726561604482015264074657220360dc1b606482015260840161045a565b6001600160a01b03831661131f5760405162461bcd60e51b815260206004820152602360248201527f4552433732315073693a206d696e7420746f20746865207a65726f206164647260448201526265737360e81b606482015260840161045a565b816004600082825461133191906118cb565b9091555050600081815260036020526040812080546001600160a01b0319166001600160a01b03861617905561136790826110c9565b805b61137383836118cb565b81101561097e5760405181906001600160a01b038616906000907fddf252ad1be2c89b69c2b068fc378daa952ba7f163c4a11628f55a4df523b3ef908290a4806113bc81611975565b915050611369565b600881901c60008181526020849052604081205490919060ff808516919082181c8015611406576113f4816114bc565b60ff168203600884901b1793506114b3565b600083116114735760405162461bcd60e51b815260206004820152603460248201527f4269744d6170733a205468652073657420626974206265666f7265207468652060448201527334b73232bc103237b2b9b713ba1032bc34b9ba1760611b606482015260840161045a565b5060001990910160008181526020869052604090205490919080156114ae5761149b816114bc565b60ff0360ff16600884901b1793506114b3565b611406565b50505092915050565b600060405180610120016040528061010081526020016119fd610100913960f87e818283848586878898a8b8c8d8e8f929395969799a9b9d9e9faaeb6bedeeff61150585611534565b02901c8151811061152657634e487b7160e01b600052603260045260246000fd5b016020015160f81c92915050565b600080821161154257600080fd5b5060008190031690565b80356001600160a01b038116811461156357600080fd5b919050565b600060208284031215611579578081fd5b610a528261154c565b60008060408385031215611594578081fd5b61159d8361154c565b91506115ab6020840161154c565b90509250929050565b6000806000606084860312156115c8578081fd5b6115d18461154c565b92506115df6020850161154c565b9150604084013590509250925092565b60008060008060808587031215611604578081fd5b61160d8561154c565b935061161b6020860161154c565b925060408501359150606085013567ffffffffffffffff8082111561163e578283fd5b818701915087601f830112611651578283fd5b813581811115611663576116636119d0565b604051601f8201601f19908116603f0116810190838211818310171561168b5761168b6119d0565b816040528281528a60208487010111156116a3578586fd5b82602086016020830137918201602001949094529598949750929550505050565b600080604083850312156116d6578182fd5b6116df8361154c565b9150602083013580151581146116f3578182fd5b809150509250929050565b60008060408385031215611710578182fd5b6117198361154c565b946020939093013593505050565b600060208284031215611738578081fd5b8135610a52816119e6565b600060208284031215611754578081fd5b8151610a52816119e6565b600060208284031215611770578081fd5b5035919050565b6000815180845261178f81602086016020860161190e565b601f01601f19169290920160200192915050565b600083516117b581846020880161190e565b8351908301906117c981836020880161190e565b01949350505050565b6001600160a01b038581168252841660208201526040810183905260806060820181905260009061180590830184611777565b9695505050505050565b602081526000610a526020830184611777565b60208082526035908201527f4552433732315073693a207472616e7366657220746f206e6f6e20455243373260408201527418a932b1b2b4bb32b91034b6b83632b6b2b73a32b960591b606082015260800190565b60208082526034908201527f4552433732315073693a207472616e736665722063616c6c6572206973206e6f6040820152731d081bdddb995c881b9bdc88185c1c1c9bdd995960621b606082015260800190565b600082198211156118de576118de6119a4565b500190565b6000826118f2576118f26119ba565b500490565b600082821015611909576119096119a4565b500390565b60005b83811015611929578181015183820152602001611911565b8381111561097e5750506000910152565b600181811c9082168061194e57607f821691505b6020821081141561196f57634e487b7160e01b600052602260045260246000fd5b50919050565b6000600019821415611989576119896119a4565b5060010190565b60008261199f5761199f6119ba565b500690565b634e487b7160e01b600052601160045260246000fd5b634e487b7160e01b600052601260045260246000fd5b634e487b7160e01b600052604160045260246000fd5b6001600160e01b031981168114610acf57600080fdfe0001020903110a19042112290b311a3905412245134d2a550c5d32651b6d3a7506264262237d468514804e8d2b95569d0d495ea533a966b11c886eb93bc176c9071727374353637324837e9b47af86c7155181ad4fd18ed32c9096db57d59ee30e2e4a6a5f92a6be3498aae067ddb2eb1d5989b56fd7baf33ca0c2ee77e5caf7ff0810182028303840444c545c646c7425617c847f8c949c48a4a8b087b8c0c816365272829aaec650acd0d28fdad4e22d6991bd97dfdcea58b4d6f29fede4f6fe0f1f2f3f4b5b6b607b8b93a3a7b7bf357199c5abcfd9e168bcdee9b3f1ecf5fd1e3e5a7a8aa2b670c4ced8bbe8f0f4fc3d79a1c3cde7effb78cce6facbf9f8a2646970667358221220fe73c3936c945d87ff3cf843f8559836fc09a19fefdda5f1000e960e1b4ca1b064736f6c63430008040033",
  "linkReferences": {},
  "deployedLinkReferences": {}
}